:1028000000800020A52800009D2800009D280000D1
:1028100080B51448144B21E05C689968DD688C42EF
:102820000CD0002205E0A6180832D6E9008941E95B
:1028300002898C460831AA42F5D101E004EB050C6F
:102840001C696146002204E008320026002741E9A5
:1028500002670831A242F7D1143301380028DBD1D6
:102860000AF096FC01000000C0DB000048F2701383
:10287000C1F6FF731A780AB901201870704700BFBB
:1028800048F20810C1F6FF7008B503682BB140F29A
:102890000003C0F2000303B1984708BD80B400AF45
:1028A000FEE700BF014B1A70FFF7B2FFBC76004095
:1028B00080B582B000AF4EF60C53CEF2000340F26A
:1028C0000042C0F2FA521A604EF61453CEF20003E0
:1028D0004EF61452CEF20002126842F400721A60F0
:1028E0004FF000037B6019E079687B68032B07D801
:1028F0007A6842F60003C0F2000353F8223003E086
:1029000042F69D03C0F2000348F20002C1F6FF72D6
:1029100042F821307B6803F101037B607B682F2B39
:10292000E2D947F2BC63C4F200031B78DAB248F67E
:102930007533C1F6FF731A704EF60853CEF20003DA
:1029400048F20002C1F6FF721A600AF029F803F09B
:10295000CBF948F20013C1F6FF734FF000021A6082
:1029600007F10807BD4680BD80B500AF48F271137E
:10297000C1F6FF731B78002B30D000F033F948F21A
:102980007813C1F6FF731B78002B0CD048F2781334
:10299000C1F6FF731B7803F1FF33DAB248F2781304
:1029A000C1F6FF731A7048F28F13C1F6FF731B78DC
:1029B000002B0CD048F28F13C1F6FF731B7803F184
:1029C000FF33DAB248F28F13C1F6FF731A7048F280
:1029D0007113C1F6FF734FF000021A7080BD00BF83
:1029E00090B583B000AF48F27413C1F6FF731B7843
:1029F000002B06D148F27413C1F6FF734FF00102A9
:102A00001A7048F27413C1F6FF731B78012B38D18A
:102A10004FF00003FB8048F27413C1F6FF734FF0D0
:102A200002021A704FF00003FB800BE0FA8848F2B4
:102A3000AC23C1F6FF734FF000019954FB8803F1FA
:102A40000103FB80FA8840F21F139A42EED94FF03F
:102A50000003FB800BE0FA8848F2EC13C1F6FF7329
:102A60004FF000019954FB8803F10103FB80FB88C0
:102A7000BF2BF0D948F2E813C1F6FF734FF0C00244
:102A80001A8005F04BFE0346002B00F0A7804FF0A4
:102A9000010005F065FE03461A4648F20C13C1F624
:102AA000FF731A7048F20C13C1F6FF731B78022BE8
:102AB0000DD146F27243C4F2000346F27242C4F2F0
:102AC00000021278D2B202F0FD021A7014E048F24D
:102AD0000C13C1F6FF731B78012B0DD146F2724324
:102AE000C4F2000346F27242C4F200021278D2B27B
:102AF00042F00202D2B21A7048F20C13C1F6FF7310
:102B00001B78002B17D046F20E03C4F200031B788B
:102B1000DBB203F00F03012B0DD14FF0010048F29F
:102B2000AC21C1F6FF714FF4907206F031F84FF00E
:102B3000010006F0B3F848F20C13C1F6FF735C789D
:102B40004FF0020005F00CFE03469C423CD04FF0D3
:102B5000020005F005FE03461A4648F20C13C1F6C2
:102B6000FF735A7048F20C13C1F6FF735B78002BA9
:102B70002AD046F21E03C4F200031B78DBB203F036
:102B80000F03012B20D148F2E813C1F6FF734FF079
:102B9000C0021A8048F2E813C1F6FF731B884FF099
:102BA000020048F2EC11C1F6FF711A4605F00CFF65
:102BB00048F2E813C1F6FF731B884FF002004FF094
:102BC00000011A4605F000FF4FF0040048F27611AC
:102BD000C1F6FF714FF0010205F0F6FE07F10C0798
:102BE000BD4690BD80B582B000AF4FF00403FB71CD
:102BF00048F2DC13C1F6FF731B78002B78D005F088
:102C000063FD0346002B07D048F27213C1F6FF7331
:102C10004FF000021A700CE048F27213C1F6FF7315
:102C20001B7803F10103DAB248F27213C1F6FF73A5
:102C30001A7048F27213C1F6FF731B78052B58D92E
:102C400005F060FD0346002B4AD048F21613C1F68A
:102C5000FF731B78002B08D148F21613C1F6FF73DF
:102C60004FF001021A7000F02FFF09F001F801F097
:102C70004BFA10E04FF0640004F04AF805F086FAD1
:102C800003466FEA0303DBB2184605F05DFAFB79F1
:102C900003F1FF33FB71FB79002BEBD107F0B8FA9E
:102CA00004F088F94FF000004FF0400104F026FDD9
:102CB00004F028FB07F07CFB08F0F0FF01F044FA79
:102CC00005F020FD0346002B0AD048F6DC33C1F6A0
:102CD000FF734FF001021A704FF0000008F046F841
:102CE00048F27213C1F6FF734FF000021A7000E051
:102CF00000BF07F10807BD4680BD00BF80B500AF2B
:102D000048F2DC13C1F6FF731B78002B13D14FF090
:102D100000004FF0020105F04BFA48F27413C1F6BF
:102D2000FF734FF001021A7048F27313C1F6FF737C
:102D30004FF001021A7080BD80B500AF62B601F09D
:102D40007BFF44F2B120C0F2000002F027F803F04C
:102D500007FF4FF003004FF0030104F067F880BD58
:102D600080B500AF00F004F801F060F880BD00BF4E
:102D700080B500AF00F02CF805F0C4FC0346002B32
:102D800024D04FF0040005F0FDFC0346012B1DD1BB
:102D900048F27713C1F6FF731A7848F27613C1F63A
:102DA000FF731B789A4211D048F27613C1F6FF7375
:102DB0001A7848F27713C1F6FF731A704FF00400C7
:102DC0004FF000014FF0010205F0FEFD80BD00BF95
:102DD00080B500AF01F01EFF0346002B3BD148F247
:102DE0007513C1F6FF731B7803F00403002B14D195
:102DF00048F27513C1F6FF731B7843F00403DAB28F
:102E000048F27513C1F6FF731A7048F27813C1F6D1
:102E1000FF734FF004021A7044E048F27513C1F6D4
:102E2000FF731B7803F00403002B38D048F27813AB
:102E3000C1F6FF731B78002B33D148F27613C1F62D
:102E4000FF731B7843F00103DAB248F27613C1F640
:102E5000FF731A7026E048F27513C1F6FF731B78F2
:102E600003F00403002B1DD048F27513C1F6FF7365
:102E70001B781A4602F0FB0248F27513C1F6FF7385
:102E80001A7048F27613C1F6FF731B781A4602F0E7
:102E9000FE0248F27613C1F6FF731A7002E000BF1B
:102EA00000E000BF80BD00BF90B583B000AF4FF021
:102EB000000003F073FD43F20060C0F26E1003F0F7
:102EC0005FFF4FF0640003F047FF03F059FA44F24C
:102ED0002123C4F200034FF000021A7001F09CFBA2
:102EE00048F2CC33C1F6FF734FF001021A704FF075
:102EF000020003F057FA4FF001004FF001014FF4C8
:102F000000524FF4804301F0D7FC03461A4648F2C2
:102F1000DD33C1F6FF731A704FF002004FF001016C
:102F20004FF480424FF4005302F01EFC03461A4651
:102F300048F2E833C1F6FF731A704FF00003FB71DB
:102F400017E0FC7903F0CEF803461A4648F2E03366
:102F5000C1F6FF731A55FC7903F0C4F803461A460C
:102F600048F2D433C1F6FF731A55FB7903F101031C
:102F7000FB71FB79072BE4D94FF00003FB7179E07B
:102F8000FA7948F2E033C1F6FF73995CFB7903F1FB
:102F900001024FEAE2734FEA53731A4402F0070248
:102FA000C3EB02031A4648F2E033C1F6FF739B5CA1
:102FB00008464FF090011A464FF0050303F004F95C
:102FC000FA7948F2D433C1F6FF73995CFB7903F1C7
:102FD00001024FEAE2734FEA53731A4402F0070208
:102FE000C3EB02031A4648F2D433C1F6FF739B5C6D
:102FF00008464FF060011A464FF0060303F0E4F86C
:10300000FA7948F2E033C1F6FF739A5CFB7919460E
:103010004FEAC1010B444FEA031399B248F2F0336F
:10302000C1F6FF739BB20B449BB21046194646F2A1
:10303000414203F003F9FA7948F2D433C1F6FF7341
:103040009A5CFB7919464FEA41010B444FEA43135E
:1030500099B248F67403C1F6FF739BB20B449BB25E
:1030600010464CF2A8711A4603F0E8F8FB7903F118
:103070000103FB71FB79072B82D94FF001004FF060
:1030800001014FF480424FF4804301F0FBFE034600
:103090001A4648F2DE33C1F6FF731A7003F022F8C5
:1030A00003461A4648F2CD33C1F6FF731A7048F250
:1030B000CD33C1F6FF731A7848F2CD33C1F6FF73F2
:1030C0001B7810464FF001011A464FF0000303F041
:1030D0007BF848F2CD33C1F6FF731B78184646F2F1
:1030E000514146F2404203F0A9F848F2DE33C1F6FE
:1030F000FF731A7848F2CD33C1F6FF731B78104680
:10310000194602F049FF4FF001004FF000014FF463
:1031100000524FF4005301F03BFD03461A4648F6B7
:103120007433C1F6FF731A7002F0DCFF03461A46CF
:1031300048F2D033C1F6FF731A7002F0D3FF034692
:103140001A4648F2D033C1F6FF735A704FF00100AF
:103150004FF000014FF400524FF4005301F0B6FC61
:1031600003461A4648F2DC33C1F6FF731A7002F0C8
:10317000B9FF03461A4648F2EC33C1F6FF731A70E2
:1031800002F0B0FF03461A4648F2EC33C1F6FF7373
:103190005A7044F2E120C0F2000001F0CFFB44F28B
:1031A0002520C0F2000002F021FB44F20520C0F20D
:1031B000000001F037FC46F29043C4F2000346F2EF
:1031C0009042C4F200021278D2B242F00C02D2B2A3
:1031D0001A7001F009FF08F0CBFC00F08DFE44F2FC
:1031E0006930C0F2000008F06FFC4CF2B473C4F216
:1031F00000034FF00C021A704CF2B073C4F20003DB
:103200004FF055021A7002F007FA07F10C07BD469D
:1032100090BD00BF80B582B000AF48F29013C1F6F8
:10322000FF731B78012B40F09C8148F27A13C1F6A2
:10323000FF731B78002B14D048F28213C1F6FF7382
:103240004FF000021A8048F27E13C1F6FF734FF070
:1032500000021A8048F27A13C1F6FF734FF00002A1
:103260001A7048F67433C1F6FF731B78184602F0E3
:10327000ABFD4FF0010005F09FFA0346BB8001F063
:10328000A5FB48F27E13C1F6FF731A88BB8813446E
:103290009AB248F27E13C1F6FF731A8001F08AFBDE
:1032A00048F28213C1F6FF731B881A46BB88134489
:1032B000B3F5906F76D948F28213C1F6FF731B887D
:1032C000C3F59063FB8048F2D033C1F6FF731978E1
:1032D00048F2D033C1F6FF735B78FA88084611468E
:1032E0001A464FF0230302F06FFF48F2D033C1F6C5
:1032F000FF735A78B988FB88C3EB01039BB2104671
:1033000019464FF0FE024FF0030302F05DFF48F252
:10331000D033C1F6FF73197848F2AC23C1F6FF73BE
:103320009AB248F28213C1F6FF73188848F2F0335C
:10333000C1F6FF739BB203449BB2084611461A467E
:1033400002F07CFF48F2D033C1F6FF73597848F29F
:10335000AC23C1F6FF739AB2FB8813449AB248F2C9
:10336000F033C1F6FF739BB2084611461A4602F0CD
:1033700065FF48F67433C1F6FF731A7848F2D0330C
:10338000C1F6FF731B781046194602F005FEBA8895
:10339000FB88C3EB02039AB248F28213C1F6FF73B3
:1033A0001A8052E048F2D033C1F6FF731A78BB8816
:1033B000104619464FF0FE024FF0030302F004FFDF
:1033C00048F2D033C1F6FF73197848F2AC23C1F646
:1033D000FF739AB248F28213C1F6FF73188848F25D
:1033E000F033C1F6FF739BB203449BB2084611460B
:1033F0001A4602F023FF48F67433C1F6FF731A78B9
:1034000048F2D033C1F6FF731B781046194602F01C
:10341000C3FD48F28213C1F6FF731A88BB881344B8
:103420009AB248F28213C1F6FF731A8048F28213EF
:10343000C1F6FF731B88B3F5906F06D148F2821373
:10344000C1F6FF734FF000021A8048F67433C1F6DC
:10345000FF731B7818464FF0010102F07DFC48F61F
:103460007433C1F6FF731B7818464FF0010102F068
:10347000B5FD48F27B13C1F6FF731B78002B70D1AA
:1034800048F27E13C1F6FF731A8840F23F239A4236
:1034900067D948F27B13C1F6FF734FF001021A702F
:1034A00001F090F848F2DD33C1F6FF731B784FEA64
:1034B000031247F21003C4F2000313441B7ADBB279
:1034C00003F00203002BEDD148F2DD33C1F6FF73A8
:1034D0001B7818464FF0040102F080FD48F2DD33FE
:1034E000C1F6FF731B7818464FF0010102F034FC5F
:1034F00048F2DD33C1F6FF731B784FEA031247F23F
:103500001003C4F2000313441B78DBB203F0010381
:10351000DBB2002BECD148F2DD33C1F6FF731A7831
:1035200048F2E033C1F6FF731B781046194602F0EB
:1035300033FD48F2DD33C1F6FF731B7818464FF0B8
:10354000010102F009FC01F0DFFC48F2DE33C1F6B4
:10355000FF731B7818464FF0010102F0FDFB00F0ED
:10356000C9FF07F10807BD4680BD00BF80B582B026
:1035700000AF4FF0C003FB8048F29013C1F6FF7319
:103580001B78012B40F0A58148F28413C1F6FF732C
:103590001B78002B1BD048F28C13C1F6FF734FF041
:1035A00000021A8048F28613C1F6FF734FF0000242
:1035B0001A8048F28413C1F6FF734FF000021A70AC
:1035C00048F29113C1F6FF734FF000021A7048F2EF
:1035D000DC33C1F6FF731B78184602F0F5FB48F2A6
:1035E000CC33C1F6FF731B78012B07D0022B28D0F8
:1035F000002B29D14FF0C003FB8025E048F2911346
:10360000C1F6FF731B78092B0AD14FF0B403FB807E
:1036100048F29113C1F6FF734FF000021A7013E0E5
:103620004FF0B003FB8048F29113C1F6FF731B7893
:1036300003F10103DAB248F29113C1F6FF731A7075
:1036400002E04FF08003FB8048F2E813C1F6FF73FD
:10365000FA881A8002F012F948F28613C1F6FF7355
:103660001A88FB8813449AB248F28613C1F6FF7396
:103670001A8002F0F7F848F28C13C1F6FF731B882A
:103680001A46FB881344B3F5407F76D948F28C1371
:10369000C1F6FF731B88C3F54073BB8048F2EC335F
:1036A000C1F6FF73197848F2EC33C1F6FF735B780B
:1036B000BA88084611461A464FF0230302F084FDEB
:1036C00048F2EC33C1F6FF735A78F988BB88C3EB34
:1036D00001039BB2104619464FF0FE024FF007035C
:1036E00002F072FD48F2EC33C1F6FF73197848F22C
:1036F0008C13C1F6FF731A8848F67403C1F6FF7382
:103700009BB213449AB248F2EC13C1F6FF739BB21A
:10371000084611461A4602F091FD48F2EC33C1F614
:10372000FF73597848F67403C1F6FF739AB248F2F2
:10373000EC13C1F6FF7398B2BB8803449BB20846F2
:1037400011461A4602F07AFD48F2DC33C1F6FF73E7
:103750001A7848F2EC33C1F6FF731B78104619460D
:1037600002F01AFCFA88BB88C3EB02039AB248F253
:103770008C13C1F6FF731A8052E048F2EC33C1F6A5
:10378000FF731A78FB88104619464FF0FE024FF07F
:10379000070302F019FD48F2EC33C1F6FF73197804
:1037A00048F28C13C1F6FF731A8848F67403C1F609
:1037B000FF739BB213449AB248F2EC13C1F6FF7345
:1037C0009BB2084611461A4602F038FD48F2DC3337
:1037D000C1F6FF731A7848F2EC33C1F6FF731B7819
:1037E0001046194602F0D8FB48F28C13C1F6FF735D
:1037F0001A88FB8813449AB248F28C13C1F6FF73FF
:103800001A8048F28C13C1F6FF731B88B3F5407F12
:1038100006D148F28C13C1F6FF734FF000021A80F4
:1038200048F2DC33C1F6FF731B7818464FF00101F4
:1038300002F092FA48F2DC33C1F6FF731B781846A7
:103840004FF0010102F0CAFB48F28513C1F6FF7385
:103850001B78002B3DD148F28613C1F6FF731A88FE
:1038600040F27F139A4234D948F28513C1F6FF73B0
:103870004FF001021A7048F2E833C1F6FF731B786B
:1038800018464FF0040102F0A9FB48F2E833C1F6F4
:10389000FF731B7818464FF0010102F05DFA48F201
:1038A000E833C1F6FF731A7848F2D433C1F6FF73D8
:1038B0001B781046194602F06FFB48F2E833C1F658
:1038C000FF731B7818464FF0010102F045FA01F032
:1038D00069FB07F10807BD4680BD00BF80B500AF9A
:1038E00048F27B13C1F6FF731B78002B33D000F036
:1038F0002DFE4FF0140003F02FFA01F033FB48F2D5
:10390000DD33C1F6FF731B78184602F05DFA48F20A
:10391000DE33C1F6FF731B78184602F055FA48F201
:103920007A13C1F6FF734FF001021A7048F27C134C
:10393000C1F6FF734FF000021A8048F28013C1F6FF
:10394000FF734FF000021A8048F27B13C1F6FF7339
:103950004FF000021A7080BD80B500AF48F28513A9
:10396000C1F6FF731B78002B2ED048F2E833C1F666
:10397000FF731B7818464FF0040102F02FFB48F24A
:103980008413C1F6FF734FF001021A7048F28A13D4
:10399000C1F6FF734FF001021A7048F21413C1F61A
:1039A000FF734FF440721A8048F28813C1F6FF7318
:1039B0004FF000021A8048F28513C1F6FF734FF0F2
:1039C00000021A7001F010FB80BD00BF80B582B00C
:1039D00000AF0346FB71FFF781FFFFF7BDFF4FF01C
:1039E000000002F0DBFF43F20060C0F26E1003F053
:1039F000C7F948F2CC33C1F6FF73FA791A70FB7934
:103A0000184600F039FEFB79012B12D0022B02D0B0
:103A1000002B07D013E04FF002004FF0000101F03F
:103A200003FB0CE04FF001004FF0000101F0FCFA45
:103A300005E04FF001004FF0000101F0F5FA4FF002
:103A4000010002F0ABFF4AF24050C0F2AE2003F09A
:103A500097F948F29013C1F6FF734FF001021A7004
:103A600000F0CAFB07F10807BD4680BD80B500AF76
:103A70004FF00C0001F06CF84FF00C0000F0B2FFBA
:103A80004FF00C0000F098FC4FF00C0001F0DAF958
:103A900045F21E03C4F200031B78DBB203F01003EF
:103AA000002B0DD145F21E03C4F2000345F21E02A5
:103AB000C4F200021278D2B242F00102D2B21A70FD
:103AC00000F0CEFC80BD00BF80B500AF4FF000001D
:103AD00002F064FF43F20060C0F26E1003F050F990
:103AE0004FF0640003F038F902F04AFC00F0CEFC1D
:103AF0004FF0020001F02CF84FF0020000F072FFCE
:103B00004FF0020000F058FC4FF0020001F09AF96B
:103B100048F29213C1F6FF734FF000021A7048F298
:103B20009013C1F6FF734FF000021A7048F217139A
:103B3000C1F6FF734FF0FF321A7080BD80B582B0BE
:103B400000AF48F6DE33C1F6FF731B78DBB2002B03
:103B500040F0CA8048F6BF33C1F6FF731B78DBB272
:103B6000002B00F0C18048F28513C1F6FF731B786B
:103B7000002B07D148F6BF33C1F6FF731B78DBB2C9
:103B8000012B10D048F27B13C1F6FF731B78002B7A
:103B900040F0A38048F6BF33C1F6FF731B78DBB259
:103BA000022B40F09A804FF00003FB7148F6BF33C0
:103BB000C1F6FF731B78DBB2194648F6A432C1F692
:103BC000FF720B464FEA43030B44134403F1020315
:103BD0001B78DBB24FEA034048F6BF33C1F6FF73F0
:103BE0001B78DBB2194648F6A432C1F6FF720B46C9
:103BF0004FEA43030B44134403F101031B78DBB288
:103C00004FEA032340EA030048F6BF33C1F6FF73CF
:103C10001B78DBB2194648F6A432C1F6FF720B4698
:103C20004FEA43030B4413441B78DBB240EA03031F
:103C30003B6048F6BF33C1F6FF734FF000021A70C5
:103C40003A684BF680339A4203D14FF00003FB7180
:103C50000FE03A684AF644439A4203D14FF0010319
:103C6000FB7106E03B68B3F5FA4F02D14FF0020357
:103C7000FB7148F21713C1F6FF731B78FA799A4269
:103C800023D048F21713C1F6FF73FA791A7048F27D
:103C90001613C1F6FF731B78002B07D048F28E1362
:103CA000C1F6FF734FF001021A700EE048F21713CD
:103CB000C1F6FF731B781846FFF788FE48F28E1393
:103CC000C1F6FF734FF000021A7048F28F13C1F66D
:103CD000FF734FF000021A7006E048F6BF33C1F6DA
:103CE000FF734FF000021A7007F10807BD4680BD50
:103CF00080B500AF48F21613C1F6FF731B78002B96
:103D000048D148F21613C1F6FF731B78002B41D13E
:103D100048F6C833C1F6FF735B78DBB2002B39D1AC
:103D200048F6C833C1F6FF739B78DBB2002B31D164
:103D300048F28F13C1F6FF731B78002B06D148F2AF
:103D40008F13C1F6FF734FF064021A7048F28F139D
:103D5000C1F6FF731B78012B1CD148F21613C1F674
:103D6000FF734FF001021A70FFF7AEFE45F21E031B
:103D7000C4F2000345F21E02C4F200021278D2B26D
:103D800002F0FE021A7048F29213C1F6FF734FF070
:103D900000021A7048F21613C1F6FF731B78012B4C
:103DA00043D148F21613C1F6FF731B78012B3CD1A7
:103DB00048F6C833C1F6FF735B78DBB2002B07D13E
:103DC00048F6C833C1F6FF739B78DBB2002B2CD0CA
:103DD00048F21613C1F6FF734FF000021A70FFF796
:103DE00045FE45F21E03C4F2000345F21E02C4F272
:103DF00000021278D2B242F00102D2B21A7048F236
:103E00008E13C1F6FF731B78002B0ED048F21713E8
:103E1000C1F6FF731B781846FFF7D8FD48F28E13E2
:103E2000C1F6FF734FF000021A7080BD80B400AF7E
:103E300048F28513C1F6FF731B78002B06D148F2B8
:103E40007B13C1F6FF731B78002B0DD045F21903CD
:103E5000C4F2000345F21902C4F200021278D2B291
:103E600002F0FE021A700DE045F21903C4F20003DD
:103E700045F21902C4F200021278D2B242F00102F5
:103E8000D2B21A70BD4680BC704700BF80B483B008
:103E900000AF48F28A13C1F6FF731B78002B26D0BF
:103EA0004FF00003FB8016E0FB88BF2B07D8FA8891
:103EB00048F2EC13C1F6FF734FF000019954FA88F1
:103EC00048F67403C1F6FF734FF000019954FB8864
:103ED00003F10103FB80FA8840F2FF239A42E3D901
:103EE00048F28A13C1F6FF734FF000021A7007F10F
:103EF0000C07BD4680BC704780B582B000AF4FF064
:103F000002004FF001014FF480424FF4804301F072
:103F100099F90346BB7102F0E5F803463B7102F0E4
:103F2000E1F803467B713A797B7910464FF0020144
:103F30001A464FF0200302F047F97A793B79104690
:103F40004FF002011A464FF0000302F03DF93B79B1
:103F5000184646F69C014CF2A27202F06FF97B798A
:103F6000184646F698014CF2A07202F067F93B79C8
:103F7000BA791046194602F00FF8BB7918464FF08F
:103F8000010101F0E9FE4FF002004FF001014FF492
:103F900080424FF4804301F097F90346FB7102F031
:103FA000A1F803463B7002F09DF803467B703A7817
:103FB0007B7810464FF002011A464FF0200302F0C2
:103FC00003F97A783B7810464FF002011A464FF019
:103FD000000302F0F9F83B78184646F694014CF2DB
:103FE000A67202F02BF97B78184646F690014CF247
:103FF000A47202F023F93B78FA791046194601F0D1
:10400000CBFFFB7918464FF0010101F0A5FE07F147
:104010000807BD4680BD00BF80B400AF4CF280737E
:10402000C4F200031B78DAB248F21013C1F6FF7332
:104030005A704CF28473C4F200031B78DAB248F26F
:104040001013C1F6FF739A704CF29073C4F2000320
:104050001B78DAB248F21013C1F6FF73DA70BD466E
:1040600080BC704780B500AF4CF28073C4F200038F
:1040700048F21012C1F6FF7252781A704CF2847333
:10408000C4F2000348F21012C1F6FF7292781A705F
:104090004CF29073C4F2000348F21012C1F6FF72A2
:1040A000D2781A7044F2A633C4F2000344F2A63266
:1040B000C4F200021278D2B242F01002D2B21A70E8
:1040C0004CF28C73C4F200034FF03F021A704CF2B2
:1040D0000070C4F200004FF0100100F06BF84CF2D9
:1040E0000070C4F200004DF21471C0F200014FF0F4
:1040F0000E0200F037F84CF28C73C4F200034FF05C
:1041000000021A7080BD00BF80B500AF44F2A63334
:10411000C4F200031B78DBB203F01003002B07D0BE
:1041200048F21013C1F6FF734FF001021A7006E057
:1041300048F21013C1F6FF734FF000021A7001F03D
:1041400081FAFFF769FF80BD80B500AFFFF78AFFF6
:1041500048F21013C1F6FF731B78012B01D101F057
:104160001BFA80BD80B487B000AFF860B960134619
:10417000FB714FF00003FB7513E0FB7D4FEA8302F8
:10418000FB681344FA7D4FEA8201BA680A44126858
:104190001A60FB7903F1FF33FB71FB7D03F101032F
:1041A000FB75FB79002BE8D107F11C07BD4680BCED
:1041B000704700BF80B485B000AF78600B46FB70DD
:1041C0004FF00003FB730FE0FB7B4FEA83027B6839
:1041D00013444FF000021A60FB7803F1FF33FB70C9
:1041E000FB7B03F10103FB73FB78002BECD107F1A0
:1041F0001407BD4680BC704780B400AFBD4680BC8C
:10420000704700BF80B500AF48F2E813C1F6FF73F6
:104210001B884FF002004FF000011A4604F0D4FB57
:1042200080BD00BF80B582B000AF48F28613C1F6F2
:10423000FF731A8848F28813C1F6FF731B88C3EB1B
:104240000203FB8048F21413C1F6FF731A88FB883F
:10425000C3EB02039AB248F21413C1F6FF731A803B
:1042600048F28613C1F6FF731A8848F28813C1F624
:10427000FF731A8048F21413C1F6FF731A8840F2D4
:10428000FF239A4202D9FFF767FB0CE048F21413B0
:10429000C1F6FF731B8803F160039AB248F214134E
:1042A000C1F6FF731A8007F10807BD4680BD00BF45
:1042B00080B400AF44F29033C4F200031B78DAB24A
:1042C00048F27113C1F6FF731A7048F27113C1F608
:1042D000FF734FF001021A70BD4680BC704700BFEB
:1042E00080B582B000AF48F27E13C1F6FF731A8822
:1042F00048F28013C1F6FF731B88C3EB0203FB80F7
:1043000048F27C13C1F6FF731A88FB8813449AB2F3
:1043100048F27C13C1F6FF731A8048F27E13C1F68F
:10432000FF731A8848F28013C1F6FF731A8048F2AF
:104330007C13C1F6FF731B88B3F5907F02D8FFF79B
:10434000CDFA0CE048F27C13C1F6FF731B88A3F191
:1043500090039AB248F27C13C1F6FF731A8007F1FA
:104360000807BD4680BD00BF80B582B000AF07F032
:10437000A3FC0346FB7107F10807BD4680BD00BFE3
:1043800080B500AFFEF790FDFEF7D6FC04F0BAF959
:104390000346002B05D0FEF723FBFFF7A9FCFFF730
:1043A000CDFBFEF7DDFCFEF7A9FCFEF7DDFA02F01F
:1043B0009FFDFFF76BFDE9E780B483B000AF0346D4
:1043C000FB7145F21D03C4F2000345F21D02C4F265
:1043D00000021278D2B2D1B201F0F101FA79D2B270
:1043E00002F00E0241EA0202D2B2D2B21A7007F112
:1043F0000C07BD4680BC704780B582B000AF01F0AD
:104400006BFC0346FB7146F29743C4F2000346F28D
:104410009742C4F200021278D2B242F02002D2B225
:104420001A70FB79184601F05BFC46F27653C4F231
:10443000000346F27652C4F200021278D2B242F081
:104440000402D2B21A7007F10807BD4680BD00BF52
:1044500080B500AF4FF0000000F0A2F880BD00BFB3
:1044600080B500AF48F29313C1F6FF731B78002BA1
:1044700008D1FFF7EDFF48F29313C1F6FF734FF039
:1044800001021A70FFF7B8FF80BD00BF80B582B08F
:1044900000AF46F27653C4F2000346F27652C4F2FD
:1044A00000021278D2B202F0FB021A7001F014FC82
:1044B0000346FB7146F29743C4F2000346F297426B
:1044C000C4F200021278D2B202F0DF021A70FB7955
:1044D000184601F005FC46F27743C4F200034FF0A2
:1044E00000021A7000F032F800F06CF807F10807CB
:1044F000BD4680BD80B582B000AF46F27653C4F2AF
:10450000000346F27652C4F200021278D2B242F0B0
:104510000102D2B21A7001F0DFFB0346FB7146F2D2
:104520009343C4F2000346F29342C4F200021278AD
:10453000D2B242F01002D2B21A70FB79184601F0E2
:10454000CFFB07F10807BD4680BD00BF80B582B034
:1045500000AF46F27653C4F2000346F27652C4F23C
:1045600000021278D2B202F0FE021A7001F0B4FB1F
:104570000346FB7146F29343C4F2000346F29342B2
:10458000C4F200021278D2B202F0EF021A70FB7984
:10459000184601F0A5FB07F10807BD4680BD00BF26
:1045A00080B483B000AF0346FB7146F28343C4F28C
:1045B0000003FA7902F007021A7007F10C07BD46F2
:1045C00080BC704780B582B000AF01F085FB034628
:1045D000FB7146F29043C4F2000346F29042C4F2EB
:1045E00000021278D2B242F00102D2B21A7046F240
:1045F0009043C4F2000346F29042C4F200021278E3
:10460000D2B202F0FE021A70FB79184601F068FB84
:1046100007F10807BD4680BD80B400AF46F22743CE
:10462000C4F200034FF009021A7046F23743C4F295
:1046300000034FF015021A7046F22653C4F200032D
:104640004FF076021A7046F22753C4F200034FF07F
:104650005D021A7046F22643C4F200034FF03502A1
:104660001A7046F23643C4F200034FF00F021A707C
:10467000BD4680BC704700BF80B582B000AF034626
:10468000FB71FB79072B00F28C804FF0010202FADC
:1046900003F303F09D02002A04D103F06203002B10
:1046A00040D17EE044F22223C4F200034FF0240202
:1046B0001A8046F21453C4F200034FF040021A70FD
:1046C00046F21553C4F200034FF060021A7046F22E
:1046D0002453C4F200036FF03F021A7046F22553D0
:1046E000C4F200036FF072021A7046F23453C4F23F
:1046F00000034FF000021A7046F23553C4F2000373
:104700006FF023021A7046F23653C4F200034FF0E2
:1047100040021A7046F23753C4F200034FF06002B1
:104720001A703EE044F22223C4F200034FF021024B
:104730001A8046F21453C4F200036FF03F021A705D
:1047400046F21553C4F200034FF054021A7046F2B9
:104750002453C4F200036FF07F021A7046F225530F
:10476000C4F200036FF066021A7046F23453C4F2CA
:1047700000036FF07F021A7046F23553C4F2000353
:104780006FF023021A7046F23653C4F200036FF042
:104790003F021A7046F23753C4F200034FF054023E
:1047A0001A704FF0000001F07DFD4FF0FA0002F0AA
:1047B000D3FAFB79072B7AD801A252F823F000BF75
:1047C0002F4800007D48000015480000FB4700000E
:1047D000E147000049480000634800009748000096
:1047E0004FF017004FF0000101F054F84FF02F0088
:1047F0004FF0000101F05AF959E04FF00B004FF073
:10480000000101F047F84FF017004FF0000101F0F0
:104810004DF94CE04FF003004FF0010101F03AF880
:104820004FF008004FF0010101F040F93FE04FF078
:1048300002004FF0010101F02DF84FF005004FF09C
:10484000010101F033F932E04FF00F004FF00001A9
:1048500001F020F84FF01F004FF0000101F026F9A1
:1048600025E04FF007004FF0000101F013F84FF082
:104870000F004FF0000101F019F918E04FF00200AD
:104880004FF0010101F006F84FF005004FF0010173
:1048900001F00CF90BE04FF001004FF0000100F0C7
:1048A000F9FF4FF003004FF0000101F0FFF807F1AE
:1048B0000807BD4680BD00BF80B584B002AFF87167
:1048C000B971BA807B8048F21813C1F6FF734FF0BC
:1048D00002021A7048F21813C1F6FF731978FA79B8
:1048E000BB794FF0000000904FF0000001900846A7
:1048F00011461A464FF0020301F0A4FB48F21813C8
:10490000C1F6FF731978BA887B88084611461A46A3
:1049100001F0FEFA48F21813C1F6FF731B7818462F
:104920004FF0010101F0BCFA48F21813C1F6FF7311
:104930001B78184607F10807BD4680BD80B582B0D8
:1049400000AF786000F042F8786800F00BF84FF0A4
:10495000040000F01BF800F02DF807F10807BD4631
:1049600080BD00BF80B485B000AF78604EF60853BC
:10497000CEF200031B68FB60FB6803F160037A68FA
:104980001A6007F11407BD4680BC704780B483B03D
:1049900000AF0346FB714EF20843CEF20003FA79F2
:1049A0004FEA4212D2B21A7007F10C07BD4680BC22
:1049B000704700BF80B400AF4EF20013CEF2000388
:1049C0004FF480721A60BD4680BC704780B400AF5F
:1049D0004EF28013CEF200034FF480721A60BD468F
:1049E00080BC704780B483B000AF0346FB7145F2D2
:1049F0001F03C4F2000345F21F02C4F20002127842
:104A0000D2B2D1B201F0F101FA79D2B202F00E02C3
:104A100041EA0202D2B2D2B21A7007F10C07BD46C7
:104A200080BC704780B582B000AF786000F042F87B
:104A3000786800F00BF84FF0040000F01BF800F06D
:104A40002DF807F10807BD4680BD00BF80B485B0D2
:104A500000AF78604EF60853CEF200031B68FB608F
:104A6000FB6803F154037A681A6007F11407BD4626
:104A700080BC704780B483B000AF0346FB714EF238
:104A80000543CEF20003FA794FEA4212D2B21A700D
:104A900007F10C07BD4680BC704700BF80B400AF73
:104AA0004EF20013CEF200034FF020021A60BD4612
:104AB00080BC704780B400AF4EF28013CEF200038A
:104AC0004FF020021A60BD4680BC704780B584B0AC
:104AD00002AFF871B971BA807B8048F21913C1F640
:104AE000FF734FF004021A7048F21913C1F6FF73F6
:104AF0001978FA79BB794FF0000000904FF0000070
:104B00000190084611461A464FF0040301F09AFA44
:104B100048F21913C1F6FF731978BA887B880846E2
:104B200011461A4601F0F4F948F21913C1F6FF7361
:104B30001B7818464FF0030101F0B2F948F219133F
:104B4000C1F6FF731B78184607F10807BD4680BD04
:104B500080B483B000AF0346FB7145F26703C4F233
:104B6000000345F26702C4F200021278D2B2D1B259
:104B700001F0F101FA79D2B202F00E0241EA02022A
:104B8000D2B2D2B21A7007F10C07BD4680BC704792
:104B900080B584B002AFF871B971BA807B8048F2F9
:104BA0001A13C1F6FF734FF00A021A7048F21A1373
:104BB000C1F6FF731978FA79BB794FF000000090C5
:104BC0004FF000000190084611461A464FF00003CE
:104BD00001F038FA48F21A13C1F6FF731978BA884F
:104BE0007B88084611461A4601F092F948F21A13DA
:104BF000C1F6FF731B7818464FF0030101F050F91E
:104C000048F21A13C1F6FF731B78184607F108071C
:104C1000BD4680BD80B400AF45F22113C4F200034D
:104C20001B78DBB203F010034FEA1313DBB2184614
:104C3000BD4680BC704700BF80B500AF48F29413FA
:104C4000C1F6FF731B78002B08D100F00BF848F277
:104C50009413C1F6FF734FF001021A7000F00CF8C4
:104C600080BD00BF80B500AF4FF0030000F06EF8CC
:104C700000F04EF880BD00BF80B582B000AF44F2B6
:104C80000033C4F200031B78DBB203F00203002BF5
:104C900024D101F021F80346FB7144F20033C4F241
:104CA000000344F20032C4F200021278D2B242F0A1
:104CB0000202D2B21A7044F28233C4F2000344F208
:104CC0008232C4F200021278D2B242F00402D2B2AE
:104CD0001A70FB79184601F003F815E000F0FCFFAC
:104CE0000346FB7144F28233C4F2000344F2823281
:104CF000C4F200021278D2B242F00402D2B21A70A8
:104D0000FB79184600F0ECFF07F10807BD4680BDAF
:104D100080B582B000AF00F0DFFF0346FB7144F2C4
:104D20008233C4F2000344F28232C4F200021278E9
:104D3000D2B242F00802D2B21A70FB79184600F0E3
:104D4000CFFF07F10807BD4680BD00BF80B483B028
:104D500000AF0346FB7144F28233C4F200031B78B8
:104D6000DBB203F00403002B13D144F28133C4F20D
:104D7000000344F28132C4F200021278D2B211462A
:104D800001F0F001FA7902F00F0241EA0202D2B218
:104D90001A7007F10C07BD4680BC704780B582B021
:104DA00000AF786000F042F8786800F00BF84FF040
:104DB000070000F01BF800F02DF807F10807BD46CA
:104DC00080BD00BF80B485B000AF78604EF6085358
:104DD000CEF200031B68FB60FB6803F15C037A689A
:104DE0001A6007F11407BD4680BC704780B483B0D9
:104DF00000AF0346FB714EF20743CEF20003FA798F
:104E00004FEA4212D2B21A7007F10C07BD4680BCBD
:104E1000704700BF80B400AF4EF20013CEF2000323
:104E20004FF080021A60BD4680BC704780B400AF6E
:104E30004EF28013CEF200034FF080021A60BD469E
:104E400080BC704780B483B000AF0346FB7145F26D
:104E50000103C4F2000345F20102C4F20002127819
:104E6000D2B2D1B201F0F101FA79D2B202F00E025F
:104E700041EA0202D2B2D2B21A7007F10C07BD4663
:104E800080BC704780B584B002AFF871B971BA8048
:104E90007B8048F21B13C1F6FF734FF009021A70B2
:104EA00048F21B13C1F6FF731978FA79BB794FF0FA
:104EB000000000904FF000000190084611461A468D
:104EC0004FF0000301F0BEF848F21B13C1F6FF7368
:104ED0001978BA887B88084611461A4601F018F8F6
:104EE00048F21B13C1F6FF731B7818464FF00101FF
:104EF00000F0D6FF48F21B13C1F6FF731B7818466B
:104F000007F10807BD4680BD80B400AF46F291436B
:104F1000C4F2000346F29142C4F200021278D2B207
:104F200002F0FC021A7046F29143C4F2000346F20A
:104F30009142C4F200021278D2B242F00C02D2B214
:104F40001A7046F27243C4F2000346F27242C4F28F
:104F500000021278D2B242F00102D2B21A70BD46FB
:104F600080BC704780B400AF46F29143C4F20003A6
:104F700046F29142C4F200021278D2B242F0030229
:104F8000D2B21A7046F27243C4F2000346F2724281
:104F9000C4F200021278D2B202F0FE021A70BD46CC
:104FA00080BC704780B400AF44F2A233C4F2000367
:104FB00044F2A232C4F200021278D2B242F00102EC
:104FC000D2B21A7044F2B233C4F2000344F2B232E5
:104FD000C4F200021278D2B242F00102D2B21A70C8
:104FE000BD4680BC704700BF80B400AF44F2A2331E
:104FF000C4F2000344F2A232C4F200021278D2B228
:1050000002F0FE021A7044F2B233C4F2000344F21A
:10501000B232C4F200021278D2B202F0FE021A706A
:10502000BD4680BC704700BF80B584B000AF02466B
:105030000B46FA807B7100F0F7F803467B7300F0B3
:10504000E7F80346FB81FA88FB899A4200F0DB808F
:1050500044F2A233C4F200031B78DBB203F0010375
:105060003B737B7B002B31D1FB89002B02D0FB886B
:10507000002B2BD1FB89002B13D144F28003C4F207
:105080000003FA881A8044F28203C4F2000344F257
:105090008202C4F200021278D2B202F0BF021A7089
:1050A000B1E044F28203C4F2000344F28202C4F28B
:1050B00000021278D2B242F04002D2B21A7044F228
:1050C0008003C4F20003FA881A809CE03B7B002B2B
:1050D0005AD044F20103C4F200034FF000021A70E8
:1050E00044F21003C4F200034FF001021A7044F2BC
:1050F0001403C4F200034FF000021A7044F20803D4
:10510000C4F2000344F20802C4F200021278D2B2E0
:1051100002F07F021A7044F28203C4F200031B788B
:10512000DBB203F00803002B02D0FB88002B2BD14D
:1051300044F20203C4F20003FA891A8044F2010324
:10514000C4F200034FF007021A7044F20103C4F2E4
:1051500000031B78DBB203F00103DBB2002BF4D1B8
:1051600044F2A233C4F2000344F2A232C4F20002B9
:105170001278D2B202F0FE021A7044F20103C4F2B5
:1051800000034FF000021A7044F2A233C4F200038D
:105190001B78DBB203F00103DBB2002B1ED044F21C
:1051A0000203C4F20003FA881A8044F20103C4F235
:1051B00000037A79002A02D04FF0030201E04FF099
:1051C00001021A7044F20103C4F200031B78DBB23F
:1051D00003F00103DBB2002BF4D114E044F28003AE
:1051E000C4F20003FA881A8044F2A233C4F2000326
:1051F00044F2A232C4F200021278D1B23A7B41EA00
:105200000202D2B21A7007F11007BD4680BD00BF7E
:1052100080B400AF44F28003C4F200031B889BB249
:105220001846BD4680BC704780B400AF44F282038C
:10523000C4F200031B78DBB203F007031846BD4637
:1052400080BC704780B584B002AFF871B971BA8084
:105250007B8048F21C13C1F6FF734FF006021A70F0
:1052600048F21C13C1F6FF731978FA79BB794FF035
:10527000000000904FF000000190084611461A46C9
:105280004FF0000300F0DEFE48F21C13C1F6FF737E
:105290001978BA887B88084611461A4600F038FE0D
:1052A00048F21C13C1F6FF731B7818464FF001013A
:1052B00000F0F6FD48F21C13C1F6FF731B78184688
:1052C00007F10807BD4680BD80B584B002AFF87114
:1052D000B971BA807B8048F21D13C1F6FF734FF09D
:1052E00007021A7048F21D13C1F6FF731978FA7994
:1052F000BB794FF0000000904FF00000019008468D
:1053000011461A464FF0000300F09CFE48F21D13B0
:10531000C1F6FF731978BA887B88084611461A4689
:1053200000F0F6FD48F21D13C1F6FF731B78184616
:105330004FF0010100F0B4FD48F21D13C1F6FF73F8
:105340001B78184607F10807BD4680BD80B487B0BA
:1053500000AFF860B9601346FB714FF00003FB75B6
:1053600013E0FB7D4FEA8302FB681344FA7D4FEAAA
:105370008201BA680A4412681A60FB7903F1FF33AC
:10538000FB71FB7D03F10103FB75FB79002BE8D179
:1053900007F11C07BD4680BC704700BF80B485B0D4
:1053A00000AF78600B46FB704FF00003FB730FE01B
:1053B000FB7B4FEA83027B6813444FF000021A60C4
:1053C000FB7803F1FF33FB70FB7B03F10103FB73FD
:1053D000FB78002BECD107F11407BD4680BC704769
:1053E00080B582B000AF00F077FC0346FB7144F259
:1053F000A633C4F2000344F2A632C4F200021278CB
:10540000D2B242F01002D2B21A7044F2B633C4F2F1
:10541000000344F2B632C4F200021278D2B242F073
:105420001002D2B21A70FB79184600F059FC4CF207
:105430008073C4F200034CF28072C4F2000212784E
:10544000D2B202F0FE021A704CF28873C4F200036A
:105450004FF03F021A704CF28C73C4F200034FF00D
:105460003F021A704CF20000C4F200004FF08001BD
:10547000FFF794FF4CF20020C4F200004FF08001CF
:10548000FFF78CFF4CF20040C4F200004FF04001E7
:10549000FFF784FF4CF20050C4F200004FF04001CF
:1054A000FFF77CFF4CF20070C4F200004FF01001D7
:1054B000FFF774FF4CF20060C4F200004FF04001AF
:1054C000FFF76CFF4CF20040C4F200004DF21421D3
:1054D000C0F200014FF04002FFF738FF4CF20050DD
:1054E000C4F200004DF21421C0F200014FF040025E
:1054F000FFF72CFF4CF20000C4F200004DF2143113
:10550000C0F200014FF08002FFF720FF4CF20020B4
:10551000C4F200004DF21451C0F200014FF08002BD
:10552000FFF714FF4CF20070C4F200004DF214714A
:10553000C0F200014FF00E02FFF708FF4CF20060CE
:10554000C4F200004DF24C71C0F200014FF016029F
:10555000FFF7FCFE4CF28C73C4F200034FF0000224
:105560001A704FF0000000F0A3F84FF0010000F0B7
:10557000B1F84FF0000000F0BFF84FF0000000F06D
:10558000D7F84CF28473C4F200034FF0FF321A7064
:1055900007F10807BD4680BD80B582B000AF00F0BE
:1055A0009BFB0346FB7144F2A633C4F2000344F2B2
:1055B000A632C4F200021278D2B242F01002D2B285
:1055C0001A7044F2B633C4F2000344F2B632C4F2A5
:1055D00000021278D2B242F01002D2B21A70FB79F5
:1055E000184600F07DFB4CF28873C4F200034FF0C4
:1055F0003F021A704CF28073C4F200034CF28072C6
:10560000C4F200021278D2B242F00102D2B21A7091
:1056100007F10807BD4680BD80B500AF48F295137D
:10562000C1F6FF731B78002B08D1FFF7D9FE48F2B3
:105630009513C1F6FF734FF001021A70FFF7ACFF2C
:1056400080BD00BF80B582B000AF00F045FB0346CF
:10565000FB7144F2A633C4F2000344F2A632C4F252
:1056600000021278D2B202F0EF021A7044F2B6339E
:10567000C4F2000344F2B632C4F200021278D2B28D
:1056800002F0EF021A70FB79184600F029FB4CF289
:105690008073C4F200034CF28072C4F200021278EC
:1056A000D2B202F0FE021A7007F10807BD4680BDB3
:1056B00080B483B000AF0346FB714CF29873C4F220
:1056C0000003FA7902F01F021A7007F10C07BD46B9
:1056D00080BC704780B483B000AF0346FB714CF2CE
:1056E0009C73C4F20003FA7902F00F021A7007F1FA
:1056F0000C07BD4680BC704780B483B000AF034642
:10570000FB714CF29473C4F200034CF29472C4F235
:1057100000021278D2B202F0FC02F97942EA0102E8
:10572000D2B21A7007F10C07BD4680BC704700BFAB
:1057300080B483B000AF0346FB714CF29473C4F2A3
:1057400000034CF29472C4F200021278D2B202F05A
:10575000F302F97942EA0102D2B21A7007F10C079A
:10576000BD4680BC704700BF80B584B002AFF87101
:10577000B971BA807B8048F21E13C1F6FF734FF0F7
:1057800008021A7048F21E13C1F6FF731978FA79ED
:10579000BB794FF0000000904FF0000001900846E8
:1057A00011461A464FF0080300F04CFC48F21E1355
:1057B000C1F6FF731978BA887B88084611461A46E5
:1057C00000F0A6FB48F21E13C1F6FF731B781846C3
:1057D0004FF0000100F064FB48F21E13C1F6FF73A6
:1057E0001B78184607F10807BD4680BD80B582B01A
:1057F00000AF786000F042F8786800F00BF84FF0E6
:10580000040000F01BF800F02DF807F10807BD4672
:1058100080BD00BF80B485B000AF78604EF60853FD
:10582000CEF200031B68FB60FB6803F158037A6843
:105830001A6007F11407BD4680BC704780B483B07E
:1058400000AF0346FB714EF20643CEF20003FA7935
:105850004FEA4212D2B21A7007F10C07BD4680BC63
:10586000704700BF80B400AF4EF20013CEF20003C9
:105870004FF040021A60BD4680BC704780B400AF54
:105880004EF28013CEF200034FF040021A60BD4684
:1058900080BC704780B584B000AF02460B46FA80EA
:1058A0007B7100F0F5F803467B7300F0E5F80346E2
:1058B000FB81FA88FB899A4200F0DA8044F2A23335
:1058C000C4F200031B78DBB203F002033B737B7B63
:1058D000002B31D1FB89002B02D0FB88002B2BD170
:1058E000FB89002B13D144F28403C4F20003FA882D
:1058F0001A8044F28603C4F2000344F28602C4F222
:1059000000021278D2B202F0BF021A70B0E044F284
:105910008603C4F2000344F28602C4F20002127845
:10592000D2B242F04002D2B21A7044F28403C4F2FE
:105930000003FA881A809BE03B7B002B5AD044F28C
:105940000103C4F200034FF000021A7044F2100386
:10595000C4F200034FF002021A7044F21403C4F2BE
:1059600000034FF000021A7044F20803C4F200036F
:1059700044F20802C4F200021278D2B202F07F02AE
:105980001A7044F28603C4F200031B78DBB203F002
:105990000803002B02D0FB88002B2BD144F202031A
:1059A000C4F20003FA891A8044F20103C4F200032E
:1059B0004FF007021A7044F20103C4F200031B788F
:1059C000DBB203F00103DBB2002BF4D144F2A233CB
:1059D000C4F2000344F2A232C4F200021278D2B23E
:1059E00002F0FD021A7044F20103C4F200034FF00A
:1059F00000021A7044F2A233C4F200031B78DBB237
:105A000003F00203002B1ED044F20203C4F2000391
:105A1000FA881A8044F20103C4F200037A79002A5A
:105A200002D04FF0030201E04FF001021A7044F27D
:105A30000103C4F200031B78DBB203F00103DBB205
:105A4000002BF4D114E044F28403C4F20003FA887A
:105A50001A8044F2A233C4F2000344F2A232C4F228
:105A600000021278D1B23A7B41EA0202D2B21A7035
:105A700007F11007BD4680BD80B400AF44F2840337
:105A8000C4F200031B889BB21846BD4680BC704719
:105A900080B400AF44F28603C4F200031B78DBB28B
:105AA00003F007031846BD4680BC704780B584B03C
:105AB00000AF02460B46FA807B7100F0F5F8034612
:105AC0007B7300F0E5F80346FB81FA88FB899A4274
:105AD00000F0DA8044F2A233C4F200031B78DBB298
:105AE00003F004033B737B7B002B31D1FB89002B3C
:105AF00002D0FB88002B2BD1FB89002B13D144F261
:105B00008803C4F20003FA881A8044F28A03C4F2BC
:105B1000000344F28A02C4F200021278D2B202F008
:105B2000BF021A70B0E044F28A03C4F2000344F2E8
:105B30008A02C4F200021278D2B242F04002D2B21B
:105B40001A7044F28803C4F20003FA881A809BE0BA
:105B50003B7B002B5AD044F20103C4F200034FF008
:105B600000021A7044F21003C4F200034FF0040262
:105B70001A7044F21403C4F200034FF000021A70CA
:105B800044F20803C4F2000344F20802C4F2000223
:105B90001278D2B202F07F021A7044F28A03C4F281
:105BA00000031B78DBB203F00803002B02D0FB8854
:105BB000002B2BD144F20203C4F20003FA891A80AD
:105BC00044F20103C4F200034FF007021A7044F2DA
:105BD0000103C4F200031B78DBB203F00103DBB264
:105BE000002BF4D144F2A233C4F2000344F2A232F7
:105BF000C4F200021278D2B202F0FB021A7044F230
:105C00000103C4F200034FF000021A7044F2A23301
:105C1000C4F200031B78DBB203F00403002B1ED098
:105C200044F20203C4F20003FA881A8044F201032A
:105C3000C4F200037A79002A02D04FF0030201E097
:105C40004FF001021A7044F20103C4F200031B7802
:105C5000DBB203F00103DBB2002BF4D114E044F219
:105C60008803C4F20003FA881A8044F2A233C4F213
:105C7000000344F2A232C4F200021278D1B23A7B9D
:105C800041EA0202D2B21A7007F11007BD4680BD88
:105C900080B400AF44F28803C4F200031B889BB2B7
:105CA0001846BD4680BC704780B400AF44F28A03FA
:105CB000C4F200031B78DBB203F007031846BD46AD
:105CC00080BC7047000000000230800803D000BF95
:105CD00001380046FCD17047EFF3108072B6704770
:105CE00080F31088704700BF80B483B000AF48F2E3
:105CF0009713C1F6FF734FF07F021A7048F29613A4
:105D0000C1F6FF736FF07F021A704FF07F03FB71D3
:105D10000FE0FB794FEAC30303F1804303F5F0433F
:105D2000FA7902F1FF32D2B21A70FB7903F1FF3334
:105D3000FB71FB79002BECD1FB794FEAC30303F134
:105D4000804303F5F0434FF000021A7007F10C078F
:105D5000BD4680BC704700BF80B485B000AF02462E
:105D60000B46FA71BB714FF00103FB60FB79172BF7
:105D700022D8FB794FEA031247F21003C4F2000362
:105D80001344FA794FEA021147F21002C4F20002FA
:105D90000A441278D2B202F0DF02B979002902D0A7
:105DA0004FF0210101E04FF0010142EA0102D2B2BD
:105DB0001A704FF00003FB60FB68184607F11407E8
:105DC000BD4680BC704700BF80B485B000AF0346BD
:105DD000FB714FF00103FB60FB79172B17D8FB79A0
:105DE0004FEA031247F21003C4F200031344FA7996
:105DF0004FEA021147F21002C4F200020A4412787C
:105E0000D2B202F0DE021A704FF00003FB60FB68B2
:105E1000184607F11407BD4680BC704780B485B0B2
:105E200000AF0346FB714FF00103FB60FB79172BBA
:105E30002ED8FB794FEA031247F21003C4F2000395
:105E40001344FA794FEA021147F21002C4F2000239
:105E50000A441279D2B242F00402D2B21A71FB792A
:105E60004FEA031247F21003C4F200031344FA7915
:105E70004FEA021147F21002C4F200020A441278FB
:105E8000D2B242F00102D2B21A704FF00003FB60AE
:105E9000FB68184607F11407BD4680BC704700BF79
:105EA00080B485B000AF02460B46FA71BB714FF06B
:105EB0000103FB60FB79172B22D8FB794FEA031211
:105EC00047F21003C4F2000313441B78DBB223F043
:105ED0000E03FB72FB794FEA031247F21003C4F280
:105EE00000031344BA7902F007024FEA4202D1B22A
:105EF000FA7A41EA0202D2B21A704FF00003FB6054
:105F0000FB68184607F11407BD4680BC704700BF08
:105F100080B485B000AF13460246FA710A46BA80D3
:105F20007B804FF00103BB60BA8841F6FF739A4251
:105F300002D14FF40053BB807A8841F6FF739A4236
:105F400002D14FF400537B80FB79172B1CD8FB79CF
:105F50004FEAC30303F1804303F5EC4303F1040369
:105F6000FB60FB68BA881A80FB794FEAC30303F130
:105F7000804303F5EC4303F1040303F102037A8841
:105F80001A804FF00003BB60BB68184607F1140786
:105F9000BD4680BC704700BF80B485B000AF0246EC
:105FA0000B46FA71BB714FF00103FB60FB79172BB5
:105FB0000CD8FB794FEA031247F21003C4F2000336
:105FC0001344BA795A724FF00003FB60FB6818461D
:105FD00007F11407BD4680BC704700BF80B485B090
:105FE00000AF02460B46FA71BB714FF00103FB6034
:105FF000FB79172B1ED8FB794FEA031247F21003E7
:10600000C4F200031344FA794FEA021147F2100276
:10601000C4F200020A441279D2B21146BA79D2B25D
:1060200002F0070241EA0202D2B2D2B21A714FF074
:106030000003FB60FB68184607F11407BD4680BCEF
:10604000704700BF80B485B000AFF871B9717A7144
:106050003B714FF00103FB60FB79172B3BD8FB79B9
:106060004FEAC30303F1804303F5EC43BA7902F02E
:106070007F0279794FEAC111C9B242EA0102D2B274
:106080001A70FB794FEAC30303F1804303F5EC4335
:106090003A7E4FEA0212D1B23A7902F00F0241EA97
:1060A0000202D2B25A70FB794FEAC30303F1804374
:1060B00003F5EC433A7F02F00F029A70FB794FEA46
:1060C000C30303F1804303F5EC434FF00002DA70A1
:1060D0004FF00003FB60FB68184607F11407BD464C
:1060E00080BC704780B582B000AF4FF0FF33FB71CA
:1060F000FFF7F2FD0346BB7148F29613C1F6FF733A
:106100001B78182B20D948F29713C1F6FF731B7820
:10611000FB7148F29613C1F6FF731B7803F1FF334E
:10612000DAB248F29613C1F6FF731A70FB794FEAA0
:10613000C30303F1804303F5F0431B78DAB248F25E
:106140009713C1F6FF731A70BB791846FFF7C8FDA5
:10615000FB79184607F10807BD4680BD80B584B0BD
:1061600000AF0346FB71FB795BB2002B27DBFFF727
:10617000B3FD0346FB73FB794FEAC30303F180438E
:1061800003F5F04348F29712C1F6FF7212781A70C5
:1061900048F29713C1F6FF73FA791A7048F2961312
:1061A000C1F6FF731B7803F10103DAB248F29613CC
:1061B000C1F6FF731A70FB7B1846FFF791FD07F1DC
:1061C0001007BD4680BD00BF80B485B000AFF87138
:1061D000B980FA70BB704FF00103BB60FB795BB212
:1061E000002B24DBBB8803F47043002B1FD1FB7909
:1061F0004FEAC30303F1804303F5F043FB60FB6800
:10620000BA881A80FB794FEAC30303F1804303F590
:10621000F043FA789A70FB794FEAC30303F18043A5
:1062200003F5F043BA78DA704FF00003BB60BB6847
:10623000184607F11407BD4680BC704780B485B08E
:1062400000AF13460246FA710A46BA807B804FF0CF
:106250000103BB60FB795BB2002B1CDBFB794FEACF
:10626000C30303F1804303F5F04303F10403FB6030
:10627000FB68BA881A80FB794FEAC30303F18043B5
:1062800003F5F04303F1040303F102037A881A8053
:106290004FF00003BB60BB68184607F11407BD460A
:1062A00080BC704780B584B000AF0346FB714FF0EF
:1062B0000003BB6044F22023C4F2000344F2202216
:1062C000C4F200021278D2B242F00102D2B21A70C5
:1062D000FB79002B4DD044F20033C4F200031B784D
:1062E0007B7344F28033C4F200031B78BB7344F227
:1062F0008233C4F200031B78FB734FF0180001F0E7
:1063000047FB4FF01003BB6019E044F22523C4F2B1
:1063100000031B78DBB203F00103DBB2002B0ED0CD
:1063200044F22523C4F200031B78DBB203F001031F
:10633000DBB2002B03D04FF00003BB6006E04FF050
:10634000010001F0E7FA0346012BDED17B7B03F06D
:106350000403002B01D100F02BFC44F28033C4F283
:106360000003BA7B1A7044F28233C4F20003FA7B52
:106370001A70BB68184607F11007BD4680BD00BF04
:1063800080B400AF44F22023C4F2000344F2202280
:10639000C4F200021278D2B202F0FE021A70BD46B8
:1063A00080BC704780B582B000AF0346FB7144F2F9
:1063B0002023C4F200031B78DBB203F00103002B9F
:1063C00003D04FF0000000F097FCFB7903F10003CD
:1063D000022B11D844F20003C4F2000344F200027D
:1063E000C4F200021278D2B202F0FC02F97942EA59
:1063F0000102D2B21A7003E04FF0000000F07CFC02
:1064000007F10807BD4680BD80B584B000AF0346E4
:10641000FB7144F2A033C4F2000344F2A032C4F290
:1064200000021278D2B242F01002D2B21A70FB7996
:10643000002B4DD044F20033C4F200031B78FB73F1
:10644000FB7B03F00403002B01D100F09DFB44F221
:106450008233C4F200031B787B7344F28033C4F2AE
:1064600000031B78BB7344F28233C4F2000344F28E
:106470008232C4F200021278D2B202F0FC021A7028
:1064800044F28033C4F200034FF000021A7044F269
:106490008233C4F200034FF001021A704FF0010082
:1064A00001F038FA0346002BF8D0FB7B03F004031D
:1064B000002B01D100F07CFB44F28033C4F20003D6
:1064C000BA7B1A7044F28233C4F200037A7B1A70EA
:1064D00007F11007BD4680BD80B400AF44F2A03381
:1064E000C4F2000344F2A032C4F200021278D2B225
:1064F00002F0EF021A70BD4680BC704780B483B0D2
:1065000000AF4FF00003FB7144F29333C4F2000379
:106510001B78DBB203F00703002B0AD144F2A5334A
:10652000C4F200031B78DBB203F00103DBB2002BE3
:1065300014D144F29333C4F200031B78DBB203F0AE
:106540000703012B0DD144F2B533C4F200031B78CD
:10655000DBB203F00103DBB2002B02D04FF00103EA
:10656000FB71FB79184607F10C07BD4680BC7047EC
:1065700080B584B000AF0346FB71FFF7BFFF034651
:10658000FB73FB7B012B0CD146F20903C4F2000321
:1065900046F20902C4F200021278D2B202F0FD0201
:1065A0001A70FB79082B7AD801A252F823F000BFA9
:1065B000D5650000ED650000056600001D66000061
:1065C000356600004D6600009F6600009F66000073
:1065D0006566000044F2A163C4F2000340F20812B1
:1065E000C4F600121278D2B21A705EE044F2A163CF
:1065F000C4F2000340F20912C4F600121278D2B2BB
:106600001A7052E044F2A163C4F2000340F20A128D
:10661000C4F600121278D2B21A7046E044F2A163B6
:10662000C4F2000340F20B12C4F600121278D2B288
:106630001A703AE044F2A163C4F2000340F28912F6
:10664000C4F600121278D2B21A702EE044F2A1639E
:10665000C4F2000340F20C12C4F600121278D2B257
:106660001A7022E044F2A163C4F2000340F20F1258
:10667000C4F600121278D2B21A70FB7B012B13D130
:1066800046F20903C4F2000346F20902C4F2000212
:106690001278D2B242F00202D2B21A7005E04FF084
:1066A000000000F029FB00E000BF07F11007BD4625
:1066B00080BD00BF80B584B000AF0346FB7144F2DB
:1066C0000023C4F200031B78DBB203F00703BB73A3
:1066D000FB79082B01D0FB7901E04FF00303FB733A
:1066E000BB7B052B26D801A252F823F005670000DA
:1066F0000D670000156700001D670000256700009A
:106700002D6700004FF00203BB7317E04FF0010349
:10671000BB7313E04FF00303BB730FE04FF00003B4
:10672000BB730BE04FF00403BB7307E04FF00503AE
:10673000BB7303E04FF0000000F0DEFAFA7BBB7B96
:106740009A4203D3FB791846FFF712FFFB79082B17
:1067500000F28A8001A252F823F000BF8167000096
:10676000A3670000C5670000E16700000368000040
:10677000256800006968000069680000476800003B
:1067800044F20023C4F2000344F20022C4F20002E7
:106790001278D2B202F0B80242F00302D2B21A70FA
:1067A00066E044F20023C4F2000344F20022C4F283
:1067B00000021278D2B202F0B80242F00102D2B264
:1067C0001A7055E044F20023C4F2000344F20022A0
:1067D000C4F200021278D2B202F0B8021A7047E096
:1067E00044F20023C4F2000344F20022C4F2000287
:1067F0001278D2B202F0B80242F00202D2B21A709B
:1068000036E044F20023C4F2000344F20022C4F252
:1068100000021278D2B202F0B80242F00402D2B200
:106820001A7025E044F20023C4F2000344F200226F
:10683000C4F200021278D2B202F0B80242F00502AD
:10684000D2B21A7014E044F20023C4F2000344F2FE
:106850000022C4F200021278D2B202F0B80242F072
:106860004202D2B21A7003E04FF0000000F044FA86
:10687000FB79082B02D100F06BF801E000F07CF806
:10688000FA7BBB7B9A4203D2FB791846FFF770FE76
:1068900007F11007BD4680BD80B582B000AF03464A
:1068A000FB71FB79012B20D0022B02D0002B39D0B9
:1068B00046E044F20003C4F2000344F20002C4F2D2
:1068C00000021278D2B202F0BF021A7044F2002322
:1068D000C4F2000344F20022C4F200021278D2B2E1
:1068E00042F02002D2B21A702EE044F20003C4F249
:1068F000000344F20002C4F200021278D2B242F065
:106900004002D2B21A7044F20023C4F2000344F2EF
:106910000022C4F200021278D2B242F02002D2B2B7
:106920001A7011E044F20023C4F2000344F2002282
:10693000C4F200021278D2B202F0DF021A7003E051
:106940004FF0000000F0D8F907F10807BD4680BD00
:1069500080B400AF44F20023C4F2000344F20022EA
:10696000C4F200021278D2B242F01002D2B21A700F
:10697000BD4680BC704700BF80B400AF44F2002326
:10698000C4F2000344F20022C4F200021278D2B230
:1069900002F0EF021A70BD4680BC704780B483B02D
:1069A00000AF0346FB7144F20503C4F2000344F256
:1069B0000502C4F200021278D2B2114601F0FC01C5
:1069C000FA7902F0030241EA0202D2B21A7007F128
:1069D0000C07BD4680BC704780B483B000AF03464F
:1069E000FB7144F20403C4F20003FA791A7007F150
:1069F0000C07BD4680BC704780B483B000AF03462F
:106A0000FB8044F21403C4F2000344F21402C4F203
:106A100000021278D2B202F0F0021A7044F21003AF
:106A2000C4F200034FF000021A7044F20803C4F2EB
:106A3000000344F20802C4F200021278D2B26FEAF4
:106A400042626FEA5262D2B21A7044F20203C4F296
:106A50000003FA88D2B21A7044F20303C4F20003AE
:106A6000FA884FEA122292B2D2B21A7044F20103AB
:106A7000C4F2000344F20102C4F200021278D2B25E
:106A800042F00102D2B21A7007F10C07BD4680BC79
:106A9000704700BF80B584B000AF0346FB80FFF7AE
:106AA0001BF90346FB7344F20703C4F200031B788F
:106AB000DBB24FEA03239AB244F20603C4F20003A6
:106AC0001B78DBB242EA0303BB81FB88002B02D0B8
:106AD000BB89002B38D144F20403C4F200031B78B5
:106AE000FB72FB7A062B03D84FF00700FFF774FF09
:106AF000FB88002B12D144F20803C4F2000344F2D5
:106B00000802C4F200021278D2B242F04002D2B2BD
:106B10001A70FB881846FFF76FFF10E0FB881846D5
:106B2000FFF76AFF44F20803C4F2000344F20802CC
:106B3000C4F200021278D2B202F0BF021A70FB7ADD
:106B40001846FFF749FF03E0FB881846FFF754FF9C
:106B5000FB7B1846FFF7C4F807F11007BD4680BD60
:106B600080B400AF44F20033C4F2000344F20032B8
:106B7000C4F200021278D2B242F00202D2B21A700B
:106B8000BD4680BC704700BF80B400AF44F2003304
:106B9000C4F2000344F20032C4F200021278D2B20E
:106BA00042F00402D2B21A70BD4680BC704700BFEA
:106BB00080B400AF44F20033C4F2000344F2003268
:106BC000C4F200021278D2B202F0FB021A70BD4683
:106BD00080BC704780B586B000AF0346FB714FF0B4
:106BE00000033B61FB79FB7344F21023C4F2000302
:106BF00044F21022C4F200021278D2B242F0010232
:106C0000D2B21A70FB79002B5DD044F20033C4F28B
:106C100000031B787B7544F28033C4F200031B78B9
:106C2000BB7544F28233C4F200031B78FB754FF04E
:106C3000180000F0ADFE4FF010033B612CE044F271
:106C40001023C4F200031B784FF00403BB730CE065
:106C50004FF0010000F05EFE0346012BF8D1BB7B34
:106C6000DBB203F1FF33DBB2BB73BB7BDBB2002BC8
:106C7000EED144F21023C4F200031B78DBB25BB206
:106C8000002B03DB4FF000033B6109E0FB7BDBB231
:106C900003F1FF33DBB2FB73FB7BDBB2002BCED106
:106CA0007B7D03F00403002B01D1FFF781FF44F249
:106CB0008033C4F20003BA7D1A7044F28233C4F206
:106CC0000003FA7D1A703B69184607F11807BD46A4
:106CD00080BD00BF80B400AF44F21023C4F20003B3
:106CE00044F21022C4F200021278D2B202F0FE0284
:106CF0001A70BD4680BC704780B483B000AF0346B5
:106D0000FB7101BE07F10C07BD4680BC704700BF98
:106D100080B582B000AF78600BE048F22C13C1F66A
:106D2000FF731B681846FEF7CFFF7B68A3F500438F
:106D30007B607B68B3F5004FEFD848F22413C1F6AF
:106D4000FF731B687A6802FB03F31846FEF7BCFF6B
:106D500007F10807BD4680BD80B582B000AF03468D
:106D6000FB80FA8848F22813C1F6FF731B7803FBF7
:106D700002F31846FEF7A8FF07F10807BD4680BDDD
:106D800080B483B000AF78607B68002B06D048F2F7
:106D90002013C1F6FF737A681A6008E048F22013E6
:106DA000C1F6FF734AF24052C0F2AE221A6048F2B6
:106DB0002013C1F6FF731A6844F23F23C0F20F0399
:106DC00013444DF68362C4F21B32A2FB03134FEA55
:106DD0009343DAB248F22813C1F6FF731A7048F2EF
:106DE0002013C1F6FF731B6803F5787202F10702E6
:106DF00044F6D353C1F26203A3FB02134FEA93128A
:106E000048F22413C1F6FF731A6048F22413C1F646
:106E1000FF731B684FEAC33248F22C13C1F6FF73AD
:106E20001A6007F10C07BD4680BC704780B483B080
:106E300000AF02460B46FA71BB7144F28333C4F2D1
:106E4000000344F28332C4F200021278D2B2114637
:106E500001F0FC01FA7902F0030241EA0202D2B227
:106E60001A7044F28333C4F2000344F28332C4F252
:106E700000021278D2B26FEA42626FEA5262D2B274
:106E80001A7044F28333C4F2000344F28332C4F232
:106E900000021278D2B202F07F021A7044F28333F9
:106EA000C4F20003BA794FEA4212D2B2114601F09D
:106EB000600144F28332C4F200021278D2B202F0CE
:106EC0009F0241EA0202D2B21A7044F28333C4F242
:106ED000000344F28332C4F200021278D2B242F0CC
:106EE0001002D2B21A7007F10C07BD4680BC704781
:106EF00080B400AF44F28433C4F200034FF00102C7
:106F00001A70BD4680BC704780B584B000AF0346A0
:106F10003960FB714EF60853CEF200031B68FB602C
:106F2000FB791F2B03D94FF00000FFF7E5FEFB793B
:106F300003F01F0303F110034FEA8302FB681344BD
:106F40001B68BB60FB7903F01F0303F110034FEADA
:106F50008302FB6813443A681A60BB68184607F15D
:106F60001007BD4680BD00BF80B582B000AF0246AD
:106F70000B46FA71BB71BB79072B03D94FF00000A8
:106F8000FFF7BAFEFB791F2B03D94FF00000FFF784
:106F9000B3FEFB7903F01F0303F1604303F5644381
:106FA000BA794FEA4212D2B21A7007F10807BD4609
:106FB00080BD00BF80B500AF44F2A133C4F200032E
:106FC0001B78DBB21A4602F00F0248F2C813C1F672
:106FD000FF731A7044F2A233C4F200031B78DAB2D2
:106FE00048F2C813C1F6FF735A7044F2A133C4F2D9
:106FF000000344F2A132C4F200021278D2B202F0CD
:10700000F0021A7044F2A233C4F200031B7844F277
:10701000A233C4F200034FF000021A7044F60003DA
:10702000C4F200031B78DBB21A4602F0C00248F239
:10703000C813C1F6FF735A714FF0370005F0C4FE54
:1070400044F20023C4F200031B78DBB21A4602F0BC
:10705000070248F2C813C1F6FF73DA7044F2002346
:10706000C4F200031B78DBB21A4602F0400248F279
:10707000C813C1F6FF731A7144F20023C4F200036F
:107080001B78DBB203F01003002B07D048F2C813C3
:10709000C1F6FF734FF001025A7206E048F2C813BE
:1070A000C1F6FF734FF000025A724FF00400FFF771
:1070B00001FB44F2A033C4F200031B78DBB203F0FF
:1070C0001003002B07D048F2C813C1F6FF734FF02E
:1070D00001029A710AE048F2C813C1F6FF734FF03B
:1070E00000029A714FF00000FFF78EF944F200237E
:1070F000C4F200031B78DBB203F02003002B18D08E
:1071000044F20003C4F200031B78DBB203F0400337
:10711000002B02D14FF0020201E04FF0010248F2D1
:10712000C813C1F6FF73DA714FF00000FFF7B4FB2C
:1071300006E048F2C813C1F6FF734FF00002DA719F
:1071400044F20003C4F200031B78DBB21A4602F0DB
:10715000300248F2C813C1F6FF731A7248F2C8131E
:10716000C1F6FF731B7A002B0CD044F20003C4F26B
:10717000000344F20002C4F200021278D2B202F01C
:10718000CF021A7044F20023C4F200031B78DBB272
:1071900003F01003002B01D0FFF7EEFB44F20403D1
:1071A000C4F200031B78DAB248F2C813C1F6FF73C9
:1071B0009A7248F2C813C1F6FF739B7A002B03D072
:1071C0004FF00000FFF708FC44F20503C4F200038F
:1071D0001B78DBB21A4602F0030248F2C813C1F66C
:1071E000FF739A7048F2C813C1F6FF739B78002BA7
:1071F00003D04FF00000FFF7D1FB44F20703C4F2C5
:1072000000031B78DBB24FEA03239AB244F2060371
:10721000C4F200031B78DBB242EA03039AB248F2DD
:10722000C813C1F6FF739A8148F2C813C1F6FF7301
:107230009B89002B03D04FF00000FFF72BFC44F29A
:107240000023C4F200031B78DBB203F007024DF207
:10725000A473C0F200039B5C184605F0B5FD44F230
:107260002023C4F200031B78DBB203F00103DBB27E
:10727000002B09D048F2C813C1F6FF734FF001028A
:107280009A73FFF77DF806E048F2C813C1F6FF7362
:107290004FF000029A7344F21023C4F200031B78EB
:1072A000DBB203F00103DBB2002B09D048F2C813B4
:1072B000C1F6FF734FF00102DA73FFF70BFD06E032
:1072C00048F2C813C1F6FF734FF00002DA7344F2BC
:1072D0000B03C4F200031B78DBB203F00403002BA2
:1072E00007D048F2C813C1F6FF734FF001021A74B9
:1072F00006E048F2C813C1F6FF734FF000021A749B
:1073000080BD00BF80B584B000AF4FF01003BB60FC
:107310004DF2AC72C0F200023B4692E803001860E6
:1073200003F10403198003F102034FEA11421A70BA
:1073300048F2C813C1F6FF731B7C012B26D144F21F
:107340000023C4F200031B78DBB203F007024DF206
:10735000A473C0F200039B5C1A4613464FEA8303F2
:1073600013444FEA0312C3EB02031846FEF7ACFCCA
:1073700044F20B03C4F2000344F20B02C4F2000215
:107380001278D2B242F00402D2B21A7048F2C81394
:10739000C1F6FF73DB7B012B34D14FF00000FFF708
:1073A00019FC44F21023C4F200031B784FF00503CC
:1073B000FB8124E044F20023C4F200031B78DBB21B
:1073C00003F007024DF2A473C0F200039B5C4FF080
:1073D000C80202FB03F31846FEF776FC44F21023C2
:1073E000C4F200031B78DBB25BB2002B03DB4FF06F
:1073F0000003BB6006E0FB8903F1FF33FB81FB89DF
:10740000002BD7D14FF0370005F0DEFC48F2C8134F
:10741000C1F6FF739B78022B06D048F2C813C1F661
:10742000FF739B78032B1CD144F20403C4F20003C6
:107430001B78DAB248F2C813C1F6FF739B7A9A42FE
:1074400007D048F2C813C1F6FF739B7A1846FFF7BE
:10745000C3FA48F2C813C1F6FF739B781846FFF7CA
:107460009DFA48F2C813C1F6FF731B7903F040037D
:10747000002B10D048F2C813C1F6FF73DB7807F178
:107480001002134413F8103C032B04D14FF00800F2
:10749000FFF710F931E048F2C813C1F6FF73DB784B
:1074A00007F11002134413F8103C1846FFF702F9D5
:1074B00048F2C813C1F6FF731B7903F04003002B99
:1074C0000ED044F20023C4F2000344F20022C4F2BE
:1074D00000021278D2B242F04002D2B21A700CE02E
:1074E00044F20023C4F2000344F20022C4F200027A
:1074F0001278D2B202F0BF021A7048F2C813C1F675
:10750000FF739B79012B0DD144F2A033C4F2000329
:107510001B78DBB203F01003002B03D14FF0000007
:10752000FEF772FF48F2C813C1F6FF739B79002B78
:107530000BD144F2A033C4F200031B78DBB203F09A
:107540001003002B01D0FEF7C7FF48F2C813C1F6A5
:10755000FF73DB791846FFF79FF948F2C813C1F6AD
:10756000FF735B7A012B01D1FFF7F2F948F2C813E0
:10757000C1F6FF731B7A1A4644F20003C4F20003FB
:107580001B78DBB203F030039A4219D044F20003B7
:10759000C4F2000344F20002C4F200021278D2B234
:1075A000D2B202F0CF0248F2C811C1F6FF71097AD7
:1075B00008461146024641EA0202D2B2D2B21A701D
:1075C00048F2C813C1F6FF739B7B012B17D14FF014
:1075D0000000FEF767FE44F20023C4F200031B78AC
:1075E000DBB203F007024DF2A473C0F200039B5C10
:1075F0004FF0FA0202FB03F31846FEF765FB48F270
:10760000C813C1F6FF739B78002B06D048F2C8134D
:10761000C1F6FF739B78012B1CD144F20403C4F222
:1076200000031B78DAB248F2C813C1F6FF739B7AE5
:107630009A4207D048F2C813C1F6FF739B7A1846E6
:10764000FFF7CAF948F2C813C1F6FF739B781846D2
:10765000FFF7A4F948F2C813C1F6FF739B891A46D5
:1076600044F20703C4F200031B78DBB24FEA0323A2
:107670009BB2194644F20603C4F200031B78DBB246
:1076800041EA03039A4207D048F2C813C1F6FF73D8
:107690009B891846FFF7FEF944F60003C4F2000385
:1076A00044F60002C4F200021278D2B2D2B202F062
:1076B0003F0248F2C811C1F6FF71497908461146E8
:1076C000024641EA0202D2B2D2B21A7044F2A133A7
:1076D000C4F2000348F2C812C1F6FF7212781A70A1
:1076E00044F2A233C4F2000348F2C812C1F6FF729A
:1076F00052781A7007F11007BD4680BD80B584B07E
:1077000000AF02460B46FA71BB80FEF7E5FA03466E
:10771000FB7344F29333C4F200031B78DBB203F033
:107720000803002B10D144F28363C4F2000344F237
:107730008362C4F200021278D2B202F01F021A7001
:10774000FB79002B05D108E0FB7B1846FEF7C8FA51
:10775000DBE04FF00000FFF7CFFA00F087F944F2CA
:107760009833C4F200031B78DAB248F29813C1F6DA
:10777000FF731A7144F29833C4F20003BA884FEAD7
:10778000121292B2D2B21A7044F29933C4F20003C8
:107790001B78DAB248F29813C1F6FF735A7144F2BB
:1077A0009933C4F20003BA88D2B202F00F021A7001
:1077B00044F29A33C4F200031B78DAB248F2981309
:1077C000C1F6FF739A7144F29A33C4F20003BA8887
:1077D0004FEA123292B2D2B202F001021A7044F2AF
:1077E0000023C4F200031B78DBB203F00703002B75
:1077F00008D148F29813C1F6FF734FF0010283F8E5
:107800002D2023E048F29813C1F6FF734FF00002D9
:1078100083F82D2044F20023C4F200031B78DBB26E
:107820001A4602F0070248F29813C1F6FF7383F874
:107830002C2044F20023C4F2000344F20022C4F2DC
:1078400000021278D2B202F0F8021A7044F29333B6
:10785000C4F2000344F29332C4F200021278D2B2AE
:1078600002F0F80242F00302D2B21A7044F29333EB
:10787000C4F200031B7800BF00BF30BF48F298136A
:10788000C1F6FF7393F82D30012B1AD044F2002378
:10789000C4F2000344F20022C4F200021278D2B211
:1078A000D2B202F0F80248F29811C1F6FF7191F8D5
:1078B0002C1008461146024641EA0202D2B2D2B268
:1078C0001A7000F0D9F844F29833C4F2000348F279
:1078D0009812C1F6FF7212791A7044F29933C4F209
:1078E000000348F29812C1F6FF7252791A7044F2FE
:1078F0009A33C4F2000348F29812C1F6FF729279EB
:107900001A70FB7B1846FEF7EBF907F11007BD462E
:1079100080BD00BF80B584B000AF0346FB71FEF7A9
:10792000DBF90346BB7344F29033C4F200031B78C7
:10793000DAB248F2DA13C1F6FF731B7842EA0303A6
:10794000DAB248F2DA13C1F6FF731A7048F2DA13AA
:10795000C1F6FF731B78FB73FB796FEA0303DAB29E
:1079600048F2DA13C1F6FF731B7802EA0303DAB2B6
:1079700048F2DA13C1F6FF731A70BB7B1846FEF7A4
:10798000AFF9FB7B184607F11007BD4680BD00BF6D
:1079900080B582B000AF0346FB7144F28233C4F27B
:1079A000000344F28232C4F200021278D2B202F032
:1079B000FD021A70FFF7E8F844F28233C4F20003C4
:1079C0001B78DBB203F00103DBB2002B2AD044F2B8
:1079D0008033C4F200031B78DBB2FA799A423FD0BD
:1079E00044F28233C4F2000344F28232C4F2000251
:1079F0001278D2B202F0FE021A7044F28033C4F25E
:107A00000003FA791A7044F28233C4F2000344F29C
:107A10008232C4F200021278D2B242F00102D2B233
:107A20001A701EE044F28033C4F200031B78DBB20C
:107A3000FA799A4205D044F28033C4F20003FA790D
:107A40001A7044F28233C4F2000344F28232C4F268
:107A500000021278D2B242F00102D2B21A7000E0F3
:107A600000BF07F10807BD4680BD00BF80B500AF6D
:107A700000F008F880BD00BF80B500AF00F02CFA20
:107A800080BD00BF80B400AF45F60023C4F2000300
:107A90001B78DAB248F29813C1F6FF735A7245F6B2
:107AA0000223C4F200031B78DAB248F29813C1F63D
:107AB000FF739A7245F60323C4F200031B78DAB20F
:107AC00048F29813C1F6FF73DA7245F60423C4F244
:107AD00000031B78DAB248F29813C1F6FF731A73E9
:107AE00045F60623C4F200031B78DAB248F2981375
:107AF000C1F6FF735A7345F60823C4F200031B78DE
:107B0000DAB248F29813C1F6FF739A7345F60A2366
:107B1000C4F200031B78DAB248F29813C1F6FF737F
:107B2000DA7345F61023C4F200031B78DAB248F288
:107B30009813C1F6FF731A7445F61223C4F20003BA
:107B40001B78DAB248F29813C1F6FF735A7445F6FF
:107B50001323C4F200031B78DAB248F29813C1F67B
:107B6000FF739A7445F61423C4F200031B78DAB24B
:107B700048F29813C1F6FF73DA7445F61623C4F27F
:107B800000031B78DAB248F29813C1F6FF731A7536
:107B900045F61823C4F200031B78DAB248F29813B2
:107BA000C1F6FF735A7545F61A23C4F200031B7819
:107BB000DAB248F29813C1F6FF739A7545F620239E
:107BC000C4F200031B78DAB248F29813C1F6FF73CF
:107BD000DA7545F62223C4F200031B78DAB248F2C4
:107BE0009813C1F6FF731A7645F62323C4F20003F7
:107BF0001B78DAB248F29813C1F6FF735A7645F64D
:107C00002423C4F200031B78DAB248F29813C1F6B9
:107C1000FF739A7645F62623C4F200031B78DAB286
:107C200048F29813C1F6FF73DA7645F62823C4F2BA
:107C300000031B78DAB248F29813C1F6FF731A7783
:107C400045F62A23C4F200031B78DAB248F29813EF
:107C5000C1F6FF735A7745F63023C4F200031B7850
:107C6000DAB248F29813C1F6FF739A7745F63223D9
:107C7000C4F200031B78DAB248F29813C1F6FF731E
:107C8000DA7745F63323C4F200031B78DAB248F200
:107C90009813C1F6FF7383F8202045F63423C4F20D
:107CA00000031B78DAB248F29813C1F6FF7383F829
:107CB000212045F63623C4F200031B78DAB248F2DD
:107CC0009813C1F6FF7383F8222045F63823C4F2D7
:107CD00000031B78DAB248F29813C1F6FF7383F8F9
:107CE000232045F63A23C4F200031B78DAB248F2A7
:107CF0009813C1F6FF7383F8242045F60023C4F2DD
:107D000000034FF000021A7045F60223C4F200038C
:107D10004FF000021A7045F60323C4F200034FF03F
:107D200000021A7045F60423C4F200034FF000026B
:107D30001A7045F60623C4F200034FF000021A70D1
:107D400045F60823C4F200034FF000021A7045F60E
:107D50000A23C4F200034FF000021A7045F6102304
:107D6000C4F200034FF000021A7045F61223C4F269
:107D700000034FF000021A7045F61323C4F200030B
:107D80004FF000021A7045F61423C4F200034FF0BE
:107D900000021A7045F61623C4F200034FF00002E9
:107DA0001A7045F61823C4F200034FF000021A704F
:107DB00045F61A23C4F200034FF000021A7045F68C
:107DC0002023C4F200034FF000021A7045F622236C
:107DD000C4F200034FF000021A7045F62323C4F2E8
:107DE00000034FF000021A7045F62423C4F200038A
:107DF0004FF000021A7045F62623C4F200034FF03C
:107E000000021A7045F62823C4F200034FF0000266
:107E10001A7045F62A23C4F200034FF000021A70CC
:107E200045F63023C4F200034FF000021A7045F605
:107E30003223C4F200034FF000021A7045F63323D8
:107E4000C4F200034FF000021A7045F63423C4F266
:107E500000034FF000021A7045F63623C4F2000307
:107E60004FF000021A7045F63823C4F200034FF0B9
:107E700000021A7045F63A23C4F200034FF00002E4
:107E80001A7044F22233C4F200031B78DBB203F011
:107E90000803002B15D048F29813C1F6FF734FF07A
:107EA000010283F82E2044F22233C4F2000344F28C
:107EB0002232C4F200021278D2B202F0F7021A7033
:107EC00007E048F29813C1F6FF734FF0000283F801
:107ED0002E20BD4680BC704780B400AF45F600231D
:107EE000C4F2000348F29812C1F6FF72527A1A7077
:107EF00045F60223C4F2000348F29812C1F6FF725D
:107F0000927A1A7045F60323C4F2000348F29812DD
:107F1000C1F6FF72D27A1A7045F60423C4F2000348
:107F200048F29812C1F6FF72127B1A7045F60623CA
:107F3000C4F2000348F29812C1F6FF72527B1A7025
:107F400045F60823C4F2000348F29812C1F6FF7206
:107F5000927B1A7045F60A23C4F2000348F2981285
:107F6000C1F6FF72D27B1A7045F61023C4F20003EB
:107F700048F29812C1F6FF72127C1A7045F612236D
:107F8000C4F2000348F29812C1F6FF72527C1A70D4
:107F900045F61323C4F2000348F29812C1F6FF72AB
:107FA000927C1A7045F61423C4F2000348F298122A
:107FB000C1F6FF72D27C1A7045F61623C4F2000394
:107FC00048F29812C1F6FF72127D1A7045F6182316
:107FD000C4F2000348F29812C1F6FF72527D1A7083
:107FE00045F61A23C4F2000348F29812C1F6FF7254
:107FF000927D1A7045F62023C4F2000348F29812CD
:10800000C1F6FF72D27D1A7045F62223C4F2000336
:1080100048F29812C1F6FF72127E1A7045F62323B9
:10802000C4F2000348F29812C1F6FF72527E1A7031
:1080300045F62423C4F2000348F29812C1F6FF72F9
:10804000927E1A7045F62623C4F2000348F2981275
:10805000C1F6FF72D27E1A7045F62823C4F20003DF
:1080600048F29812C1F6FF72127F1A7045F62A2361
:10807000C4F2000348F29812C1F6FF72527F1A70E0
:1080800045F63023C4F2000348F29812C1F6FF729D
:10809000927F1A7045F63223C4F2000348F2981218
:1080A000C1F6FF72D27F1A7045F63323C4F2000383
:1080B00048F29812C1F6FF7292F820201A7045F625
:1080C0003423C4F2000348F29812C1F6FF7292F80A
:1080D00021201A7045F63623C4F2000348F29812A4
:1080E000C1F6FF7292F822201A7045F63823C4F2C6
:1080F000000348F29812C1F6FF7292F823201A701A
:1081000045F63A23C4F2000348F29812C1F6FF7212
:1081100092F824201A7048F29813C1F6FF7393F86E
:108120002E30012B0DD144F22233C4F2000344F26D
:108130002232C4F200021278D2B242F00802D2B265
:108140001A70BD4680BC704780B485B000AF03464E
:10815000FB7145F23013C4F200031B78DBB223F04D
:108160000203FB7345F23013C4F20003FA794FEABD
:108170004202D2B202F00202F97B42EA0102D2B21A
:108180001A7007F11407BD4680BC704780B400AF79
:1081900045F23113C4F200031B78DBB203F0020393
:1081A0004FEA5303DBB21846BD4680BC704700BFA0
:1081B00080B582B000AF02460B46FA71BB7148F23F
:1081C000DC13C1F6FF731B78002B08D100F012F806
:1081D00048F2DC13C1F6FF734FF001021A70FA790E
:1081E000BB791046194600F04BF907F10807BD4668
:1081F00080BD00BF80B582B000AFFDF76DFD0346C6
:108200007B7144F2A533C4F2000344F2A532C4F2F8
:1082100000021278D2B242F00102D2B21A7044F2D5
:10822000B533C4F2000344F2B532C4F2000212784E
:10823000D2B242F00102D2B21A7046F29D03C4F2E9
:1082400000034FF001021A7046F20903C4F2000362
:108250004FF002021A7046F21003C4F2000346F215
:108260001002C4F200021278D2B202F07F021A7039
:108270004FF00000FEF770FD44F29433C4F20003A7
:1082800044F29432C4F200021278D2B202F0F9023F
:108290001A7046F21203C4F2000346F21202C4F24C
:1082A00000021278D2B202F0DF021A7044F2943364
:1082B000C4F2000344F29432C4F200021278D2B243
:1082C00042F00102D2B21A704FF00100FEF744FDF5
:1082D0004FF02800FEF740FD45F2F813C4F200030A
