:100000000020002035010000310100003101000016
:1000100080B51448144B21E05C689968DD688C4217
:100020000CD0002205E0A6180832D6E9008941E983
:1000300002898C460831AA42F5D101E004EB050C97
:100040001C696146002204E008320026002741E9CD
:1000500002670831A242F7D1143301380028DBD1FE
:1000600002F0B6F801000000C82500004EF2481367
:10007000C1F6FF731A780AB901201870704700BFE3
:100080004EF20810C1F6FF7008B503682BB140F2BC
:100090000003C0F2000303B1984708BD094B0020DC
:1000A0001B6810B5196800F0D8F8074B1B681B785F
:1000B000181AC0B2984204D00020BDE8104000F0E9
:1000C00081B810BD1CE1FF1F20E1FF1F10B5FFF735
:1000D000E5FF00F095FB00F0EFF8D0B900F0A6F8CE
:1000E0000446F0B9012000F08DF800F09FF820B927
:1000F0000134A4B2652CF5D101E0632C11D90B4B6E
:10010000402247F230501A7000F068FB43F6982006
:1001100005E041F2883000F061FB40F6C41000F0C9
:1001200063FB00F03FFB00F077FAFEE7FA46004081
:10013000FEE70000064B1C7844F001041C70054BE0
:100140001A78D2B2044B1A7000F0A4F8FFF760FFDF
:10015000E8460040FA460040BC760040104A08B528
:10016000104B1A6008331A6842F400721A600023B8
:100170001A46032A96BF0C490C48C8580C4901324C
:10018000C8500433302AF4D10A4B1A780A4B1A703B
:100190000A4B196000F068FB094B00221A6008BD89
:1001A0000004FA050CED00E0000000003101000041
:1001B00000E0FF1FBC76004058E1FF1F08ED00E0A3
:1001C00000E1FF1F01BE7047044B00F01F021B68D7
:1001D000103253F8220043F82210704708ED00E077
:1001E00000F01F0000F16040490100F56440C9B211
:1001F00001707047024B1B79584300F001BC00BFEF
:100200000CE1FF1F10B5044604E0D86800F0F8FBCD
:10021000A4F50044B4F5004F034BF6D8986860434A
:10022000BDE8104000F0ECBB0CE1FF1F024B18785A
:10023000C0F30010704700BF2151004000231A4650
:1002400006E010F803C00139624492B2013389B26A
:100250000029F6D1524290B270470B18002004E0FA
:1002600013F8012D01398018C0B20029F8D1704768
:10027000034B6FF07F021A708132043B1A70704793
:10028000FA460040024B01461B781A46126808479E
:1002900058E1FF1F074B1A7802F0C002802A07D1ED
:1002A000803A1A704FF6C173186808B1FFF7EABFB9
:1002B000704700BFFA4600404FF6C5731A880433F2
:1002C000186801321202002310B51018194609E00F
:1002D00012F801CB0CF1FF34E4B26344FD2C98BF5B
:1002E0000121DBB28242F3D34FF6C5724FF6C07CD8
:1002F000604512880CBF4FF40050C0080132520113
:1003000006E002F1904494F800C001326344DBB28D
:100310008242F6D34FF6C0725B421278DBB2934250
:1003200002D109B1002010BD062010BD13B5012374
:100330000C46ADF806200B7048708A7091B20B0A1B
:100340000431E370204689B2FFF778FF02AA32F841
:10035000021D63181871000A58710731172098712F
:1003600089B22046962300F089F91CBD2DE9F0479B
:100370000028ADF5607D14BF81464FF0FF0914BF22
:100380000024012400F002FA62B64FF0000845464E
:100390004CAEDEAA063230464FF496714B4600F062
:1003A00099F9102800F00581052800F00281BDF8B8
:1003B0007E33062B40F2F8803278012A40F0F48038
:1003C000B6F802A01FFA8AFA0AF10401775A0AF174
:1003D00007029A42BFB200F28E800AEB06039B79B5
:1003E000172B40F0E180304689B2FFF727FF8742A4
:1003F00000F0E3800820D8E0002C00F0D580BAF1AE
:10040000000F40F0D080FFF757FF4CABD0F1010058
:1004100038BF0020187101245046B7E0002C00F0CE
:10042000C380BAF1010F40F0BE8017B154460020DE
:100430000EE0754B54461B6838461A684CAB120ADE
:1004400092B21A71120A5A714FF0FF329A71DF712B
:100450000422ABE01CB1BAF1030F40F0A48001A864
:1004600000214FF4907201F049FE4FF49075002C7A
:1004700000F09A80BAF1020F40F295804CAC01A8CE
:100480004019E11DAAF10302554401F06FFDADB220
:1004900040F223139D4203D001240025032023E0D2
:1004A000B4F80540A4B2B8F1000F0FD197AD4146A2
:1004B0004FF49072284601F021FE4046FF212A4663
:1004C0004FF4907300F0ACFA08F101083846214669
:1004D00001AA4FF4907300F0A3FA054608B901246D
:1004E00002E0012400250A202A465FE005EB0A0607
:1004F000B6F5967F01D9032057E001A8401952466E
:100500004DA901F033FD0020B5B202464EE0BAF12C
:10051000000F49D13D4A97AB92E803004DAA83E80A
:100520000300012482E80300504608223EE0002C2C
:100530003AD0BAF1030F36D14CABB3F805404FF4C3
:100540008071A4B204EB07200002FFF786FE7B0354
:1005500003EB441303F1904303F1200213F8011B52
:1005600008189342C0B2F9D15FB9FF2C09D14FF6F8
:10057000D0731B78C01A4FF6D1731B78C01A00F0E5
:10058000FF0040424CAB18710124002022460DE0D0
:10059000FFF792FE18B91E4B6FF07F021A701D4BC9
:1005A00001221A7005E00124042000224CA9FFF763
:1005B000BDFE002C7FF4ECAE22E073783779313B3E
:1005C0000A2B1BD801A252F823F000BFF903000048
:1005D0001D040000FD05000055040000F9050000A1
:1005E000FD050000ED0400000F0500006F04000091
:1005F0002F050000910500000025DAE70520D4E76B
:100600000DF5607DBDE8F0871CE1FF1F5C22000056
:10061000FA460040F646004010B5154C002023680D
:100620001968FFF71AFE63681B78181AC0B298425F
:1006300009D123681B6833B100F07CFA18B90D4862
:1006400000F034FA10B10020FFF7BCFDFFF734FED4
:1006500028B9094B1B7803F0C003402B04D1064B8B
:1006600000201870FFF782FEBDE81040FFF700BEC3
:100670001CE1FF1F5CE1FF1FFA460040844670B595
:1006800002200D461446614640221E4600F096FBAD
:100690000A235E430C4B1E80002604E00136012035
:1006A000B6B2FFF7AFFD022000F06AFB18B9064BA7
:1006B0001B88B342F2D8022000F062FB08B9103068
:1006C00070BD2580002070BD4AE1FF1F012000F0B1
:1006D000BFBB00002DE9F0410D460A2114464B43F3
:1006E000294A064697781380F7B1002703E00120D6
:1006F000FFF788FD474600F033FB40B9224B07F176
:1007000001081B881FFA88F8BB42F0D8474600F062
:1007100027FBC8B100F02AFBFFF7D8FF1A4B0022D5
:100720009A7011E000270FE000F020FB0028F9D0BC
:1007300000F016FB0028F5D0FFF7C8FF04E00137F2
:100740000120BFB2FFF75EFD012000F019FB012878
:1007500003D00D4B1B88BB42F1D8012000F010FBE9
:1007600001280AD13146402D34BF2A46402200F0EC
:1007700083FB20800020BDE8F0814FF00003238040
:100780001020BDE8F08100BF4AE1FF1F08B562B646
:100790000020022100F06EFC014B01229A7008BD7E
:1007A0004AE1FF1F024B1A7842F080021A7070472C
:1007B00077650040014B1880704700BF0C6A00400D
:1007C00001E0044B1B88044B1B7813F0100FF8D189
:1007D000704700BFAC6A004067650040014B18805D
:1007E000704700BF8C6A0040014B1880704700BF03
:1007F0004C6A0040014B1870704700BF876500408D
:1008000010B5164B164C1A784EF6602002F0C00256
:1008100042F00B021A701F331A7842F001021A706C
:10082000237843F001032370FFF7C4FF4EF66020E6
:10083000FFF7D4FF47F23050FFF7D6FF0020FFF755
:10084000D9FF00F0E5F8237843F01003237000F09F
:10085000E3F8BDE81040FFF7B3BF00BF7765004085
:100860009765004001F082BB70B572B64B4C04F145
:10087000300560782178237941EA0021A0786279F7
:1008800041EA0041E07843EA022241EA006006348E
:10089000002101F033FCAC42EBD100252A46404B4D
:1008A00058594433C1B203EB420320F0FF000C4619
:1008B00007E013F802CC13F801EC013C0CF800E05F
:1008C000E4B20233002CF4D104355218442DE6D1A1
:1008D000344B354E1A78354842F002021A70103304
:1008E0001A78334942F002021A70337843F0400319
:1008F0003370304B1A7842F010021A700A22FFF758
:10090000B1FF0A222C482D49FFF7ACFF08222C48E2
:100910002C49FFF7A7FF2C4B4FF003011A78482012
:1009200042F008021A70294A01231370284B1980DB
:100930001B2102331970274B15391970264B4C3186
:100940001970264B1978264B1970264B07211C80ED
:10095000197025490C70023108701C7005331C7029
:100960000221083B1970214B2148197841F00101FF
:1009700019706FF07E0313701E4B1F4A1B7803F033
:10098000070111701B09013213701C4B31460E22F6
:100990001D70BDE8704001F0E9BA00BF642200009C
:1009A0009422000003500140A0430040F051004059
:1009B000D0230000C243004020510040DC2300004F
:1009C00032510040E823000022430040004800402C
:1009D0008040004000430040004200400F010049B9
:1009E000A14600400440004006400040A2430040B1
:1009F000B0430040CF0100496E5800407658004097
:100A00000230800803D000BF01380046FCD1704797
:100A1000EFF3108072B6704780F31088704700BF04
:100A2000F8B504460D4617461E4600F01BF908B1FE
:100A3000042635E032462046394600F085F807287E
:100A400006462BD102E00120FFF7D4FB154B1A78A4
:100A500012F0020FF7D01A7812F0020F1CD01B7898
:100A60009B0819D1104B20461A7829465B7800F074
:100A700099F80728064611D102E00120FFF7BAFBDA
:100A8000084B1A7812F0020FF7D01A7812F0020F02
:100A900002D01E78B60801D04FF0FF3600F0C8F83B
:100AA0003046F8BD224700407CE2FF1F38B50446BF
:100AB00000F0FCF80CB9012038BD00F0D3F8054671
:100AC00008B1042038BD034B1C6000F0B1F8284683
:100AD00038BD00BF50E1FF1F10B500F0E7F800F08F
:100AE000C1F808B104241EE0012000F085F80728B1
:100AF00015D102210D4800F0EDF802280AD102E0DC
:100B00000120FFF777FB0A4B1B7813F0020FF7D099
:100B1000002406E0064B1B7813F0020FE9D04FF0DB
:100B2000FF3400F085F8204610BD00BF7CE2FF1FB7
:100B30002247004010B5FFF7CFFF18B9BDE81040BD
:100B4000FFF7CABF10BD000010B5144B93F800C0EA
:100B50001CF0020F01D1042010BD114C6FF0490CA4
:100B600084F800C00CF11F0C84F800C00CF12D0CAF
:100B700084F800C01B7813EA0C0301D0092010BDD3
:100B8000207005E011F803C00548013380F800C06B
:100B900098B29042F6D3072010BD00BF2247004014
:100BA0002047004030B5124D95F800C01CF0020FF0
:100BB00001D1042030BD0F4C6FF0490C84F800C007
:100BC0000CF1220C84F800C00CF12D0C84F800C04C
:100BD00095F800C01CF0020F01D0092030BD207034
:100BE000080AC9B22070217007202270237030BD1E
:100BF00022470040204700400B4A137813F0020FB1
:100C000001D104207047094B6FF0490119702B3155
:100C100019702D311970127812F0020F01D00920CD
:100C20007047187007207047224700402047004057
:100C300010B5FFF7EDFE094B002259781A70012913
:100C400008D107490C6844F001040C6000BF00BFE4
:100C500000BF5A70BDE81040FFF7DEBE54E1FF1F31
:100C60000400084010B5FFF7D3FE0E4B197809B108
:100C7000042412E04FF0010C0B4A83F800C0146802
:100C800014EA0C0409D0146824F00104146000BFB5
:100C900000BF00BF83F801C00C46FFF7BDFE204631
:100CA00010BD00BF54E1FF1F0400084010B5FFF75E
:100CB000AFFE074B1A7842F008021A7010331A7808
:100CC00042F008021A70BDE81040FFF7A5BE00BF51
:100CD000A043004070B504460E4600250BE00120FD
:100CE000FFF788FA064B1B7813F0010FF7D0054B7E
:100CF0001B7863550135EBB2B342F3D3304670BD78
:100D000022470040204700400C4B01221A700C4A39
:100D1000002313700B4A13700B4A13700B4A1370A5
:100D20000B4A13700B4A13700B4A13700B4B0322C0
:100D30001A70833A203B1A70704700BF20E3FF1FF0
:100D40009AE2FF1F99E2FF1F95E2FF1F98E2FF1F43
:100D500080E2FF1F97E2FF1F11E3FF1F28600040A2
:100D6000014B1878704700BF99E2FF1F034B1A78B8
:100D7000104612B1002218781A70704798E2FF1FCF
:100D8000024B0C2202FB003358787047A4E2FF1F8D
:100D9000431EDBB2072B01D9002070471B01064A16
:100DA000DBB2985C01329B5C00F0070043EA002054
:100DB000023880B2704700BF0C600040431EDBB2B7
:100DC000072B30B53BD81E4D4FF00C0C0CFB0055DB
:100DD000B5F806C01B011B4C1FFA8CFCDBB2CCF52E
:100DE000007C1C19624503D9EA88C2F5007292B2F0
:100DF000134D4FF00C0C0CFB005595F803C0124D31
:100E00004CEA122C03F805C05FFA82FC013503F8A6
:100E100005C059B14FF0000C04E011F80C500CF172
:100E2000010C25701FFA8CF59542F6D3044A0C216B
:100E300001FB0020002242704179044A995430BDE0
:100E4000A4E2FF1F886000400C6000400E6000407C
:100E5000431EDBB2072B0AD8054A0C2101FB0020F8
:100E6000002242701B014179024ADBB2995470475B
:100E7000A4E2FF1F0E600040F8B5431EDBB2072B53
:100E800004460D46164616D8A9B11B010B4FDBB21E
:100E9000DF19FFF77DFFB04238BF0646B6B2002328
:100EA00002E03A78EA5401339AB2B242F9D32046CA
:100EB000FFF7CEFF00E000263046F8BD8860004016
:100EC000194B012210B51A70184B4FF400041C6026
:100ED0004FF080741C601A6092181A60144B4FF027
:100EE000000C83F800C001B10322124B1A70124BA0
:100EF000124A187000231370114A01201370114A0E
:100F00001370114A1370114A1370114A1370114B68
:100F100003221A70833A203B1A70FFF771FD0E4BC3
:100F200004221A7010BD00BF20E3FF1F00E100E0A3
:100F30009AE2FF1F0960004094E2FF1F99E2FF1F41
:100F400095E2FF1F98E2FF1F80E2FF1F97E2FF1F5D
:100F500011E3FF1F28600040126000402DE9F041BE
:100F6000FFF756FD384B01241A78022642F00102A1
:100F70001A7010331A78354D42F001021A70344B52
:100F800007461C70943B1E7007331A78002002F04D
:100F90007F021A70FFF72EF92B78204603F0F90331
:100FA0002B702C4B1A7802F0DF021A702B78234337
:100FB0002B70FFF71FF92820FFF71CF9264B30464E
:100FC0001A7802F07F021A701A7802F0BF021A70C3
:100FD0002B7833432B70FFF70DF92B78384643F00D
:100FE00004032B701D4B00251D701B191D70FFF78E
:100FF00013FD17201A49FFF7E7F817200721FFF71D
:10100000EFF815201749FFF7DFF815200721FFF744
:10101000E7F818201449FFF7D7F818200721FFF741
:10102000DFF828461149FFF7CFF807212846FFF7D8
:10103000D7F820460E49FFF7C7F820460721BDE83C
:10104000F041FFF7CDB800BFA543004094430040F6
:101050009D60004012600040F851004084600040F4
:10106000331500003115000029140000C1140000E0
:10107000F914000070B5074E054633780C461BB9CD
:10108000FFF76CFF0123337028462146BDE870400E
:10109000FFF716BF56E1FF1F204B21491A88097838
:1010A0008A1892B21A801F4B00221A7012E0107830
:1010B000596800F1804011F801CB00F5C04080F87C
:1010C00000C0596011780131C9B211701A88013A13
:1010D00092B21A80144B1A881AB1124A1178072951
:1010E000E5D9104B1B781BB90D4B1B78082B0BD186
:1010F0000E4B1A7882F080021A700D4B0F221A7074
:101100000C4B0D3A1A7004E0094A02231370094A85
:101110001370044B1A78024B1A70704714E3FF1FC8
:1011200011E3FF1F12E3FF1F88E2FF1F96E2FF1F7C
:1011300081E2FF1F9AE2FF1F074B02221A70074B42
:10114000823A1A70064B8F321A70064A00231370C7
:10115000054A0120137070479AE2FF1F96E2FF1FB5
:1011600081E2FF1F11E3FF1F12E3FF1FFFF794BF90
:10117000164B174A1B78174803F00F03023BDBB2EC
:101180001370154B19881278521892B21A800DE01C
:10119000596810F801CB01F801CB59601178013979
:1011A000C9B211701A88013A92B21A800B4B1A8890
:1011B0001AB1074A11780029EAD1094B1A7882F04E
:1011C00080021A70074B0B221A707047296000408A
:1011D00012E3FF1F0060004014E3FF1F88E2FF1FBF
:1011E00096E2FF1F81E2FF1F064A06231370064A9C
:1011F00001201370054B6FF07F021A70044B803290
:101200001A7070479AE2FF1F81E2FF1F96E2FF1FEC
:1012100012E3FF1F054B9A683AB19A6804491070AF
:101220009A680988518000229A60704788E2FF1FFF
:1012300014E3FF1F08B50A4B1A7832B11978094A2E
:1012400041F08001117000221A70074B00221A70C1
:101250000120FFF7DFFF054B03221A7008BD00BF16
:1012600080E2FF1F086000409AE2FF1F81E2FF1F3B
:1012700008B5054B00221A700120FFF7CBFF034B86
:1012800003221A7008BD00BF9AE2FF1F81E2FF1F10
:10129000074B1B78042B05D0062B05D0022B05D15C
:1012A000FFF764BFFFF7E4BFFFF7C4BF704700BF9D
:1012B0009AE2FF1F08B50849084B01201A880978EF
:1012C0008A1892B21A80064B00221A70FFF7A2FF0A
:1012D000044B03221A7008BD11E3FF1F14E3FF1F24
:1012E0009AE2FF1F81E2FF1F10B50B4B1B78042B06
:1012F00007D0062B09D0022B0DD1BDE81040FFF717
:10130000D9BFBDE81040FFF733BF0320FFF782FFCE
:10131000024B03221A7010BD9AE2FF1F81E2FF1FE9
:10132000054A4FF000031380044A916819B191688F
:101330000B7092685380704714E3FF1F88E2FF1F11
:1013400008B50C4B04221A700B4B843A1A70FFF745
:10135000E7FF0A4B1A78013B1B7843EA0222084B4D
:10136000198889B2914288BF1A80064B0B221A70E5
:10137000012008BD9AE2FF1F96E2FF1F07600040B0
:1013800088E2FF1F81E2FF1F10B50E4C238813B9BE
:10139000FFF7D2FE14E00C4B02221A700B4B023AFC
:1013A0001A70FFF7BDFF0A4B1A78013B1B7843EA1E
:1013B0000223228892B29A4288BF2380FFF76CFEF4
:1013C000012010BD88E2FF1F9AE2FF1F96E2FF1F77
:1013D0000760004008B5114B1A781A701B7813F09B
:1013E000800F02D00E4A137008BD0220FFF712FFD3
:1013F0000C4B1B7803F06003202B05D0402B06D04C
:1014000043B900F031FC04E000F088FD01E000F099
:1014100077FD10B9024B03221A7008BD2860004006
:1014200081E2FF1F0060004008B5204B1B7813F0DD
:10143000100F39D013F0800F0BD003F00F03012BE6
:1014400032D1FFF7C7FF1A4B1B7813F0800F0BD078
:1014500008BD13F0400F02D0FFF71AFF04E013F0AD
:10146000200F21D0FFF740FF104B1B7813F0800FA7
:101470001AD1104B104A1B78127842EA03030F4A24
:101480001370127893420FD10949084B0A781878E3
:1014900010F0800F04D10A781A701A7802F00F0247
:1014A000034B1B789A42EFD108BD00BF2860004073
:1014B00081E2FF1F96E2FF1F12E3FF1F2960004039
:1014C0000A4B1B780A4B1A7B02F00302012A03D055
:1014D000DA7B82F08002DA73054B01225A73054BE6
:1014E0001A7802F0FE021A70704700BF0E600040CA
:1014F000A4E2FF1F0B6000400A4B1B780A4B1A7EC8
:1015000002F00302012A03D0DA7E82F08002DA764A
:10151000054B01225A76054B1A7802F0FD021A702B
:10152000704700BF1E600040A4E2FF1F0B60004038
:101530007047FFF7E9BB000010B5174C4FF00003F0
:101540002380164B18780138C0B200F097F9144B7D
:101550001A7801331B7800EBC3004169D3B9114BF2
:10156000013A1B7801EBC3035968D3B2022B11D89F
:101570000D4B01EBC2001B7811F832209A4209D3BF
:101580000C225A4341688B1858688A5A9B686060DD
:101590002280A36010BD00BF88E2FF1F99E2FF1FF9
:1015A0000360004084E2FF1F0260004008B50D4B5D
:1015B00018780138C0B200F061F90B4B0B491B7869
:1015C00000EBC3004269CB5C02EBC3035B68DB69E1
:1015D000597813F8022B42EA0121054A1180536021
:1015E00008BD00BF99E2FF1F0460004084E2FF1FB6
:1015F00088E2FF1F08B50B4B18780138C0B200F025
:101600003DF9094B09491B7800EBC3004269CB5CEB
:1016100002EBC3035B685A6A054B117819805A6064
:1016200008BD00BF99E2FF1F0460004084E2FF1F75
:1016300088E2FF1F10B53D4B3D4A1B78117811F031
:10164000800F35D001321278013A052A6CD8DFE8D4
:1016500002F01017276B6B03364B1A78212A02D140
:10166000FFF7C8FF07E01B78222B5DD1FFF79EFF35
:1016700001E0FFF761FF304B1B88002B54D00BE0DB
:10168000002B51D12D4B1B78002B4DD12A4B4FF005
:1016900001021A802A4A5A60BDE81040FFF774BE62
:1016A000002B41D1244B4FF001011980254AF2E76C
:1016B000127812F0800F37D1234A1278092A05D008
:1016C00032D30A2A0CD00B2A2ED121E0FFF734FFA7
:1016D000194B1B88002B27D0BDE81040FFF730BE08
:1016E000002B21D1154B1B781946002B1CD1114B17
:1016F000134A1B781370154B92F800C01878844574
:1017000001D219700CE01978012909D9127806E084
:1017100053B90A4B1A78012A06D81A78094B1A705D
:10172000BDE81040FFF760BD002010BD0460004020
:10173000006000400360004088E2FF1F026000403C
:1017400018E3FF1F20E3FF1F016000401CE3FF1FA1
:10175000037810B5012B1ED94378032B1BD100222F
:10176000013B15E002F1924101F5807191F800C052
:1017700009494FEA1C140C5D0CF00F0CC45411F80D
:101780000C109C1C0132E4B20433D2B20155DBB21E
:1017900001789942E6D810BDF023000010B500236F
:1017A00001212C4A0C209A1810702B4A00FB0122B0
:1017B00054793CB1127912F0800F284A08BF0820F2
:1017C0009A1803E0254A6FF07F009A181070224A99
:1017D0004FF00C0C0CFB0122B2F808C020481FFA95
:1017E0008CFC18184FEA1C2C80F800C0B2F808C016
:1017F0001C485FFA8CFC181880F800C0B2F806C0CC
:1018000019485FFA8CFC181880F800C0B2F806C0BE
:1018100016481FFA8CFC18184FEA1C2C80F800C0E0
:10182000B2F806C012485FFA8CFC181880F800C0A5
:10183000D28801310F4892B2C9B21818120A103377
:1018400009290270DBB2ACD10B4B4FF0FF321A709A
:1018500010BD00BF80600040A4E2FF1F0E6000408A
:101860000C6000400D6000408660004087600040D2
:1018700084600040856000400A600040044B1A7894
:10188000044B03EBC2035B6803EBC003D8687047EB
:1018900094E2FF1F9C250000F8B53D4B1A78002A02
:1018A00074D018780138C0B2FFF7E8FF90F808C08C
:1018B000C4684FEACC0C002066E0235C354A364908
:1018C000D55CC95C8D425ED02118D25C4D789542C2
:1018D00059D1324A1278934255D1CD788A7805F0A1
:1018E0000305012D14BF0025012512F0800F02F021
:1018F0007F032B4A09D00C2606FB03220B3E5670B1
:10190000002D14BF07250D2508E00C2606FB032239
:101910000C3E5670B54214BF0525092555715A1E57
:101920001201204DD2B2551901262E700B365E439E
:101930001B4D8F8873191F818F781F71C97871555E
:101940000021D9701D891849ADB251182D0A0D70AA
:101950001D891649EDB251180D70DD881449EDB29C
:1019600051180D70DD881349ADB251182D0A0D7054
:10197000DD881149EDB251180D70DB880F499BB21B
:1019800051181B0A0B700830604596D1F8BD00BF96
:1019900099E2FF1F84E2FF1F10E3FF1F0460004075
:1019A000A4E2FF1F0E6000400C6000400D6000408C
:1019B0008660004087600040846000408560004091
:1019C00008B5064B18780138C0B2FFF757FF4368D7
:1019D0001B7900EBC300406908BD00BF99E2FF1FFF
:1019E0002DE9F04100214FF00C0C0CFB01FC524C96
:1019F00000230CEB040201310CF80430092902F138
:101A0000080493705370D37053711381A370EAD19B
:101A100018B14A4A13704A4A13704A4B1A78002A7E
:101A200000F0888018780138C0B2FFF727FF4368BC
:101A30004FF0000CDB7913F0400F434B1A7814BFC2
:101A400042F0010202F0FE021A70047AC168E70057
:101A5000002241E0881890F802E00EF07F05AB42CA
:101A600039D1354D0C2606FB0355B5F8088086881C
:101A70001FFA88F8B04538BF2E818D5C2F4E755DFA
:101A80004678AE4227D1C5782B4805F00306012ED3
:101A900014BF002601264FF00C081EF0800F08FB33
:101AA000030008D0A8F10B0880F80180002E14BFB5
:101AB00007260D2607E0A8F10C0880F801804645AE
:101AC00014BF0526092646710C2673431A481E18B2
:101AD00086F804E01D540832BA420CF10103B9D172
:101AE000082B9C46B3D1E40000230CE0CA1892787E
:101AF000114D02F07F024FF00C0C0CFB0252C85C3F
:101B0000083290700833A342F0D1FFF759FF0F4B12
:101B1000186000231A46084901330C2000FB03110A
:101B2000CA8009895218082B92B2F4D1BDE8F0415D
:101B3000FFF734BEBDE8F081A4E2FF1F84E2FF1F7F
:101B400010E3FF1F99E2FF1F97E2FF1FA0E2FF1FB4
:101B500010B50C4B1C780C4B18780138C0B2FFF74D
:101B60008DFE43681B79A34209D944B9074B084A43
:101B7000197801201170074A12781A7010BD0020E0
:101B800010BD00BF0460004099E2FF1F84E2FF1F08
:101B900010E3FF1F02600040194B1B7803F07F0326
:101BA0005A1ED2B2072A01D90020704715480C21CD
:101BB00001FB03039878120100F0FE0098700020EA
:101BC000D8701148D2B212F800C00CF07F0C02F8A5
:101BD00000C0587800F0FD00587018795B7810F05C
:101BE000800F03D0012B18BF0D2104E0012B01D180
:101BF000082100E00921054BD154FFF7F5BA00BFD9
:101C000004600040A4E2FF1F0C6000400E60004032
:101C1000124B197801F07F014A1ED2B2072A01D96E
:101C2000002070470E4B0C2000FB01339978120105
:101C300041F0010199700021D9705978D2B241F078
:101C4000020159701B7913F0800F064B14BF6FF01F
:101C500072016FF07601D154FFF7C6BA04600040FC
:101C6000A4E2FF1F0E60004010B5754B4FF000025C
:101C70001A80744B1B7813F0800F734B1B7800F0A5
:101C800093800A2B00F23081DFE813F05C002E0114
:101C90002E012E012E012E010B002E017E002E01A1
:101CA00084006A4B1A78012A0BD1694B1A78694B68
:101CB00003EBC2035B685A68614B5A604FF0120233
:101CC0000FE01A78022A11D1634B1878FFF7D6FD7E
:101CD0005B4B42685A605A68D1785A68927842EAF7
:101CE00001221A80BDE81040FFF74EBB1B78032B82
:101CF00024D15A4B002203E0197801325B18D2B28A
:101D000055490978914202D919780029F4D1524AEB
:101D1000117851B152491278097C914205D1514B49
:101D200051481B78FFF714FD4F4B1A78002A00F03A
:101D3000DB801978424A11805360D3E7BDE8104038
:101D400000F0ECB83F4B1A7812F0030211D0022ACF
:101D500040F0CA803A4904330A801B78434A03F0B2
:101D60007F030C2000FB03239A78414B1A7000225A
:101D700007E033494FF002030B803E4B18783C4B91
:101D800018705A704B60ADE72D4B4FF001021A806E
:101D9000394A07E02A4B4FF001021A80374A384986
:101DA00012788A185A609DE7013B0A2B00F29C804A
:101DB000DFE813F02C009A0070009A000B009A00E4
:101DC0009A009A000F009A001900234B1A782D4BA5
:101DD00079E0214B01201A78274B1A702A4B187092
:101DE000FFF7FEFD7CE0FFF7B3FE00287CD0234B1D
:101DF000264C1B7801222370234B1A70FFF74CFDF1
:101E000023781F492278895C214A68E00D4B1B78B2
:101E100003F00303012B58D009D3022B64D10E4BDE
:101E20001B78002B60D1BDE81040FFF7B5BE0A4B10
:101E30001B78012B58D10F4B1A7802F0FD0242E0BB
:101E400088E2FF1F00600040016000400360004026
:101E500094E2FF1F9C250000026000404024000027
:101E60000024000057E1FF1F24E1FF1FA4E2FF1F31
:101E700024E3FF1F97E2FF1F99E2FF1F0460004069
:101E800084E2FF1F80E2FF1F98E2FF1F95E2FF1F21
:101E900010E3FF1F154B1B7803F00303012B14D035
:101EA00009D3022B20D1124B1B78002B1CD1BDE88B
:101EB0001040FFF7ADBE0E4B1B78012B14D10D4B1C
:101EC0001A7842F002021A700AE00B4B1A785AB9DB
:101ED0001B780A4A0648D15C007821EA0001D154F7
:101EE000BDE81040FFF780B9002010BD0060004041
:101EF0000260004097E2FF1F046000409CE2FF1F69
:101F0000044B1B7813F0800F1CBF034B1B78002081
:101F1000704700BF00600040016000400F4B1B781D
:101F200003F00303012B03D0022B04D000230CE0A9
:101F30000B4B1B7809E00A4B0A4A1B780C2103F073
:101F40007F0301FB032308339B78074A1268D35CA5
:101F5000032B01D000207047FFF76CBB00600040EE
:101F600004600040A4E2FF1FA0E2FF1F032A2DE946
:101F7000F0070BD83AB1002311F803C000F803C0F2
:101F800001339342F8D1BDE8F007704782180C4640
:101F9000034603E014F8011C03F8011C03F00306D8
:101FA0001946A44601330134002EF3D11CF003047A
:101FB000634608BFC1EB020C68D06542C4F1040A55
:101FC0000CEB050733464FEACA0A5CF805604FEA96
:101FD000C408551A08E057F8044F264604FA0AF4D4
:101FE00049EA0404CC5004335C18032D26FA08F99E
:101FF000A5F104050CEB0306EDDC002302E0F15C27
:10200000E154013319199142F9D3BCE753F8404C1C
:1020100041F8404C53F83C4C41F83C4C53F8384C98
:1020200041F8384C53F8344C41F8344C53F8304CA8
:1020300041F8304C53F82C4C41F82C4C53F8284CB8
:1020400041F8284C53F8244C41F8244C53F8204CC8
:1020500041F8204C53F81C4C41F81C4C53F8184CD8
:1020600041F8184C53F8144C41F8144C53F8104CE8
:1020700041F8104C53F80C4C41F80C4C53F8084CF8
:1020800041F8084C53F8044C41F8044C1C460D46EA
:1020900040334031BCF13F0FACF1400CB6DC21467F
:1020A0002B46541B0FE051F8105C43F8105C51F8BC
:1020B0000C5C43F80C5C51F8085C43F8085C51F880
:1020C000045C43F8045C0F2C0D469C4601F11001A2
:1020D00003F11003A4F11004E5DCCCEB02010023B2
:1020E00003E0EC584CF8034004335E19032903EB7A
:1020F0000C04A1F10401F4DC7FE700BF032AC9B29C
:1021000030B407D822B10023C15401339342FBD12C
:1021100030BC704700EB020C034601E003F8011CE1
:1021200003F003041A460133002CF7D14FF00133BA
:10213000C2EB0C0403FB01F31FE042F8403C42F801
:102140003C3C42F8383C42F8343C42F8303C42F8DF
:102150002C3C42F8283C42F8243C42F8203C42F80F
:102160001C3C42F8183C42F8143C42F8103C42F83F
:102170000C3C42F8083C42F8043C154640323F2CE7
:10218000A4F14004D9DC2A46C5EB0C0407E042F870
:10219000103C42F80C3C42F8083C42F8043C15461E
:1021A00010320F2CA4F11004F1DC2A46C5EB0C050B
:1021B00001E042F8043C14460432032DA5F1040565
:1021C000F7DC01E004F8011B6445FBD3A0E700BF86
:1021D00008B500F017F8074800B10068064901B1DA
:1021E00009680022FDF772FF044B0BB1AFF30080CA
:1021F000FEE700BF0000000000000000000000003B
:10220000FEE7000070B542F2B05642F2B055C0F29F
:102210000006C0F20005761BB61006D0002455F863
:10222000243001349847A642F9D842F2B05542F220
:10223000B856C0F20005C0F20006761B00F0B2F9F5
:10224000B61006D0002455F8243001349847A64231
:0C225000F9D870BD00000000FFFFFFFF88
:10225C006950102E000A010100510040200040512D
:10226C0000403000C0510040100000000140001040
:10227C0000140140000800400140000A004C0140DD
:10228C000002005001402000014500400352004074
:10229C0001650040011501403D1601401F1701402A
:1022AC00011901400340014002410140024201403A
:1022BC0002430140034701400348014005490140E6
:1022CC00024C014002500140015101407E021410A9
:1022DC0019027C40872DAA401001340138023E10AF
:1022EC004010410549FF4AFF4BFF4DA04F045018C9
:1022FC0058045A045F01604062C06440654066C087
:10230C0068C06AC06CC06EC0880492019301A407B7
:10231C00A807B001B202B604B701C010C105C5D2FE
:10232C00C721C83BC9FFCAFFCBFFCDAFCE0FCF042F
:10233C00D018D280D425D804D904DA04DB04DF0108
:10234C00E040E2C0E440E540E6C0E8C0EAC0ECC0D2
:10235C00EEC0001009020E801028181019401A80C7
:10236C001C041E802001218031024001458049055A
:10237C004A024E0250285202594560047102C002B2
:10238C00C218C406CC01D018D218D60BD804EE0A49
:10239C00EE0A33803640CC30A640A780A640A780FA
:1023AC00A640A78008080F40C20CAE40AF80EE508C
:1023BC005B409B40AB40D480EE80AC08AF4010013A
:1023CC001A01000A0000000000000000C00000001C
:1023DC0010001000000000000000000000020200CD
:1023EC00020000003031323334353637383941424F
:1023FC00434445461201000200000008B4043BF1BE
:10240C000001010480010000090229000101028081
:10241C00FA09040000020300000309211101000164
:10242C002224000705010340000107058203400038
:10243C0001000000040309042C0343007900700020
:10244C0072006500730073002000530065006D007E
:10245C00690063006F006E00640075006300740017
:10246C006F0072002A0343006F006E006600690063
:10247C006700750072006100740069006F006E00E7
:10248C002000300078003000300030003100220392
:10249C0049006E0074006500720066006100630004
:1024AC006500200030007800300030003000310032
:1024BC0026034B0069007400500072006F00670027
:1024CC00200042006F006F0074006C006F00610010
:1024DC00640065007200000002030000240005FF88
:1024EC000900A1010900A1010900150025FF7508CB
:1024FC00954091020900150025FF75089540810251
:10250C00C0C000004100000030E3FF1F2CE3FF1FA0
:10251C004100000074E3FF1FB8E3FF1F0000000040
:10252C0010250000000000001C2500000000000029
:10253C000000000001000000E82400000100000081
:10254C0026240000010000002825000000000103E3
:10255C004000030000008203400003000300000061
:10256C0001000000142400000200000058250000A7
:10257C00010000005025000000000000682500004C
:10258C000100000000240000010000006C25000088
:10259C00010000008C250000F8B500BFF8BC08BC99
:1025AC009E467047810000005D010000F8B500BF39
:1025BC00F8BC08BC9E4670476D000000000000008F
:1025CC00E025000008E1FF1F400000007802000039
:0425DC0000000000FB
:1025E0000000000000366E0118000000C05D000011
:1025F0000000E02E582200005422000022030000B8
:1026000000000000000000000000000000000000CA
:1026100000000000000000000000000000000000BA
:0400000300000135C3
:00000001FF
