:10280000008000201563000001EA000001EA0000DA
:1028100001EA000001EA000001EA000001EA00000C
:1028200001EA000001EA000001EA000001EA0000FC
:1028300001EA000001EA000001EA000001EA0000EC
:1028400001EA000001EA000001EA000001EA0000DC
:1028500001EA000001EA000001EA000001EA0000CC
:1028600001EA000001EA000001EA000001EA0000BC
:1028700001EA000001EA000001EA000001EA0000AC
:1028800001EA000001EA000001EA000001EA00009C
:1028900001EA000001EA000001EA000001EA00008C
:1028A00001EA000001EA000001EA000001EA00007C
:1028B00001EA000001EA000001EA000001EA00006C
:1028C00080B51448144B21E05C689968DD688C423F
:1028D0000CD0002205E0A6180832D6E9008941E9AB
:1028E00002898C460831AA42F5D101E004EB050CBF
:1028F0001C696146002204E008320026002741E9F5
:1029000002670831A242F7D1143301380028DBD125
:102910000CF05EF80100000024F7000048F2681394
:10292000C1F6FF731A780AB901201870704700BF0A
:1029300048F20010C1F6FF7008B503682BB140F2F1
:102940000003C0F2000303B1984708BD80B500AF93
:1029500062B603F033F802F04DFA02F04DFD00F0DC
:102960007BF803F067FA03F0BDFC48F26913C1F687
:10297000FF734FF000021A7000E000BF4FF001003B
:1029800005F0B0FC07F0B0FF0346002BFAD048F288
:102990006913C1F6FF731B78DBB2002B0DD14FF02A
:1029A00000004FF0020107F06FFA0BF0D3F90BF0C3
:1029B000C9F803E003F00CFB00E000BF07F0B8FD2E
:1029C0000346002BF6D04FF0000005F08BFC4FF0D3
:1029D000020007F025FF4FF0040007F021FF03F08D
:1029E0008BFC48F26913C1F6FF734FF000021A70B6
:1029F00013E002F011FD02F077F903F007FB03F09A
:102A0000E7FA07F0A1FD0346002B06D048F2691350
:102A1000C1F6FF734FF001021A7007F065FF03461D
:102A2000002B07D048F26913C1F6FF731B78DBB2A5
:102A3000002BDED000F072F848F26913C1F6FF7384
:102A40001B78DBB2002B98D107F0B2FC0BF098F9A1
:102A50000BF08AF892E700BF80B483B000AF48F271
:102A60005B33C1F6FF734FF000021A7048F2643313
:102A7000C1F6FF734FF021021A7048F25A33C1F6C3
:102A8000FF734FF000021A704FF00003FB710BE070
:102A9000FA7948F26033C1F6FF734FF000019954A0
:102AA000FB7903F10103FB71FB79032BF0D945F2AC
:102AB0001103C4F2000345F21102C4F200021278BD
:102AC000D2B2D2B202F0F10242F00202D2B2D2B2DB
:102AD0001A7045F21003C4F2000345F21002C4F26A
:102AE00000021278D2B2D2B202F0F10242F0020237
:102AF000D2B2D2B21A7042F20043C4F20A234FF0AB
:102B000001021A7042F20443C4F20A234FF0010298
:102B10001A7007F10C07BD4680BC704780B400AF47
:102B200045F21003C4F2000345F21002C4F20002A1
:102B30001278D2B2D2B202F0F10242F00202D2B264
:102B4000D2B21A7045F21103C4F2000345F2110229
:102B5000C4F200021278D2B2D2B202F0F10242F014
:102B60000202D2B2D2B21A7045F21403C4F20003C8
:102B700045F21402C4F200021278D2B2D2B202F0CC
:102B8000F10242F00202D2B2D2B21A70BD4680BC4B
:102B9000704700BF80B400AF45F21003C4F20003D9
:102BA00045F21002C4F200021278D2B2D2B202F0A0
:102BB000F10242F00202D2B2D2B21A7042F20443DF
:102BC000C4F20A234FF000021A7000BF00BF00BF1A
:102BD00042F20443C4F20A234FF001021A7000BF0C
:102BE00000BF00BFBD4680BC704700BF80B500AFCE
:102BF00042F20043C4F20A234FF000021A7045F279
:102C00001003C4F2000345F21002C4F2000212786D
:102C1000D2B2D2B202F0F10242F00C02D2B2D2B27F
:102C20001A7000BF00BF42F20443C4F20A234FF0FF
:102C300000021A7000BF00BF00BF42F20443C4F29A
:102C40000A234FF001021A7000BF00BF00BF42F21A
:102C50000443C4F20A234FF000021A7000BF00BF01
:102C600000BF42F20443C4F20A234FF001021A707B
:102C700000BF00BF00BF42F20443C4F20A234FF07A
:102C800000021A7000BF00BF00BF42F20443C4F24A
:102C90000A234FF001021A7000BF00BF00BF42F2CA
:102CA0000443C4F20A234FF000021A7000BF00BFB1
:102CB00000BF42F20443C4F20A234FF001021A702B
:102CC00000BF00BF00BF42F20443C4F20A234FF02A
:102CD00000021A7000BF00BF00BF42F20443C4F2FA
:102CE0000A234FF001021A7000BF00BF00BF42F27A
:102CF0000443C4F20A234FF000021A7000BF00BF61
:102D000000BF42F20443C4F20A234FF001021A70DA
:102D100000BF00BF00BF42F20443C4F20A234FF0D9
:102D200000021A7000BF00BF00BF42F20443C4F2A9
:102D30000A234FF001021A7000BF00BF00BF42F229
:102D40000443C4F20A234FF000021A7000BF00BF10
:102D500000BF42F20443C4F20A234FF001021A708A
:102D600000BF00BF00BF42F20443C4F20A234FF089
:102D700000021A7000BF00BF00BF42F20443C4F259
:102D80000A234FF001021A7000BF00BF00BF42F2D9
:102D90000443C4F20A234FF000021A7000BF00BFC0
:102DA00000BF42F20443C4F20A234FF001021A703A
:102DB00000BF00BF00BF42F20443C4F20A234FF039
:102DC00000021A7000BF00BF00BF42F20443C4F209
:102DD0000A234FF001021A7000BF00BF00BF42F289
:102DE0000443C4F20A234FF000021A7000BF00BF70
:102DF00000BF42F20443C4F20A234FF001021A70EA
:102E000000BF00BF00BF42F20443C4F20A234FF0E8
:102E100000021A7000BF00BF00BF42F20443C4F2B8
:102E20000A234FF001021A7000BF00BF00BF42F238
:102E30000443C4F20A234FF000021A7000BF00BF1F
:102E400000BF42F20443C4F20A234FF001021A7099
:102E500000BF00BF00BF42F20443C4F20A234FF098
:102E600000021A7000BF00BF00BF42F20443C4F268
:102E70000A234FF001021A7000BF00BF00BF42F2E8
:102E80000443C4F20A234FF000021A7000BF00BFCF
:102E900000BF42F20443C4F20A234FF001021A7049
:102EA00000BF00BF00BF42F20443C4F20A234FF048
:102EB00000021A7000BF00BF00BF42F20443C4F218
:102EC0000A234FF001021A7000BF00BF00BF42F298
:102ED0000443C4F20A234FF000021A7000BF00BF7F
:102EE00000BF42F20443C4F20A234FF001021A70F9
:102EF00000BF00BF00BF42F20443C4F20A234FF0F8
:102F000000021A7000BF00BF00BF42F20443C4F2C7
:102F10000A234FF001021A7000BF00BF00BF42F247
:102F20000443C4F20A234FF000021A7000BF00BF2E
:102F300000BF42F20443C4F20A234FF001021A70A8
:102F400000BF00BF00BF48F25B33C1F6FF731B78C0
:102F5000184600F063F945F21003C4F2000345F28D
:102F60001002C4F200021278D2B2D2B202F0F10220
:102F700042F00202D2B2D2B21A7080BD80B400AF69
:102F800045F21003C4F2000345F21002C4F200023D
:102F90001278D2B2D2B202F0F10242F00202D2B200
:102FA000D2B21A7042F20443C4F20A234FF0000274
:102FB0001A7042F22043C4F20A231B78DAB248F2B4
:102FC0006B13C1F6FF731A7042F20443C4F20A2372
:102FD0004FF001021A7042F20443C4F20A234FF088
:102FE00000021A7042F22043C4F20A231B78DAB2BC
:102FF00048F26C13C1F6FF731A7042F20443C4F234
:103000000A234FF001021A7042F20443C4F20A2369
:103010004FF000021A7042F22043C4F20A231B78D8
:10302000DAB248F26D13C1F6FF731A7042F204432C
:10303000C4F20A234FF001021A70BD4680BC7047EB
:1030400080B582B000AF786045F21003C4F200038F
:1030500045F21002C4F200021278D2B2D2B202F0EB
:10306000F10242F00C02D2B2D2B21A707B681B7825
:103070007A6802F101027A60184600F0CFF87B68A6
:103080001B787A6802F101027A60184600F0C6F8EF
:103090007B681B787A6802F101027A60184600F0BA
:1030A000BDF87B681B78184600F0B8F807F10807F0
:1030B000BD4680BD80B582B000AF786045F2100398
:1030C000C4F2000345F21002C4F200021278D2B238
:1030D000D2B202F0F10242F00202D2B2D2B21A70BF
:1030E00000F074F903461A467B681A707B6803F196
:1030F00001037B6000F06AF903461A467B681A7088
:103100007B6803F101037B6000F060F903461A4617
:103110007B681A707B6803F101037B6000F056F94D
:1031200003461A467B681A7007F10807BD4680BD42
:1031300090B482B000AF0346FB714FF00004FB79FE
:1031400003F00103DBB2002B02D004F10103DCB277
:10315000FB794FEA5303FB71FB7903F00103DBB208
:10316000002B02D004F10103DCB2FB794FEA5303D8
:10317000FB71FB7903F00103DBB2002B02D004F1F9
:103180000103DCB2FB794FEA5303FB71FB7903F0D7
:103190000103DBB2002B02D004F10103DCB2FB79A6
:1031A0004FEA5303FB71FB7903F00103DBB2002B01
:1031B00002D004F10103DCB2FB794FEA5303FB7147
:1031C000FB7903F00103DBB2002B02D004F1010311
:1031D000DCB2FB794FEA5303FB71FB7903F0010387
:1031E000DBB2002B02D004F10103DCB2FB794FEA21
:1031F0005303FB71FB7903F00103DBB2002B02D018
:1032000004F10103DCB2FB794FEA5303FB7123465F
:10321000184607F10807BD4690BC704780B483B0DC
:1032200000AF0346FB7140F20013C2F20003FA79CB
:103230001A7042F20443C4F20A234FF000021A70DB
:1032400042F20043C4F20A2342F20002C2F2002218
:103250001278D2B21A7042F20443C4F20A234FF039
:1032600001021A7042F20443C4F20A234FF0000232
:103270001A7042F20043C4F20A2342F20402C2F27C
:1032800000221278D2B21A7042F20443C4F20A2326
:103290004FF001021A7042F20443C4F20A234FF0C5
:1032A00000021A7042F20043C4F20A2342F20802FA
:1032B000C2F200221278D2B21A7042F20443C4F26F
:1032C0000A234FF001021A7042F20443C4F20A23A7
:1032D0004FF000021A7042F20043C4F20A2342F295
:1032E0000C02C2F200221278D2B21A7042F20443E7
:1032F000C4F20A234FF001021A7042F20443C4F2EE
:103300000A234FF000021A7042F20043C4F20A236B
:1033100042F21002C2F200221278D2B21A7042F2C5
:103320000443C4F20A234FF001021A7042F204432C
:10333000C4F20A234FF000021A7042F20043C4F2B2
:103340000A2342F21402C2F200221278D2B21A7098
:1033500042F20443C4F20A234FF001021A7042F20F
:103360000443C4F20A234FF000021A7042F20043F1
:10337000C4F20A2342F21802C2F200221278D2B238
:103380001A7042F20443C4F20A234FF001021A7089
:1033900042F20443C4F20A234FF000021A7042F2D0
:1033A0000043C4F20A2342F21C02C2F20022127845
:1033B000D2B21A7042F20443C4F20A234FF001025F
:1033C0001A7007F10C07BD4680BC704780B400AF8F
:1033D00042F20443C4F20A234FF000021A7042F290
:1033E0000003C2F2002342F22042C4F20A22127801
:1033F000D2B21A7042F20443C4F20A234FF001021F
:103400001A7042F20443C4F20A234FF000021A7009
:1034100042F20403C2F2002342F22042C4F20A2222
:103420001278D2B21A7042F20443C4F20A234FF067
:1034300001021A7042F20443C4F20A234FF0000260
:103440001A7042F20803C2F2002342F22042C4F290
:103450000A221278D2B21A7042F20443C4F20A234A
:103460004FF001021A7042F20443C4F20A234FF0F3
:1034700000021A7042F20C03C2F2002342F2204210
:10348000C4F20A221278D2B21A7042F20443C4F291
:103490000A234FF001021A7042F20443C4F20A23D5
:1034A0004FF000021A7042F21003C2F2002342F2FF
:1034B0002042C4F20A221278D2B21A7042F20443B5
:1034C000C4F20A234FF001021A7042F20443C4F21C
:1034D0000A234FF000021A7042F21403C2F20023D2
:1034E00042F22042C4F20A221278D2B21A7042F298
:1034F0000443C4F20A234FF001021A7042F204435B
:10350000C4F20A234FF000021A7042F21803C2F20A
:10351000002342F22042C4F20A221278D2B21A7078
:1035200042F20443C4F20A234FF001021A7042F23D
:103530000443C4F20A234FF000021A7042F21C0343
:10354000C2F2002342F22042C4F20A221278D2B21E
:103550001A7042F20443C4F20A234FF001021A70B7
:1035600040F20013C2F200031B78DBB21846BD46DE
:1035700080BC704780B582B000AF45F21103C4F241
:10358000000345F21102C4F200021278D2B2D2B2A4
:1035900002F0F10242F00C02D2B2D2B21A7002F082
:1035A00017FF0346FB7142F20043C4F20A234FF0B7
:1035B00001021A7045F21003C4F2000345F2100232
:1035C000C4F200021278D2B2D2B202F0F10242F09A
:1035D0000C02D2B2D2B21A7042F20443C4F20A23ED
:1035E0004FF000021A7000BF00BF00BF42F2044358
:1035F000C4F20A234FF001021A7000BF00BF00BFDF
:1036000042F20443C4F20A234FF000021A7000BFD2
:1036100000BF00BF42F20443C4F20A234FF001028C
:103620001A7000BF00BF00BF42F20443C4F20A2375
:103630004FF000021A7000BF00BF00BF42F2044307
:10364000C4F20A234FF001021A7000BF00BF00BF8E
:1036500042F20443C4F20A234FF000021A7000BF82
:1036600000BF00BF42F20443C4F20A234FF001023C
:103670001A7000BF00BF00BF42F20443C4F20A2325
:103680004FF000021A7000BF00BF00BF42F20443B7
:10369000C4F20A234FF001021A7000BF00BF00BF3E
:1036A00042F20443C4F20A234FF000021A7000BF32
:1036B00000BF00BF42F20443C4F20A234FF00102EC
:1036C0001A7000BF00BF00BF42F20443C4F20A23D5
:1036D0004FF000021A7000BF00BF00BF42F2044367
:1036E000C4F20A234FF001021A7000BF00BF00BFEE
:1036F00042F20443C4F20A234FF000021A7000BFE2
:1037000000BF00BF42F20443C4F20A234FF001029B
:103710001A7000BF00BF00BF42F20443C4F20A2384
:103720004FF000021A7000BF00BF00BF42F2044316
:10373000C4F20A234FF001021A7000BF00BF00BF9D
:1037400042F20443C4F20A234FF000021A7000BF91
:1037500000BF00BF42F20443C4F20A234FF001024B
:103760001A7000BF00BF00BF42F20443C4F20A2334
:103770004FF000021A7000BF00BF00BF42F20443C6
:10378000C4F20A234FF001021A7000BF00BF00BF4D
:1037900042F20443C4F20A234FF000021A7000BF41
:1037A00000BF00BF42F20443C4F20A234FF00102FB
:1037B0001A7000BF00BF00BF42F20443C4F20A23E4
:1037C0004FF000021A7000BF00BF00BF42F2044376
:1037D000C4F20A234FF001021A7000BF00BF00BFFD
:1037E00042F20443C4F20A234FF000021A7000BFF1
:1037F00000BF00BF42F20443C4F20A234FF00102AB
:103800001A7000BF00BF00BF42F20443C4F20A2393
:103810004FF000021A7000BF00BF00BF42F2044325
:10382000C4F20A234FF001021A7000BF00BF00BFAC
:1038300042F20443C4F20A234FF000021A7000BFA0
:1038400000BF00BF42F20443C4F20A234FF001025A
:103850001A7000BF00BF00BF42F20443C4F20A2343
:103860004FF000021A7000BF00BF00BF42F20443D5
:10387000C4F20A234FF001021A7000BF00BF00BF5C
:1038800042F20443C4F20A234FF000021A7000BF50
:1038900000BF00BF42F20443C4F20A234FF001020A
:1038A0001A7000BF00BF00BF42F20443C4F20A23F3
:1038B0004FF000021A7000BF00BF00BF42F2044385
:1038C000C4F20A234FF001021A7000BF00BF00BF0C
:1038D00042F20443C4F20A234FF000021A7000BF00
:1038E00000BF00BF42F20443C4F20A234FF00102BA
:1038F0001A7000BF00BF00BF42F20443C4F20A23A3
:103900004FF000021A7000BF00BF00BF42F2044334
:10391000C4F20A234FF001021A7000BF00BF00BFBB
:1039200042F20443C4F20A234FF000021A7000BFAF
:1039300000BF00BF42F20443C4F20A234FF0010269
:103940001A7000BF00BF00BF42F20443C4F20A2352
:103950004FF000021A7000BF00BF00BF42F20443E4
:10396000C4F20A234FF001021A7000BF00BF00BF6B
:1039700042F20443C4F20A234FF000021A7000BF5F
:1039800000BF00BF42F20443C4F20A234FF0010219
:103990001A7000BF00BF00BF42F20443C4F20A2302
:1039A0004FF000021A7000BF00BF00BF42F2044394
:1039B000C4F20A234FF001021A7000BF00BF00BF1B
:1039C00042F20443C4F20A234FF000021A7000BF0F
:1039D00000BF00BF42F20443C4F20A234FF00102C9
:1039E0001A7000BF00BF00BF42F20443C4F20A23B2
:1039F0004FF000021A7000BF00BF00BF42F2044344
:103A0000C4F20A234FF001021A7000BF00BF00BFCA
:103A100042F20443C4F20A234FF000021A7000BFBE
:103A200000BF00BF42F20443C4F20A234FF0010278
:103A30001A7000BF00BF00BF42F20443C4F20A2361
:103A40004FF000021A7000BF00BF00BF42F20443F3
:103A5000C4F20A234FF001021A7000BF00BF00BF7A
:103A600042F20443C4F20A234FF000021A7000BF6E
:103A700000BF00BF42F20443C4F20A234FF0010228
:103A80001A7000BF00BF00BF42F20443C4F20A2311
:103A90004FF000021A7000BF00BF00BF42F20443A3
:103AA000C4F20A234FF001021A7000BF00BF00BF2A
:103AB00042F20443C4F20A234FF000021A7000BF1E
:103AC00000BF00BF42F20443C4F20A234FF00102D8
:103AD0001A7000BF00BF00BF42F20443C4F20A23C1
:103AE0004FF000021A7000BF00BF00BF42F2044353
:103AF000C4F20A234FF001021A7000BF00BF00BFDA
:103B000042F20443C4F20A234FF000021A7000BFCD
:103B100000BF00BF42F20443C4F20A234FF0010287
:103B20001A7000BF00BF00BF42F20443C4F20A2370
:103B30004FF000021A7000BF00BF00BF42F2044302
:103B4000C4F20A234FF001021A7000BF00BF00BF89
:103B500042F20443C4F20A234FF000021A7000BF7D
:103B600000BF00BF42F20443C4F20A234FF0010237
:103B70001A7000BF00BF00BF42F20443C4F20A2320
:103B80004FF000021A7000BF00BF00BF42F20443B2
:103B9000C4F20A234FF001021A7000BF00BF00BF39
:103BA00042F20443C4F20A234FF000021A7000BF2D
:103BB00000BF00BF42F20443C4F20A234FF00102E7
:103BC0001A7000BF00BF00BF42F20443C4F20A23D0
:103BD0004FF000021A7000BF00BF00BF42F2044362
:103BE000C4F20A234FF001021A7000BF00BF00BFE9
:103BF00042F20443C4F20A234FF000021A7000BFDD
:103C000000BF00BF42F20443C4F20A234FF0010296
:103C10001A7000BF00BF00BF42F20443C4F20A237F
:103C20004FF000021A7000BF00BF00BF42F2044311
:103C3000C4F20A234FF001021A7000BF00BF00BF98
:103C400042F20443C4F20A234FF000021A7000BF8C
:103C500000BF00BF42F20443C4F20A234FF0010246
:103C60001A7000BF00BF00BF42F20443C4F20A232F
:103C70004FF000021A7000BF00BF00BF42F20443C1
:103C8000C4F20A234FF001021A7000BF00BF00BF48
:103C900042F20443C4F20A234FF000021A7000BF3C
:103CA00000BF00BF42F20443C4F20A234FF00102F6
:103CB0001A7000BF00BF00BF42F20443C4F20A23DF
:103CC0004FF000021A7000BF00BF00BF42F2044371
:103CD000C4F20A234FF001021A7000BF00BF00BFF8
:103CE00042F20443C4F20A234FF000021A7000BFEC
:103CF00000BF00BF42F20443C4F20A234FF00102A6
:103D00001A7000BF00BF00BF42F20443C4F20A238E
:103D10004FF000021A7000BF00BF00BF42F2044320
:103D2000C4F20A234FF001021A7000BF00BF00BFA7
:103D300042F20443C4F20A234FF000021A7000BF9B
:103D400000BF00BF42F20443C4F20A234FF0010255
:103D50001A7000BF00BF00BF42F20443C4F20A233E
:103D60004FF000021A7000BF00BF00BF42F20443D0
:103D7000C4F20A234FF001021A7000BF00BF00BF57
:103D800042F20443C4F20A234FF000021A7000BF4B
:103D900000BF00BF42F20443C4F20A234FF0010205
:103DA0001A7000BF00BF00BF42F20443C4F20A23EE
:103DB0004FF000021A7000BF00BF00BF42F2044380
:103DC000C4F20A234FF001021A7000BF00BF00BF07
:103DD00042F20443C4F20A234FF000021A7000BFFB
:103DE00000BF00BF42F20443C4F20A234FF00102B5
:103DF0001A7000BF00BF00BF42F20443C4F20A239E
:103E00004FF000021A7000BF00BF00BF42F204432F
:103E1000C4F20A234FF001021A7000BF00BF00BFB6
:103E200042F20443C4F20A234FF000021A7000BFAA
:103E300000BF00BF42F20443C4F20A234FF0010264
:103E40001A7000BF00BF00BF42F20443C4F20A234D
:103E50004FF000021A7000BF00BF00BF42F20443DF
:103E6000C4F20A234FF001021A7000BF00BF00BF66
:103E700042F20443C4F20A234FF000021A7000BF5A
:103E800000BF00BF42F20443C4F20A234FF0010214
:103E90001A7000BF00BF00BF42F20443C4F20A23FD
:103EA0004FF000021A7000BF00BF00BF42F204438F
:103EB000C4F20A234FF001021A7000BF00BF00BF16
:103EC00042F20443C4F20A234FF000021A7000BF0A
:103ED00000BF00BF42F20443C4F20A234FF00102C4
:103EE0001A7000BF00BF00BF42F20443C4F20A23AD
:103EF0004FF000021A7000BF00BF00BF42F204433F
:103F0000C4F20A234FF001021A7000BF00BF00BFC5
:103F100042F20443C4F20A234FF000021A7000BFB9
:103F200000BF00BF42F20443C4F20A234FF0010273
:103F30001A7000BF00BF00BFFB79184602F04CFAB0
:103F400045F21003C4F2000345F21002C4F200026D
:103F50001278D2B2D2B202F0F10242F00202D2B230
:103F6000D2B21A7007F10807BD4680BD80B584B093
:103F700000AF78604FF00003FB737B681B787A68B2
:103F800002F101027A601846FFF7D2F803461A469A
:103F9000FB7B1344FB737B681B787A6802F1010298
:103FA0007A601846FFF7C4F803461A46FB7B1344B1
:103FB000FB737B681B787A6802F101027A6018460D
:103FC000FFF7B6F803461A46FB7B1344FB737B6886
:103FD0001B787A6802F101027A601846FFF7A8F8A8
:103FE00003461A46FB7B1344FB73FB7B03F0010380
:103FF000184607F11007BD4680BD00BF80B586B0EA
:1040000000AF02460B46FA71BB714FF00003BB7460
:104010004FF06403BB8202F0DBF90346FB754FF0FF
:1040200000037B7438E1FB79002B69D145F214035E
:10403000C4F2000345F21402C4F200021278D2B2B4
:10404000D2B202F0F10242F00C02D2B2D2B21A7035
:1040500045F21403C4F2000345F21402C4F2000254
:104060001278D2B202F0FE021A7045F21103C4F2C5
:10407000000345F21102C4F200021278D2B2D2B2A9
:1040800002F0F10242F00C02D2B2D2B21A7045F242
:104090001003C4F2000345F21002C4F200021278C9
:1040A000D2B2D2B202F0F10242F00C02D2B2D2B2DB
:1040B0001A7042F20043C4F20A234FF001021A7050
:1040C00042F20443C4F20A234FF001021A704FF087
:1040D000640002F0A5FE45F21403C4F2000345F2A9
:1040E0001402C4F200021278D2B2D2B202F0F1028B
:1040F00042F00202D2B2D2B21A704FF06403BB8215
:104100004FF00003FB74FFF735FA48F26033C1F655
:10411000FF734FF000021A7048F25B33C1F6FF7371
:104120006FF05A021A7048F26030C1F6FF7000F06A
:10413000EBF948F26433C1F6FF731B7803F00F0309
:10414000012B02D14FF00103FB74BB8A03F1FF3353
:10415000BB82BB8A002B02D0FB7C002BD3D06FF03C
:1041600056033B734FF000037B734FF00003BB73A8
:104170004FF00003FB734FF054033B7407F10C0244
:1041800007F10B031046194600F026FBFB7A03F0FB
:104190000703012B73D16FF04E033B734FF0000305
:1041A0007B734FF00003BB734FF00003FB734FF0C2
:1041B00000033B7407F10C0207F10B03104619468C
:1041C00000F00AFBFB7A03F00703012B59D16FF0D3
:1041D0005C033B734FF002037B734FF00003BB7330
:1041E0004FF00003FB734FF000033B7407F10C0228
:1041F00007F10B031046194600F0EEFAFB7A03F0C4
:104200000703012B3FD16FF074033B734FF014038E
:104210007B734FF00003BB734FF00303FB734FF04E
:1042200040033B7407F10C0207F10B0310461946DB
:1042300000F0D2FAFB7A03F00703012B25D16FF0CF
:1042400044033B734FF000037B734FF00003BB73D9
:104250004FF00003FB736FF07F033B7407F10C0218
:1042600007F10B031046194600F0B6FAFB7A03F08B
:104270000703012B0BD14FF00103BB7411E000BF0A
:1042800006E000BF04E000BF02E000BF00E000BFA6
:104290007B7C03F101037B747A7CBB799A42FFF447
:1042A000C2AEFB7D184602F097F8BB7C184607F1BA
:1042B0001807BD4680BD00BF80B584B000AF7860F0
:1042C00002F086F80346FB7348F26433C1F6FF73CD
:1042D0004FF000021A707868FFF748FE0346BB7380
:1042E000FEF784FCFEF756FCFEF748FE48F26C131E
:1042F000C1F6FF731B784FEA4303DAB248F26B133F
:10430000C1F6FF731B7842EA0303DAB248F26D1379
:10431000C1F6FF731B784FEA8303DBB242EA030363
:10432000DBB2DAB248F25A33C1F6FF731A70FEF705
:1043300031FC48F25A33C1F6FF731B78022B7BD055
:10434000042B79D0012B40F0AA807868FEF778FE24
:10435000BB7B002B07D042F20043C4F20A234FF08C
:1043600001021A7006E042F20043C4F20A234FF041
:1043700000021A7042F20443C4F20A234FF0000212
:104380001A7000BF00BF00BF42F20443C4F20A2308
:104390004FF001021A7000BF00BF00BF42F200439D
:1043A000C4F20A234FF000021A7042F20443C4F22E
:1043B0000A234FF000021A7000BF00BF00BF42F294
:1043C0000443C4F20A234FF001021A7000BF00BF79
:1043D00000BF45F21003C4F2000345F21002C4F21C
:1043E00000021278D2B2D2B202F0F10242F002021E
:1043F000D2B2D2B21A7042F20043C4F20A234FF092
:1044000001021A7042F20443C4F20A234FF001027F
:104410001A7048F26433C1F6FF731A7848F25A33BF
:10442000C1F6FF731B7842EA0303DAB248F2643341
:10443000C1F6FF731A705FE045F21003C4F2000387
:1044400045F21002C4F200021278D2B2D2B202F0E7
:10445000F10242F00202D2B2D2B21A7042F200432A
:10446000C4F20A234FF001021A7042F20443C4F26C
:104470000A234FF001021A7048F26433C1F6FF7349
:104480001A7848F25A33C1F6FF731B7842EA0303E5
:10449000DAB248F26433C1F6FF731A702CE045F2C9
:1044A0001003C4F2000345F21002C4F200021278B5
:1044B000D2B2D2B202F0F10242F00202D2B2D2B2D1
:1044C0001A7042F20043C4F20A234FF001021A703C
:1044D00042F20443C4F20A234FF001021A7048F278
:1044E0006433C1F6FF731B7843F00703DAB248F276
:1044F0006433C1F6FF731A70FB7B184601F06CFF42
:1045000007F11007BD4680BD90B585B000AF78605B
:1045100001F05EFF0346FB7348F26433C1F6FF739C
:104520004FF000021A70FEF761FBFEF733FBFEF757
:1045300025FD48F26C13C1F6FF731B784FEA430365
:10454000DAB248F26B13C1F6FF731B7842EA030339
:10455000DAB248F26D13C1F6FF731B784FEA83039A
:10456000DBB242EA0303DBB2DAB248F25A33C1F6F5
:10457000FF731A7048F25A33C1F6FF731B7803F1C8
:10458000FF33032B00F2B08001A252F823F000BFEA
:10459000A14500005F460000A14500005F46000005
:1045A0007868FEF787FD42F20443C4F20A234FF015
:1045B00000021A7042F22043C4F20A231B78DCB2D4
:1045C00042F20443C4F20A234FF001021A70FEF7CC
:1045D000E1FA7868FFF7CAFC0346A3420CD048F220
:1045E0006433C1F6FF731B7843F00803DAB248F274
:1045F0006433C1F6FF731A7045F21003C4F200036E
:1046000045F21002C4F200021278D2B2D2B202F025
:10461000F10242F00202D2B2D2B21A7042F2004368
:10462000C4F20A234FF001021A7042F20443C4F2AA
:104630000A234FF001021A7048F26433C1F6FF7387
:104640001A7848F25A33C1F6FF731B7842EA030323
:10465000DAB248F26433C1F6FF731A7073E0FEF702
:1046600099FA4FF000040AE07B684FF000021A70DC
:104670007B6803F101037B6004F10103DCB2032CCE
:10468000F2D945F21003C4F2000345F21002C4F25D
:1046900000021278D2B2D2B202F0F10242F002026B
:1046A000D2B2D2B21A7042F20043C4F20A234FF0DF
:1046B00001021A7042F20443C4F20A234FF00102CD
:1046C0001A7048F26433C1F6FF731A7848F25A330D
:1046D000C1F6FF731B7842EA0303DAB248F264338F
:1046E000C1F6FF731A702EE0FEF754FA45F210037C
:1046F000C4F2000345F21002C4F200021278D2B2F2
:10470000D2B202F0F10242F00202D2B2D2B21A7078
:1047100042F20043C4F20A234FF001021A7042F23F
:104720000443C4F20A234FF001021A7048F26433C2
:10473000C1F6FF731B7843F00703DAB248F2643323
:10474000C1F6FF731A70FB7B184601F045FE07F1B6
:104750001407BD4690BD00BF90B585B000AF78602E
:1047600039604FF00A044FF00003FB7309E0FA7B55
:104770003B6813444FF000021A70FB7B03F1010306
:10478000FB73FB7B042BF2D97B681A7848F25B330E
:10479000C1F6FF731A703868FFF7B6FE04F1FF33F5
:1047A000DCB2002C08D048F26433C1F6FF731B78EA
:1047B00003F00703072BEED03B6803F1040248F235
:1047C0006433C1F6FF731B7843F02003DBB2137030
:1047D00007F11407BD4690BD90B583B000AF786077
:1047E00039604FF00A047B681A7848F25B33C1F6EF
:1047F000FF731A707B6803F101031846FFF75CFD35
:1048000004F1FF33DCB2002C08D048F26433C1F667
:10481000FF731B7803F00703072BEBD048F26433D8
:10482000C1F6FF731B7843F02003DAB23B681A70BD
:1048300007F10C07BD4690BD80B586B000AFF860AB
:10484000B9607A604FF0020005F0BAFE0346FB82C1
:10485000BB681B889AB2FB8A13449BB21A467B68DA
:104860001A80BB681B881AB2FB681A44FB8A4FF097
:10487000020011461A4605F087FF4FF0020005F0CE
:10488000CFFFB7F916303F2B07DC48F26A13C1F6A9
:10489000FF734FF001021A7006E048F26A13C1F686
:1048A000FF734FF000021A7007F11807BD4680BD74
:1048B00080B586B000AFF860B9607A603B604FF0B9
:1048C00000037B824FF00003BB824FF000037B822A
:1048D0008FE0B7F91220FB6813441B7803F0040340
:1048E000002B26D0B7F91220FB681A443B681B88BE
:1048F00019B2BB680B4410461946FFF72DFF3B6801
:104900001B889BB203F105039BB21A463B681A80D1
:104910007B8A03F101039BB27B823B6A1B88B7F958
:1049200012201BB29A4263D17B684FF000021A80BA
:104930005FE03B6A1B889AB27B8AC3EB02039BB29F
:10494000A3F105039BB2FB82B7F91630002B1EDAE8
:104950004FF00003BB8211E0B7F91420FB68134449
:10496000B7F91210B7F914200A441146FA680A443C
:1049700012781A70BB8A03F10103BB82B7F91420C5
:10498000B7F9163003F105039A42E5DB15E0B7F9F4
:104990001220FB681A443B681B8819B2BB680B44A1
:1049A00010461946FFF718FF3B681B889BB203F1BE
:1049B00001039BB21A463B681A80B7F91630002BE8
:1049C00010DCB7F91630002B04D17B684FF00002E1
:1049D0001A8016E0FB8A03F105039BB21A467B6836
:1049E0001A800EE07B8A03F105039BB27B8200E014
:1049F00000BF3B6A1B88B7F912201BB29A42FFF630
:104A000068AF07F11807BD4680BD00BF80B582B012
:104A100000AF78600B467B804FF0010005F0B6FDDB
:104A20000346012BF8D17B884FF0010079681A46C4
:104A300005F0FEFD07F10807BD4680BD80B586B0D4
:104A400000AFF860B9607A604FF000037B824FF0EE
:104A50000003BB827B681B881BB203F13F02002B63
:104A6000B8BF13464FEAA313FB827B681B881AB2B8
:104A70004FEAE2734FEA93631A4402F03F02C3EB3A
:104A800002039AB27B681A804FF000037B8211E028
:104A9000B7F91420FB68134418464FF04001FFF7A4
:104AA000B5FF7B8A03F101037B82BB8A03F14003DC
:104AB0009BB2BB82B7F91220B7F916309A42E7DBF6
:104AC00048F26A13C1F6FF731B78002B0FD0B7F9B9
:104AD0001420FB681A447B681B881BB210461946D9
:104AE000FFF794FF7B684FF000021A801CE04FF044
:104AF00000037B8211E0B7F91220FB681344B7F979
:104B00001410B7F912200A441146FA680A441278C0
:104B10001A707B8A03F101037B827B681B88B7F9DB
:104B200012201BB29A42E6DB07F11807BD4680BD92
:104B300080B582B002AF48F26830C1F6FF7048F22B
:104B40005C31C1F6FF7148F25832C1F6FF72FFF7CF
:104B500073FE48F25833C1F6FF73009348F2683091
:104B6000C1F6FF7048F2D811C1F6FF7148F25C320D
:104B7000C1F6FF7248F2D413C1F6FF73FFF798FE37
:104B800048F2D810C1F6FF7048F25C31C1F6FF71EF
:104B900048F2D412C1F6FF72FFF750FFBD4680BD48
:104BA00080B582B000AF4FF000037B714FF000037F
:104BB000BB714FF00003FB7148F2F033C1F6FF7395
:104BC0001B7803F00F037B7148F2F033C1F6FF73DB
:104BD0001B784FEA1313BB7148F2F033C1F6FF7331
:104BE0005B78FB717B79002B18D1BA79FB79104681
:104BF0001946FFF703FA0346012B07D148F2AC33FD
:104C0000C1F6FF734FF001021A700EE048F2AC33A8
:104C1000C1F6FF734FF000021A7006E048F2AC33A1
:104C2000C1F6FF734FF000021A7007F10807BD4686
:104C300080BD00BF80B500AF01F034F90346B3F585
:104C40007A7F07D948F2AC33C1F6FF734FF04002C8
:104C5000DA7006E048F2AC33C1F6FF734FF00002A1
:104C6000DA7048F2AC33C1F6FF734FF000021A71EC
:104C700080BD00BF80B500AF45F21403C4F200034D
:104C800045F21402C4F200021278D2B2D2B202F09B
:104C9000F10242F00C02D2B2D2B21A7045F2140301
:104CA000C4F2000345F21402C4F200021278D2B238
:104CB00002F0FE021A704FF4C87002F0B1F845F22B
:104CC0001403C4F2000345F21402C4F20002127885
:104CD000D2B2D2B202F0F10242F00202D2B2D2B2A9
:104CE0001A70FDF71BFF80BD80B582B000AF4FF09A
:104CF0000003FB7148F2EC33C1F6FF731B78002B05
:104D000063D048F2EC33C1F6FF731B78402B13D00D
:104D1000402B04DC012B09D0042B0AD047E0422BA6
:104D200039D0422B21DB432B38D040E0FFF782FF04
:104D30003DE0FFF79FFF3AE048F2F033C1F6FF7322
:104D40001B78FB71FB79012B07D148F20413C1F6E4
:104D5000FF734FF001021A7029E048F20413C1F604
:104D6000FF734FF000021A7021E048F25C33C1F685
:104D7000FF734FF000021A8048F2D413C1F6FF739C
:104D80004FF000021A8048F25833C1F6FF734FF01B
:104D900000021A800BE0FFF703FF08E048F2F0334F
:104DA000C1F6FF731B78002B01D1FEF7E3FB48F23D
:104DB000EC33C1F6FF734FF000021A7048F2ED3386
:104DC000C1F6FF734FF000021A704FF0020005F0B9
:104DD00063FD0346002B08D048F20413C1F6FF73AD
:104DE0001B78012B01D1FFF7A3FE07F10807BD4691
:104DF00080BD00BF80B400AF48F2EC33C1F6FF7352
:104E00004FF000021A7048F2ED33C1F6FF734FF015
:104E100000021A70BD4680BC704700BF80B483B0EA
:104E200000AF4FF00103BB7148F2ED33C1F6FF73E1
:104E30001B78012B07D148F2B063C1F6FF734FF026
:104E400000021A8079E046F20603C4F200031B78E0
:104E5000DBB21A4646F20703C4F200031B78DBB24A
:104E60004FEA03239BB213449AB248F2B063C1F6EF
:104E7000FF731A8046F20103C4F200031B78DBB211
:104E8000012B09D148F2AC32C1F6FF7248F2B0638F
:104E9000C1F6FF735A6050E046F20103C4F200030A
:104EA0001B78DBB2022B48D107F1060248F2B0634F
:104EB000C1F6FF735A6046F20203C4F200031B7886
:104EC000FB7146F20303C4F200031B78DAB248F226
:104ED000EE33C1F6FF731A7046F20403C4F2000306
:104EE0001B78DAB248F2F033C1F6FF731A7046F25B
:104EF0000503C4F200031B78DAB248F2F033C1F6BE
:104F0000FF735A70FB79072B17D148F2EE33C1F6C5
:104F1000FF731B78002B10D048F2EE33C1F6FF73FD
:104F20001A7848F2EC33C1F6FF731A7048F2ED3389
:104F3000C1F6FF734FF001021A7007F10C07BD466E
:104F400080BC704780B500AF4FF0030005F01EFB3A
:104F50000346012BF8D14FF0030048F24061C1F63F
:104F6000FF714FF0400205F063FB4FF0040005F0C5
:104F700057FC80BD80B582B000AF04F067F900F047
:104F80000DFA4FF0010004F02BFF4FF0000004F089
:104F9000F9FE4FF00003BB7118E004F043FF034635
:104FA000002B17D14FF0010004F0ECFE4FF0280069
:104FB00001F036FF4FF0000004F0E4FE4FF028004F
:104FC00001F02EFFBB7903F10103BB71BB79312BDB
:104FD000E3D900E000BF4FF0000004F001FF4FF004
:104FE000010004F0CFFE4FF0500001F019FF4FF028
:104FF000010004F0F5FE4FF0500001F011FF04F045
:1050000011FF0346002B08D004F0DCFE0346002B02
:1050100003D04FF00103FB7102E04FF00003FB717E
:1050200000F0CEF904F0F6F8FB79184607F108070E
:10503000BD4680BD90B587B000AFBA607B600346C7
:10504000FB730B46BB734FF00003FB754FF000037F
:105050007B75FB7B03F00203002B41D004F0E2FEE2
:105060000346002B04D004F0ADFE0346002B11D103
:1050700004F014FD4FF00A0001F0D2FEFFF77AFFB2
:105080000346002B06D17B684FF000021A704FF0E8
:105090000103FB75FB7D012B5BD004F0D7F804F016
:1050A000B9F8BB681A78FB7B03F001031046194678
:1050B00004F000FC0346002B03D14FF00103BB7545
:1050C00002E04FF00003BB757B68BA7D1A707B7DF0
:1050D00003F101037B75BB7B03F1FF333B7539E0C3
:1050E000FB7B03F00403002B1ED0BB681A78FB7B0C
:1050F00003F001031046194604F05AFC0346002B46
:1051000003D14FF00103BB7502E04FF00003BB7504
:105110007B68BA7D1A707B7D03F101037B75BB7BD5
:1051200003F1FF333B7515E04FF00103BB75FB7BCB
:1051300003F00103DBB2002B0CD07B68BA7D1A7040
:105140007B7D03F101037B75BB7B03F1FF333B7573
:1051500000E000BFBB7D012B67D1FB7D012B64D03C
:10516000FB7B03F00103DBB2002B33D0BB7B002BB6
:1051700058D011E07A7D7B6802EB03044FF0010008
:1051800004F038FD034623707B7D03F101037B753A
:105190003B7D03F1FF333B753B7D002BEAD1FB7B6D
:1051A00003F00803002B0AD07A7D7B6802EB03042E
:1051B0004FF0000004F01EFD0346237035E07A7DB9
:1051C0007B6802EB03044FF0010004F013FD03467B
:1051D00023702AE0BB7B3B7520E07A7DBB681344DB
:1051E0001B78184604F09EFC0346002B03D14FF0B9
:1051F0000103BB7502E04FF00003BB757A7D7B684D
:105200001344BA7D1A70BB7D002B0DD07B7D03F15A
:1052100001037B753B7D03F1FF333B753B7D002B29
:10522000DBD102E000BF00E000BFFB7B03F008031E
:10523000002B01D004F032FC07F11C07BD4690BDE5
:1052400080B400AF45F26103C4F2000345F261028D
:10525000C4F200021278D2B2D2B202F0F10242F0ED
:105260000802D2B2D2B21A7045F26003C4F200034F
:1052700045F26002C4F200021278D2B2D2B202F059
:10528000F10242F00802D2B2D2B21A70BD4680BC1E
:10529000704700BF80B400AF45F26103C4F2000361
:1052A00045F26102C4F200021278D2B2D2B202F028
:1052B000F10242F00202D2B2D2B21A7045F2600399
:1052C000C4F2000345F26002C4F200021278D2B2C6
:1052D000D2B202F0F10242F00202D2B2D2B21A709D
:1052E000BD4680BC704700BF80B500AF4FF00100E5
:1052F00008F0E4FB4FF0010008F002FC45F2620305
:10530000C4F2000345F26202C4F200021278D2B283
:10531000D2B202F0F10242F00C02D2B2D2B21A7052
:1053200045F26303C4F2000345F26302C4F20002D3
:105330001278D2B2D2B202F0F10242F00C02D2B232
:10534000D2B21A7080BD00BF80B400AF45F26303D3
:10535000C4F2000345F26302C4F200021278D2B232
:10536000D2B202F0F10242F00202D2B2D2B21A700C
:1053700045F26203C4F2000345F26202C4F2000285
:105380001278D2B2D2B202F0F10242F00202D2B2EC
:10539000D2B21A70BD4680BC704700BF80B400AF67
:1053A00045F2C613C4F2000345F2C612C4F200026D
:1053B0001278D2B202F0FC021A70BD4680BC70476F
:1053C00080B400AF45F2C613C4F2000345F2C61222
:1053D000C4F200021278D2B242F00302D2B21A70C2
:1053E000BD4680BC704700BF80B500AF03F02EFF04
:1053F000FFF750FF80BD00BF80B500AFFFF7F4FF9F
:1054000048F2F533C1F6FF734FF000021A7002F054
:1054100039FE03F061FD80BD80B582B000AF4FF072
:10542000040005F039FA0346002B00F09D824FF08E
:10543000040005F0C5F80346BB80BB8803F0FF03FA
:105440004FF0040048F2FC31C1F6FF711A4605F036
:105450009BF90346FB7148F2F633C1F6FF734FF038
:1054600000021A7048F2F433C1F6FF734FF00002E5
:105470001A7048F2F633C1F6FF731B781A4648F2E9
:10548000FC33C1F6FF739B5CBB7048F2F633C1F688
:10549000FF731B7803F10103DAB248F2F633C1F669
:1054A000FF731A7048F2F633C1F6FF731B781A4681
:1054B00048F2FC33C1F6FF739B5C03F03F03FB70C3
:1054C00048F2F633C1F6FF731B7803F10103DAB239
:1054D00048F2F633C1F6FF731A7048F2F433C1F69E
:1054E000FF731B781A4648F24063C1F6FF734FF012
:1054F00000019954BB7803F02003002B56D003F031
:10550000A5FEBB7803F00C030C2B0DD14FF003006C
:105510004FF0010102F0D8FD48F23D63C1F6FF7380
:105520004FF00C021A7037E0BB7803F00C03042B29
:105530000DD14FF009004FF0010102F0C5FD48F216
:105540003D63C1F6FF734FF004021A7024E0BB788C
:1055500003F00C03002B0DD14FF027004FF0010199
:1055600002F0B2FD48F23D63C1F6FF734FF0000256
:105570001A7011E0BB7803F00C03082B0CD14FF02C
:105580004F004FF0010102F09FFD48F23D63C1F66C
:10559000FF734FF008021A7003F03CFE48F24063BC
:1055A000C1F6FF734FF001021A70DBE1BB7803F024
:1055B0001003002B14D0FFF7DDFC0346012B07D1AD
:1055C00048F24063C1F6FF734FF001021A70C9E15F
:1055D00048F24063C1F6FF734FF000021A70C1E158
:1055E000BB7803F00203002B00F0998148F2F633F8
:1055F000C1F6FF731B781A4648F2FC33C1F6FF73FD
:105600009B5C5BB2002B80F28A8100F04BFC03466E
:10561000B3F57A7F0DD948F2F433C1F6FF731B78E6
:105620001A4648F24063C1F6FF734FF005019954E2
:105630000CE048F2F433C1F6FF731B781A4648F2C7
:105640004063C1F6FF734FF00101995448F2F433FF
:10565000C1F6FF731B7803F10103DAB248F2F433A9
:10566000C1F6FF731A7048F2F633C1F6FF731B7868
:105670001A4648F2FC33C1F6FF739B5C802B40F066
:105680009D80BB7803F00103DBB2002B00F0678143
:1056900048F2F433C1F6FF731A78114648F24063BA
:1056A000C1F6FF734FF00100585402F10103DAB262
:1056B00048F2F433C1F6FF731A7048F2F433C1F6BE
:1056C000FF731A78114648F23D63C1F6FF731878EC
:1056D00048F24063C1F6FF73585402F10103DAB295
:1056E00048F2F433C1F6FF731A7000F0DBFB034697
:1056F0001A4648F2F833C1F6FF731A8048F2F433C1
:10570000C1F6FF731A78114648F2F833C1F6FF73F9
:105710001B88D8B248F24063C1F6FF73585402F1B7
:105720000103DAB248F2F433C1F6FF731A7048F29B
:10573000F433C1F6FF731A78114648F2F833C1F614
:10574000FF731B884FEA13239BB2D8B248F2406321
:10575000C1F6FF73585402F10103DAB248F2F43390
:10576000C1F6FF731A7048F2F433C1F6FF731A786A
:10577000114648F24063C1F6FF734FF000005854E1
:1057800002F10103DAB248F2F433C1F6FF731A7082
:1057900048F2F433C1F6FF731A78114648F24063B9
:1057A000C1F6FF734FF00000585402F10103DAB262
:1057B00048F2F433C1F6FF731A70D3E048F2F633BF
:1057C000C1F6FF731B781A4648F2FC33C1F6FF732B
:1057D0009B5C812B3AD148F2F433C1F6FF731A78FF
:1057E000114648F26E13C1F6FF73187848F2406311
:1057F000C1F6FF73585402F10103DAB248F2F433F0
:10580000C1F6FF731A7048F2F433C1F6FF731A78C9
:10581000114648F24063C1F6FF734FF0030058543D
:1058200002F10103DAB248F2F433C1F6FF731A70E1
:1058300048F2F433C1F6FF731B781A4648F240630E
:10584000C1F6FF734FF0020199548BE048F2F63332
:10585000C1F6FF731B781A4648F2FC33C1F6FF739A
:105860009B5C822B02D101F0ABFA7BE048F2F6336D
:10587000C1F6FF731B781A4648F2FC33C1F6FF737A
:105880009B5C8F2B3BD1FFF7AFFD48F2F633C1F69F
:10589000FF731B7803F10103DAB248F2F633C1F665
:1058A000FF731A7048F2F633C1F6FF731B781A467D
:1058B00048F2FC33C1F6FF739B5C002B1CD1FFF751
:1058C00013FDFFF7BDFC03F0A5FCFFF753FB48F207
:1058D000F533C1F6FF734FF000021A7048F2F4334B
:1058E000C1F6FF731B781A4648F24063C1F6FF7396
:1058F0004FF00001995435E0FFF726FD32E048F201
:10590000F633C1F6FF731B781A4648F2FC33C1F632
:10591000FF739B5CA02B24D107F062FD22E048F2CC
:10592000F533C1F6FF731B78002B0AD1BA78FB78E8
:10593000104619460E4A48F24063C1F6FF73FFF75E
:1059400079FB48F2F433C1F6FF731A78FB781344FD
:10595000DAB248F2F433C1F6FF731A7002E000BF06
:1059600000E000BFFFF7EEFA07F10807BD4680BD73
:10597000FE83FF1F80B485B000AF02460B46FA716C
:10598000BB714FF00103FB73FB79002B06D0BB7991
:10599000002B03D14FF00103FB7308E0FB79002BD0
:1059A00005D1BB79002B02D14FF00203FB73FB7BC7
:1059B000184607F11407BD4680BC704780B58AB011
:1059C00000AF4FF0000387F826304FF0000387F850
:1059D000273048F20813C1F6FF731B78DBB23B7126
:1059E00048F20813C1F6FF731B7CDAB248F20813C1
:1059F000C1F6FF735B7CDBB2134487F8253045F2B8
:105A00000403C4F2000345F20402C4F20002127857
:105A1000D2B242F00E02D2B2D2B21A7045F20503EF
:105A2000C4F2000345F20502C4F200021278D2B2B9
:105A300042F00E02D2B2D2B21A7045F20603C4F29C
:105A4000000345F20602C4F200021278D2B242F01C
:105A50000E02D2B2D2B21A7045F20703C4F20003AA
:105A600045F20702C4F200021278D2B242F00E02EE
:105A7000D2B2D2B21A7045F21A03C4F2000345F250
:105A80001A02C4F200021278D2B242F00E02D2B26E
:105A9000D2B21A7045F21B03C4F2000345F21B0296
:105AA000C4F200021278D2B242F00E02D2B2D2B2E6
:105AB0001A7045F20403C4F2000345F20402C4F272
:105AC00000021278D2B242F00102D2B21A7045F24C
:105AD0000503C4F2000345F20502C4F20002127885
:105AE000D2B242F00102D2B21A7045F20603C4F2F9
:105AF000000345F20602C4F200021278D2B242F06C
:105B00000102D2B21A7045F20703C4F2000345F253
:105B10000702C4F200021278D2B242F00102D2B2FD
:105B20001A7045F21A03C4F2000345F21A02C4F2D5
:105B300000021278D2B242F00102D2B21A7045F2DB
:105B40001B03C4F2000345F21B02C4F200021278E8
:105B5000D2B242F00102D2B21A704FF00A0001F044
:105B60003BF945F20403C4F200031B78DBB203F0F7
:105B700010033B7745F20503C4F200031B78DBB248
:105B800003F010037B7745F20603C4F200031B7891
:105B9000DBB203F01003BB7745F20703C4F2000346
:105BA0001B78DBB203F01003FB7745F21A03C4F253
:105BB00000031B78DBB203F0100387F8203045F2B6
:105BC0001B03C4F200031B78DBB203F0100387F859
:105BD000213045F20403C4F2000345F20402C4F28A
:105BE00000021278D2B202F0FE021A7045F20503EA
:105BF000C4F2000345F20502C4F200021278D2B2E8
:105C000002F0FE021A7045F20603C4F2000345F2E8
:105C10000602C4F200021278D2B202F0FE021A703A
:105C200045F20703C4F2000345F20702C4F2000282
:105C30001278D2B202F0FE021A7045F21A03C4F2D0
:105C4000000345F21A02C4F200021278D2B202F046
:105C5000FE021A7045F21B03C4F2000345F21B0258
:105C6000C4F200021278D2B202F0FE021A704FF0B3
:105C70000A0001F0B1F845F20403C4F200031B78F6
:105C8000DBB203F010033B7545F20503C4F20003D9
:105C90001B78DBB203F010037B7545F20603C4F2F8
:105CA00000031B78DBB203F01003BB7545F207035A
:105CB000C4F200031B78DBB203F01003FB7545F25E
:105CC0001A03C4F200031B78DBB203F010033B7627
:105CD00045F21B03C4F200031B78DBB203F0100390
:105CE0007B7645F20403C4F2000345F20402C4F2D9
:105CF00000021278D2B2D2B202F0F10242F00202F5
:105D0000D2B2D2B21A7045F20503C4F2000345F2D2
:105D10000502C4F200021278D2B2D2B202F0F1024D
:105D200042F00202D2B2D2B21A7045F20603C4F2B5
:105D3000000345F20602C4F200021278D2B2D2B2D7
:105D400002F0F10242F00202D2B2D2B21A7045F26F
:105D50000703C4F2000345F20702C4F200021278FE
:105D6000D2B2D2B202F0F10242F00202D2B2D2B208
:105D70001A7045F21A03C4F2000345F21A02C4F283
:105D800000021278D2B2D2B202F0F10242F0020264
:105D9000D2B2D2B21A7045F21B03C4F2000345F22C
:105DA0001B02C4F200021278D2B2D2B202F0F102A7
:105DB00042F00202D2B2D2B21A704FF0000387F85A
:105DC000263024E097F8263007F128010B4413F819
:105DD0000C2C97F8263007F128010B4413F8143CDB
:105DE00010461946FFF7C6FD034603F1FF3297F848
:105DF000263002FA03F3DAB297F82730134487F813
:105E0000273097F8263003F1010387F8263097F8FA
:105E10002630052BD6D997F8273003F1FF33DAB2B5
:105E200048F26E13C1F6FF731A7007F12807BD46DA
:105E300080BD00BF80B500AF02F062FB02F066FCDF
:105E400000F002F880BD00BF80B500AF4FF0000049
:105E500003F02CF84FF0000002F06CFC02F09AFC0A
:105E600003469BB29AB248F27213C1F6FF731A80CE
:105E700048F27213C1F6FF731A8840F2E7339A4270
:105E800007D848F21C13C1F6FF734FF001021A70D5
:105E900006E048F21C13C1F6FF734FF000021A70BF
:105EA00080BD00BF80B582B000AF4FF00003BB8063
:105EB0004FF0010002F0FAFF4FF0000002F03AFC50
:105EC00002F068FC03469BB2FB80FB88184600F09A
:105ED00013F80346BB80BB881A464FEA42021344BC
:105EE000BB80BB884FEA5303BB80BB88184607F1D1
:105EF0000807BD4680BD00BF80B485B000AF034633
:105F0000FB804FF000037B814FF00003FB6048F201
:105F10001C13C1F6FF731B78012B06D1FB8841F2DD
:105F2000883202FB03F3FB6005E0FB8840F6E442A5
:105F300002FB03F3FB60FB684FEA1333FB60FB6873
:105F40007B817B89184607F11407BD4680BC7047EA
:105F500080B500AF02F0D4FE80BD00BF80B500AFB9
:105F60004FF0010002F0BEF907F00AFF07F0ECFA6B
:105F7000FFF7EEFFFCF7D2FDFFF736FAFFF7E4F983
:105F800000F0B8FF4FF000004FF0400101F054FB6B
:105F900080BD00BF80B500AF01F054F9FEF72AFFC5
:105FA000FFF72AFAFCF758FD02F0D6FE02F0AEFB2E
:105FB00000F098F907F0CEFE48F26913C1F6FF73BE
:105FC0004FF001021A704FF0000002F08BF980BD13
:105FD00080B500AF48F27013C1F6FF731B78012B38
:105FE00013D104F087FA0346002B07D105F0E0FD3A
:105FF000FFF7B4FFFFF7CEFF05F0A6FE48F27013DF
:10600000C1F6FF734FF000021A7080BD80B594B0E6
:1060100000AF04F01DFD0346002B71D004F042FDDB
:1060200003467B647B6CB3F5E13F02D94FF4E13367
:106030007B647A6C40F2AF439A4202D84FF4966385
:106040007B647B6CB3F5165F30D0B3F5165F09D86F
:10605000B3F5166F34D0B3F5965F2CD0B3F5966FC9
:1060600033D037E0B3F5164F16D0B3F5164F03D83B
:10607000B3F5964F15D02DE0B3F5614F07D0B3F5CA
:10608000E13F27D14FF01A03A7F84A3026E04FF03E
:106090003403A7F84A3021E04FF04E03A7F84A3006
:1060A0001CE04FF09C03A7F84A3017E04FF49C73B4
:1060B000A7F84A3012E040F27123A7F84A300DE009
:1060C00040F2E243A7F84A3008E040F6C413A7F8CC
:1060D0004A3003E04FF01A03A7F84A3007F034FAC9
:1060E000B7F84A3003F1FF339BB218464FF0010175
:1060F00002F014FF07F088F907F0FCFA07F0DCFB68
:106100004FF0070004F042FA0346002B18D04FF07E
:10611000070004F055FA034687F84C3097F84C30E6
:1061200007F104024FF0070011461A4604F02CFB59
:1061300007F1040297F84C301046194607F098FB17
:1061400007F054FA0346802B01D107F0D3FA07F089
:1061500075FA034687F84D3097F84D30002B00F064
:10616000BC804FF0060004F011FA0346012B40F00A
:10617000B48097F84D30402B03D94FF0400387F897
:106180004D3048F2CC13C1F6FF731B7887F84E30C0
:106190004FF0000387F84F3021E097F84E305BB2A4
:1061A000002B03DA4FF0000387F84E3046F2D80395
:1061B000C4F2000397F84E1048F2D472C1F6FF7291
:1061C000525CD2B21A7097F84F3003F1010387F88E
:1061D0004F3097F84E3003F1010387F84E3097F8AF
:1061E0004F2097F84D309A42D7D346F2D403C4F2E9
:1061F000000348F2CC62C1F6FF72B2F84E2092B2B0
:10620000D2B21A7046F2D503C4F2000348F2CC624F
:10621000C1F6FF72B2F84E2092B24FEA122292B249
:10622000D2B21A7046F25C03C4F2000397F84D2014
:106230004FEA2222D1B248F2CC62C1F6FF7292F844
:106240004B20D2B241EA0202D2B2D2B21A7046F266
:106250005D03C4F2000397F84D201A7046F2D6038E
:10626000C4F2000348F2CC62C1F6FF72B2F84E20CD
:1062700092B2D2B21A7046F2D703C4F2000348F2C7
:10628000CC62C1F6FF72B2F84E2092B24FEA1222EF
:1062900092B2D2B21A7048F2CC63C1F6FF734FF0DB
:1062A000000283F8492046F25E03C4F2000348F27C
:1062B000CC62C1F6FF7292F84D20D2B21A7048F249
:1062C000CC13C1F6FF7397F84E201A7048F2CE1324
:1062D000C1F6FF734FF000021A7007F15007BD4678
:1062E00080BD00BF80B500AF07F08EF84FF0020010
:1062F00003F0AAFD80BD00BF80B500AF04F094FBA1
:106300004FF00C0003F0A0FD80BD00BF80B400AFD3
:10631000FEE700BF014B1A70FCF7D2FABC760040D2
:1063200080B582B000AF4EF60C53CEF2000340F2BF
:106330000042C0F2FA521A604EF61453CEF2000335
:106340004EF61452CEF20002126842F400721A6045
:106350004FF000037B6014E07A687B684FEA8301AA
:1063600042F60003C0F200030B441B68194648F2D2
:106370000003C1F6FF7343F822107B6803F10103A9
:106380007B607B682F2BE7D947F2BC63C4F2000324
:106390001B78DAB248F28063C1F6FF731A704EF6CA
:1063A0000853CEF2000348F20002C1F6FF721A60F1
:1063B00007F0E8FF07F10807BD4680BD00000000B8
:1063C0000230800803D000BF01380046FCD170477E
:1063D000EFF3108072B6704780F31088704700BFEB
:1063E00080B584B000AF0346FB714FF00003BB6083
:1063F00044F22023C4F2000344F22022C4F200023B
:106400001278D2B242F00102D2B21A70FB79002B9C
:106410004DD044F20033C4F200031B787B7344F286
:106420008033C4F200031B78BB7344F28233C4F29E
:1064300000031B78FB734FF0180001F047FA4FF090
:106440001003BB6019E044F22523C4F200031B785B
:10645000DBB203F00103DBB2002B0ED044F22523A4
:10646000C4F200031B78DBB203F00103DBB2002BA4
:1064700003D04FF00003BB6006E04FF0010001F0D5
:10648000E7F90346012BDED17B7B03F00403002BED
:1064900001D100F0E5FB44F28033C4F20003BA7B83
:1064A0001A7044F28233C4F20003FA7B1A70BB689C
:1064B000184607F11007BD4680BD00BF80B400AF8D
:1064C00044F22023C4F2000344F22022C4F200026A
:1064D0001278D2B202F0FE021A70BD4680BC70473C
:1064E00080B584B000AF0346FB7144F2A033C4F220
:1064F000000344F2A032C4F200021278D2B242F099
:106500001002D2B21A70FB79002B4DD044F2003346
:10651000C4F200031B78FB73FB7B03F00403002B26
:1065200001D100F089FB44F28233C4F200031B78EE
:106530007B7344F28033C4F200031B78BB7344F2D4
:106540008233C4F2000344F28232C4F200021278B1
:10655000D2B202F0FC021A7044F28033C4F200039B
:106560004FF000021A7044F28233C4F200034FF07D
:1065700001021A704FF0010001F06AF90346002B86
:10658000F8D0FB7B03F00403002B01D100F068FB83
:1065900044F28033C4F20003BA7B1A7044F28233AF
:1065A000C4F200037A7B1A7007F11007BD4680BD64
:1065B00080B400AF44F2A033C4F2000344F2A0322E
:1065C000C4F200021278D2B202F0EF021A70BD4695
:1065D00080BC704780B483B000AF4FF00003FB7104
:1065E00044F29333C4F200031B78DBB203F00703D9
:1065F000002B0AD144F2A533C4F200031B78DBB2AE
:1066000003F00103DBB2002B14D144F29333C4F244
:1066100000031B78DBB203F00703012B0DD144F21A
:10662000B533C4F200031B78DBB203F00103DBB225
:10663000002B02D04FF00103FB71FB79184607F1E4
:106640000C07BD4680BC704780B584B000AF0346E0
:10665000FB71FFF7BFFF0346FB73FB7B012B0CD1E4
:1066600046F20903C4F2000346F20902C4F2000232
:106670001278D2B202F0FD021A70FB79082B7AD898
:1066800001A252F823F000BFAD660000C56600000D
:10669000DD660000F56600000D670000256700005C
:1066A00077670000776700003D67000044F2A16350
:1066B000C4F2000340F20812C4F600121278D2B2FB
:1066C0001A705EE044F2A163C4F2000340F20912C2
:1066D000C4F600121278D2B21A7052E044F2A163EA
:1066E000C4F2000340F20A12C4F600121278D2B2C9
:1066F0001A7046E044F2A163C4F2000340F20B12A8
:10670000C4F600121278D2B21A703AE044F2A163D1
:10671000C4F2000340F28912C4F600121278D2B219
:106720001A702EE044F2A163C4F2000340F20C128E
:10673000C4F600121278D2B21A7022E044F2A163B9
:10674000C4F2000340F20F12C4F600121278D2B263
:106750001A70FB7B012B13D146F20903C4F200032C
:1067600046F20902C4F200021278D2B242F00202EA
:10677000D2B21A7005E04FF0000000F015FB00E007
:1067800000BF07F11007BD4680BD00BF80B584B0D3
:1067900000AF0346FB7144F20023C4F200031B78F0
:1067A000DBB203F00703BB73FB79082B01D0FB7945
:1067B00001E04FF00303FB73BB7B052B26D801A23E
:1067C00052F823F0DD670000E5670000ED67000088
:1067D000F5670000FD670000056800004FF0020348
:1067E000BB7317E04FF00103BB7313E04FF00303DB
:1067F000BB730FE04FF00003BB730BE04FF00403DB
:10680000BB7307E04FF00503BB7303E04FF00000DC
:1068100000F0CAFAFA7BBB7B9A4203D3FB79184695
:10682000FFF712FFFB79082B00F28A8001A252F8D1
:1068300023F000BF596800007B6800009D680000DD
:10684000B9680000DB680000FD68000041690000D5
:10685000416900001F69000044F20023C4F20003F4
:1068600044F20022C4F200021278D2B202F0B8025E
:1068700042F00302D2B21A7066E044F20023C4F27E
:10688000000344F20022C4F200021278D2B202F0F5
:10689000B80242F00102D2B21A7055E044F200236D
:1068A000C4F2000344F20022C4F200021278D2B211
:1068B00002F0B8021A7047E044F20023C4F2000369
:1068C00044F20022C4F200021278D2B202F0B802FE
:1068D00042F00202D2B21A7036E044F20023C4F24F
:1068E000000344F20022C4F200021278D2B202F095
:1068F000B80242F00402D2B21A7025E044F200233A
:10690000C4F2000344F20022C4F200021278D2B2B0
:1069100002F0B80242F00502D2B21A7014E044F25A
:106920000023C4F2000344F20022C4F200021278F1
:10693000D2B202F0B80242F04202D2B21A7003E0C0
:106940004FF0000000F030FAFB79082B02D100F084
:106950006BF801E000F07CF8FA7BBB7B9A4203D233
:10696000FB791846FFF770FE07F11007BD4680BDA2
:1069700080B582B000AF0346FB71FB79012B20D0BC
:10698000022B02D0002B39D046E044F20003C4F2BF
:10699000000344F20002C4F200021278D2B202F004
:1069A000BF021A7044F20023C4F2000344F2002232
:1069B000C4F200021278D2B242F02002D2B21A70AF
:1069C0002EE044F20003C4F2000344F20002C4F2D9
:1069D00000021278D2B242F04002D2B21A7044F2EF
:1069E0000023C4F2000344F20022C4F20002127831
:1069F000D2B242F02002D2B21A7011E044F2002367
:106A0000C4F2000344F20022C4F200021278D2B2AF
:106A100002F0DF021A7003E04FF0000000F0C4F94A
:106A200007F10807BD4680BD80B400AF44F20023E3
:106A3000C4F2000344F20022C4F200021278D2B27F
:106A400042F01002D2B21A70BD4680BC704700BF3F
:106A500080B400AF44F20023C4F2000344F20022E9
:106A6000C4F200021278D2B202F0EF021A70BD46F0
:106A700080BC704780B483B000AF0346FB7144F222
:106A80000503C4F2000344F20502C4F200021278C6
:106A9000D2B2114601F0FC01FA7902F0030241EA98
:106AA0000202D2B21A7007F10C07BD4680BC7047D3
:106AB00080B483B000AF0346FB7144F20403C4F218
:106AC0000003FA791A7007F10C07BD4680BC7047C5
:106AD00080B483B000AF0346FB8044F21403C4F2D9
:106AE000000344F21402C4F200021278D2B202F09F
:106AF000F0021A7044F21003C4F200034FF00002D7
:106B00001A7044F20803C4F2000344F20802C4F20B
:106B100000021278D2B26FEA42626FEA5262D2B2D7
:106B20001A7044F20203C4F20003FA88D2B21A7057
:106B300044F20303C4F20003FA884FEA122292B22D
:106B4000D2B21A7044F20103C4F2000344F201020B
:106B5000C4F200021278D2B242F00102D2B21A702C
:106B600007F10C07BD4680BC704700BF80B584B0FC
:106B700000AF0346FB80FFF72BFC0346FB7344F298
:106B80000703C4F200031B78DBB24FEA03239AB277
:106B900044F20603C4F200031B78DBB242EA0303AB
:106BA000BB81FB88002B02D0BB89002B38D144F27B
:106BB0000403C4F200031B78FB72FB7A062B03D894
:106BC0004FF00700FFF774FFFB88002B12D144F24F
:106BD0000803C4F2000344F20802C4F2000212786F
:106BE000D2B242F04002D2B21A70FB881846FFF7C8
:106BF0006FFF10E0FB881846FFF76AFF44F20803B6
:106C0000C4F2000344F20802C4F200021278D2B2C5
:106C100002F0BF021A70FB7A1846FFF749FF03E043
:106C2000FB881846FFF754FFFB7B1846FFF7D4FBA1
:106C300007F11007BD4680BD80B400AF44F20033B9
:106C4000C4F2000344F20032C4F200021278D2B25D
:106C500042F00402D2B21A70BD4680BC704700BF39
:106C600080B400AF44F20033C4F2000344F20032B7
:106C7000C4F200021278D2B202F0FB021A70BD46D2
:106C800080BC704780B586B000AF0346FB714FF003
:106C900000033B61FB79FB7344F21023C4F2000351
:106CA00044F21022C4F200021278D2B242F0010281
:106CB000D2B21A70FB79002B5DD044F20033C4F2DB
:106CC00000031B787B7544F28033C4F200031B7809
:106CD000BB7544F28233C4F200031B78FB754FF09E
:106CE000180000F0F3FD4FF010033B612CE044F27C
:106CF0001023C4F200031B784FF00403BB730CE0B5
:106D00004FF0010000F0A4FD0346012BF8D1BB7B3E
:106D1000DBB203F1FF33DBB2BB73BB7BDBB2002B17
:106D2000EED144F21023C4F200031B78DBB25BB255
:106D3000002B03DB4FF000033B6109E0FB7BDBB280
:106D400003F1FF33DBB2FB73FB7BDBB2002BCED155
:106D50007B7D03F00403002B01D1FFF781FF44F298
:106D60008033C4F20003BA7D1A7044F28233C4F255
:106D70000003FA7D1A703B69184607F11807BD46F3
:106D800080BD00BF80B400AF44F21023C4F2000302
:106D900044F21022C4F200021278D2B202F0FE02D3
:106DA0001A70BD4680BC704780B483B000AF034604
:106DB000FB7101BE07F10C07BD4680BC704700BFE8
:106DC00080B400AF44F2F663C4F200034FF0010256
:106DD0001A70BD4680BC704780B582B000AF786045
:106DE0000BE048F22C13C1F6FF731B681846FFF73F
:106DF000E7FA7B68A3F500437B607B68B3F5004F3F
:106E0000EFD848F22413C1F6FF731B687A6802FBBF
:106E100003F31846FFF7D4FA07F10807BD4680BD13
:106E200080B582B000AF0346FB80FA8848F2281391
:106E3000C1F6FF731B7803FB02F31846FFF7C0FA95
:106E400007F10807BD4680BD80B584B000AF03469A
:106E50003960FB714EF60853CEF200031B68FB60ED
:106E6000FB791F2B03D94FF00000FFF79DFFFB7943
:106E700003F01F0303F110034FEA8302FB6813447E
:106E80001B68BB60FB7903F01F0303F110034FEA9B
:106E90008302FB6813443A681A60BB68184607F11E
:106EA0001007BD4680BD00BF80B582B000AF02466E
:106EB0000B46FA71BB71BB79072B03D94FF0000069
:106EC000FFF772FFFB791F2B03D94FF00000FFF78C
:106ED0006BFFFB7903F01F0303F1604303F5644389
:106EE000BA794FEA4212D2B21A7007F10807BD46CA
:106EF00080BD00BF80B500AF44F2A133C4F20003EF
:106F00001B78DBB21A4602F00F0248F2A413C1F656
:106F1000FF731A7044F2A233C4F200031B78DAB292
:106F200048F2A413C1F6FF735A7044F2A133C4F2BD
:106F3000000344F2A132C4F200021278D2B202F08D
:106F4000F0021A7044F2A233C4F200031B7844F238
:106F5000A233C4F200034FF000021A7044F600039B
:106F6000C4F200031B78DBB21A4602F0C00248F2FA
:106F7000A413C1F6FF735A714FF0370007F042FBBC
:106F800044F20023C4F200031B78DBB21A4602F07D
:106F9000070248F2A413C1F6FF73DA7044F200232B
:106FA000C4F200031B78DBB21A4602F0400248F23A
:106FB000A413C1F6FF731A7144F20023C4F2000354
:106FC0001B78DBB203F01003002B07D048F2A413A8
:106FD000C1F6FF734FF001025A7206E048F2A413A3
:106FE000C1F6FF734FF000025A724FF00400FFF732
:106FF000CDFB44F2A033C4F200031B78DBB203F0F4
:107000001003002B07D048F2A413C1F6FF734FF012
:1070100001029A710AE048F2A413C1F6FF734FF01F
:1070200000029A714FF00000FFF75AFA44F2002371
:10703000C4F200031B78DBB203F02003002B18D04E
:1070400044F20003C4F200031B78DBB203F04003F8
:10705000002B02D14FF0020201E04FF0010248F292
:10706000A413C1F6FF73DA714FF00000FFF780FC44
:1070700006E048F2A413C1F6FF734FF00002DA7184
:1070800044F20003C4F200031B78DBB21A4602F09C
:10709000300248F2A413C1F6FF731A7248F2A41327
:1070A000C1F6FF731B7A002B0CD044F20003C4F22C
:1070B000000344F20002C4F200021278D2B202F0DD
:1070C000CF021A7044F20023C4F200031B78DBB233
:1070D00003F01003002B01D0FFF7BAFC44F20403C5
:1070E000C4F200031B78DAB248F2A413C1F6FF73AE
:1070F0009A7248F2A413C1F6FF739B7A002B03D057
:107100004FF00000FFF7D4FC44F20503C4F2000383
:107110001B78DBB21A4602F0030248F2A413C1F650
:10712000FF739A7048F2A413C1F6FF739B78002B8B
:1071300003D04FF00000FFF79DFC44F20703C4F2B8
:1071400000031B78DBB24FEA03239AB244F2060332
:10715000C4F200031B78DBB242EA03039BB29AB28B
:1071600048F2A413C1F6FF739A8148F2A413C1F642
:10717000FF739B89002B03D04FF00000FFF7F6FC54
:1071800044F20023C4F200031B78DBB203F00702D1
:107190004EF65423C0F200039B5C184607F032FA07
:1071A00044F22023C4F200031B78DBB203F0010396
:1071B000DBB2002B09D048F2A413C1F6FF734FF0E5
:1071C00001029A73FFF77AF906E048F2A413C1F6B8
:1071D000FF734FF000029A7344F21023C4F20003CD
:1071E0001B78DBB203F00103DBB2002B09D048F2BD
:1071F000A413C1F6FF734FF00102DA73FFF7C2FD6B
:1072000006E048F2A413C1F6FF734FF00002DA73F0
:1072100044F20B03C4F200031B78DBB203F0040357
:10722000002B07D048F2A413C1F6FF734FF0010200
:107230001A7406E048F2A413C1F6FF734FF000027F
:107240001A7480BD80B584B000AF4FF01003BB60EE
:107250004EF65C22C0F200023B4692E80300186042
:1072600003F10403198003F102034FEA11421A707B
:1072700048F2A413C1F6FF731B7C012B26D144F204
:107280000023C4F200031B78DBB203F007024EF6C2
:107290005423C0F200039B5C1A4613464FEA830353
:1072A00013444FEA0312C3EB02031846FFF788F8B2
:1072B00044F20B03C4F2000344F20B02C4F20002D6
:1072C0001278D2B242F00402D2B21A7048F2A41379
:1072D000C1F6FF73DB7B012B34D14FF00000FFF7C9
:1072E000D1FC44F21023C4F200031B784FF00503D5
:1072F000FB8124E044F20023C4F200031B78DBB2DC
:1073000003F007024EF65423C0F200039B5C4FF0DB
:10731000C80202FB03F31846FFF752F844F21023A9
:10732000C4F200031B78DBB25BB2002B03DB4FF02F
:107330000003BB6006E0FB8903F1FF33FB81FB899F
:10734000002BD7D14FF0370007F05CF948F2A413B7
:10735000C1F6FF739B78022B06D048F2A413C1F646
:10736000FF739B78032B1CD144F20403C4F2000387
:107370001B78DAB248F2A413C1F6FF739B7A9A42E3
:1073800007D048F2A413C1F6FF739B7A1846FFF7A3
:107390008FFB48F2A413C1F6FF739B781846FFF7E2
:1073A00069FB48F2A413C1F6FF731B7903F0400395
:1073B000002B10D048F2A413C1F6FF73DB7807F15D
:1073C0001002134413F8103C032B04D14FF00800B3
:1073D000FFF7DCF931E048F2A413C1F6FF73DB7864
:1073E00007F11002134413F8103C1846FFF7CEF9CA
:1073F00048F2A413C1F6FF731B7903F04003002B7E
:107400000ED044F20023C4F2000344F20022C4F27E
:1074100000021278D2B242F04002D2B21A700CE0EE
:1074200044F20023C4F2000344F20022C4F200023A
:107430001278D2B202F0BF021A7048F2A413C1F659
:10744000FF739B79012B0DD144F2A033C4F20003EA
:107450001B78DBB203F01003002B03D14FF00000C8
:10746000FFF73EF848F2A413C1F6FF739B79002B97
:107470000BD144F2A033C4F200031B78DBB203F05B
:107480001003002B01D0FFF793F848F2A413C1F6C4
:10749000FF73DB791846FFF76BFA48F2A413C1F6C5
:1074A000FF735B7A012B01D1FFF7BEFA48F2A413F8
:1074B000C1F6FF731B7A1A4644F20003C4F20003BC
:1074C0001B78DBB203F030039A4219D044F2000378
:1074D000C4F2000344F20002C4F200021278D2B2F5
:1074E000D2B202F0CF0248F2A411C1F6FF71097ABC
:1074F00008461146024641EA0202D2B2D2B21A70DE
:1075000048F2A413C1F6FF739B7B012B17D14FF0F8
:107510000000FEF765FF44F20023C4F200031B786D
:10752000DBB203F007024EF65423C0F200039B5C6B
:107530004FF0FA0202FB03F31846FEF741FF48F250
:10754000A413C1F6FF739B78002B06D048F2A41356
:10755000C1F6FF739B78012B1CD144F20403C4F2E3
:1075600000031B78DAB248F2A413C1F6FF739B7ACA
:107570009A4207D048F2A413C1F6FF739B7A1846CB
:10758000FFF796FA48F2A413C1F6FF739B781846EA
:10759000FFF770FA48F2A413C1F6FF739B891A46ED
:1075A00044F20703C4F200031B78DBB24FEA032165
:1075B00044F20603C4F200031B78DBB241EA030382
:1075C0009A4207D048F2A413C1F6FF739B8918466C
:1075D000FFF7CCFA44F60003C4F2000344F60002BD
:1075E000C4F200021278D2B2D2B202F03F0248F2E4
:1075F000A411C1F6FF71497908461146024641EAD5
:107600000202D2B2D2B21A7044F2A133C4F2000321
:1076100048F2A412C1F6FF7212781A7044F2A23333
:10762000C4F2000348F2A412C1F6FF7252781A7035
:1076300007F11007BD4680BD80B584B000AF02469B
:107640000B46FA71BB80FEF7C3FE0346FB7344F2A0
:107650009333C4F200031B78DBB203F00803002B62
:1076600010D144F28363C4F2000344F28362C4F293
:1076700000021278D2B202F01F021A70FB79002BBE
:1076800005D108E0FB7B1846FEF7A6FEDBE04FF0D5
:107690000000FFF789FB00F087F944F29833C4F249
:1076A00000031B78DAB248F27413C1F6FF735A7103
:1076B00044F29833C4F20003BA884FEA121292B22D
:1076C000D2B21A7044F29933C4F200031B78DAB2D2
:1076D00048F27413C1F6FF739A7144F29933C4F2FD
:1076E0000003BA88D2B202F00F021A7044F29A3341
:1076F000C4F200031B78DAB248F27413C1F6FF73C8
:10770000DA7144F29A33C4F20003BA884FEA1232B3
:1077100092B2D2B202F001021A7044F20023C4F213
:1077200000031B78DBB203F00703002B08D148F2FB
:107730007413C1F6FF734FF0010283F82C2023E08D
:1077400048F27413C1F6FF734FF0000283F82C2047
:1077500044F20023C4F200031B78DBB21A4602F0A5
:10776000070248F27413C1F6FF7383F82B2044F22A
:107770000023C4F2000344F20022C4F20002127893
:10778000D2B202F0F8021A7044F29333C4F200034A
:1077900044F29332C4F200021278D2B202F0F8023C
:1077A00042F00302D2B21A7044F29333C4F20003DF
:1077B0001B7800BF00BF30BF48F27413C1F6FF73DF
:1077C00093F82C30012B1AD044F20023C4F20003AA
:1077D00044F20022C4F200021278D2B2D2B202F015
:1077E000F80248F27411C1F6FF7191F82B100846A7
:1077F0001146024641EA0202D2B2D2B21A7000F039
:10780000D9F844F29833C4F2000348F27412C1F676
:10781000FF7252791A7044F29933C4F2000348F2AD
:107820007412C1F6FF7292791A7044F29A33C4F25C
:10783000000348F27412C1F6FF72D2791A70FB7B12
:107840001846FEF7C9FD07F11007BD4680BD00BF11
:1078500080B584B000AF0346FB71FEF7B9FD034667
:10786000BB7344F29033C4F200031B78DAB248F2DF
:10787000B613C1F6FF731B7842EA0303DAB248F28B
:10788000B613C1F6FF731A7048F2B613C1F6FF7350
:107890001B78FB73FB796FEA0303DAB248F2B61385
:1078A000C1F6FF731B7802EA0303DAB248F2B6139B
:1078B000C1F6FF731A70BB7B1846FEF78DFDFB7B8C
:1078C000184607F11007BD4680BD00BF80B582B0E5
:1078D00000AF0346FB7144F28233C4F2000344F26A
:1078E0008232C4F200021278D2B202F0FD021A70A3
:1078F000FFF7A2F944F28233C4F200031B78DBB233
:1079000003F00103DBB2002B2AD044F28033C4F22F
:1079100000031B78DBB2FA799A423FD044F28233FB
:10792000C4F2000344F28232C4F200021278D2B2EE
:1079300002F0FE021A7044F28033C4F20003FA79B6
:107940001A7044F28233C4F2000344F28232C4F269
:1079500000021278D2B242F00102D2B21A701EE0D6
:1079600044F28033C4F200031B78DBB2FA799A4206
:1079700005D044F28033C4F20003FA791A7044F25D
:107980008233C4F2000344F28232C4F2000212785D
:10799000D2B242F00102D2B21A7000E000BF07F189
:1079A0000807BD4680BD00BF80B500AF00F008F8F5
:1079B00080BD00BF80B500AF00F02CFA80BD00BFD5
:1079C00080B400AF45F60023C4F200031B78DAB29E
:1079D00048F27413C1F6FF731A7245F60223C4F21B
:1079E00000031B78DAB248F27413C1F6FF735A72BF
:1079F00045F60323C4F200031B78DAB248F274138D
:107A0000C1F6FF739A7245F60423C4F200031B7893
:107A1000DAB248F27413C1F6FF73DA7245F6062340
:107A2000C4F200031B78DAB248F27413C1F6FF7394
:107A30001A7345F60823C4F200031B78DAB248F241
:107A40007413C1F6FF735A7345F60A23C4F2000398
:107A50001B78DAB248F27413C1F6FF739A7345F6D5
:107A60001023C4F200031B78DAB248F27413C1F693
:107A7000FF73DA7345F61223C4F200031B78DAB2FF
:107A800048F27413C1F6FF731A7445F61323C4F257
:107A900000031B78DAB248F27413C1F6FF735A740C
:107AA00045F61423C4F200031B78DAB248F27413CB
:107AB000C1F6FF739A7445F61623C4F200031B78CF
:107AC000DAB248F27413C1F6FF73DA7445F618237C
:107AD000C4F200031B78DAB248F27413C1F6FF73E4
:107AE0001A7545F61A23C4F200031B78DAB248F27D
:107AF0007413C1F6FF735A7545F62023C4F20003D0
:107B00001B78DAB248F27413C1F6FF739A7545F622
:107B10002223C4F200031B78DAB248F27413C1F6D0
:107B2000FF73DA7545F62323C4F200031B78DAB23B
:107B300048F27413C1F6FF731A7645F62423C4F293
:107B400000031B78DAB248F27413C1F6FF735A7659
:107B500045F62623C4F200031B78DAB248F2741308
:107B6000C1F6FF739A7645F62823C4F200031B780A
:107B7000DAB248F27413C1F6FF73DA7645F62A23B7
:107B8000C4F200031B78DAB248F27413C1F6FF7333
:107B90001A7745F63023C4F200031B78DAB248F2B4
:107BA0007413C1F6FF735A7745F63223C4F200030B
:107BB0001B78DAB248F27413C1F6FF739A7745F670
:107BC0003323C4F200031B78DAB248F27413C1F60F
:107BD000FF73DA7745F63423C4F200031B78DAB278
:107BE00048F27413C1F6FF7383F8202045F636235C
:107BF000C4F200031B78DAB248F27413C1F6FF73C3
:107C000083F8212045F63823C4F200031B78DAB24A
:107C100048F27413C1F6FF7383F8222045F63A2325
:107C2000C4F200031B78DAB248F27413C1F6FF7392
:107C300083F8232045F60023C4F200034FF000022E
:107C40001A7045F60223C4F200034FF000021A70C6
:107C500045F60323C4F200034FF000021A7045F604
:107C60000423C4F200034FF000021A7045F6062305
:107C7000C4F200034FF000021A7045F60823C4F264
:107C800000034FF000021A7045F60A23C4F2000305
:107C90004FF000021A7045F61023C4F200034FF0B3
:107CA00000021A7045F61223C4F200034FF00002DE
:107CB0001A7045F61323C4F200034FF000021A7045
:107CC00045F61423C4F200034FF000021A7045F683
:107CD0001623C4F200034FF000021A7045F6182371
:107CE000C4F200034FF000021A7045F61A23C4F2E2
:107CF00000034FF000021A7045F62023C4F200037F
:107D00004FF000021A7045F62223C4F200034FF030
:107D100000021A7045F62323C4F200034FF000025C
:107D20001A7045F62423C4F200034FF000021A70C3
:107D300045F62623C4F200034FF000021A7045F600
:107D40002823C4F200034FF000021A7045F62A23DC
:107D5000C4F200034FF000021A7045F63023C4F25B
:107D600000034FF000021A7045F63223C4F20003FC
:107D70004FF000021A7045F63323C4F200034FF0AF
:107D800000021A7045F63423C4F200034FF00002DB
:107D90001A7045F63623C4F200034FF000021A7041
:107DA00045F63823C4F200034FF000021A7045F67E
:107DB0003A23C4F200034FF000021A7044F2223357
:107DC000C4F200031B78DBB203F00803002B15D0CC
:107DD00048F27413C1F6FF734FF0010283F82D20AF
:107DE00044F22233C4F2000344F22232C4F200020D
:107DF0001278D2B202F0F7021A7007E048F2741358
:107E0000C1F6FF734FF0000283F82D20BD4680BC01
:107E1000704700BF80B400AF45F60023C4F20003F2
:107E200048F27412C1F6FF72127A1A7045F60223F4
:107E3000C4F2000348F27412C1F6FF72527A1A704B
:107E400045F60323C4F2000348F27412C1F6FF7230
:107E5000927A1A7045F60423C4F2000348F27412B1
:107E6000C1F6FF72D27A1A7045F60623C4F20003F7
:107E700048F27412C1F6FF72127B1A7045F608239D
:107E8000C4F2000348F27412C1F6FF72527B1A70FA
:107E900045F60A23C4F2000348F27412C1F6FF72D9
:107EA000927B1A7045F61023C4F2000348F2741254
:107EB000C1F6FF72D27B1A7045F61223C4F200039A
:107EC00048F27412C1F6FF72127C1A7045F6132341
:107ED000C4F2000348F27412C1F6FF72527C1A70A9
:107EE00045F61423C4F2000348F27412C1F6FF727F
:107EF000927C1A7045F61623C4F2000348F27412FD
:107F0000C1F6FF72D27C1A7045F61823C4F2000342
:107F100048F27412C1F6FF72127D1A7045F61A23E8
:107F2000C4F2000348F27412C1F6FF72527D1A7057
:107F300045F62023C4F2000348F27412C1F6FF7222
:107F4000927D1A7045F62223C4F2000348F274129F
:107F5000C1F6FF72D27D1A7045F62323C4F20003E6
:107F600048F27412C1F6FF72127E1A7045F624238D
:107F7000C4F2000348F27412C1F6FF72527E1A7006
:107F800045F62623C4F2000348F27412C1F6FF72CC
:107F9000927E1A7045F62823C4F2000348F2741248
:107FA000C1F6FF72D27E1A7045F62A23C4F200038E
:107FB00048F27412C1F6FF72127F1A7045F6302330
:107FC000C4F2000348F27412C1F6FF72527F1A70B5
:107FD00045F63223C4F2000348F27412C1F6FF7270
:107FE000927F1A7045F63323C4F2000348F27412EC
:107FF000C1F6FF72D27F1A7045F63423C4F2000333
:1080000048F27412C1F6FF7292F820201A7045F6F9
:108010003623C4F2000348F27412C1F6FF7292F8DC
:1080200021201A7045F63823C4F2000348F2741276
:10803000C1F6FF7292F822201A7045F63A23C4F274
:10804000000348F27412C1F6FF7292F823201A70EE
:1080500048F27413C1F6FF7393F82D30012B0DD144
:1080600044F22233C4F2000344F22232C4F200028A
:108070001278D2B242F00802D2B21A70BD4680BC69
:10808000704700BF80B400AF44F2A233C4F20003D3
:1080900044F2A232C4F200021278D2B242F00102DB
:1080A000D2B21A7044F2B233C4F2000344F2B232D4
:1080B000C4F200021278D2B242F00102D2B21A70B7
:1080C000BD4680BC704700BF80B584B000AF02469B
:1080D0000B46FA807B7100F0F7F803467B7300F0E3
:1080E000E7F80346FB81FA88FB899A4200F0DB80BF
:1080F00044F2A233C4F200031B78DBB203F00103A5
:108100003B737B7B002B31D1FB89002B02D0FB889A
:10811000002B2BD1FB89002B13D144F28003C4F236
:108120000003FA881A8044F28203C4F2000344F286
:108130008202C4F200021278D2B202F0BF021A70B8
:10814000B1E044F28203C4F2000344F28202C4F2BA
:1081500000021278D2B242F04002D2B21A7044F257
:108160008003C4F20003FA881A809CE03B7B002B5A
:108170005AD044F20103C4F200034FF000021A7017
:1081800044F21003C4F200034FF001021A7044F2EB
:108190001403C4F200034FF000021A7044F2080303
:1081A000C4F2000344F20802C4F200021278D2B210
:1081B00002F07F021A7044F28203C4F200031B78BB
:1081C000DBB203F00803002B02D0FB88002B2BD17D
:1081D00044F20203C4F20003FA891A8044F2010354
:1081E000C4F200034FF007021A7044F20103C4F214
:1081F00000031B78DBB203F00103DBB2002BF4D1E8
:1082000044F2A233C4F2000344F2A232C4F20002E8
:108210001278D2B202F0FE021A7044F20103C4F2E4
:1082200000034FF000021A7044F2A233C4F20003BC
:108230001B78DBB203F00103DBB2002B1ED044F24B
:108240000203C4F20003FA881A8044F20103C4F264
:1082500000037A79002A02D04FF0030201E04FF0C8
:1082600001021A7044F20103C4F200031B78DBB26E
:1082700003F00103DBB2002BF4D114E044F28003DD
:10828000C4F20003FA881A8044F2A233C4F2000355
:1082900044F2A232C4F200021278D1B23A7B41EA2F
:1082A0000202D2B21A7007F11007BD4680BD00BFAE
:1082B00080B400AF44F28003C4F200031B889BB279
:1082C0001846BD4680BC704780B400AF44F28203BC
:1082D000C4F200031B78DBB203F007031846BD4667
