:1027000000400020216100001961000019610000F3
:1027100080B51448144B21E05C689968DD688C42F0
:102720000CD0002205E0A6180832D6E9008941E95C
:1027300002898C460831AA42F5D101E004EB050C70
:102740001C696146002204E008320026002741E9A6
:1027500002670831A242F7D1143301380028DBD1D7
:102760000BF0DCF801000000C0E500004CF2601343
:10277000C1F6FF731A780AB901201870704700BFBC
:102780004CF20810C1F6FF7008B503682BB140F297
:102790000003C0F2000303B1984708BD80B500AF45
:1027A00062B603F033F802F04DFA02F04DFD00F08E
:1027B0007BF803F067FA03F09BFC4CF26113C1F65F
:1027C000FF734FF000021A7000E000BF4FF00100ED
:1027D00005F09AFC07F0C2F90346002BFAD04CF240
:1027E0006113C1F6FF731B78DBB2002B0DD14FF0E4
:1027F00000004FF0020106F081FC0AF0E5FB0AF050
:10280000DBFA03E003F0EAFA00E000BF06F0CAFFDB
:102810000346002BF6D04FF0000005F075FC4FF09A
:10282000020007F037F94FF0040007F033F903F026
:1028300069FC4CF26113C1F6FF734FF000021A708D
:1028400013E002F011FD02F077F903F0E5FA03F06E
:10285000C5FA06F0B3FF0346002B06D04CF2611315
:10286000C1F6FF734FF001021A7007F077F90346C3
:10287000002B07D04CF26113C1F6FF731B78DBB25B
:10288000002BDED000F072F84CF26113C1F6FF733A
:102890001B78DBB2002B98D106F0C4FE0AF0AAFB2D
:1028A0000AF09CFA92E700BF80B483B000AF4CF20C
:1028B0004B33C1F6FF734FF000021A704CF25433E1
:1028C000C1F6FF734FF021021A704CF24A33C1F681
:1028D000FF734FF000021A704FF00003FB710BE022
:1028E000FA794CF25033C1F6FF734FF0000199545E
:1028F000FB7903F10103FB71FB79032BF0D945F25E
:102900001103C4F2000345F21102C4F2000212786E
:10291000D2B2D2B202F0F10242F00202D2B2D2B28C
:102920001A7045F21003C4F2000345F21002C4F21B
:1029300000021278D2B2D2B202F0F10242F00202E8
:10294000D2B2D2B21A7042F20043C4F20A234FF05C
:1029500001021A7042F20443C4F20A234FF001024A
:102960001A7007F10C07BD4680BC704780B400AFF9
:1029700045F21003C4F2000345F21002C4F2000253
:102980001278D2B2D2B202F0F10242F00202D2B216
:10299000D2B21A7045F21103C4F2000345F21102DB
:1029A000C4F200021278D2B2D2B202F0F10242F0C6
:1029B0000202D2B2D2B21A7045F21403C4F200037A
:1029C00045F21402C4F200021278D2B2D2B202F07E
:1029D000F10242F00202D2B2D2B21A70BD4680BCFD
:1029E000704700BF80B400AF45F21003C4F200038B
:1029F00045F21002C4F200021278D2B2D2B202F052
:102A0000F10242F00202D2B2D2B21A7042F2044390
:102A1000C4F20A234FF000021A7000BF00BF00BFCB
:102A200042F20443C4F20A234FF001021A7000BFBD
:102A300000BF00BFBD4680BC704700BF80B500AF7F
:102A400042F20043C4F20A234FF000021A7045F22A
:102A50001003C4F2000345F21002C4F2000212781F
:102A6000D2B2D2B202F0F10242F00C02D2B2D2B231
:102A70001A7000BF00BF42F20443C4F20A234FF0B1
:102A800000021A7000BF00BF00BF42F20443C4F24C
:102A90000A234FF001021A7000BF00BF00BF42F2CC
:102AA0000443C4F20A234FF000021A7000BF00BFB3
:102AB00000BF42F20443C4F20A234FF001021A702D
:102AC00000BF00BF00BF42F20443C4F20A234FF02C
:102AD00000021A7000BF00BF00BF42F20443C4F2FC
:102AE0000A234FF001021A7000BF00BF00BF42F27C
:102AF0000443C4F20A234FF000021A7000BF00BF63
:102B000000BF42F20443C4F20A234FF001021A70DC
:102B100000BF00BF00BF42F20443C4F20A234FF0DB
:102B200000021A7000BF00BF00BF42F20443C4F2AB
:102B30000A234FF001021A7000BF00BF00BF42F22B
:102B40000443C4F20A234FF000021A7000BF00BF12
:102B500000BF42F20443C4F20A234FF001021A708C
:102B600000BF00BF00BF42F20443C4F20A234FF08B
:102B700000021A7000BF00BF00BF42F20443C4F25B
:102B80000A234FF001021A7000BF00BF00BF42F2DB
:102B90000443C4F20A234FF000021A7000BF00BFC2
:102BA00000BF42F20443C4F20A234FF001021A703C
:102BB00000BF00BF00BF42F20443C4F20A234FF03B
:102BC00000021A7000BF00BF00BF42F20443C4F20B
:102BD0000A234FF001021A7000BF00BF00BF42F28B
:102BE0000443C4F20A234FF000021A7000BF00BF72
:102BF00000BF42F20443C4F20A234FF001021A70EC
:102C000000BF00BF00BF42F20443C4F20A234FF0EA
:102C100000021A7000BF00BF00BF42F20443C4F2BA
:102C20000A234FF001021A7000BF00BF00BF42F23A
:102C30000443C4F20A234FF000021A7000BF00BF21
:102C400000BF42F20443C4F20A234FF001021A709B
:102C500000BF00BF00BF42F20443C4F20A234FF09A
:102C600000021A7000BF00BF00BF42F20443C4F26A
:102C70000A234FF001021A7000BF00BF00BF42F2EA
:102C80000443C4F20A234FF000021A7000BF00BFD1
:102C900000BF42F20443C4F20A234FF001021A704B
:102CA00000BF00BF00BF42F20443C4F20A234FF04A
:102CB00000021A7000BF00BF00BF42F20443C4F21A
:102CC0000A234FF001021A7000BF00BF00BF42F29A
:102CD0000443C4F20A234FF000021A7000BF00BF81
:102CE00000BF42F20443C4F20A234FF001021A70FB
:102CF00000BF00BF00BF42F20443C4F20A234FF0FA
:102D000000021A7000BF00BF00BF42F20443C4F2C9
:102D10000A234FF001021A7000BF00BF00BF42F249
:102D20000443C4F20A234FF000021A7000BF00BF30
:102D300000BF42F20443C4F20A234FF001021A70AA
:102D400000BF00BF00BF42F20443C4F20A234FF0A9
:102D500000021A7000BF00BF00BF42F20443C4F279
:102D60000A234FF001021A7000BF00BF00BF42F2F9
:102D70000443C4F20A234FF000021A7000BF00BFE0
:102D800000BF42F20443C4F20A234FF001021A705A
:102D900000BF00BF00BF4CF24B33C1F6FF731B787E
:102DA000184600F063F945F21003C4F2000345F23F
:102DB0001002C4F200021278D2B2D2B202F0F102D2
:102DC00042F00202D2B2D2B21A7080BD80B400AF1B
:102DD00045F21003C4F2000345F21002C4F20002EF
:102DE0001278D2B2D2B202F0F10242F00202D2B2B2
:102DF000D2B21A7042F20443C4F20A234FF0000226
:102E00001A7042F22043C4F20A231B78DAB24CF261
:102E10006313C1F6FF731A7042F20443C4F20A232B
:102E20004FF001021A7042F20443C4F20A234FF039
:102E300000021A7042F22043C4F20A231B78DAB26D
:102E40004CF26413C1F6FF731A7042F20443C4F2E9
:102E50000A234FF001021A7042F20443C4F20A231B
:102E60004FF000021A7042F22043C4F20A231B788A
:102E7000DAB24CF26513C1F6FF731A7042F20443E2
:102E8000C4F20A234FF001021A70BD4680BC70479D
:102E900080B582B000AF786045F21003C4F2000341
:102EA00045F21002C4F200021278D2B2D2B202F09D
:102EB000F10242F00C02D2B2D2B21A707B681B78D7
:102EC0007A6802F101027A60184600F0CFF87B6858
:102ED0001B787A6802F101027A60184600F0C6F8A1
:102EE0007B681B787A6802F101027A60184600F06C
:102EF000BDF87B681B78184600F0B8F807F10807A2
:102F0000BD4680BD80B582B000AF786045F2100349
:102F1000C4F2000345F21002C4F200021278D2B2E9
:102F2000D2B202F0F10242F00202D2B2D2B21A7070
:102F300000F074F903461A467B681A707B6803F147
:102F400001037B6000F06AF903461A467B681A7039
:102F50007B6803F101037B6000F060F903461A46C9
:102F60007B681A707B6803F101037B6000F056F9FF
:102F700003461A467B681A7007F10807BD4680BDF4
:102F800090B482B000AF0346FB714FF00004FB79B0
:102F900003F00103DBB2002B02D004F10103DCB229
:102FA000FB794FEA5303FB71FB7903F00103DBB2BA
:102FB000002B02D004F10103DCB2FB794FEA53038A
:102FC000FB71FB7903F00103DBB2002B02D004F1AB
:102FD0000103DCB2FB794FEA5303FB71FB7903F089
:102FE0000103DBB2002B02D004F10103DCB2FB7958
:102FF0004FEA5303FB71FB7903F00103DBB2002BB3
:1030000002D004F10103DCB2FB794FEA5303FB71F8
:10301000FB7903F00103DBB2002B02D004F10103C2
:10302000DCB2FB794FEA5303FB71FB7903F0010338
:10303000DBB2002B02D004F10103DCB2FB794FEAD2
:103040005303FB71FB7903F00103DBB2002B02D0C9
:1030500004F10103DCB2FB794FEA5303FB71234611
:10306000184607F10807BD4690BC704780B483B08E
:1030700000AF0346FB7140F20013C2F20003FA797D
:103080001A7042F20443C4F20A234FF000021A708D
:1030900042F20043C4F20A2342F20002C2F20022CA
:1030A0001278D2B21A7042F20443C4F20A234FF0EB
:1030B00001021A7042F20443C4F20A234FF00002E4
:1030C0001A7042F20043C4F20A2342F20402C2F22E
:1030D00000221278D2B21A7042F20443C4F20A23D8
:1030E0004FF001021A7042F20443C4F20A234FF077
:1030F00000021A7042F20043C4F20A2342F20802AC
:10310000C2F200221278D2B21A7042F20443C4F220
:103110000A234FF001021A7042F20443C4F20A2358
:103120004FF000021A7042F20043C4F20A2342F246
:103130000C02C2F200221278D2B21A7042F2044398
:10314000C4F20A234FF001021A7042F20443C4F29F
:103150000A234FF000021A7042F20043C4F20A231D
:1031600042F21002C2F200221278D2B21A7042F277
:103170000443C4F20A234FF001021A7042F20443DE
:10318000C4F20A234FF000021A7042F20043C4F264
:103190000A2342F21402C2F200221278D2B21A704A
:1031A00042F20443C4F20A234FF001021A7042F2C1
:1031B0000443C4F20A234FF000021A7042F20043A3
:1031C000C4F20A2342F21802C2F200221278D2B2EA
:1031D0001A7042F20443C4F20A234FF001021A703B
:1031E00042F20443C4F20A234FF000021A7042F282
:1031F0000043C4F20A2342F21C02C2F200221278F7
:10320000D2B21A7042F20443C4F20A234FF0010210
:103210001A7007F10C07BD4680BC704780B400AF40
:1032200042F20443C4F20A234FF000021A7042F241
:103230000003C2F2002342F22042C4F20A221278B2
:10324000D2B21A7042F20443C4F20A234FF00102D0
:103250001A7042F20443C4F20A234FF000021A70BB
:1032600042F20403C2F2002342F22042C4F20A22D4
:103270001278D2B21A7042F20443C4F20A234FF019
:1032800001021A7042F20443C4F20A234FF0000212
:103290001A7042F20803C2F2002342F22042C4F242
:1032A0000A221278D2B21A7042F20443C4F20A23FC
:1032B0004FF001021A7042F20443C4F20A234FF0A5
:1032C00000021A7042F20C03C2F2002342F22042C2
:1032D000C4F20A221278D2B21A7042F20443C4F243
:1032E0000A234FF001021A7042F20443C4F20A2387
:1032F0004FF000021A7042F21003C2F2002342F2B1
:103300002042C4F20A221278D2B21A7042F2044366
:10331000C4F20A234FF001021A7042F20443C4F2CD
:103320000A234FF000021A7042F21403C2F2002383
:1033300042F22042C4F20A221278D2B21A7042F249
:103340000443C4F20A234FF001021A7042F204430C
:10335000C4F20A234FF000021A7042F21803C2F2BC
:10336000002342F22042C4F20A221278D2B21A702A
:1033700042F20443C4F20A234FF001021A7042F2EF
:103380000443C4F20A234FF000021A7042F21C03F5
:10339000C2F2002342F22042C4F20A221278D2B2D0
:1033A0001A7042F20443C4F20A234FF001021A7069
:1033B00040F20013C2F200031B78DBB21846BD4690
:1033C00080BC704780B582B000AF45F21103C4F2F3
:1033D000000345F21102C4F200021278D2B2D2B256
:1033E00002F0F10242F00C02D2B2D2B21A7002F034
:1033F000FFFE0346FB7142F20043C4F20A234FF082
:1034000001021A7045F21003C4F2000345F21002E3
:10341000C4F200021278D2B2D2B202F0F10242F04B
:103420000C02D2B2D2B21A7042F20443C4F20A239E
:103430004FF000021A7000BF00BF00BF42F2044309
:10344000C4F20A234FF001021A7000BF00BF00BF90
:1034500042F20443C4F20A234FF000021A7000BF84
:1034600000BF00BF42F20443C4F20A234FF001023E
:103470001A7000BF00BF00BF42F20443C4F20A2327
:103480004FF000021A7000BF00BF00BF42F20443B9
:10349000C4F20A234FF001021A7000BF00BF00BF40
:1034A00042F20443C4F20A234FF000021A7000BF34
:1034B00000BF00BF42F20443C4F20A234FF00102EE
:1034C0001A7000BF00BF00BF42F20443C4F20A23D7
:1034D0004FF000021A7000BF00BF00BF42F2044369
:1034E000C4F20A234FF001021A7000BF00BF00BFF0
:1034F00042F20443C4F20A234FF000021A7000BFE4
:1035000000BF00BF42F20443C4F20A234FF001029D
:103510001A7000BF00BF00BF42F20443C4F20A2386
:103520004FF000021A7000BF00BF00BF42F2044318
:10353000C4F20A234FF001021A7000BF00BF00BF9F
:1035400042F20443C4F20A234FF000021A7000BF93
:1035500000BF00BF42F20443C4F20A234FF001024D
:103560001A7000BF00BF00BF42F20443C4F20A2336
:103570004FF000021A7000BF00BF00BF42F20443C8
:10358000C4F20A234FF001021A7000BF00BF00BF4F
:1035900042F20443C4F20A234FF000021A7000BF43
:1035A00000BF00BF42F20443C4F20A234FF00102FD
:1035B0001A7000BF00BF00BF42F20443C4F20A23E6
:1035C0004FF000021A7000BF00BF00BF42F2044378
:1035D000C4F20A234FF001021A7000BF00BF00BFFF
:1035E00042F20443C4F20A234FF000021A7000BFF3
:1035F00000BF00BF42F20443C4F20A234FF00102AD
:103600001A7000BF00BF00BF42F20443C4F20A2395
:103610004FF000021A7000BF00BF00BF42F2044327
:10362000C4F20A234FF001021A7000BF00BF00BFAE
:1036300042F20443C4F20A234FF000021A7000BFA2
:1036400000BF00BF42F20443C4F20A234FF001025C
:103650001A7000BF00BF00BF42F20443C4F20A2345
:103660004FF000021A7000BF00BF00BF42F20443D7
:10367000C4F20A234FF001021A7000BF00BF00BF5E
:1036800042F20443C4F20A234FF000021A7000BF52
:1036900000BF00BF42F20443C4F20A234FF001020C
:1036A0001A7000BF00BF00BF42F20443C4F20A23F5
:1036B0004FF000021A7000BF00BF00BF42F2044387
:1036C000C4F20A234FF001021A7000BF00BF00BF0E
:1036D00042F20443C4F20A234FF000021A7000BF02
:1036E00000BF00BF42F20443C4F20A234FF00102BC
:1036F0001A7000BF00BF00BF42F20443C4F20A23A5
:103700004FF000021A7000BF00BF00BF42F2044336
:10371000C4F20A234FF001021A7000BF00BF00BFBD
:1037200042F20443C4F20A234FF000021A7000BFB1
:1037300000BF00BF42F20443C4F20A234FF001026B
:103740001A7000BF00BF00BF42F20443C4F20A2354
:103750004FF000021A7000BF00BF00BF42F20443E6
:10376000C4F20A234FF001021A7000BF00BF00BF6D
:1037700042F20443C4F20A234FF000021A7000BF61
:1037800000BF00BF42F20443C4F20A234FF001021B
:103790001A7000BF00BF00BF42F20443C4F20A2304
:1037A0004FF000021A7000BF00BF00BF42F2044396
:1037B000C4F20A234FF001021A7000BF00BF00BF1D
:1037C00042F20443C4F20A234FF000021A7000BF11
:1037D00000BF00BF42F20443C4F20A234FF00102CB
:1037E0001A7000BF00BF00BF42F20443C4F20A23B4
:1037F0004FF000021A7000BF00BF00BF42F2044346
:10380000C4F20A234FF001021A7000BF00BF00BFCC
:1038100042F20443C4F20A234FF000021A7000BFC0
:1038200000BF00BF42F20443C4F20A234FF001027A
:103830001A7000BF00BF00BF42F20443C4F20A2363
:103840004FF000021A7000BF00BF00BF42F20443F5
:10385000C4F20A234FF001021A7000BF00BF00BF7C
:1038600042F20443C4F20A234FF000021A7000BF70
:1038700000BF00BF42F20443C4F20A234FF001022A
:103880001A7000BF00BF00BF42F20443C4F20A2313
:103890004FF000021A7000BF00BF00BF42F20443A5
:1038A000C4F20A234FF001021A7000BF00BF00BF2C
:1038B00042F20443C4F20A234FF000021A7000BF20
:1038C00000BF00BF42F20443C4F20A234FF00102DA
:1038D0001A7000BF00BF00BF42F20443C4F20A23C3
:1038E0004FF000021A7000BF00BF00BF42F2044355
:1038F000C4F20A234FF001021A7000BF00BF00BFDC
:1039000042F20443C4F20A234FF000021A7000BFCF
:1039100000BF00BF42F20443C4F20A234FF0010289
:103920001A7000BF00BF00BF42F20443C4F20A2372
:103930004FF000021A7000BF00BF00BF42F2044304
:10394000C4F20A234FF001021A7000BF00BF00BF8B
:1039500042F20443C4F20A234FF000021A7000BF7F
:1039600000BF00BF42F20443C4F20A234FF0010239
:103970001A7000BF00BF00BF42F20443C4F20A2322
:103980004FF000021A7000BF00BF00BF42F20443B4
:10399000C4F20A234FF001021A7000BF00BF00BF3B
:1039A00042F20443C4F20A234FF000021A7000BF2F
:1039B00000BF00BF42F20443C4F20A234FF00102E9
:1039C0001A7000BF00BF00BF42F20443C4F20A23D2
:1039D0004FF000021A7000BF00BF00BF42F2044364
:1039E000C4F20A234FF001021A7000BF00BF00BFEB
:1039F00042F20443C4F20A234FF000021A7000BFDF
:103A000000BF00BF42F20443C4F20A234FF0010298
:103A10001A7000BF00BF00BF42F20443C4F20A2381
:103A20004FF000021A7000BF00BF00BF42F2044313
:103A3000C4F20A234FF001021A7000BF00BF00BF9A
:103A400042F20443C4F20A234FF000021A7000BF8E
:103A500000BF00BF42F20443C4F20A234FF0010248
:103A60001A7000BF00BF00BF42F20443C4F20A2331
:103A70004FF000021A7000BF00BF00BF42F20443C3
:103A8000C4F20A234FF001021A7000BF00BF00BF4A
:103A900042F20443C4F20A234FF000021A7000BF3E
:103AA00000BF00BF42F20443C4F20A234FF00102F8
:103AB0001A7000BF00BF00BF42F20443C4F20A23E1
:103AC0004FF000021A7000BF00BF00BF42F2044373
:103AD000C4F20A234FF001021A7000BF00BF00BFFA
:103AE00042F20443C4F20A234FF000021A7000BFEE
:103AF00000BF00BF42F20443C4F20A234FF00102A8
:103B00001A7000BF00BF00BF42F20443C4F20A2390
:103B10004FF000021A7000BF00BF00BF42F2044322
:103B2000C4F20A234FF001021A7000BF00BF00BFA9
:103B300042F20443C4F20A234FF000021A7000BF9D
:103B400000BF00BF42F20443C4F20A234FF0010257
:103B50001A7000BF00BF00BF42F20443C4F20A2340
:103B60004FF000021A7000BF00BF00BF42F20443D2
:103B7000C4F20A234FF001021A7000BF00BF00BF59
:103B800042F20443C4F20A234FF000021A7000BF4D
:103B900000BF00BF42F20443C4F20A234FF0010207
:103BA0001A7000BF00BF00BF42F20443C4F20A23F0
:103BB0004FF000021A7000BF00BF00BF42F2044382
:103BC000C4F20A234FF001021A7000BF00BF00BF09
:103BD00042F20443C4F20A234FF000021A7000BFFD
:103BE00000BF00BF42F20443C4F20A234FF00102B7
:103BF0001A7000BF00BF00BF42F20443C4F20A23A0
:103C00004FF000021A7000BF00BF00BF42F2044331
:103C1000C4F20A234FF001021A7000BF00BF00BFB8
:103C200042F20443C4F20A234FF000021A7000BFAC
:103C300000BF00BF42F20443C4F20A234FF0010266
:103C40001A7000BF00BF00BF42F20443C4F20A234F
:103C50004FF000021A7000BF00BF00BF42F20443E1
:103C6000C4F20A234FF001021A7000BF00BF00BF68
:103C700042F20443C4F20A234FF000021A7000BF5C
:103C800000BF00BF42F20443C4F20A234FF0010216
:103C90001A7000BF00BF00BF42F20443C4F20A23FF
:103CA0004FF000021A7000BF00BF00BF42F2044391
:103CB000C4F20A234FF001021A7000BF00BF00BF18
:103CC00042F20443C4F20A234FF000021A7000BF0C
:103CD00000BF00BF42F20443C4F20A234FF00102C6
:103CE0001A7000BF00BF00BF42F20443C4F20A23AF
:103CF0004FF000021A7000BF00BF00BF42F2044341
:103D0000C4F20A234FF001021A7000BF00BF00BFC7
:103D100042F20443C4F20A234FF000021A7000BFBB
:103D200000BF00BF42F20443C4F20A234FF0010275
:103D30001A7000BF00BF00BF42F20443C4F20A235E
:103D40004FF000021A7000BF00BF00BF42F20443F0
:103D5000C4F20A234FF001021A7000BF00BF00BF77
:103D600042F20443C4F20A234FF000021A7000BF6B
:103D700000BF00BF42F20443C4F20A234FF0010225
:103D80001A7000BF00BF00BFFB79184602F034FA7A
:103D900045F21003C4F2000345F21002C4F200021F
:103DA0001278D2B2D2B202F0F10242F00202D2B2E2
:103DB000D2B21A7007F10807BD4680BD80B584B045
:103DC00000AF78604FF00003FB737B681B787A6864
:103DD00002F101027A601846FFF7D2F803461A464C
:103DE000FB7B1344FB737B681B787A6802F101024A
:103DF0007A601846FFF7C4F803461A46FB7B134463
:103E0000FB737B681B787A6802F101027A601846BE
:103E1000FFF7B6F803461A46FB7B1344FB737B6837
:103E20001B787A6802F101027A601846FFF7A8F859
:103E300003461A46FB7B1344FB73FB7B03F0010331
:103E4000184607F11007BD4680BD00BF80B586B09B
:103E500000AF02460B46FA71BB714FF00003BB7412
:103E60004FF06403BB8202F0C3F90346FB754FF0C9
:103E700000037B7438E1FB79002B69D145F2140310
:103E8000C4F2000345F21402C4F200021278D2B266
:103E9000D2B202F0F10242F00C02D2B2D2B21A70E7
:103EA00045F21403C4F2000345F21402C4F2000206
:103EB0001278D2B202F0FE021A7045F21103C4F277
:103EC000000345F21102C4F200021278D2B2D2B25B
:103ED00002F0F10242F00C02D2B2D2B21A7045F2F4
:103EE0001003C4F2000345F21002C4F2000212787B
:103EF000D2B2D2B202F0F10242F00C02D2B2D2B28D
:103F00001A7042F20043C4F20A234FF001021A7001
:103F100042F20443C4F20A234FF001021A704FF038
:103F2000640002F08DFE45F21403C4F2000345F272
:103F30001402C4F200021278D2B2D2B202F0F1023C
:103F400042F00202D2B2D2B21A704FF06403BB82C6
:103F50004FF00003FB74FFF735FA4CF25033C1F613
:103F6000FF734FF000021A704CF24B33C1F6FF732F
:103F70006FF05A021A704CF25030C1F6FF7000F028
:103F8000EBF94CF25433C1F6FF731B7803F00F03C7
:103F9000012B02D14FF00103FB74BB8A03F1FF3305
:103FA000BB82BB8A002B02D0FB7C002BD3D06FF0EE
:103FB00056033B734FF000037B734FF00003BB735A
:103FC0004FF00003FB734FF054033B7407F10C02F6
:103FD00007F10B031046194600F026FBFB7A03F0AD
:103FE0000703012B73D16FF04E033B734FF00003B7
:103FF0007B734FF00003BB734FF00003FB734FF074
:1040000000033B7407F10C0207F10B03104619463D
:1040100000F00AFBFB7A03F00703012B59D16FF084
:104020005C033B734FF002037B734FF00003BB73E1
:104030004FF00003FB734FF000033B7407F10C02D9
:1040400007F10B031046194600F0EEFAFB7A03F075
:104050000703012B3FD16FF074033B734FF0140340
:104060007B734FF00003BB734FF00303FB734FF000
:1040700040033B7407F10C0207F10B03104619468D
:1040800000F0D2FAFB7A03F00703012B25D16FF081
:1040900044033B734FF000037B734FF00003BB738B
:1040A0004FF00003FB736FF07F033B7407F10C02CA
:1040B00007F10B031046194600F0B6FAFB7A03F03D
:1040C0000703012B0BD14FF00103BB7411E000BFBC
:1040D00006E000BF04E000BF02E000BF00E000BF58
:1040E0007B7C03F101037B747A7CBB799A42FFF4F9
:1040F000C2AEFB7D184602F07FF8BB7C184607F184
:104100001807BD4680BD00BF80B584B000AF7860A1
:1041100002F06EF80346FB734CF25433C1F6FF73A2
:104120004FF000021A707868FFF748FE0346BB7331
:10413000FEF784FCFEF756FCFEF748FE4CF26413D3
:10414000C1F6FF731B784FEA4303DAB24CF26313F4
:10415000C1F6FF731B7842EA0303DAB24CF265132F
:10416000C1F6FF731B784FEA8303DBB242EA030315
:10417000DBB2DAB24CF24A33C1F6FF731A70FEF7C3
:1041800031FC4CF24A33C1F6FF731B78022B7BD013
:10419000042B79D0012B40F0AA807868FEF778FED6
:1041A000BB7B002B07D042F20043C4F20A234FF03E
:1041B00001021A7006E042F20043C4F20A234FF0F3
:1041C00000021A7042F20443C4F20A234FF00002C4
:1041D0001A7000BF00BF00BF42F20443C4F20A23BA
:1041E0004FF001021A7000BF00BF00BF42F200434F
:1041F000C4F20A234FF000021A7042F20443C4F2E0
:104200000A234FF000021A7000BF00BF00BF42F245
:104210000443C4F20A234FF001021A7000BF00BF2A
:1042200000BF45F21003C4F2000345F21002C4F2CD
:1042300000021278D2B2D2B202F0F10242F00202CF
:10424000D2B2D2B21A7042F20043C4F20A234FF043
:1042500001021A7042F20443C4F20A234FF0010231
:104260001A704CF25433C1F6FF731A784CF24A3389
:10427000C1F6FF731B7842EA0303DAB24CF25433FF
:10428000C1F6FF731A705FE045F21003C4F2000339
:1042900045F21002C4F200021278D2B2D2B202F099
:1042A000F10242F00202D2B2D2B21A7042F20043DC
:1042B000C4F20A234FF001021A7042F20443C4F21E
:1042C0000A234FF001021A704CF25433C1F6FF7307
:1042D0001A784CF24A33C1F6FF731B7842EA0303A3
:1042E000DAB24CF25433C1F6FF731A702CE045F287
:1042F0001003C4F2000345F21002C4F20002127867
:10430000D2B2D2B202F0F10242F00202D2B2D2B282
:104310001A7042F20043C4F20A234FF001021A70ED
:1043200042F20443C4F20A234FF001021A704CF225
:104330005433C1F6FF731B7843F00703DAB24CF233
:104340005433C1F6FF731A70FB7B184601F054FF1B
:1043500007F11007BD4680BD90B585B000AF78600D
:1043600001F046FF0346FB734CF25433C1F6FF7372
:104370004FF000021A70FEF761FBFEF733FBFEF709
:1043800025FD4CF26413C1F6FF731B784FEA43031B
:10439000DAB24CF26313C1F6FF731B7842EA0303EF
:1043A000DAB24CF26513C1F6FF731B784FEA830350
:1043B000DBB242EA0303DBB2DAB24CF24A33C1F6B3
:1043C000FF731A704CF24A33C1F6FF731B7803F186
:1043D000FF33032B00F2B08001A252F823F000BF9C
:1043E000F1430000AF440000F1430000AF4400007F
:1043F0007868FEF787FD42F20443C4F20A234FF0C7
:1044000000021A7042F22043C4F20A231B78DCB285
:1044100042F20443C4F20A234FF001021A70FEF77D
:10442000E1FA7868FFF7CAFC0346A3420CD04CF2CD
:104430005433C1F6FF731B7843F00803DAB24CF231
:104440005433C1F6FF731A7045F21003C4F200032F
:1044500045F21002C4F200021278D2B2D2B202F0D7
:10446000F10242F00202D2B2D2B21A7042F200431A
:10447000C4F20A234FF001021A7042F20443C4F25C
:104480000A234FF001021A704CF25433C1F6FF7345
:104490001A784CF24A33C1F6FF731B7842EA0303E1
:1044A000DAB24CF25433C1F6FF731A7073E0FEF7C0
:1044B00099FA4FF000040AE07B684FF000021A708E
:1044C0007B6803F101037B6004F10103DCB2032C80
:1044D000F2D945F21003C4F2000345F21002C4F20F
:1044E00000021278D2B2D2B202F0F10242F002021D
:1044F000D2B2D2B21A7042F20043C4F20A234FF091
:1045000001021A7042F20443C4F20A234FF001027E
:104510001A704CF25433C1F6FF731A784CF24A33D6
:10452000C1F6FF731B7842EA0303DAB24CF254334C
:10453000C1F6FF731A702EE0FEF754FA45F210032D
:10454000C4F2000345F21002C4F200021278D2B2A3
:10455000D2B202F0F10242F00202D2B2D2B21A702A
:1045600042F20043C4F20A234FF001021A7042F2F1
:104570000443C4F20A234FF001021A704CF2543380
:10458000C1F6FF731B7843F00703DAB24CF25433E1
:10459000C1F6FF731A70FB7B184601F02DFE07F180
:1045A0001407BD4690BD00BF90B585B000AF7860E0
:1045B00039604FF00A044FF00003FB7309E0FA7B07
:1045C0003B6813444FF000021A70FB7B03F10103B8
:1045D000FB73FB7B042BF2D97B681A784CF24B33CC
:1045E000C1F6FF731A703868FFF7B6FE04F1FF33A7
:1045F000DCB2002C08D04CF25433C1F6FF731B78A8
:1046000003F00703072BEED03B6803F104024CF2E2
:104610005433C1F6FF731B7843F02003DBB21370F1
:1046200007F11407BD4690BD90B583B000AF786028
:1046300039604FF00A047B681A784CF24B33C1F6AC
:10464000FF731A707B6803F101031846FFF75CFDE6
:1046500004F1FF33DCB2002C08D04CF25433C1F625
:10466000FF731B7803F00703072BEBD04CF2543396
:10467000C1F6FF731B7843F02003DAB23B681A706F
:1046800007F10C07BD4690BD80B586B000AFF8605D
:10469000B9607A604FF0020005F0CCF80346FB8267
:1046A000BB681B889AB2FB8A13449BB21A467B688C
:1046B0001A80BB681B881AB2FB681A44FB8A4FF049
:1046C000020011461A4605F099F94FF0020005F074
:1046D000E1F9B7F916303F2B07DC4CF26213C1F653
:1046E000FF734FF001021A7006E04CF26213C1F63C
:1046F000FF734FF000021A7007F11807BD4680BD26
:1047000080B586B000AFF860B9607A603B604FF06A
:1047100000037B824FF00003BB824FF000037B82DB
:104720008FE0B7F91220FB6813441B7803F00403F1
:10473000002B26D0B7F91220FB681A443B681B886F
:1047400019B2BB680B4410461946FFF72DFF3B68B2
:104750001B889BB203F105039BB21A463B681A8083
:104760007B8A03F101039BB27B823B6A1B88B7F90A
:1047700012201BB29A4263D17B684FF000021A806C
:104780005FE03B6A1B889AB27B8AC3EB02039BB251
:10479000A3F105039BB2FB82B7F91630002B1EDA9A
:1047A0004FF00003BB8211E0B7F91420FB681344FB
:1047B000B7F91210B7F914200A441146FA680A44EE
:1047C00012781A70BB8A03F10103BB82B7F9142077
:1047D000B7F9163003F105039A42E5DB15E0B7F9A6
:1047E0001220FB681A443B681B8819B2BB680B4453
:1047F00010461946FFF718FF3B681B889BB203F170
:1048000001039BB21A463B681A80B7F91630002B99
:1048100010DCB7F91630002B04D17B684FF0000292
:104820001A8016E0FB8A03F105039BB21A467B68E7
:104830001A800EE07B8A03F105039BB27B8200E0C5
:1048400000BF3B6A1B88B7F912201BB29A42FFF6E1
:1048500068AF07F11807BD4680BD00BF80B582B0C4
:1048600000AF78600B467B804FF0010004F0C8FF7A
:104870000346012BF8D17B884FF0010079681A4676
:1048800005F010F807F10807BD4680BD80B586B079
:1048900000AFF860B9607A604FF000037B824FF0A0
:1048A0000003BB827B681B881BB203F13F02002B15
:1048B000B8BF13464FEAA313FB827B681B881AB26A
:1048C0004FEAE2734FEA93631A4402F03F02C3EBEC
:1048D00002039AB27B681A804FF000037B8211E0DA
:1048E000B7F91420FB68134418464FF04001FFF756
:1048F000B5FF7B8A03F101037B82BB8A03F140038E
:104900009BB2BB82B7F91220B7F916309A42E7DBA7
:104910004CF26213C1F6FF731B78002B0FD0B7F96E
:104920001420FB681A447B681B881BB2104619468A
:10493000FFF794FF7B684FF000021A801CE04FF0F5
:1049400000037B8211E0B7F91220FB681344B7F92A
:104950001410B7F912200A441146FA680A44127872
:104960001A707B8A03F101037B827B681B88B7F98D
:1049700012201BB29A42E6DB07F11807BD4680BD44
:1049800080B582B002AF4CF25830C1F6FF704CF2E5
:104990004C31C1F6FF714CF24832C1F6FF72FFF79D
:1049A00073FE4CF24833C1F6FF7300934CF258305B
:1049B000C1F6FF704CF2C811C1F6FF714CF24C32D7
:1049C000C1F6FF724CF2C413C1F6FF73FFF798FEF5
:1049D0004CF2C810C1F6FF704CF24C31C1F6FF71B9
:1049E0004CF2C412C1F6FF72FFF750FFBD4680BD06
:1049F00080B582B000AF4FF000037B714FF0000331
:104A0000BB714FF00003FB714CF2E033C1F6FF7352
:104A10001B7803F00F037B714CF2E033C1F6FF7398
:104A20001B784FEA1313BB714CF2E033C1F6FF73EE
:104A30005B78FB717B79002B18D1BA79FB79104632
:104A40001946FFF703FA0346012B07D14CF29C33BA
:104A5000C1F6FF734FF001021A700EE04CF29C3366
:104A6000C1F6FF734FF000021A7006E04CF29C335F
:104A7000C1F6FF734FF000021A7007F10807BD4638
:104A800080BD00BF80B500AF01F020F90346B3F54B
:104A90007A7F07D94CF29C33C1F6FF734FF0400286
:104AA000DA7006E04CF29C33C1F6FF734FF000025F
:104AB000DA704CF29C33C1F6FF734FF000021A71AA
:104AC00080BD00BF80B500AF45F21403C4F20003FF
:104AD00045F21402C4F200021278D2B2D2B202F04D
:104AE000F10242F00C02D2B2D2B21A7045F21403B3
:104AF000C4F2000345F21402C4F200021278D2B2EA
:104B000002F0FE021A704FF4C87002F099F845F2F4
:104B10001403C4F2000345F21402C4F20002127836
:104B2000D2B2D2B202F0F10242F00202D2B2D2B25A
:104B30001A70FDF71BFF80BD80B582B000AF4FF04B
:104B40000003FB714CF2DC33C1F6FF731B78002BC2
:104B500063D04CF2DC33C1F6FF731B78402B13D0CB
:104B6000402B04DC012B09D0042B0AD047E0422B58
:104B700039D0422B21DB432B38D040E0FFF782FFB6
:104B80003DE0FFF79FFF3AE04CF2E033C1F6FF73E0
:104B90001B78FB71FB79012B07D14CF20C13C1F68A
:104BA000FF734FF001021A7029E04CF20C13C1F6AA
:104BB000FF734FF000021A7021E04CF24C33C1F643
:104BC000FF734FF000021A804CF2C413C1F6FF735A
:104BD0004FF000021A804CF24833C1F6FF734FF0D9
:104BE00000021A800BE0FFF703FF08E04CF2E0330D
:104BF000C1F6FF731B78002B01D1FEF7E3FB4CF2EB
:104C0000DC33C1F6FF734FF000021A704CF2DD3353
:104C1000C1F6FF734FF000021A704FF0020004F06B
:104C200075FF0346002B08D04CF20C13C1F6FF733E
:104C30001B78012B01D1FFF7A3FE07F10807BD4642
:104C400080BD00BF80B400AF4CF2DC33C1F6FF730F
:104C50004FF000021A704CF2DD33C1F6FF734FF0D3
:104C600000021A70BD4680BC704700BF80B483B09C
:104C700000AF4FF00103BB714CF2DD33C1F6FF739F
:104C80001B78012B07D14CF2A063C1F6FF734FF0E4
:104C900000021A8079E046F20603C4F200031B7892
:104CA000DBB21A4646F20703C4F200031B78DBB2FC
:104CB0004FEA03239BB213449AB24CF2A063C1F6AD
:104CC000FF731A8046F20103C4F200031B78DBB2C3
:104CD000012B09D14CF29C32C1F6FF724CF2A06359
:104CE000C1F6FF735A6050E046F20103C4F20003BC
:104CF0001B78DBB2022B48D107F106024CF2A0630D
:104D0000C1F6FF735A6046F20203C4F200031B7837
:104D1000FB7146F20303C4F200031B78DAB24CF2D3
:104D2000DE33C1F6FF731A7046F20403C4F20003C7
:104D30001B78DAB24CF2E033C1F6FF731A7046F218
:104D40000503C4F200031B78DAB24CF2E033C1F67B
:104D5000FF735A70FB79072B17D14CF2DE33C1F683
:104D6000FF731B78002B10D04CF2DE33C1F6FF73BB
:104D70001A784CF2DC33C1F6FF731A704CF2DD3353
:104D8000C1F6FF734FF001021A7007F10C07BD4620
:104D900080BC704780B500AF4FF0030004F030FDD9
:104DA0000346012BF8D14FF003004CF23061C1F6FD
:104DB000FF714FF0400204F075FD4FF0040004F065
:104DC00069FE80BD80B582B000AF03F079FB00F0D2
:104DD0000DFA4FF0010004F03DF94FF0000004F02F
:104DE0000BF94FF00003BB7118E004F055F90346CE
:104DF000002B17D14FF0010004F0FEF84FF028000F
:104E000001F01EFF4FF0000004F0F6F84FF028000C
:104E100001F016FFBB7903F10103BB71BB79312BA4
:104E2000E3D900E000BF4FF0000004F013F94FF0A9
:104E3000010004F0E1F84FF0500001F001FF4FF0E5
:104E4000010004F007F94FF0500001F0F9FE04F002
:104E500023F90346002B08D004F0EEF80346002B9C
:104E600003D04FF00103FB7102E04FF00003FB7130
:104E700000F0CEF903F008FBFB79184607F10807AC
:104E8000BD4680BD90B587B000AFBA607B60034679
:104E9000FB730B46BB734FF00003FB754FF0000331
:104EA0007B75FB7B03F00203002B41D004F0F4F888
:104EB0000346002B04D004F0BFF80346002B11D1A9
:104EC00003F026FF4FF00A0001F0BAFEFFF77AFF69
:104ED0000346002B06D17B684FF000021A704FF09A
:104EE0000103FB75FB7D012B5BD003F0E9FA03F0B6
:104EF000CBFABB681A78FB7B03F001031046194616
:104F000003F012FE0346002B03D14FF00103BB75E3
:104F100002E04FF00003BB757B68BA7D1A707B7DA1
:104F200003F101037B75BB7B03F1FF333B7539E074
:104F3000FB7B03F00403002B1ED0BB681A78FB7BBD
:104F400003F001031046194603F06CFE0346002BE4
:104F500003D14FF00103BB7502E04FF00003BB75B6
:104F60007B68BA7D1A707B7D03F101037B75BB7B87
:104F700003F1FF333B7515E04FF00103BB75FB7B7D
:104F800003F00103DBB2002B0CD07B68BA7D1A70F2
:104F90007B7D03F101037B75BB7B03F1FF333B7525
:104FA00000E000BFBB7D012B67D1FB7D012B64D0EE
:104FB000FB7B03F00103DBB2002B33D0BB7B002B68
:104FC00058D011E07A7D7B6802EB03044FF00100BA
:104FD00003F04AFF034623707B7D03F101037B75D9
:104FE0003B7D03F1FF333B753B7D002BEAD1FB7B1F
:104FF00003F00803002B0AD07A7D7B6802EB0304E0
:105000004FF0000003F030FF0346237035E07A7D57
:105010007B6802EB03044FF0010003F025FF034619
:1050200023702AE0BB7B3B7520E07A7DBB6813448C
:105030001B78184603F0B0FE0346002B03D14FF057
:105040000103BB7502E04FF00003BB757A7D7B68FE
:105050001344BA7D1A70BB7D002B0DD07B7D03F10C
:1050600001037B753B7D03F1FF333B753B7D002BDB
:10507000DBD102E000BF00E000BFFB7B03F00803D0
:10508000002B01D003F044FE07F11C07BD4690BD84
:1050900080B400AF45F26103C4F2000345F261023F
:1050A000C4F200021278D2B2D2B202F0F10242F09F
:1050B0000802D2B2D2B21A7045F26003C4F2000301
:1050C00045F26002C4F200021278D2B2D2B202F00B
:1050D000F10242F00802D2B2D2B21A70BD4680BCD0
:1050E000704700BF80B400AF45F26103C4F2000313
:1050F00045F26102C4F200021278D2B2D2B202F0DA
:10510000F10242F00202D2B2D2B21A7045F260034A
:10511000C4F2000345F26002C4F200021278D2B277
:10512000D2B202F0F10242F00202D2B2D2B21A704E
:10513000BD4680BC704700BF80B500AF4FF0010096
:1051400007F0F6FD4FF0010007F014FE45F2620390
:10515000C4F2000345F26202C4F200021278D2B235
:10516000D2B202F0F10242F00C02D2B2D2B21A7004
:1051700045F26303C4F2000345F26302C4F2000285
:105180001278D2B2D2B202F0F10242F00C02D2B2E4
:10519000D2B21A7080BD00BF80B400AF45F2630385
:1051A000C4F2000345F26302C4F200021278D2B2E4
:1051B000D2B202F0F10242F00202D2B2D2B21A70BE
:1051C00045F26203C4F2000345F26202C4F2000237
:1051D0001278D2B2D2B202F0F10242F00202D2B29E
:1051E000D2B21A70BD4680BC704700BF80B400AF19
:1051F00045F2C613C4F2000345F2C612C4F200021F
:105200001278D2B202F0FC021A70BD4680BC704720
:1052100080B400AF45F2C613C4F2000345F2C612D3
:10522000C4F200021278D2B242F00302D2B21A7073
:10523000BD4680BC704700BF80B500AF03F040F9A9
:10524000FFF750FF80BD00BF80B500AFFFF7F4FF50
:105250004CF2E533C1F6FF734FF000021A7002F012
:1052600023FE02F073FF80BD80B582B000AF4FF027
:10527000040004F04BFC0346002B00F09D824FF02D
:10528000040004F0D7FA0346BB80BB8803F0FF0399
:105290004FF004004CF2EC31C1F6FF711A4604F0F5
:1052A000ADFB0346FB714CF2E633C1F6FF734FF0E2
:1052B00000021A704CF2E433C1F6FF734FF00002A3
:1052C0001A704CF2E633C1F6FF731B781A464CF2A3
:1052D000EC33C1F6FF739B5CBB704CF2E633C1F656
:1052E000FF731B7803F10103DAB24CF2E633C1F627
:1052F000FF731A704CF2E633C1F6FF731B781A463F
:105300004CF2EC33C1F6FF739B5C03F03F03FB7080
:105310004CF2E633C1F6FF731B7803F10103DAB2F6
:105320004CF2E633C1F6FF731A704CF2E433C1F667
:10533000FF731B781A464CF23063C1F6FF734FF0CF
:1053400000019954BB7803F02003002B56D003F0E2
:10535000B7F8BB7803F00C030C2B0DD14FF0030012
:105360004FF0010102F0C2FD4CF22D63C1F6FF7354
:105370004FF00C021A7037E0BB7803F00C03042BDB
:105380000DD14FF009004FF0010102F0AFFD4CF2DA
:105390002D63C1F6FF734FF004021A7024E0BB784E
:1053A00003F00C03002B0DD14FF027004FF001014B
:1053B00002F09CFD4CF22D63C1F6FF734FF000022A
:1053C0001A7011E0BB7803F00C03082B0CD14FF0DE
:1053D0004F004FF0010102F089FD4CF22D63C1F640
:1053E000FF734FF008021A7003F04EF84CF230636E
:1053F000C1F6FF734FF001021A70DBE1BB7803F0D6
:105400001003002B14D0FFF7DDFC0346012B07D15E
:105410004CF23063C1F6FF734FF001021A70C9E11C
:105420004CF23063C1F6FF734FF000021A70C1E115
:10543000BB7803F00203002B00F099814CF2E633B5
:10544000C1F6FF731B781A464CF2EC33C1F6FF73BA
:105450009B5C5BB2002B80F28A8100F037FC034634
:10546000B3F57A7F0DD94CF2E433C1F6FF731B78A4
:105470001A464CF23063C1F6FF734FF005019954A0
:105480000CE04CF2E433C1F6FF731B781A464CF281
:105490003063C1F6FF734FF0010199544CF2E433CD
:1054A000C1F6FF731B7803F10103DAB24CF2E43367
:1054B000C1F6FF731A704CF2E633C1F6FF731B7826
:1054C0001A464CF2EC33C1F6FF739B5C802B40F024
:1054D0009D80BB7803F00103DBB2002B00F06781F5
:1054E0004CF2E433C1F6FF731A7811464CF2306384
:1054F000C1F6FF734FF00100585402F10103DAB214
:105500004CF2E433C1F6FF731A704CF2E433C1F687
:10551000FF731A7811464CF22D63C1F6FF731878A9
:105520004CF23063C1F6FF73585402F10103DAB252
:105530004CF2E433C1F6FF731A7000F0C7FB034668
:105540001A464CF2E833C1F6FF731A804CF2E4338A
:10555000C1F6FF731A7811464CF2E833C1F6FF73B7
:105560001B88D8B24CF23063C1F6FF73585402F175
:105570000103DAB24CF2E433C1F6FF731A704CF255
:10558000E433C1F6FF731A7811464CF2E833C1F6E2
:10559000FF731B884FEA13239BB2D8B24CF23063DF
:1055A000C1F6FF73585402F10103DAB24CF2E4334E
:1055B000C1F6FF731A704CF2E433C1F6FF731A7828
:1055C00011464CF23063C1F6FF734FF0000058549F
:1055D00002F10103DAB24CF2E433C1F6FF731A7040
:1055E0004CF2E433C1F6FF731A7811464CF2306383
:1055F000C1F6FF734FF00000585402F10103DAB214
:105600004CF2E433C1F6FF731A70D3E04CF2E63388
:10561000C1F6FF731B781A464CF2EC33C1F6FF73E8
:105620009B5C812B3AD14CF2E433C1F6FF731A78BC
:1056300011464CF26613C1F6FF7318784CF23063D2
:10564000C1F6FF73585402F10103DAB24CF2E433AD
:10565000C1F6FF731A704CF2E433C1F6FF731A7887
:1056600011464CF23063C1F6FF734FF003005854FB
:1056700002F10103DAB24CF2E433C1F6FF731A709F
:105680004CF2E433C1F6FF731B781A464CF23063D8
:10569000C1F6FF734FF0020199548BE04CF2E633F0
:1056A000C1F6FF731B781A464CF2EC33C1F6FF7358
:1056B0009B5C822B02D101F093FA7BE04CF2E63343
:1056C000C1F6FF731B781A464CF2EC33C1F6FF7338
:1056D0009B5C8F2B3BD1FFF7AFFD4CF2E633C1F65D
:1056E000FF731B7803F10103DAB24CF2E633C1F623
:1056F000FF731A704CF2E633C1F6FF731B781A463B
:105700004CF2EC33C1F6FF739B5C002B1CD1FFF70E
:1057100013FDFFF7BDFC02F0B7FEFFF753FB4CF2A1
:10572000E533C1F6FF734FF000021A704CF2E43318
:10573000C1F6FF731B781A464CF23063C1F6FF7353
:105740004FF00001995435E0FFF726FD32E04CF2AE
:10575000E633C1F6FF731B781A464CF2EC33C1F600
:10576000FF739B5CA02B24D106F074FF22E04CF267
:10577000E533C1F6FF731B78002B0AD1BA78FB78AA
:10578000104619460E4A4CF23063C1F6FF73FFF71C
:1057900079FB4CF2E433C1F6FF731A78FB781344BB
:1057A000DAB24CF2E433C1F6FF731A7002E000BFC4
:1057B00000E000BFFFF7EEFA07F10807BD4680BD25
:1057C000EEC3FF1F80B485B000AF02460B46FA71EE
:1057D000BB714FF00103FB73FB79002B06D0BB7943
:1057E000002B03D14FF00103FB7308E0FB79002B82
:1057F00005D1BB79002B02D14FF00203FB73FB7B79
:10580000184607F11407BD4680BC704780B58AB0C2
:1058100000AF4FF0000387F826304FF0000387F801
:1058200027304CF21013C1F6FF731B78DBB23B71CB
:105830004CF21013C1F6FF731B7CDAB24CF210135A
:10584000C1F6FF735B7CDBB2134487F8253045F269
:105850000403C4F2000345F20402C4F20002127809
:10586000D2B242F00E02D2B2D2B21A7045F20503A1
:10587000C4F2000345F20502C4F200021278D2B26B
:1058800042F00E02D2B2D2B21A7045F20603C4F24E
:10589000000345F20602C4F200021278D2B242F0CE
:1058A0000E02D2B2D2B21A7045F20703C4F200035C
:1058B00045F20702C4F200021278D2B242F00E02A0
:1058C000D2B2D2B21A7045F21A03C4F2000345F202
:1058D0001A02C4F200021278D2B242F00E02D2B220
:1058E000D2B21A7045F21B03C4F2000345F21B0248
:1058F000C4F200021278D2B242F00E02D2B2D2B298
:105900001A7045F20403C4F2000345F20402C4F223
:1059100000021278D2B242F00102D2B21A7045F2FD
:105920000503C4F2000345F20502C4F20002127836
:10593000D2B242F00102D2B21A7045F20603C4F2AA
:10594000000345F20602C4F200021278D2B242F01D
:105950000102D2B21A7045F20703C4F2000345F205
:105960000702C4F200021278D2B242F00102D2B2AF
:105970001A7045F21A03C4F2000345F21A02C4F287
:1059800000021278D2B242F00102D2B21A7045F28D
:105990001B03C4F2000345F21B02C4F2000212789A
:1059A000D2B242F00102D2B21A704FF00A0001F0F6
:1059B00023F945F20403C4F200031B78DBB203F0C1
:1059C00010033B7745F20503C4F200031B78DBB2FA
:1059D00003F010037B7745F20603C4F200031B7843
:1059E000DBB203F01003BB7745F20703C4F20003F8
:1059F0001B78DBB203F01003FB7745F21A03C4F205
:105A000000031B78DBB203F0100387F8203045F267
:105A10001B03C4F200031B78DBB203F0100387F80A
:105A2000213045F20403C4F2000345F20402C4F23B
:105A300000021278D2B202F0FE021A7045F205039B
:105A4000C4F2000345F20502C4F200021278D2B299
:105A500002F0FE021A7045F20603C4F2000345F29A
:105A60000602C4F200021278D2B202F0FE021A70EC
:105A700045F20703C4F2000345F20702C4F2000234
:105A80001278D2B202F0FE021A7045F21A03C4F282
:105A9000000345F21A02C4F200021278D2B202F0F8
:105AA000FE021A7045F21B03C4F2000345F21B020A
:105AB000C4F200021278D2B202F0FE021A704FF065
:105AC0000A0001F099F845F20403C4F200031B78C0
:105AD000DBB203F010033B7545F20503C4F200038B
:105AE0001B78DBB203F010037B7545F20603C4F2AA
:105AF00000031B78DBB203F01003BB7545F207030C
:105B0000C4F200031B78DBB203F01003FB7545F20F
:105B10001A03C4F200031B78DBB203F010033B76D8
:105B200045F21B03C4F200031B78DBB203F0100341
:105B30007B7645F20403C4F2000345F20402C4F28A
:105B400000021278D2B2D2B202F0F10242F00202A6
:105B5000D2B2D2B21A7045F20503C4F2000345F284
:105B60000502C4F200021278D2B2D2B202F0F102FF
:105B700042F00202D2B2D2B21A7045F20603C4F267
:105B8000000345F20602C4F200021278D2B2D2B289
:105B900002F0F10242F00202D2B2D2B21A7045F221
:105BA0000703C4F2000345F20702C4F200021278B0
:105BB000D2B2D2B202F0F10242F00202D2B2D2B2BA
:105BC0001A7045F21A03C4F2000345F21A02C4F235
:105BD00000021278D2B2D2B202F0F10242F0020216
:105BE000D2B2D2B21A7045F21B03C4F2000345F2DE
:105BF0001B02C4F200021278D2B2D2B202F0F10259
:105C000042F00202D2B2D2B21A704FF0000387F80B
:105C1000263024E097F8263007F128010B4413F8CA
:105C20000C2C97F8263007F128010B4413F8143C8C
:105C300010461946FFF7C6FD034603F1FF3297F8F9
:105C4000263002FA03F3DAB297F82730134487F8C4
:105C5000273097F8263003F1010387F8263097F8AC
:105C60002630052BD6D997F8273003F1FF33DAB267
:105C70004CF26613C1F6FF731A7007F12807BD4690
:105C800080BD00BF80B500AF00F002F880BD00BF4E
:105C900080B400AF4CF26A13C1F6FF731A8840F269
:105CA000E7339A4207D84CF22413C1F6FF734FF042
:105CB00001021A7006E04CF22413C1F6FF734FF094
:105CC00000021A70BD4680BC704700BF80B582B02C
:105CD00000AF4FF00003BB804FF00003FB80FB8858
:105CE000184600F013F80346BB80BB881A464FEAFB
:105CF00042021344BB80BB884FEA5303BB80BB887E
:105D0000184607F10807BD4680BD00BF80B485B0C6
:105D100000AF0346FB804FF000037B814FF0000390
:105D2000FB604CF22413C1F6FF731B78012B06D1E4
:105D3000FB8841F2883202FB03F3FB6005E0FB883D
:105D400040F6E44202FB03F3FB60FB684FEA1333C7
:105D5000FB60FB687B817B89184607F11407BD4611
:105D600080BC704780B400AFBD4680BC704700BFA8
:105D700080B500AF4FF0010002F0C6F907F03AF924
:105D800006F01CFDFFF7EEFFFCF7F0FDFFF754FAFD
:105D9000FFF702FA00F0BEFF4FF000004FF04001A5
:105DA00001F05CFB80BD00BF80B500AF01F05AF987
:105DB000FEF748FFFFF748FAFCF776FD00F098F988
:105DC00007F002F94CF26113C1F6FF734FF00102C4
:105DD0001A704FF0000002F097F980BD80B500AF57
:105DE0004CF26813C1F6FF731B78012B13D103F03B
:105DF000BBFC0346002B07D105F014F8FFF7B8FFF2
:105E0000FFF7D2FF05F0DAF84CF26813C1F6FF7322
:105E10004FF000021A7080BD80B594B000AF03F05F
:105E200051FF0346002B71D003F076FF03467B64DD
:105E30007B6CB3F5E13F02D94FF4E1337B647A6CBC
:105E400040F2AF439A4202D84FF496637B647B6C76
:105E5000B3F5165F30D0B3F5165F09D8B3F5166FFA
:105E600034D0B3F5965F2CD0B3F5966F33D037E0CE
:105E7000B3F5164F16D0B3F5164F03D8B3F5964FBA
:105E800015D02DE0B3F5614F07D0B3F5E13F27D131
:105E90004FF01A03A7F84A3026E04FF03403A7F872
:105EA0004A3021E04FF04E03A7F84A301CE04FF093
:105EB0009C03A7F84A3017E04FF49C73A7F84A30C8
:105EC00012E040F27123A7F84A300DE040F2E243BD
:105ED000A7F84A3008E040F6C413A7F84A3003E0B8
:105EE0004FF01A03A7F84A3006F068FCB7F84A30BA
:105EF00003F1FF339BB218464FF0010102F048F95D
:105F000006F0BCFB06F030FD06F010FE4FF0070077
:105F100003F076FC0346002B18D04FF0070003F087
:105F200089FC034687F84C3097F84C3007F104029F
:105F30004FF0070011461A4603F060FD07F1040216
:105F400097F84C301046194606F0CCFD06F088FC58
:105F50000346802B01D106F007FD06F0A9FC03469D
:105F600087F84D3097F84D30002B00F0BC804FF093
:105F7000060003F045FC0346012B40F0B48097F87F
:105F80004D30402B03D94FF0400387F84D304CF291
:105F9000BC13C1F6FF731B7887F84E304FF0000337
:105FA00087F84F3021E097F84E305BB2002B03DAD0
:105FB0004FF0000387F84E3046F2D803C4F20003D6
:105FC00097F84E104CF2C472C1F6FF72525CD2B216
:105FD0001A7097F84F3003F1010387F84F3097F8A4
:105FE0004E3003F1010387F84E3097F84F2097F8B1
:105FF0004D309A42D7D346F2D403C4F200034CF298
:10600000BC62C1F6FF72B2F84E2092B2D2B21A70E0
:1060100046F2D503C4F200034CF2BC62C1F6FF7233
:10602000B2F84E2092B24FEA122292B2D2B21A7055
:1060300046F25C03C4F2000397F84D204FEA222297
:10604000D1B24CF2BC62C1F6FF7292F84B20D2B2D0
:1060500041EA0202D2B2D2B21A7046F25D03C4F231
:10606000000397F84D201A7046F2D603C4F20003DD
:106070004CF2BC62C1F6FF72B2F84E2092B2D2B2BC
:106080001A7046F2D703C4F200034CF2BC62C1F6A8
:10609000FF72B2F84E2092B24FEA122292B2D2B2FE
:1060A0001A704CF2BC63C1F6FF734FF0000283F824
:1060B000492046F25E03C4F200034CF2BC62C1F612
:1060C000FF7292F84D20D2B21A704CF2BC13C1F696
:1060D000FF7397F84E201A704CF2BE13C1F6FF738F
:1060E0004FF000021A7007F15007BD4680BD00BF97
:1060F00080B500AF06F0C2FA4FF0020002F0DEFFFA
:1061000080BD00BF80B500AF03F0C8FD4FF00C00AC
:1061100002F0D4FF80BD00BF80B400AFFEE700BF37
:10612000014B1A70FCF7F4FABC76004080B582B0DF
:1061300000AF4EF60C53CEF2000340F20042C0F224
:10614000FA521A604EF61453CEF200034EF6145271
:10615000CEF20002126842F400721A604FF000039F
:106160007B6019E079687B68032B07D87A6842F274
:106170000073C0F2000353F8223003E046F2191313
:10618000C0F200034CF20002C1F6FF7242F8213067
:106190007B6803F101037B607B682F2BE2D947F218
:1061A000BC63C4F200031B78DAB24CF27063C1F630
:1061B000FF731A704EF60853CEF200034CF2000241
:1061C000C1F6FF721A6007F0D5F84CF20013C1F661
:1061D000FF734FF000021A6007F10807BD4680BD4B
:1061E0000230800803D000BF01380046FCD1704760
:1061F000EFF3108072B6704780F31088704700BFCD
:1062000080B584B000AF0346FB714FF00003BB6064
:1062100044F22023C4F2000344F22022C4F200021C
:106220001278D2B242F00102D2B21A70FB79002B7E
:106230004DD044F20033C4F200031B787B7344F268
:106240008033C4F200031B78BB7344F28233C4F280
:1062500000031B78FB734FF0180001F049FA4FF070
:106260001003BB6019E044F22523C4F200031B783D
:10627000DBB203F00103DBB2002B0ED044F2252386
:10628000C4F200031B78DBB203F00103DBB2002B86
:1062900003D04FF00003BB6006E04FF0010001F0B7
:1062A000E9F90346012BDED17B7B03F00403002BCD
:1062B00001D100F0E5FB44F28033C4F20003BA7B65
:1062C0001A7044F28233C4F20003FA7B1A70BB687E
:1062D000184607F11007BD4680BD00BF80B400AF6F
:1062E00044F22023C4F2000344F22022C4F200024C
:1062F0001278D2B202F0FE021A70BD4680BC70471E
:1063000080B584B000AF0346FB7144F2A033C4F201
:10631000000344F2A032C4F200021278D2B242F07A
:106320001002D2B21A70FB79002B4DD044F2003328
:10633000C4F200031B78FB73FB7B03F00403002B08
:1063400001D100F089FB44F28233C4F200031B78D0
:106350007B7344F28033C4F200031B78BB7344F2B6
:106360008233C4F2000344F28232C4F20002127893
:10637000D2B202F0FC021A7044F28033C4F200037D
:106380004FF000021A7044F28233C4F200034FF05F
:1063900001021A704FF0010001F06CF90346002B66
:1063A000F8D0FB7B03F00403002B01D100F068FB65
:1063B00044F28033C4F20003BA7B1A7044F2823391
:1063C000C4F200037A7B1A7007F11007BD4680BD46
:1063D00080B400AF44F2A033C4F2000344F2A03210
:1063E000C4F200021278D2B202F0EF021A70BD4677
:1063F00080BC704780B483B000AF4FF00003FB71E6
:1064000044F29333C4F200031B78DBB203F00703BA
:10641000002B0AD144F2A533C4F200031B78DBB28F
:1064200003F00103DBB2002B14D144F29333C4F226
:1064300000031B78DBB203F00703012B0DD144F2FC
:10644000B533C4F200031B78DBB203F00103DBB207
:10645000002B02D04FF00103FB71FB79184607F1C6
:106460000C07BD4680BC704780B584B000AF0346C2
:10647000FB71FFF7BFFF0346FB73FB7B012B0CD1C6
:1064800046F20903C4F2000346F20902C4F2000214
:106490001278D2B202F0FD021A70FB79082B7AD87A
:1064A00001A252F823F000BFCD640000E5640000B3
:1064B000FD640000156500002D65000045650000C5
:1064C00097650000976500005D65000044F2A163D8
:1064D000C4F2000340F20812C4F600121278D2B2DD
:1064E0001A705EE044F2A163C4F2000340F20912A4
:1064F000C4F600121278D2B21A7052E044F2A163CC
:10650000C4F2000340F20A12C4F600121278D2B2AA
:106510001A7046E044F2A163C4F2000340F20B1289
:10652000C4F600121278D2B21A703AE044F2A163B3
:10653000C4F2000340F28912C4F600121278D2B2FB
:106540001A702EE044F2A163C4F2000340F20C1270
:10655000C4F600121278D2B21A7022E044F2A1639B
:10656000C4F2000340F20F12C4F600121278D2B245
:106570001A70FB7B012B13D146F20903C4F200030E
:1065800046F20902C4F200021278D2B242F00202CC
:10659000D2B21A7005E04FF0000000F015FB00E0E9
:1065A00000BF07F11007BD4680BD00BF80B584B0B5
:1065B00000AF0346FB7144F20023C4F200031B78D2
:1065C000DBB203F00703BB73FB79082B01D0FB7927
:1065D00001E04FF00303FB73BB7B052B26D801A220
:1065E00052F823F0FD650000056600000D6600000E
:1065F000156600001D660000256600004FF00203CE
:10660000BB7317E04FF00103BB7313E04FF00303BC
:10661000BB730FE04FF00003BB730BE04FF00403BC
:10662000BB7307E04FF00503BB7303E04FF00000BE
:1066300000F0CAFAFA7BBB7B9A4203D3FB79184677
:10664000FFF712FFFB79082B00F28A8001A252F8B3
:1066500023F000BF796600009B660000BD66000065
:10666000D9660000FB6600001D670000616700003E
:10667000616700003F67000044F20023C4F200039A
:1066800044F20022C4F200021278D2B202F0B80240
:1066900042F00302D2B21A7066E044F20023C4F260
:1066A000000344F20022C4F200021278D2B202F0D7
:1066B000B80242F00102D2B21A7055E044F200234F
:1066C000C4F2000344F20022C4F200021278D2B2F3
:1066D00002F0B8021A7047E044F20023C4F200034B
:1066E00044F20022C4F200021278D2B202F0B802E0
:1066F00042F00202D2B21A7036E044F20023C4F231
:10670000000344F20022C4F200021278D2B202F076
:10671000B80242F00402D2B21A7025E044F200231B
:10672000C4F2000344F20022C4F200021278D2B292
:1067300002F0B80242F00502D2B21A7014E044F23C
:106740000023C4F2000344F20022C4F200021278D3
:10675000D2B202F0B80242F04202D2B21A7003E0A2
:106760004FF0000000F030FAFB79082B02D100F066
:106770006BF801E000F07CF8FA7BBB7B9A4203D215
:10678000FB791846FFF770FE07F11007BD4680BD84
:1067900080B582B000AF0346FB71FB79012B20D09E
:1067A000022B02D0002B39D046E044F20003C4F2A1
:1067B000000344F20002C4F200021278D2B202F0E6
:1067C000BF021A7044F20023C4F2000344F2002214
:1067D000C4F200021278D2B242F02002D2B21A7091
:1067E0002EE044F20003C4F2000344F20002C4F2BB
:1067F00000021278D2B242F04002D2B21A7044F2D1
:106800000023C4F2000344F20022C4F20002127812
:10681000D2B242F02002D2B21A7011E044F2002348
:10682000C4F2000344F20022C4F200021278D2B291
:1068300002F0DF021A7003E04FF0000000F0C4F92C
:1068400007F10807BD4680BD80B400AF44F20023C5
:10685000C4F2000344F20022C4F200021278D2B261
:1068600042F01002D2B21A70BD4680BC704700BF21
:1068700080B400AF44F20023C4F2000344F20022CB
:10688000C4F200021278D2B202F0EF021A70BD46D2
:1068900080BC704780B483B000AF0346FB7144F204
:1068A0000503C4F2000344F20502C4F200021278A8
:1068B000D2B2114601F0FC01FA7902F0030241EA7A
:1068C0000202D2B21A7007F10C07BD4680BC7047B5
:1068D00080B483B000AF0346FB7144F20403C4F2FA
:1068E0000003FA791A7007F10C07BD4680BC7047A7
:1068F00080B483B000AF0346FB8044F21403C4F2BB
:10690000000344F21402C4F200021278D2B202F080
:10691000F0021A7044F21003C4F200034FF00002B8
:106920001A7044F20803C4F2000344F20802C4F2ED
:1069300000021278D2B26FEA42626FEA5262D2B2B9
:106940001A7044F20203C4F20003FA88D2B21A7039
:1069500044F20303C4F20003FA884FEA122292B20F
:10696000D2B21A7044F20103C4F2000344F20102ED
:10697000C4F200021278D2B242F00102D2B21A700E
:1069800007F10C07BD4680BC704700BF80B584B0DE
:1069900000AF0346FB80FFF72BFC0346FB7344F27A
:1069A0000703C4F200031B78DBB24FEA03239AB259
:1069B00044F20603C4F200031B78DBB242EA03038D
:1069C000BB81FB88002B02D0BB89002B38D144F25D
:1069D0000403C4F200031B78FB72FB7A062B03D876
:1069E0004FF00700FFF774FFFB88002B12D144F231
:1069F0000803C4F2000344F20802C4F20002127851
:106A0000D2B242F04002D2B21A70FB881846FFF7A9
:106A10006FFF10E0FB881846FFF76AFF44F2080397
:106A2000C4F2000344F20802C4F200021278D2B2A7
:106A300002F0BF021A70FB7A1846FFF749FF03E025
:106A4000FB881846FFF754FFFB7B1846FFF7D4FB83
:106A500007F11007BD4680BD80B400AF44F200339B
:106A6000C4F2000344F20032C4F200021278D2B23F
:106A700042F00402D2B21A70BD4680BC704700BF1B
:106A800080B400AF44F20033C4F2000344F2003299
:106A9000C4F200021278D2B202F0FB021A70BD46B4
:106AA00080BC704780B586B000AF0346FB714FF0E5
:106AB00000033B61FB79FB7344F21023C4F2000333
:106AC00044F21022C4F200021278D2B242F0010263
:106AD000D2B21A70FB79002B5DD044F20033C4F2BD
:106AE00000031B787B7544F28033C4F200031B78EB
:106AF000BB7544F28233C4F200031B78FB754FF080
:106B0000180000F0F5FD4FF010033B612CE044F25B
:106B10001023C4F200031B784FF00403BB730CE096
:106B20004FF0010000F0A6FD0346012BF8D1BB7B1E
:106B3000DBB203F1FF33DBB2BB73BB7BDBB2002BF9
:106B4000EED144F21023C4F200031B78DBB25BB237
:106B5000002B03DB4FF000033B6109E0FB7BDBB262
:106B600003F1FF33DBB2FB73FB7BDBB2002BCED137
:106B70007B7D03F00403002B01D1FFF781FF44F27A
:106B80008033C4F20003BA7D1A7044F28233C4F237
:106B90000003FA7D1A703B69184607F11807BD46D5
:106BA00080BD00BF80B400AF44F21023C4F20003E4
:106BB00044F21022C4F200021278D2B202F0FE02B5
:106BC0001A70BD4680BC704780B483B000AF0346E6
:106BD000FB7101BE07F10C07BD4680BC704700BFCA
:106BE00080B400AF44F2F663C4F200034FF0010238
:106BF0001A70BD4680BC704780B582B000AF786027
:106C00000BE04CF23413C1F6FF731B681846FFF714
:106C1000E7FA7B68A3F500437B607B68B3F5004F20
:106C2000EFD84CF22C13C1F6FF731B687A6802FB95
:106C300003F31846FFF7D4FA07F10807BD4680BDF5
:106C400080B582B000AF0346FB80FA884CF2301367
:106C5000C1F6FF731B7803FB02F31846FFF7C0FA77
:106C600007F10807BD4680BD80B584B000AF03467C
:106C70003960FB714EF60853CEF200031B68FB60CF
:106C8000FB791F2B03D94FF00000FFF79DFFFB7925
:106C900003F01F0303F110034FEA8302FB68134460
:106CA0001B68BB60FB7903F01F0303F110034FEA7D
:106CB0008302FB6813443A681A60BB68184607F100
:106CC0001007BD4680BD00BF80B582B000AF024650
:106CD0000B46FA71BB71BB79072B03D94FF000004B
:106CE000FFF772FFFB791F2B03D94FF00000FFF76E
:106CF0006BFFFB7903F01F0303F1604303F564436B
:106D0000BA794FEA4212D2B21A7007F10807BD46AB
:106D100080BD00BF80B500AF44F2A133C4F20003D0
:106D20001B78DBB21A4602F00F024CF29C13C1F63C
:106D3000FF731A7044F2A233C4F200031B78DAB274
:106D40004CF29C13C1F6FF735A7044F2A133C4F2A3
:106D5000000344F2A132C4F200021278D2B202F06F
:106D6000F0021A7044F2A233C4F200031B7844F21A
:106D7000A233C4F200034FF000021A7044F600037D
:106D8000C4F200031B78DBB21A4602F0C0024CF2D8
:106D90009C13C1F6FF735A714FF0370006F0D8FB11
:106DA00044F20023C4F200031B78DBB21A4602F05F
:106DB00007024CF29C13C1F6FF73DA7044F2002311
:106DC000C4F200031B78DBB21A4602F040024CF218
:106DD0009C13C1F6FF731A7144F20023C4F200033E
:106DE0001B78DBB203F01003002B07D04CF29C138E
:106DF000C1F6FF734FF001025A7206E04CF29C1389
:106E0000C1F6FF734FF000025A724FF00400FFF713
:106E1000CDFB44F2A033C4F200031B78DBB203F0D5
:106E20001003002B07D04CF29C13C1F6FF734FF0F8
:106E300001029A710AE04CF29C13C1F6FF734FF005
:106E400000029A714FF00000FFF75AFA44F2002353
:106E5000C4F200031B78DBB203F02003002B18D030
:106E600044F20003C4F200031B78DBB203F04003DA
:106E7000002B02D14FF0020201E04FF001024CF270
:106E80009C13C1F6FF73DA714FF00000FFF780FC2E
:106E900006E04CF29C13C1F6FF734FF00002DA716A
:106EA00044F20003C4F200031B78DBB21A4602F07E
:106EB00030024CF29C13C1F6FF731A724CF29C1311
:106EC000C1F6FF731B7A002B0CD044F20003C4F20E
:106ED000000344F20002C4F200021278D2B202F0BF
:106EE000CF021A7044F20023C4F200031B78DBB215
:106EF00003F01003002B01D0FFF7BAFC44F20403A7
:106F0000C4F200031B78DAB24CF29C13C1F6FF7393
:106F10009A724CF29C13C1F6FF739B7A002B03D03C
:106F20004FF00000FFF7D4FC44F20503C4F2000365
:106F30001B78DBB21A4602F003024CF29C13C1F636
:106F4000FF739A704CF29C13C1F6FF739B78002B71
:106F500003D04FF00000FFF79DFC44F20703C4F29A
:106F600000031B78DBB24FEA03239AB244F2060314
:106F7000C4F200031B78DBB242EA03039AB24CF27C
:106F80009C13C1F6FF739A814CF29C13C1F6FF73F8
:106F90009B89002B03D04FF00000FFF7F7FC44F271
:106FA0000023C4F200031B78DBB203F007024DF6A6
:106FB000A013C0F200039B5C184606F0C9FA44F225
:106FC0002023C4F200031B78DBB203F00103DBB221
:106FD000002B09D04CF29C13C1F6FF734FF0010255
:106FE0009A73FFF77BF906E04CF29C13C1F6FF732E
:106FF0004FF000029A7344F21023C4F200031B788E
:10700000DBB203F00103DBB2002B09D04CF29C137E
:10701000C1F6FF734FF00102DA73FFF7C3FD06E01C
:107020004CF29C13C1F6FF734FF00002DA7344F286
:107030000B03C4F200031B78DBB203F00403002B44
:1070400007D04CF29C13C1F6FF734FF001021A7483
:1070500006E04CF29C13C1F6FF734FF000021A7465
:1070600080BD00BF80B584B000AF4FF01003BB609F
:107070004DF6A812C0F200023B4692E803001860E9
:1070800003F10403198003F102034FEA11421A705D
:107090004CF29C13C1F6FF731B7C012B26D144F2EA
:1070A0000023C4F200031B78DBB203F007024DF6A5
:1070B000A013C0F200039B5C1A4613464FEA8303F9
:1070C00013444FEA0312C3EB02031846FFF788F894
:1070D00044F20B03C4F2000344F20B02C4F20002B8
:1070E0001278D2B242F00402D2B21A704CF29C135F
:1070F000C1F6FF73DB7B012B34D14FF00000FFF7AB
:10710000D1FC44F21023C4F200031B784FF00503B6
:10711000FB8124E044F20023C4F200031B78DBB2BD
:1071200003F007024DF6A013C0F200039B5C4FF082
:10713000C80202FB03F31846FFF752F844F210238B
:10714000C4F200031B78DBB25BB2002B03DB4FF011
:107150000003BB6006E0FB8903F1FF33FB81FB8981
:10716000002BD7D14FF0370006F0F2F94CF29C1308
:10717000C1F6FF739B78022B06D04CF29C13C1F62C
:10718000FF739B78032B1CD144F20403C4F2000369
:107190001B78DAB24CF29C13C1F6FF739B7A9A42C9
:1071A00007D04CF29C13C1F6FF739B7A1846FFF789
:1071B0008FFB4CF29C13C1F6FF739B781846FFF7C8
:1071C00069FB4CF29C13C1F6FF731B7903F040037B
:1071D000002B10D04CF29C13C1F6FF73DB7807F143
:1071E0001002134413F8103C032B04D14FF0080095
:1071F000FFF7DCF931E04CF29C13C1F6FF73DB784A
:1072000007F11002134413F8103C1846FFF7CEF9AB
:107210004CF29C13C1F6FF731B7903F04003002B63
:107220000ED044F20023C4F2000344F20022C4F260
:1072300000021278D2B242F04002D2B21A700CE0D0
:1072400044F20023C4F2000344F20022C4F200021C
:107250001278D2B202F0BF021A704CF29C13C1F63F
:10726000FF739B79012B0DD144F2A033C4F20003CC
:107270001B78DBB203F01003002B03D14FF00000AA
:10728000FFF73EF84CF29C13C1F6FF739B79002B7D
:107290000BD144F2A033C4F200031B78DBB203F03D
:1072A0001003002B01D0FFF793F84CF29C13C1F6AA
:1072B000FF73DB791846FFF76BFA4CF29C13C1F6AB
:1072C000FF735B7A012B01D1FFF7BEFA4CF29C13DE
:1072D000C1F6FF731B7A1A4644F20003C4F200039E
:1072E0001B78DBB203F030039A4219D044F200035A
:1072F000C4F2000344F20002C4F200021278D2B2D7
:10730000D2B202F0CF024CF29C11C1F6FF71097AA1
:1073100008461146024641EA0202D2B2D2B21A70BF
:107320004CF29C13C1F6FF739B7B012B17D14FF0DE
:107330000000FEF765FF44F20023C4F200031B784F
:10734000DBB203F007024DF6A013C0F200039B5C12
:107350004FF0FA0202FB03F31846FEF741FF4CF22E
:107360009C13C1F6FF739B78002B06D04CF29C1344
:10737000C1F6FF739B78012B1CD144F20403C4F2C5
:1073800000031B78DAB24CF29C13C1F6FF739B7AB0
:107390009A4207D04CF29C13C1F6FF739B7A1846B1
:1073A000FFF796FA4CF29C13C1F6FF739B781846D0
:1073B000FFF770FA4CF29C13C1F6FF739B891A46D3
:1073C00044F20703C4F200031B78DBB24FEA032345
:1073D0009BB2194644F20603C4F200031B78DBB2E9
:1073E00041EA03039A4207D04CF29C13C1F6FF73A3
:1073F0009B891846FFF7CAFA44F60003C4F200035B
:1074000044F60002C4F200021278D2B2D2B202F004
:107410003F024CF29C11C1F6FF71497908461146B2
:10742000024641EA0202D2B2D2B21A7044F2A13349
:10743000C4F200034CF29C12C1F6FF7212781A706B
:1074400044F2A233C4F200034CF29C12C1F6FF7264
:1074500052781A7007F11007BD4680BD80B584B020
:1074600000AF02460B46FA71BB80FEF7C1FE034631
:10747000FB7344F29333C4F200031B78DBB203F0D6
:107480000803002B10D144F28363C4F2000344F2DA
:107490008362C4F200021278D2B202F01F021A70A4
:1074A000FB79002B05D108E0FB7B1846FEF7A4FE14
:1074B000DBE04FF00000FFF787FB00F087F944F2B4
:1074C0009833C4F200031B78DAB24CF26C13C1F6A5
:1074D000FF731A7144F29833C4F20003BA884FEA7A
:1074E000121292B2D2B21A7044F29933C4F200036B
:1074F0001B78DAB24CF26C13C1F6FF735A7144F286
:107500009933C4F20003BA88D2B202F00F021A70A3
:1075100044F29A33C4F200031B78DAB24CF26C13D3
:10752000C1F6FF739A7144F29A33C4F20003BA8829
:107530004FEA123292B2D2B202F001021A7044F251
:107540000023C4F200031B78DBB203F00703002B17
:1075500008D14CF26C13C1F6FF734FF0010283F8AF
:107560002D2023E04CF26C13C1F6FF734FF00002A4
:1075700083F82D2044F20023C4F200031B78DBB211
:107580001A4602F007024CF26C13C1F6FF7383F83F
:107590002C2044F20023C4F2000344F20022C4F27F
:1075A00000021278D2B202F0F8021A7044F2933359
:1075B000C4F2000344F29332C4F200021278D2B251
:1075C00002F0F80242F00302D2B21A7044F293338E
:1075D000C4F200031B7800BF00BF30BF4CF26C1335
:1075E000C1F6FF7393F82D30012B1AD044F200231B
:1075F000C4F2000344F20022C4F200021278D2B2B4
:10760000D2B202F0F8024CF26C11C1F6FF7191F89F
:107610002C1008461146024641EA0202D2B2D2B20A
:107620001A7000F0D9F844F29833C4F200034CF217
:107630006C12C1F6FF7212791A7044F29933C4F2D7
:1076400000034CF26C12C1F6FF7252791A7044F2C8
:107650009A33C4F200034CF26C12C1F6FF729279B5
:107660001A70FB7B1846FEF7C7FD07F11007BD46F1
:1076700080BD00BF80B584B000AF0346FB71FEF74C
:10768000B7FD0346BB7344F29033C4F200031B788A
:10769000DAB24CF2AE13C1F6FF731B7842EA030371
:1076A000DAB24CF2AE13C1F6FF731A704CF2AE139D
:1076B000C1F6FF731B78FB73FB796FEA0303DAB241
:1076C0004CF2AE13C1F6FF731B7802EA0303DAB281
:1076D0004CF2AE13C1F6FF731A70BB7B1846FEF76F
:1076E0008BFDFB7B184607F11007BD4680BD00BF30
:1076F00080B582B000AF0346FB7144F28233C4F21E
:10770000000344F28232C4F200021278D2B202F0D4
:10771000FD021A70FFF7A0F944F28233C4F20003AD
:107720001B78DBB203F00103DBB2002B2AD044F25A
:107730008033C4F200031B78DBB2FA799A423FD05F
:1077400044F28233C4F2000344F28232C4F20002F3
:107750001278D2B202F0FE021A7044F28033C4F200
:107760000003FA791A7044F28233C4F2000344F23F
:107770008232C4F200021278D2B242F00102D2B2D6
:107780001A701EE044F28033C4F200031B78DBB2AF
:10779000FA799A4205D044F28033C4F20003FA79B0
:1077A0001A7044F28233C4F2000344F28232C4F20B
:1077B00000021278D2B242F00102D2B21A7000E096
:1077C00000BF07F10807BD4680BD00BF80B500AF10
:1077D00000F008F880BD00BF80B500AF00F02CFAC3
:1077E00080BD00BF80B400AF45F60023C4F20003A3
:1077F0001B78DAB24CF26C13C1F6FF735A7245F67D
:107800000223C4F200031B78DAB24CF26C13C1F607
:10781000FF739A7245F60323C4F200031B78DAB2B1
:107820004CF26C13C1F6FF73DA7245F60423C4F20E
:1078300000031B78DAB24CF26C13C1F6FF731A73B3
:1078400045F60623C4F200031B78DAB24CF26C133F
:10785000C1F6FF735A7345F60823C4F200031B7880
:10786000DAB24CF26C13C1F6FF739A7345F60A2331
:10787000C4F200031B78DAB24CF26C13C1F6FF734A
:10788000DA7345F61023C4F200031B78DAB24CF227
:107890006C13C1F6FF731A7445F61223C4F2000389
:1078A0001B78DAB24CF26C13C1F6FF735A7445F6CA
:1078B0001323C4F200031B78DAB24CF26C13C1F646
:1078C000FF739A7445F61423C4F200031B78DAB2EE
:1078D0004CF26C13C1F6FF73DA7445F61623C4F24A
:1078E00000031B78DAB24CF26C13C1F6FF731A7501
:1078F00045F61823C4F200031B78DAB24CF26C137D
:10790000C1F6FF735A7545F61A23C4F200031B78BB
:10791000DAB24CF26C13C1F6FF739A7545F6202368
:10792000C4F200031B78DAB24CF26C13C1F6FF7399
:10793000DA7545F62223C4F200031B78DAB24CF262
:107940006C13C1F6FF731A7645F62323C4F20003C5
:107950001B78DAB24CF26C13C1F6FF735A7645F617
:107960002423C4F200031B78DAB24CF26C13C1F684
:10797000FF739A7645F62623C4F200031B78DAB229
:107980004CF26C13C1F6FF73DA7645F62823C4F285
:1079900000031B78DAB24CF26C13C1F6FF731A774E
:1079A00045F62A23C4F200031B78DAB24CF26C13BA
:1079B000C1F6FF735A7745F63023C4F200031B78F3
:1079C000DAB24CF26C13C1F6FF739A7745F63223A4
:1079D000C4F200031B78DAB24CF26C13C1F6FF73E9
:1079E000DA7745F63323C4F200031B78DAB24CF29F
:1079F0006C13C1F6FF7383F8202045F63423C4F2DC
:107A000000031B78DAB24CF26C13C1F6FF7383F8F3
:107A1000212045F63623C4F200031B78DAB24CF27B
:107A20006C13C1F6FF7383F8222045F63823C4F2A5
:107A300000031B78DAB24CF26C13C1F6FF7383F8C3
:107A4000232045F63A23C4F200031B78DAB24CF245
:107A50006C13C1F6FF7383F8242045F60023C4F2AB
:107A600000034FF000021A7045F60223C4F200032F
:107A70004FF000021A7045F60323C4F200034FF0E2
:107A800000021A7045F60423C4F200034FF000020E
:107A90001A7045F60623C4F200034FF000021A7074
:107AA00045F60823C4F200034FF000021A7045F6B1
:107AB0000A23C4F200034FF000021A7045F61023A7
:107AC000C4F200034FF000021A7045F61223C4F20C
:107AD00000034FF000021A7045F61323C4F20003AE
:107AE0004FF000021A7045F61423C4F200034FF061
:107AF00000021A7045F61623C4F200034FF000028C
:107B00001A7045F61823C4F200034FF000021A70F1
:107B100045F61A23C4F200034FF000021A7045F62E
:107B20002023C4F200034FF000021A7045F622230E
:107B3000C4F200034FF000021A7045F62323C4F28A
:107B400000034FF000021A7045F62423C4F200032C
:107B50004FF000021A7045F62623C4F200034FF0DE
:107B600000021A7045F62823C4F200034FF0000209
:107B70001A7045F62A23C4F200034FF000021A706F
:107B800045F63023C4F200034FF000021A7045F6A8
:107B90003223C4F200034FF000021A7045F633237B
:107BA000C4F200034FF000021A7045F63423C4F209
:107BB00000034FF000021A7045F63623C4F20003AA
:107BC0004FF000021A7045F63823C4F200034FF05C
:107BD00000021A7045F63A23C4F200034FF0000287
:107BE0001A7044F22233C4F200031B78DBB203F0B4
:107BF0000803002B15D04CF26C13C1F6FF734FF045
:107C0000010283F82E2044F22233C4F2000344F22E
:107C10002232C4F200021278D2B202F0F7021A70D5
:107C200007E04CF26C13C1F6FF734FF0000283F8CB
:107C30002E20BD4680BC704780B400AF45F60023BF
:107C4000C4F200034CF26C12C1F6FF72527A1A7041
:107C500045F60223C4F200034CF26C12C1F6FF7227
:107C6000927A1A7045F60323C4F200034CF26C12A8
:107C7000C1F6FF72D27A1A7045F60423C4F20003EB
:107C80004CF26C12C1F6FF72127B1A7045F6062395
:107C9000C4F200034CF26C12C1F6FF72527B1A70F0
:107CA00045F60823C4F200034CF26C12C1F6FF72D1
:107CB000927B1A7045F60A23C4F200034CF26C1250
:107CC000C1F6FF72D27B1A7045F61023C4F200038E
:107CD0004CF26C12C1F6FF72127C1A7045F6122338
:107CE000C4F200034CF26C12C1F6FF72527C1A709F
:107CF00045F61323C4F200034CF26C12C1F6FF7276
:107D0000927C1A7045F61423C4F200034CF26C12F4
:107D1000C1F6FF72D27C1A7045F61623C4F2000336
:107D20004CF26C12C1F6FF72127D1A7045F61823E0
:107D3000C4F200034CF26C12C1F6FF72527D1A704D
:107D400045F61A23C4F200034CF26C12C1F6FF721E
:107D5000927D1A7045F62023C4F200034CF26C1297
:107D6000C1F6FF72D27D1A7045F62223C4F20003D9
:107D70004CF26C12C1F6FF72127E1A7045F6232384
:107D8000C4F200034CF26C12C1F6FF72527E1A70FC
:107D900045F62423C4F200034CF26C12C1F6FF72C4
:107DA000927E1A7045F62623C4F200034CF26C1240
:107DB000C1F6FF72D27E1A7045F62823C4F2000382
:107DC0004CF26C12C1F6FF72127F1A7045F62A232C
:107DD000C4F200034CF26C12C1F6FF72527F1A70AB
:107DE00045F63023C4F200034CF26C12C1F6FF7268
:107DF000927F1A7045F63223C4F200034CF26C12E3
:107E0000C1F6FF72D27F1A7045F63323C4F2000325
:107E10004CF26C12C1F6FF7292F820201A7045F6EF
:107E20003423C4F200034CF26C12C1F6FF7292F8D4
:107E300021201A7045F63623C4F200034CF26C126E
:107E4000C1F6FF7292F822201A7045F63823C4F268
:107E500000034CF26C12C1F6FF7292F823201A70E4
:107E600045F63A23C4F200034CF26C12C1F6FF72DD
:107E700092F824201A704CF26C13C1F6FF7393F839
:107E80002E30012B0DD144F22233C4F2000344F210
:107E90002232C4F200021278D2B242F00802D2B208
:107EA0001A70BD4680BC704780B400AF44F2A23364
:107EB000C4F2000344F2A232C4F200021278D2B239
:107EC00042F00102D2B21A7044F2B233C4F200039B
:107ED00044F2B232C4F200021278D2B242F001028D
:107EE000D2B21A70BD4680BC704700BF80B584B066
:107EF00000AF02460B46FA807B7100F0F7F80346AC
:107F00007B7300F0E7F80346FB81FA88FB899A420D
:107F100000F0DB8044F2A233C4F200031B78DBB232
:107F200003F001033B737B7B002B31D1FB89002BDA
:107F300002D0FB88002B2BD1FB89002B13D144F2FC
:107F40008003C4F20003FA881A8044F28203C4F268
:107F5000000344F28202C4F200021278D2B202F0AC
:107F6000BF021A70B1E044F28203C4F2000344F28B
:107F70008202C4F200021278D2B242F04002D2B2BF
:107F80001A7044F28003C4F20003FA881A809CE05D
:107F90003B7B002B5AD044F20103C4F200034FF0A4
:107FA00000021A7044F21003C4F200034FF0010201
:107FB0001A7044F21403C4F200034FF000021A7066
:107FC00044F20803C4F2000344F20802C4F20002BF
:107FD0001278D2B202F07F021A7044F28203C4F225
:107FE00000031B78DBB203F00803002B02D0FB88F0
:107FF000002B2BD144F20203C4F20003FA891A8049
:1080000044F20103C4F200034FF007021A7044F275
:108010000103C4F200031B78DBB203F00103DBB2FF
:10802000002BF4D144F2A233C4F2000344F2A23292
:10803000C4F200021278D2B202F0FE021A7044F2C8
:108040000103C4F200034FF000021A7044F2A2339D
:10805000C4F200031B78DBB203F00103DBB2002B98
:108060001ED044F20203C4F20003FA881A8044F2DC
:108070000103C4F200037A79002A02D04FF0030210
:1080800001E04FF001021A7044F20103C4F2000350
:108090001B78DBB203F00103DBB2002BF4D114E058
:1080A00044F28003C4F20003FA881A8044F2A23337
:1080B000C4F2000344F2A232C4F200021278D1B238
:1080C0003A7B41EA0202D2B21A7007F11007BD46AC
:1080D00080BD00BF80B400AF44F28003C4F200034F
:1080E0001B889BB21846BD4680BC704780B400AF69
:1080F00044F28203C4F200031B78DBB203F00703EF
:108100001846BD4680BC704780B485B000AF0346BA
:10811000FB7145F23013C4F200031B78DBB223F08D
:108120000203FB7345F23013C4F20003FA794FEAFD
:108130004202D2B202F00202F97B42EA0102D2B25A
:108140001A7007F11407BD4680BC704780B400AFB9
:1081500044F2A233C4F2000344F2A232C4F2000299
:108160001278D2B242F00202D2B21A7044F2B233A2
:10817000C4F2000344F2B232C4F200021278D2B266
:1081800042F00202D2B21A70BD4680BC704700BFF6
:1081900080B584B000AF02460B46FA807B7100F0D8
:1081A000F5F803467B7300F0E5F80346FB81FA8897
:1081B000FB899A4200F0DA8044F2A233C4F2000351
:1081C0001B78DBB203F002033B737B7B002B31D1C6
:1081D000FB89002B02D0FB88002B2BD1FB89002BC5
