:4000000000400020A1010000990100009901000080B51448144B21E05C689968DD688C420CD0002205E0A6180832D6E9008941E902898C460831AA42F5D101E004EB050C4B
:400040001C696146002204E008320026002741E902670831A242F7D1143301380028DBD104F01EFC01000000904C00004CF24813C1F6FF731A780AB901201870704700BFDA
:400080004CF20810C1F6FF7008B503682BB140F20003C0F2000303B1984708BD80B582B000AF4FF00003FB8000F046F800F054FF00F084FA0346002B2DD100F079F90346AF
:4000C000002B31D14FF00003FB800CE04FF0010000F0E0F800F06CF90346002B07D1FB8803F10103FB80FB88642BEFD900E000BFFB88632B1AD944F2FA63C4F200034FF083
:4001000040021A7047F2305000F0B8FF43F6982000F0C4FF0BE041F2883000F0AFFF40F6C41000F0BBFF02E000BF00E000BF00F071FF00F09FF9FEE780B582B000AF4CF266
:400140002013C1F6FF731B681B684FF00000194600F06CF90346FB714CF21C13C1F6FF731B681B78FA79C3EB0203FB71FB79C3F10003DBB2FB714CF21C13C1F6FF731B68FA
:400180001B78FA799A4203D04FF0000000F076F807F10807BD4680BD80B400AFFEE700BF064B1C7844F001041C70054B1A78D2B2044B1A7000F0D4F9FFF72AFFE8460040EC
:4001C000FA460040BC76004080B582B000AF4EF60C53CEF2000340F20042C0F2FA521A604EF61453CEF200034EF61452CEF20002126842F400721A604FF000037B6019E019
:4002000079687B68032B07D87A6840F20003C0F2000353F8223003E040F29913C0F200034CF20002C1F6FF7242F821307B6803F101037B607B682F2BE2D947F2BC63C4F25F
:4002400000031B78DAB24CF25813C1F6FF731A704EF60853CEF200034CF20002C1F6FF721A6001F05BF84CF20013C1F6FF734FF000021A6007F10807BD4680BD80B483B095
:4002800000AF0346FB7101BE07F10C07BD4680BC704700BF80B582B000AF78600BE04CF21813C1F6FF731B68184601F009F97B68A3F500437B607B68B3F5004FEFD84CF2A4
:4002C0001013C1F6FF731B687A6802FB03F3184601F0F6F807F10807BD4680BD80B582B000AF0346FB80FA884CF21413C1F6FF731B7803FB02F3184601F0E2F807F1080736
:40030000BD4680BD80B584B000AF03463960FB714EF60853CEF200031B68FB60FB791F2B03D94FF00000FFF7A9FFFB7903F01F0303F110034FEA8302FB6813441B68BB60BA
:40034000FB7903F01F0303F110034FEA8302FB6813443A681A60BB68184607F11007BD4680BD00BF80B582B000AF02460B46FA71BB71BB79072B03D94FF00000FFF77EFF90
:40038000FB791F2B03D94FF00000FFF777FFFB7903F01F0303F1604303F56443BA794FEA4212D2B21A7007F10807BD4680BD00BF80B400AF45F22113C4F200031B78DBB23E
:4003C00003F010034FEA1313DBB21846BD4680BC704700BF80B485B000AF78600B467B804FF00003FB8109E07B681B781A46FB891344FB817B6803F101037B607B88002B04
:400400000CBF00230123DBB27A8802F1FF327A80002BE9D1FB89C3F100039BB29BB2184607F11407BD4680BC704700BF80B485B000AF786039604FF00003FB7306E07A681C
:400440003B6813441A78FB7B1344FB733B68002B0CBF00230123DBB23A6802F1FF323A60002BECD1FB7B184607F11407BD4680BC704700BF80B582B000AF4CF22013C1F626
:40048000FF731B681B684FF000001946FFF7CEFF0346FB714CF21C13C1F6FF731B681B78FA79C3EB0203FB71FB79C3F10003DBB2FB714CF21C13C1F6FF731B681B78FA792D
:4004C0009A4215D14CF22013C1F6FF731B681B68002B0DD001F04CF80346002B08D14CF25C10C1F6FF7001F057F80346002B03D04FF00000FFF7C2FE00F060F80346002B08
:4005000009D144F2FA63C4F200031B78DBB203F0C003402B0AD144F2FA63C4F200034FF000021A704FF0000000F0CCF800F004F807F10807BD4680BD80B400AF44F2FA63C6
:40054000C4F200036FF07F021A7044F2F663C4F200034FF001021A70BD4680BC704700BF80B500AF44F2FA63C4F200031B78DBB203F0C003802B15D144F2FA63C4F20003AC
:400580004FF000021A704FF6C173C0F201031B68002B07D04FF6C173C0F201031B68184600F002F880BD00BF01464CF25813C1F6FF731B781A461268084700BF80B485B0C9
:4005C00000AF4FF6C573C0F201031B8803F101034FEA03231A464FF6C973C0F201031B681344BB604FF000037B734FF00003BB734FF6C573C0F201031B8803F101034FEAEC
:4006000003237B6013E07B681B78FB73FB7B002B05D0FB7BFF2B02D04FF001037B73BA7BFB7B1344BB737B6803F101037B607A68BB689A42E7D34FF6C573C0F201031B8872
:4006400003F101034FEA03234FEAD3037B60BA684FF6C073C0F201039A4203D0BB684FEAD30301E04FF48043BB600BE07B6803F190431B78DAB2BB7B1344BB737B6803F1C0
:4006800001037B607A68BB689A42EFD3BB7BC3F10003DBB2BB734FF6C073C0F201031B78BA7B9A4202D17B7B002B02D14FF0060301E04FF00003184607F11407BD4680BC5C
:4006C000704700BF80B5ADF56C7D00AF024607F1080303F1FF331A704FF00003A7F898334FF00003A7F89A334FF0000387F89D3307F1080303F1FF331B78002B14BF002352
:40070000012387F89E3307F1080303F1FF331B78002B06D107F1080303F1FF334FF0FF321A7000F007FB62B64FF0000387F8913307F5187107F5637207F1080303F1FF3356
:400740001B7808464FF4967100F062FB0346C7F89433D7F89433102B00F08882D7F89433052B00F08582B7F88C33062B04D907F518731B78012B04D04FF0040387F891338B
:400780003FE007F5187303F102031B88A7F89833B7F8983303F1040207F5187313441B88A7F89233B7F8983303F10702B7F88C339A4204D94FF0030387F8913321E0B7F85E
:4007C000983303F1060307F51872D35C172B04D04FF0040387F8913313E0B7F8983303F104039BB207F5187210461946FFF7F2FD0346B7F892239A4203D04FF0080387F8E3
:4008000091334FF00003A7F88E3397F89133002B40F0208207F518731B7987F89F334FF0040387F8913307F518735B78A3F131030A2B00F2F78101A252F823F069080000DB
:40084000A3080000250C000027090000310A0000250C00003B0A0000890A000053090000DB0A0000FD0B000097F89E33002B00F0DE81B7F89833002B40F0DB814FF0010391
:40088000A7F88E33FFF79AFE0346002B14BF0022012207F518731A714FF0000387F89133D8E197F89E33002B00F0C581B7F89833012B40F0C28197F89F33012B2AD897F876
:4008C0009F33002B09D14CF22013C1F6FF731B681B684FEA13239BB201E04FF00003A7F8A033B7F8A033DAB207F518731A71B7F8A0334FEA13239BB2DAB207F518735A71F4
:4009000007F518734FF0FF329A7107F518734FF00102DA714FF00403A7F88E334FF0000387F8913396E197F89E33002B04D0B7F89833032B40F083814FF49073A7F89A3312
:4009400007F59A7318464FF000014FF4907203F03DFF97F89E33002B00F07381B7F89833022B40F27081B7F89A2307F59A731344B7F89823A2F1030207F5187101F10701D6
:40098000184603F05BFEB7F89823B7F89A3313449BB2A3F10303A7F89A334FF49073A7F89833B7F89A23B7F898339A4237D107F5187303F105031B88A7F89A3397F89D3392
:4009C000002B17D107F10C0318464FF000014FF4907203F0FBFE07F10C034FF001004FF0FF011A464FF4907300F0FEFD4FF0010387F89D3397F89F03B7F89A1307F59A72D0
:400A0000B7F8983300F0F0FD0346002B02D04FF00A0301E04FF0000387F8913303E04FF0030387F891334FF00003A7F89A3311E14FF00003A7F89A331BE1B7F89A23B7F897
:400A400098331344B3F5967F19D84FF0000387F89133B7F89A2307F59A731344B7F8982307F5187101F10401184603F0E7FDB7F89A23B7F898331344A7F89A33EAE04FF088
:400A8000030387F89133E5E0B7F89833002B40F0DC8007F5967244F62C13C0F2000393E8030082E803004FF0010387F89E334FF00803A7F88E33B7F88E3307F5187202F1B4
:400AC000040107F59672084611461A4603F0B6FD4FF0000387F89133BCE097F89E33002B00F0B580B7F89833032B40F0B28007F5187303F105031B88A7F8A23397F89F336C
:400B00004FEA0322B7F8A23313444FEA0323C7F8A433D7F8A4034FF48071FFF787FC034687F8AB3397F89F334FEA03434FEAD302B7F8A2334FEA4313134403F19043C7F8E0
:400B4000A4334FF00003A7F8AC3311E0B7F8AC23D7F8A43313441B78DAB297F8AB33134487F8AB33B7F8AC3303F10103A7F8AC33B7F8AC331F2BE9D997F89F33012B2BD10B
:400B8000B7F8A233FF2B27D1B7F8A23303F00103DBB2002B02D04FF0000301E04FF0010387F8AF3397F8AF33C3F500734FEA0323A3F130031B7897F8AB23C3EB020387F8DF
:400BC000AB334FF6D173C0F201031B7897F8AB23C3EB020387F8AB3397F8AB33C3F10003DBB2DAB207F518731A714FF0000387F891334FF00103A7F88E332BE0FFF7DEFC86
:400C00000346002B06D144F2FA63C4F200036FF07F021A7044F2F663C4F200034FF001021A7026E04FF0050387F8913312E000BF10E000BF0EE000BF0CE000BF0AE000BFAE
:400C400008E000BF06E000BF04E000BF02E000BF00E000BF97F8911307F51872B7F88E33084611461A4600F00DF802E000BF00E000BF97F89E33002B7FF456AD07F56C7702
:400C8000BD4680BD80B586B000AFB96013460246FA73FB80BB684FF001021A70BB6803F10103FA7B1A70BB6803F10203FA88D2B21A70BB6803F10303FA884FEA122292B233
:400CC000D2B21A70FB8803F104039BB2B8681946FFF780FB0346FB82FB8803F10402BB681344FA8AD2B21A70FB8803F10502BB681344FA8A4FEA122292B2D2B21A70FB881E
:400D000003F10602BB6813444FF017021A70FB8803F107039AB207F10603B86811461A464FF0960300F020F80346184607F11807BD4680BD80B500AF62B64FF000004FF05E
:400D4000020100F0C5FE4CF24C13C1F6FF734FF001021A7080BD00BF80B500AF4FF0010001F05AFA80BD00BF80B586B000AFF8607A600A467A81FB704FF00200F9684FF0E7
:400D8000400201F051F9FB781A464FEA820213444FEA43039AB24CF24A13C1F6FF731A804FF000037B8203E04FF00100FFF772FA4FF0020001F0E6F80346002B10D14CF23F
:400DC0004A13C1F6FF731B887A8A9A422CBF00230123DBB27A8A02F101027A82002BE3D14FF0020001F0CEF80346002B03D14FF010037B6105E07B687A891A804FF0000341
:400E00007B617B69184607F11807BD4680BD00BF80B586B000AFF8607A600A467A81FB707B89402B02D94FF040037B81FB781A464FEA820213444FEA43039AB24CF24A1367
:400E4000C1F6FF731A804FF00003FB824CF24C13C1F6FF731B78002B2BD003E04FF00100FFF718FA01F060F80346002B10D14CF24A13C1F6FF731B88FA8A9A422CBF0023D3
:400E80000123DBB2FA8A02F10102FA82002BE5D101F04AF80346002B1DD001F051F8FFF75BFF4CF24C13C1F6FF734FF000021A7016E001F045F80346002B0ED001F034F868
:400EC0000346002B0BD0FFF747FF09E04FF00100FFF7E0F904E000BF02E000BF00E000BF4FF0010001F04EF80346012B10D04CF24A13C1F6FF731B88FA8A9A422CBF0023EB
:400F00000123DBB2FA8A02F10102FA82002BDDD14FF0010001F036F80346012B0ED17B894FF00100F9681A4601F02AF903461A467B681A804FF000033B6106E07B684FF059
:400F400000021A804FF010033B613B69184607F11807BD4680BD00BF80B582B000AF46F27553C4F200031B78DBB223F03F03BB7146F27553C4F20003BA7942F00B02D2B2B0
:400F80001A7046F29453C4F2000346F29452C4F200021278D2B242F00102D2B21A7046F29553C4F2000346F29552C4F200021278D2B242F00102D2B21A704EF6602000F0F3
:400FC0003FF84EF6602000F059F847F2305000F065F84FF0000000F071F800F079FA0346FB7146F29453C4F2000346F29452C4F200021278D2B242F01002D2B21A70FB797D
:40100000184600F069FA00F02BF807F10807BD4680BD00BF80B400AF46F27553C4F2000346F27552C4F200021278D2B26FEA42626FEA5262D2B21A70BD4680BC704700BFB8
:4010400080B483B000AF0346FB8046F60823C4F20003FA881A8007F10C07BD4680BC704780B500AF01E000F049F800F037F8034603F01003002BF6D180BD00BF80B483B0A0
:4010800000AF0346FB8046F68823C4F20003FA881A8007F10C07BD4680BC704780B483B000AF0346FB8046F64823C4F20003FA881A8007F10C07BD4680BC704780B483B042
:4010C00000AF0346FB7146F28453C4F20003FA791A7007F10C07BD4680BC704780B483B000AF46F26453C4F200031B78FB71FB79184607F10C07BD4680BC704780B400AF53
:4011000046F6A823C4F200031B889BB21846BD4680BC704780B582B000AF7860396078684FF000013A6803F051FB07F10807BD4680BD00BF80B584B000AFF860B9607A60BA
:40114000F868B9687A6803F079FA07F11007BD4680BD00BF80B584B000AFF860B9607A60F868B9687A6803F069FA07F11007BD4680BD00BF80B487B000AF786039604FF0A4
:401180000003FB604FF00003BB602CE0BB684FEA83027B6813441B683B613B69FB753B6923F0FF033B6117E0FB684FEA43023B6813441B781A463B691344FA684FEA420127
:4011C0003A680A4452781A70FB6803F10103FB60FB7D03F1FF33FB75FB7D002BE4D1BB6803F10103BB60BB68102BCFD907F11C07BD4680BC704700BF80B400AF44F28003E7
:40120000C4F200034FF003021A8044F28203C4F200034FF01B021A7044F20033C4F200034FF006021A7044F20023C4F200034FF052021A7044F2A163C4F2000340F20F1255
:40124000C4F600121278D2B21A7044F20403C4F200034FF000021A8044F20403C4F200034FF007021A7044F20603C4F200034FF000021A7044F20803C4F200034FF048022B
:401280001A7044F20403C4F200034FF000021A7044F20903C4F200034FF000021A7044F20103C4F200034FF002021A7044F2A233C4F2000344F2A232C4F200021278D2B2C9
:4012C00042F00102D2B21A70BD4680BC704700BF80B483B000AF40F2CF13C4F600131B78FB7145F66E03C4F20003FA7902F007021A7045F66F03C4F20003FA794FEA12126D
:40130000D2B21A7045F67603C4F200034FF044021A7007F10C07BD4680BC704780B582B000AF72B64FF00003FB702FE0FA7813464FEA430313444FEA43031A4644F6341327
:40134000C0F2000313447B607B681A7859784FEA012141EA020299784FEA014141EA0202DB784FEA036343EA02031A467B6819795B794FEA032343EA01039BB2104619469C
:40138000FFF7C8FEFB7803F10103FB70FB78072BCCD944F66410C0F2000044F6A811C0F20001FFF7E7FE45F20303C4F2010345F20302C4F201021278D2B242F00202D2B2BC
:4013C0001A7045F21303C4F2010345F21302C4F201021278D2B242F00202D2B21A7044F2A033C4F2000344F2A032C4F200021278D2B242F04002D2B21A7044F2C233C4F212
:40140000000344F2C232C4F200021278D2B242F01002D2B21A7045F2F010C4F2000044F69821C0F200014FF00A02FFF793FE45F22010C4F2000044F6A421C0F200014FF0F4
:401440000A02FFF787FE45F23210C4F2000044F6B021C0F200014FF00802FFF77BFE44F22233C4F2000344F22232C4F200021278D2B242F00802D2B21A7044F60003C4F26F
:4014800000034FF001021A70FFF7B6FE44F60003C4F200036FF07E021A70FFF719FF44F2B030C4F2000044F2A031C4F200014FF00E02FFF73FFE07F10807BD4680BD00BF34
:4014C0000230800803D000BF01380046FCD17047EFF3108072B6704780F31088704700BF80B582B000AF00F011F94FF0FF337B6000F074FA0346002B31D14FF0010000F06B
:4015000027FA0346072B27D14CF27C20C1F6FF704FF0020100F026F90346022B12D14FF000037B6003E04FF00100FEF7D7FE44F22273C4F200031B78DBB203F00203002B9C
:40154000F1D009E044F22273C4F200031B78DBB203F00203002BD7D000F086FA02E04FF004037B607B68184607F10807BD4680BD80B582B000AFFFF7B3FF03467B607B6893
:40158000002B03D1FFF7ACFF03467B607B68184607F10807BD4680BD80B584B000AF78604FF00003FB6000F0B1F87B68002B03D14FF00103FB6010E000F010FA0346002BDB
:4015C00003D04FF00403FB6007E04CF25013C1F6FF737A681A6000F047FAFB68184607F11007BD4680BD00BF80B586B000AFBA600246FA730A46BA81FB8000F0EFF903465A
:40160000002B7AD1FA7BFB881046B9681A4600F0DBF803467B617B69072B6BD103E04FF00100FEF75BFE44F22273C4F200031B78DBB203F00203002BF1D044F22273C4F2B1
:4016400000031B78DBB203F00203002B0ED044F22273C4F200031B78DBB24FEA9303DBB2002B03D14FF000037B6102E04FF0FF337B617B69002B3DD14CF27C23C1F6FF73D7
:401680001A784CF27C23C1F6FF735B78F87BB98900F0F8F803467B617B69072B2AD103E04FF00100FEF71AFE44F22273C4F200031B78DBB203F00203002BF1D044F2227371
:4016C000C4F200031B78DBB203F00203002B0ED044F22273C4F200031B78DBB24FEA9303DBB2002B03D14FF000037B6102E04FF0FF337B6100F0B8F902E04FF004037B611F
:401700007B69184607F11807BD4680BD80B582B000AFFFF7DDFE0346FB7144F2A033C4F2000344F2A032C4F200021278D2B242F00802D2B21A7044F2B033C4F2000344F292
:40174000B032C4F200021278D2B242F00802D2B21A70FB791846FFF7BFFE07F10807BD4680BD00BF80B584B000AF78600B46FB704FF00003FB731DE04FF00100FEF7AEFDB3
:4017800000E000BF44F22273C4F200031B78DBB203F00103002BEFD0FA7B7B681A4444F22073C4F200031B78DBB21370FB7B03F10103FB73FA7BFB789A42E2D3FB7B184601
:4017C00007F11007BD4680BD80B487B000AFB96013460246FA73FB804FF007033B6144F22273C4F200031B78DBB203F00203002B3ED044F22073C4F200036FF049021A706E
:4018000044F22073C4F200036FF02A021A7044F22073C4F200034FF002021A7044F22273C4F200031B78DBB203F00203002B1BD144F22073C4F20003FA7B1A704FF000034C
:40184000FB820CE044F22073C4F20003F98ABA680A4412781A70FB8A03F10103FB82FA8AFB889A42EED306E04FF009033B6102E04FF004033B613B69184607F11C07BD4627
:4018800080BC704780B485B000AFF871B980FA70BB704FF00703FB6044F22273C4F200031B78DBB203F00203002B46D044F22073C4F200036FF049021A7044F22073C4F230
:4018C00000036FF027021A7044F22073C4F200034FF005021A7044F22273C4F200031B78DBB203F00203002B23D144F22073C4F20003FA791A7044F22073C4F20003BA8883
:401900004FEA122292B2D2B21A7044F22073C4F20003BA88D2B21A7044F22073C4F20003FA781A7044F22073C4F20003BA781A7006E04FF00903FB6002E04FF00403FB604B
:40194000FB68184607F11407BD4680BC704700BF80B485B000AF0346FB714FF00703FB6044F22273C4F200031B78DBB203F00203002B29D044F22073C4F200036FF0490281
:401980001A7044F22073C4F200036FF01E021A7044F22073C4F200034FF00E021A7044F22273C4F200031B78DBB203F00203002B06D144F22073C4F20003FA791A7006E0B4
:4019C0004FF00903FB6002E04FF00403FB60FB68184607F11407BD4680BC704780B582B000AF4FF004033B60FFF772FD0346FB714CF25413C1F6FF731B78002B29D14CF21F
:401A00005413C1F6FF734FF001021A704FF000033B6040F20403C4F208031B6803F00103DBB2002B15D040F20403C4F2080340F20402C4F20802126822F001021A6000BFA2
:401A400000BF00BF4CF25513C1F6FF734FF001021A70FB791846FFF73FFD3B68184607F10807BD4680BD00BF80B582B000AFFFF72FFD0346FB714CF25413C1F6FF734FF048
:401A800000021A704CF25513C1F6FF731B78012B15D140F20403C4F2080340F20402C4F20802126842F001021A6000BF00BF00BF4CF25513C1F6FF734FF000021A70FB79C0
:401AC0001846FFF709FD07F10807BD4680BD00BF80B582B000AF02460B46FA71BB714CF25613C1F6FF731B78002B08D100F012F84CF25613C1F6FF734FF001021A70FA79D0
:401B0000BB791046194600F00DF907F10807BD4680BD00BF80B582B000AFFFF7D9FC0346FB7144F2A533C4F2000344F2A532C4F200021278D2B242F00102D2B21A7044F217
:401B4000B533C4F2000344F2B532C4F200021278D2B242F00102D2B21A7046F29D03C4F200034FF001021A7046F20903C4F200034FF002021A7046F21003C4F2000346F23B
:401B80001002C4F200021278D2B202F07F021A704FF00000FEF7A2FB44F29433C4F2000344F29432C4F200021278D2B202F0F9021A7046F21203C4F2000346F21202C4F288
:401BC00000021278D2B202F0DF021A7044F29433C4F2000344F29432C4F200021278D2B242F00102D2B21A704FF00100FEF776FB4FF02800FEF772FB45F2F813C4F2000353
:401C000045F2F812C4F200021278D2B202F07F021A7045F2F813C4F2000345F2F812C4F200021278D2B202F0BF021A7044F29433C4F2000344F29432C4F200021278D2B2E9
:401C400042F00202D2B21A704FF00200FEF746FB44F29433C4F2000344F29432C4F200021278D2B242F00402D2B21A7046F28403C4F200034FF000021A7046F28503C4F232
:401C800000034FF000021A70FB791846FFF724FC4FF0170042F6CD31C0F20001FEF732FB4FF017004FF00701FEF75CFB4FF0150042F6C131C0F20001FEF724FB4FF015008B
:401CC0004FF00701FEF74EFB4FF0180042F29121C0F20001FEF716FB4FF018004FF00701FEF740FB4FF0000042F6E121C0F20001FEF708FB4FF000004FF00701FEF732FBCF
:401D00004FF0010042F65131C0F20001FEF7FAFA4FF001004FF00701FEF724FB07F10807BD4680BD80B584B000AF02460B46FA71BB714FF00003FB730BE0FA7B4CF2203342
:401D4000C1F6FF734FF001019954FB7B03F10103FB73FB7B002BF0D04EF20013CEF200034FF400021A604EF20013CEF200034FF080721A604EF20013CEF200034FF00102E1
:401D80001A604EF20013CEF200034FF002021A604CF29A23C1F6FF734FF000021A70BB79002B02D0012B08D00FE046F20903C4F200034FF002021A700EE046F20903C4F211
:401DC00000034FF003021A7006E046F20903C4F200034FF003021A704CF29423C1F6FF73FA791A704CF29923C1F6FF734FF000021A704CF29523C1F6FF734FF000021A706E
:401E00004CF29823C1F6FF734FF000021A704CF28023C1F6FF734FF000021A704CF29723C1F6FF734FF000021A704CF21133C1F6FF734FF000021A7046F22803C4F2000362
:401E40004FF003021A7046F20803C4F200036FF07F021A704FF00100FFF732FB46F21203C4F200034FF004021A7007F11007BD4680BD00BF80B483B000AF4FF00003FB7124
:401E80000BE0FA794CF22033C1F6FF734FF001019954FB7903F10103FB71FB79002BF0D04CF29A23C1F6FF734FF000021A704CF29923C1F6FF734FF000021A704CF29523D2
:401EC000C1F6FF734FF000021A704CF29823C1F6FF734FF000021A704CF28023C1F6FF734FF000021A704CF29723C1F6FF734FF000021A704CF21133C1F6FF734FF0000254
:401F00001A7046F22803C4F200034FF003021A7046F20803C4F200036FF07F021A7007F10C07BD4680BC704780B400AF4CF29923C1F6FF731B78DBB21846BD4680BC70474C
:401F400080B483B000AF4FF00003FB714CF29823C1F6FF731B78DBB2002B0CD04CF29823C1F6FF731B78FB714CF29823C1F6FF734FF000021A70FB79184607F10C07BD4666
:401F800080BC704780B483B000AF0346FB71F9794CF2A422C1F6FF720B464FEA43030B444FEA830313445B78DBB2184607F10C07BD4680BC704700BF80B485B000AF0346B1
:401FC000FB714FF00003FB81FB79002B24D0FB79082B21D8FB7903F1FF33DBB24FEA03137B737A7B46F20C03C4F2000313441B78DBB203F007034FEA03239AB2797B46F2E0
:402000000D03C4F200030B441B78DBB242EA03039BB2A3F10203FB81FB89184607F11407BD4680BC704700BF80B489B000AFB96013460246FA73FB80FB7B002B00F09A80C1
:40204000FB7B082B00F29680FB7B03F1FF33DBB24FEA0313FB75FA7D46F28803C4F200031344BB61F888F97B4CF2A422C1F6FF720B464FEA43030B444FEA8303134403F118
:4020800006031B889BB2C3F50073984212D9F97B4CF2A422C1F6FF720B464FEA43030B444FEA8303134403F106031B889BB2C3F50073FB80FA7D46F20C03C4F20003134401
:4020C000FA884FEA122292B25FFA82FCF87B4CF2A421C1F6FF7102464FEA420202444FEA82020A44D278D2B24CEA0202D2B21A70FA7D46F20D03C4F200031344FA88D2B238
:402100001A70BB68002B11D04FF00003FB8309E0BB69F98BBA680A4412781A70FB8B03F10103FB83FA8BFB889A42F1D3F97B4CF2A422C1F6FF720B464FEA43030B444FEA75
:40214000830313444FF000025A70FA7D46F20E03C4F200031344F87B4CF2A421C1F6FF7102464FEA420202444FEA82020A445279D2B21A7007F12407BD4680BC704700BF43
:4021800080B588B000AFB96013460246FA73FB80FB7B002B37D0FB7B082B34D8BB68002B31D0FB7B03F1FF33DBB24FEA0313FB75FA7D46F28803C4F200031344BB61FB7BF1
:4021C0001846FFF7F9FE0346FB83FA88FB8B9A4201D9FB8BFB804FF00003BB830AE0BA8BBB681344BA691278D2B21A70BB8B03F10103BB83BA8BFB889A42F0D3FB7B184673
:4022000000F00AF802E04FF00003FB80FB88184607F12007BD4680BD80B485B000AF0346FB71FB79002B2DD0FB79082B2AD8FB7903F1FF33DBB24FEA0313FB73F9794CF227
:40224000A422C1F6FF720B464FEA43030B444FEA830313444FF000025A70FA7B46F20E03C4F200031344F8794CF2A421C1F6FF7102464FEA420202444FEA82020A445279E6
:40228000D2B21A7007F11407BD4680BC704700BF80B582B000AF46F22803C4F200031B78BB71BB7903F01003002B00F08E804FF00103FB71BB795BB2002B17DABB7903F0C1
:4022C0000F03012B03D04FF00003FB7123E000F081F84CF28123C1F6FF731B78DBB25BB2002B17DA4FF00003FB7114E0BB7903F04003002B02D000F0BFF80CE0BB7903F09C
:402300002003002B02D000F0DDF804E04FF00003FB7100E000BFFB79002B56D046F22803C4F200031B78BB71BB795BB2002B4CDB4CF29623C1F6FF731B78DAB24CF2123392
:40234000C1F6FF731B78DBB242EA0303BB7146F22903C4F20003BA791A7046F22903C4F200031B78DBB2BA799A422ED14CF28123C1F6FF731B78FB7146F22803C4F200036B
:402380001B78DBB223F07F03BB71BB79002B13D146F22803C4F200034CF28122C1F6FF721278D2B21A7046F22803C4F200031B78DBB203F00F03FB714CF28123C1F6FF7384
:4023C0001B78DBB2FA799A42D0D107F10807BD4680BD00BF80B582B000AF46F22803C4F200031B78FB7146F22803C4F20003FA791A7046F22803C4F200031B78FB71FB79EE
:402400005BB2002B06DA4CF28123C1F6FF73FA791A702DE04FF0020000F012FB46F20003C4F200031B78DBB203F06003202B08D0402B0BD0002B0ED100F054FE0346FB715D
:402440000CE002F0B3F80346FB7107E002F092F80346FB7102E04FF00003FB71FB79002B06D14CF28123C1F6FF734FF003021A7007F10807BD4680BD80B500AF4CF29A2301
:40248000C1F6FF731B78DBB2062B19D801A252F823F000BFC1240000C1240000B1240000C1240000B7240000C1240000BD24000000F05AF904E000F055FA01E000F08CFA10
:4024C00080BD00BF80B500AF4CF29A23C1F6FF731B78DBB2062B22D801A252F823F000BF1F2500001F250000FD2400001F250000032500001F2500000925000000F03AF924
:402500000DE000F0A5F90AE04FF0030000F098FA4CF28123C1F6FF734FF003021A7080BD80B400AF4CF21133C1F6FF731B78DBB21A464CF21433C1F6FF731B889BB2134459
:402540009AB24CF21433C1F6FF731A804CF21233C1F6FF734FF000021A7034E04CF21233C1F6FF731B78DBB203F1804303F5C0434CF28822C1F6FF7252681178C9B2197067
:4025800002F101024CF28823C1F6FF735A604CF21233C1F6FF731B78DBB203F10103DAB24CF21233C1F6FF731A704CF28823C1F6FF731B889BB203F1FF339AB24CF2882376
:4025C000C1F6FF731A804CF28823C1F6FF731B889BB2002B07D04CF21233C1F6FF731B78DBB2072BBAD94CF21233C1F6FF731B78DBB2002B07D14CF21133C1F6FF731B7876
:40260000DBB2082B1ED14CF29623C1F6FF731B78DAB26FF07F0382EA0303DAB24CF29623C1F6FF731A704CF28123C1F6FF734FF00F021A704CF29A23C1F6FF734FF00202D7
:402640001A700DE04CF28123C1F6FF734FF002021A704CF29A23C1F6FF734FF002021A704CF21233C1F6FF731B78DAB24CF21133C1F6FF731A70BD4680BC704780B582B0BD
:4026800000AF4CF28823C1F6FF731B889BB2002B02D100F03DF833E04CF29A23C1F6FF734FF002021A704CF29623C1F6FF734FF000021A7000F0F0F946F20703C4F2000383
:4026C0001B78DBB24FEA03239AB246F20603C4F200031B78DBB242EA03039BB2FB804CF28823C1F6FF731B889BB2FA889A4205D24CF28823C1F6FF73FA881A80FFF710FF91
:402700004FF00103184607F10807BD4680BD00BF80B400AF4CF29A23C1F6FF734FF002021A704CF29623C1F6FF736FF07F021A704CF28123C1F6FF734FF00F021A704CF271
:402740001133C1F6FF734FF000021A704CF21233C1F6FF734FF000021A704FF001031846BD4680BC704700BF80B500AFFFF7D8FE80BD00BF80B500AF4CF21133C1F6FF7319
:402780001B78DBB21A464CF21433C1F6FF731B889BB213449AB24CF21433C1F6FF731A804CF29A23C1F6FF734FF000021A704FF0010000F045F94CF28123C1F6FF734FF069
:4027C00003021A7080BD00BF80B582B000AF4CF29A23C1F6FF734FF004021A704CF29623C1F6FF736FF07F021A7000F055F946F20703C4F200031B78DBB24FEA03239AB2B7
:4028000046F20603C4F200031B78DBB242EA03039BB2FB804CF28823C1F6FF731B889BB2FA889A4205D24CF28823C1F6FF73FA881A804CF28123C1F6FF734FF00B021A703E
:402840004FF00103184607F10807BD4680BD00BF80B483B000AF46F20003C4F200037B6046F22903C4F200031B78DBB203F00F03A3F10203DAB24CF21233C1F6FF731A702F
:402880004CF21233C1F6FF731B78DBB21A464CF21433C1F6FF731B889BB213449AB24CF21433C1F6FF731A802FE04CF28823C1F6FF735B687A681278D2B21A7003F101020E
:4028C0004CF28823C1F6FF735A607B6803F101037B604CF21233C1F6FF731B78DBB203F1FF33DAB24CF21233C1F6FF731A704CF28823C1F6FF731B889BB203F1FF339AB22E
:402900004CF28823C1F6FF731A804CF28823C1F6FF731B889BB2002B07D04CF21233C1F6FF731B78DBB2002BBFD14CF29623C1F6FF731B78DAB26FF07F0382EA0303DAB242
:402940004CF29623C1F6FF731A704CF28123C1F6FF734FF00B021A7007F10C07BD4680BC704700BF80B500AF4CF29A23C1F6FF734FF000021A704FF0010000F061F84CF272
:402980008123C1F6FF734FF003021A7080BD00BF80B400AF4CF29A23C1F6FF734FF006021A704CF28123C1F6FF734FF006021A704CF29623C1F6FF736FF07F021A704CF204
:4029C0001233C1F6FF734FF000021A704FF001031846BD4680BC704780B500AF4CF28023C1F6FF731B78DBB2002B16D046F20803C4F200034CF28022C1F6FF721278D2B2D6
:402A00006FEA42626FEA5262D2B21A704CF28023C1F6FF734FF000021A704CF29A23C1F6FF734FF000021A704FF0010000F008F84CF28123C1F6FF734FF003021A7080BD74
:402A400080B483B000AF0346FB714CF28823C1F6FF739B68002B19D04CF28823C1F6FF739B68FA791A704CF28823C1F6FF739A684CF21433C1F6FF731B889BB253804CF28D
:402A80008823C1F6FF734FF000029A6007F10C07BD4680BC704700BF80B400AF4CF21433C1F6FF734FF000021A804CF28823C1F6FF739B68002B0FD04CF28823C1F6FF73AA
:402AC0009B684FF000021A704CF28823C1F6FF739B684FF000025A80BD4680BC704700BF80B400AF46F20E03C4F200031B784CF2A423C1F6FF731B7BDBB203F00303012B35
:402B00000FD04CF2A423C1F6FF73DB7BDAB26FF07F0382EA0303DAB24CF2A423C1F6FF73DA734CF2A423C1F6FF734FF001025A7346F20B03C4F2000346F20B02C4F2000213
:402B40001278D2B202F0FE021A70BD4680BC704780B400AF46F21E03C4F200031B784CF2A423C1F6FF731B7EDBB203F00303012B0FD04CF2A423C1F6FF73DB7EDAB26FF083
:402B80007F0382EA0303DAB24CF2A423C1F6FF73DA764CF2A423C1F6FF734FF001025A7646F20B03C4F2000346F20B02C4F200021278D2B202F0FD021A70BD4680BC70475C
:402BC00080B400AFBD4680BC704700BF80B500AFFFF750F980BD00BF80B582B000AF4FF00003BB7146F20403C4F200031B78FB7146F20003C4F200031B78DBB25BB2002B57
:402C000080F29A8046F20103C4F200031B78DBB203F1FF33052B00F21F8101A252F823F09B2C0000BB2C0000032D0000592E0000592E0000392C000046F20303C4F20003C3
:402C40001B78DBB2212B0FD100F022F94CF28823C1F6FF731B889BB2002B00F0FF80FFF70DFD0346BB710CE146F20303C4F200031B78DBB2222B40F0F38000F057F94CF27A
:402C80008823C1F6FF731B889BB2002B00F0EA80FFF7F4FC0346BB71F3E000F0A1F94CF28823C1F6FF731B889BB2002B00F0DC80FFF7E4FC0346BB71E3E0FB79002B40F0BD
:402CC000D58046F20203C4F200031B78DBB2002B40F0CE804CF28823C1F6FF734FF001021A80FA794CF21833C1F6FF731A444CF28823C1F6FF735A60FFF7C0FC0346BB715C
:402D0000BFE0FB79002B40F0B5804CF28823C1F6FF734FF001021A80FA794CF22033C1F6FF731A444CF28823C1F6FF735A60FFF7A5FC0346BB71A4E046F20003C4F2000327
:402D40001B78DBB25BB2002BC0F29B8046F20103C4F200031B78DBB2092B07D0092BC0F290800A2B11D00B2B5AD08AE000F038F94CF28823C1F6FF731B889BB2002B7BD09F
:402D8000FFF722FD0346BB717BE0FB79002B75D146F20203C4F200031B78DBB2002B6FD1FA7946F20303C4F200031B78D9B24CF21833C1F6FF739954FA794CF21833C1F6EE
:402DC000FF739B5CDAB2F9794CF21C33C1F6FF735B5CDBB29A4208D2FA794CF21C33C1F6FF734FF00001995415E0FA794CF21C33C1F6FF739B5CDBB2012B0CD9FA79F979CE
:402E00004CF21833C1F6FF735B5CD9B24CF21C33C1F6FF739954FFF7BBFD0346BB7130E0FB79002B2DD146F20203C4F200031B78DBB2012B25D8FA7946F20203C4F2000383
:402E40001B78D9B24CF22033C1F6FF739954FFF79FFD0346BB7114E000BF12E000BF10E000BF0EE000BF0CE000BF0AE000BF08E000BF06E000BF04E000BF02E000BF00E002
:402E800000BFBB79184607F10807BD4680BD00BF80B584B000AF4CF29923C1F6FF731B78DBB203F1FF33DBB2184601F053F903467B6046F20403C4F200031B78FB737B6812
:402EC00003F110037B60FB7B4FEAC3037A6813447B607B685B687B60FA7B4CF28423C1F6FF739B5CDBB24FEAC3037A6813447B607B685B687B607B6803F120037B607B6893
:402F00005B68BB60BB681B78DBB21A464CF28823C1F6FF731A804CF28823C1F6FF73BA685A6007F11007BD4680BD00BF80B584B000AF4CF29923C1F6FF731B78DBB203F119
:402F4000FF33DBB2184601F005F903467B6046F20403C4F200031B78FB737B6803F110037B60FB7B4FEAC3037A6813447B607B685B687B60FA7B4CF28423C1F6FF739B5CDF
:402F8000DBB24FEAC3037A6813447B607B685B687B607B6803F118037B607B685B68BB60BB6803F101031B78DBB24FEA03239AB2BB681B78DBB242EA03039BB29AB24CF230
:402FC0008823C1F6FF731A80BB6803F102024CF28823C1F6FF735A6007F11007BD4680BD80B584B000AF4CF28823C1F6FF734FF000021A804CF29923C1F6FF731B78DBB2E5
:4030000003F1FF33DBB2184601F0A4F803467B6046F20303C4F200031B78FB7346F20403C4F200031B78BB737B6803F110037B60BB7B4FEAC3037A6813447B607B685B6869
:403040007B60BB7B002B49D1BA7B4CF28423C1F6FF739B5CDBB24FEAC3037A6813447B607B685B687B60FB7B002B37D0FB7B032B34D8FB7B03F1FF334FEAC3037A68134473
:403080007B6046F20203C4F200031B78FB737B681B78FA7B9A4221D87B685B68BB60FA7B13464FEA430313444FEA8303BA681344BB60BB685A684CF28823C1F6FF735A6015
:4030C000BB681A884CF28823C1F6FF731A80BB689A684CF28823C1F6FF739A6007F11007BD4680BD80B584B000AF4FF00003FB704FF000037B604CF28823C1F6FF734FF0AC
:4031000000021A8046F20003C4F200031B78DBB25BB2002B80F29A8146F20103C4F200031B78DBB20A2B00F2E38201A252F823F011330000F1360000F1360000F1360000C0
:40314000F1360000F13600005D310000F1360000E7330000F13600001334000046F20303C4F200031B78DBB2012B17D101F008F80346FB60FB685B681A464CF28823C1F6DE
:40318000FF735A604CF28823C1F6FF734FF012021A80FFF773FA0346FB70B8E246F20303C4F200031B78DBB2022B36D146F20203C4F200031B78DBB2184600F0CBFF034671
:4031C000FB60FB685B681A464CF28823C1F6FF735A604CF28823C1F6FF735B6803F103031B78DBB24FEA03239AB24CF28823C1F6FF735B6803F102031B78DBB242EA030368
:403200009BB27B814CF28823C1F6FF737A891A80FFF734FA0346FB7079E246F20303C4F200031B78DBB2032B6DD14FF000037B7244F60833C0F200037B6009E07B681B784D
:40324000DBB27A6813447B607B7A03F101037B7246F20203C4F200031B78DBB27A7A9A4204D27B681B78DBB2002BE7D146F20203C4F200031B78DBB2002B2AD046F20203B9
:40328000C4F200031B78DAB244F6C823C0F200031B7C9A421DD144F6AC33C0F200037B604CF25713C1F6FF731B78DBB2002B05D04CF22833C1F6FF731B687B604CF22410CF
:4032C000C1F6FF7000F02AFA4CF22413C1F6FF737B607B681B78DBB2002B00F00B827B681B78DBB21A464CF28823C1F6FF731A804CF28823C1F6FF737A685A60FFF7BEF906
:403300000346FB7003E201F051F90346FB70FEE146F20003C4F200031B78DBB203F00303002B39D0022B40F0E7814CF28823C1F6FF734FF002021A8046F20403C4F2000339
:403340001B78DBB203F07F014CF2A422C1F6FF720B464FEA43030B444FEA830313449B78DAB24CF22433C1F6FF731A704CF22433C1F6FF734FF000025A704CF28823C1F609
:40338000FF734CF22432C1F6FF725A60FFF776F90346FB7000BFBAE14CF28823C1F6FF734FF002021A804CF29723C1F6FF731B78DAB24CF22433C1F6FF731A704CF22433A6
:4033C000C1F6FF734FF000025A704CF28823C1F6FF734CF22432C1F6FF725A60FFF74EF90346FB7093E14CF28823C1F6FF734FF001021A804CF28823C1F6FF734CF29922B3
:40340000C1F6FF725A60FFF739F90346FB7000BF7DE14CF28823C1F6FF734FF001021A8046F20403C4F200031B78DBB21A464CF28423C1F6FF731A444CF28823C1F6FF73CD
:403440005A60FFF71BF90346FB7060E146F20103C4F200031B78DBB203F1FF330A2B00F2568101A252F823F05B3500000F370000293600000F370000953400000F370000D0
:403480000F3700000F370000B53400000F370000EB34000046F20203C4F200031B78DAB24CF28023C1F6FF731A70FFF771FA0346FB702CE146F20203C4F200031B78DAB252
:4034C0004CF29923C1F6FF731A704CF29823C1F6FF734FF001021A704FF0010000F06EFAFFF756FA0346FB7011E100F0F9FF0346002B00F0038146F20403C4F200031B7852
:40350000DAB24CF29523C1F6FF731A704CF29823C1F6FF734FF001021A7000F06BFC4CF29523C1F6FF731B78DBB21A464CF29523C1F6FF731B78DBB219464CF28423C1F638
:40354000FF735B5CD9B24CF21033C1F6FF739954FFF71EFA0346FB70D9E046F20003C4F200031B78DBB203F00303012B2CD0012B0FD3022B40F0C48046F20203C4F20003AB
:403580001B78DBB2002B03D100F0CEFE0346FB7049E046F20203C4F200031B78DBB2012B11D14CF29723C1F6FF731B78DBB21A4602F0FD024CF29723C1F6FF731A70FFF7FC
:4035C000E7F90346FB702EE046F20403C4F200031B78DBB2002B40F0958046F20403C4F200031B78DBB21A4619464CF29C23C1F6FF735B5CDBB2194646F20203C4F200030B
:403600001B78DBB26FEA0303DBB201EA0303DBB2D9B24CF29C23C1F6FF739954FFF7B8F90346FB7073E072E046F20003C4F200031B78DBB203F00303012B2BD0012B0ED321
:40364000022B64D146F20203C4F200031B78DBB2002B59D100F0D0FD0346FB7057E046F20203C4F200031B78DBB2012B4ED14CF29723C1F6FF731B78DBB243F00203DAB26F
:403680004CF29723C1F6FF731A70FFF781F90346FB703CE046F20403C4F200031B78DBB2002B34D146F20403C4F200031B78DBB21A4619464CF29C23C1F6FF735B5CDBB296
:4036C000194646F20203C4F200031B78DBB26FEA0303DBB201EA0303DBB2D9B24CF29C23C1F6FF739954FFF753F90346FB700EE000BF0CE000BF0AE000BF08E000BF06E0C9
:4037000000BF04E000BF02E000BF00E000BFFB78184607F11007BD4680BD00BF80B485B000AF78607B681B78012B3ED97B6803F101031B78032B38D14FF00003BB734FF00B
:4037400002037B732CE0BB7B03F1924303F580731B78FB73BB7B03F10103BB737A7B7B681A44FB7B4FEA1313DBB2194644F6B823C0F200035B5C13707B7B03F102037B732B
:403780007A7B7B681A44FB7B03F00F0144F6B823C0F200035B5C13707B7B03F102037B737B681B787A7B9A42CDD307F11407BD4680BC704780B483B000AF4FF00103BB7104
:4037C0004FF00003FB71E7E0FA7946F28003C4F2000313444FF00C021A70B9794CF2A422C1F6FF720B464FEA43030B444FEA830313445B79DBB2002B24D0B9794CF2A422F6
:40380000C1F6FF720B464FEA43030B444FEA830313441B79DBB25BB2002B09DAFA7946F20E03C4F2000313444FF00C021A7012E0FA7946F20E03C4F2000313444FF0080245
:403840001A7008E0FA7946F20E03C4F2000313446FF07F021A70FA7946F20C03C4F200031344B8794CF2A421C1F6FF7102464FEA420202444FEA82020A4402F108021288CE
:4038800092B24FEA122292B2D2B21A70FA7946F20D03C4F200031344B8794CF2A421C1F6FF7102464FEA420202444FEA82020A4402F10802128892B2D2B21A70FA7946F235
:4038C0008603C4F200031344B8794CF2A421C1F6FF7102464FEA420202444FEA82020A4402F10602128892B2D2B21A70FA7946F28703C4F200031344B8794CF2A421C1F6A7
:40390000FF7102464FEA420202444FEA82020A4402F10602128892B24FEA122292B2D2B21A70FA7946F28403C4F200031344B8794CF2A421C1F6FF7102464FEA42020244C1
:403940004FEA82020A4402F10602128892B2D2B21A70FA7946F28503C4F200031344B8794CF2A421C1F6FF7102464FEA420202444FEA82020A4402F10602128892B24FEA8F
:40398000122292B2D2B21A70BB7903F10103BB71FB7903F11003FB71FB795BB2002BBFF613AF46F20A03C4F200034FF0FF321A7007F10C07BD4680BC704700BF80B588B0FA
:4039C00000AF0346FB714FF00003FB824FF000033B7370E0397B4CF2A422C1F6FF720B464FEA43030B444FEA830313444FF000021A70397B4CF2A422C1F6FF720B464FEA1A
:403A000043030B444FEA830313444FF000029A70397B4CF2A422C1F6FF720B464FEA43030B444FEA830313444FF000025A70397B4CF2A422C1F6FF720B464FEA43030B4471
:403A40004FEA830313444FF00002DA70397B4CF2A422C1F6FF720B464FEA43030B444FEA830313444FF000025A71397B4CF2A422C1F6FF720B464FEA43030B444FEA8303C6
:403A8000134403F108034FF000021A80397B4CF2A422C1F6FF720B464FEA43030B444FEA8303134403F108034FF000029A703B7B03F101033B733B7B082B8BD9FB79002B2E
:403AC0001AD04FF00003BB7313E0BA7B4CF28423C1F6FF734FF000019954BA7B4CF21033C1F6FF734FF000019954BB7B03F10103BB73BB7B002BE8D04CF29923C1F6FF7365
:403B00001B78DBB2002B00F071814CF29923C1F6FF731B78DBB203F1FF33DBB2184600F019FB0346BB61BB695B683B613B6903F107031B7803F04003002B0ED04CF29723AC
:403B4000C1F6FF731B78DBB243F00103DAB24CF29723C1F6FF731A700DE04CF29723C1F6FF731B78DBB21A4602F0FE024CF29723C1F6FF731A70BB6903F10803BB61BB6900
:403B80001B783B734FF00103BB73CBE0BB695B68FB614FF000037B73BBE0BA7BFB699B7803F07F039A4240F0AC80B97B4CF2A422C1F6FF720B464FEA43030B444FEA830303
:403BC000134403F108031B889AB2FB699B889A4211D2B97BFB6998884CF2A422C1F6FF720B464FEA43030B444FEA8303134403F1080302461A80FB691B781A464CF2842304
:403C0000C1F6FF739B5CDAB2FB695B789A4278D1FB69DB7803F00303012B14BF00230123FB73FB699B785BB2002B25DAB97B4CF2A422C1F6FF720B464FEA43030B444FEAB2
:403C4000830313444FF001025A70B87BFB7B002B02D04FF0070101E04FF00D014CF2A422C1F6FF7203464FEA430303444FEA830313440A465A7124E0B97B4CF2A422C1F6E1
:403C8000FF720B464FEA43030B444FEA830313444FF000025A70B87BFB7B002B02D04FF0050101E04FF009014CF2A422C1F6FF7203464FEA430303444FEA830313440A469D
:403CC0005A71B97BFB6998784CF2A422C1F6FF720B464FEA43030B444FEA8303134402461A71B97BFB69D8784CF2A422C1F6FF720B464FEA43030B444FEA8303134402468C
:403D00001A707B7B03F101037B73FB6903F10803FB617A7B3B7B9A42FFF43FAFBB7B03F10103BB73BB7B082B7FF630AFBB695B68FB614FF00003BB731CE0FB699B7803F0C4
:403D40007F01FB6918784CF2A422C1F6FF720B464FEA43030B444FEA8303134403F1080302469A70BB7B03F10103BB73FB6903F10803FB61BA7B3B7B9A42DED300F014FA8C
:403D800002464CF2A023C1F6FF731A604FF001033B7326E0397B4CF2A422C1F6FF720B464FEA43030B444FEA8303134403F10603FA8A1A80397B4CF2A422C1F6FF720B46BF
:403DC0004FEA43030B444FEA8303134403F108031B889AB2FB8A1344FB823B7B03F101033B733B7B082BD5D9FFF7E4FC07F12007BD4680BD80B584B000AF4CF29923C1F6A7
:403E0000FF731B78DBB2002B00F09F814CF29923C1F6FF731B78DBB203F1FF33DBB2184600F098F90346BB60BB6803F10803BB60BB681B78FB70BB685B68FB604FF000039B
:403E40007B717DE1FB681B781A464CF28423C1F6FF739B5CDAB2FB681B7819464CF21033C1F6FF735B5CDBB29A4200F06181FB681B781A464CF28423C1F6FF739B5CDAB239
:403E8000FB685B789A4240F05381FB681A7846F20403C4F200031B78DBB29A4240F04881FB689B7803F07F033B713B7903F1FF33DBB24FEA0313FB71FB68DB7803F00303A2
:403EC000012B14BF00230123BB71FB689B785BB2002B25DA39794CF2A422C1F6FF720B464FEA43030B444FEA830313444FF001025A703879BB79002B02D04FF0070101E07A
:403F00004FF00D014CF2A422C1F6FF7203464FEA430303444FEA830313440A465A7124E039794CF2A422C1F6FF720B464FEA43030B444FEA830313444FF000025A703879F5
:403F4000BB79002B02D04FF0050101E04FF009014CF2A422C1F6FF7203464FEA430303444FEA830313440A465A71FA7946F20E03C4F2000313444FF001021A703979FB6888
:403F800098884CF2A422C1F6FF720B464FEA43030B444FEA8303134403F1080302461A803979FB6898784CF2A422C1F6FF720B464FEA43030B444FEA8303134402461A7146
:403FC0003979FB68D8784CF2A422C1F6FF720B464FEA43030B444FEA8303134402461A7039794CF2A422C1F6FF720B464FEA43030B444FEA830313444FF00002DA70FA7918
:4040000046F20C03C4F20003134438794CF2A421C1F6FF7102464FEA420202444FEA82020A4402F10802128892B24FEA122292B2D2B21A70FA7946F20D03C4F200031344D3
:4040400038794CF2A421C1F6FF7102464FEA420202444FEA82020A4402F10802128892B2D2B21A70FA7946F28603C4F20003134438794CF2A421C1F6FF7102464FEA420282
:4040800002444FEA82020A4402F10602128892B2D2B21A70FA7946F28703C4F20003134438794CF2A421C1F6FF7102464FEA420202444FEA82020A4402F10602128892B2B9
:4040C0004FEA122292B2D2B21A70FA7946F28403C4F20003134438794CF2A421C1F6FF7102464FEA420202444FEA82020A4402F10602128892B2D2B21A70FA7946F28503B4
:40410000C4F20003134438794CF2A421C1F6FF7102464FEA420202444FEA82020A4402F10602128892B24FEA122292B2D2B21A707B7903F101037B71FB6803F10803FB6051
:404140007A79FB789A42FFF47DAE07F11007BD4680BD00BF80B584B000AF0346FB7100F00FF80346FB60FB7903F101034FEAC302FB6813445B68184607F11007BD4680BDD5
:4041800080B400AF4CF29423C1F6FF731B78DBB244F66442C0F200024FEAC30313445B681846BD4680BC704780B582B000AF4CF29923C1F6FF731B78DBB203F1FF33DBB2D1
:4041C0001846FFF7C7FF03463B603B685B6803F104031B78FB713B6803F110033B60FB794FEAC3033A6813443B603B685B68184607F10807BD4680BD80B582B000AF4FF0B5
:404200000003FB7146F20403C4F200031B78DBB203F07F037B717B7903F1FF33DBB24FEA0313BB717B79002B77D07B79082B74D8797978794CF2A422C1F6FF7203464FEA0A
:40424000430303444FEA830313449B78DBB243F00103D8B24CF2A422C1F6FF720B464FEA43030B444FEA8303134402469A7079794CF2A422C1F6FF720B464FEA43030B444A
:404280004FEA830313444FF00002DA70797978794CF2A422C1F6FF7203464FEA430303444FEA830313445B78DBB243F00203D8B24CF2A422C1F6FF720B464FEA43030B44BC
:4042C0004FEA8303134402465A7079794CF2A422C1F6FF720B464FEA43030B444FEA830313441B79DBB25BB2002B09DABA7946F20E03C4F2000313446FF072021A7008E036
:40430000BA7946F20E03C4F2000313446FF076021A70FEF73DFB0346FB71FB79184607F10807BD4680BD00BF80B582B000AF4FF00003FB7146F20403C4F200031B78DBB2FA
:4043400003F07F037B717B7903F1FF33DBB24FEA0313BB717B79002B00F0BC807B79082B00F2B880787979794CF2A422C1F6FF720B464FEA43030B444FEA830313449B78C7
:40438000DBB21A4602F0FE024CF2A421C1F6FF7103464FEA430303444FEA83030B449A7079794CF2A422C1F6FF720B464FEA43030B444FEA830313444FF00002DA70BA79BC
:4043C00046F20C03C4F200031344B97946F20C02C4F200020A441278D2B202F07F021A70787979794CF2A422C1F6FF720B464FEA43030B444FEA830313445B78DBB21A46D9
:4044000002F0FD024CF2A421C1F6FF7103464FEA430303444FEA83030B445A7079794CF2A422C1F6FF720B464FEA43030B444FEA830313441B79DBB25BB2002B23DA7979DF
:404440004CF2A422C1F6FF720B464FEA43030B444FEA830313445B78DBB2012B09D1BA7946F20E03C4F2000313444FF00C021A702CE0BA7946F20E03C4F2000313444FF03B
:404480000D021A7022E079794CF2A422C1F6FF720B464FEA43030B444FEA830313445B78DBB2012B09D1BA7946F20E03C4F2000313444FF008021A7008E0BA7946F20E03E5
:4044C000C4F2000313444FF009021A70FEF760FA0346FB71FB79184607F10807BD4680BD80B584B000AF4FF00103BB7146F20403C4F200031B78FB714CF29923C1F6FF731A
:404500001B78DBB203F1FF33DBB21846FFF722FE0346BB60BB685B6803F104031B78FB73FA79FB7B9A4202D2FB79002B03D04FF00003BB7118E0FA79F9794CF28423C1F6FC
:40454000FF735B5CD9B24CF21033C1F6FF739954FA7946F20203C4F200031B78D9B24CF28423C1F6FF739954BB79184607F11007BD4680BD80B483B000AF4FF00003FB71C9
:4045800046F20003C4F200031B78DBB25BB2002B04DA46F20103C4F200031B78FB79184607F10C07BD4680BC704700BF80B582B000AF4FF00003BB714FF00003FB7146F24D
:4045C0000003C4F200031B78DBB203F00303012B02D0022B07D01DE046F20403C4F200031B78FB7116E046F20403C4F200031B78DBB203F07F014CF2A422C1F6FF720B46F2
:404600004FEA43030B444FEA8303134403F108039B78FB714CF2A023C1F6FF731A68FB7913441B78032B03D1FEF7D6FA0346BB71BB79184607F10807BD4680BD032A2DE9B6
:40464000F0070BD83AB1002311F803C000F803C001339342F8D1BDE8F007704782180C46034603E014F8011C03F8011C03F003061946A44601330134002EF3D11CF003049A
:40468000634608BFC1EB020C68D06542C4F1040A0CEB050733464FEACA0A5CF805604FEAC408551A08E057F8044F264604FA0AF449EA0404CC5004335C18032D26FA08F933
:4046C000A5F104050CEB0306EDDC002302E0F15CE154013319199142F9D3BCE753F8404C41F8404C53F83C4C41F83C4C53F8384C41F8384C53F8344C41F8344C53F8304C1C
:4047000041F8304C53F82C4C41F82C4C53F8284C41F8284C53F8244C41F8244C53F8204C41F8204C53F81C4C41F81C4C53F8184C41F8184C53F8144C41F8144C53F8104C99
:4047400041F8104C53F80C4C41F80C4C53F8084C41F8084C53F8044C41F8044C1C460D4640334031BCF13F0FACF1400CB6DC21462B46541B0FE051F8105C43F8105C51F836
:404780000C5C43F80C5C51F8085C43F8085C51F8045C43F8045C0F2C0D469C4601F1100103F11003A4F11004E5DCCCEB0201002303E0EC584CF8034004335E19032903EB27
:4047C0000C04A1F10401F4DC7FE700BF032AC9B230B407D822B10023C15401339342FBD130BC704700EB020C034601E003F8011C03F003041A460133002CF7D14FF00133FF
:40480000C2EB0C0403FB01F31FE042F8403C42F83C3C42F8383C42F8343C42F8303C42F82C3C42F8283C42F8243C42F8203C42F81C3C42F8183C42F8143C42F8103C42F88A
:404840000C3C42F8083C42F8043C154640323F2CA4F14004D9DC2A46C5EB0C0407E042F8103C42F80C3C42F8083C42F8043C154610320F2CA4F11004F1DC2A46C5EB0C059C
:4048800001E042F8043C14460432032DA5F10405F7DC01E004F8011B6445FBD3A0E700BF08B500F017F8074800B10068064901B109680022FBF7F2FB044B0BB1AFF30080F1
:4048C000FEE700BF000000000000000000000000FEE7000070B544F6784644F67845C0F20006C0F20005761BB61006D0002455F8243001349847A642F9D844F6784544F6BC
:404900008046C0F20005C0F20006761B00F0AEF9B61006D0002455F8243001349847A642F9D870BD6C000000004D00006990102E000A010100510040200040510040300011
:40494000C0510040100000000140001000140140000800400140000A004C014000020050014020000145004003520040016500403D1401401C1501400117014001190140E4
:4049800003400140024101400242014002430140034701400348014004490140024C014002500140015101407E02141018027C40842D0801340138083E104020410449FFA6
:4049C0004AFF4BFF4DA04F045018542558045A045B045F01604062C06440654066C068C06AC06CC06EC094089C0EA40EAE03B008B204B401B602C020C104C5D0C602C71050
:404A0000C82EC9FFCAFFCBFFCDAFCE0FCF04D018D280D804DA04DB04DF01E040E2C0E440E540E6C0E8C0EAC0ECC0EEC000100E200F021620178018141C021D201E60412067
:404A40004280452046804D0256A0570159025A446004778084018684C002C2A0C4A0D0A5D60BD804EE0AEE0A33803640CC30A640A780A640A780A640A78008080F40C20CA6
:404A8000AE40AF80EE5057208720D440E610AC08AF4010011A01000A0000000000000000C00000001000100000000000000000000002020002000000303132333435363718
:404AC00038394142434445461201000200000008B4043BF100010104800100000902290001010280FA09040000020300000309211101000122240007050103400001070581
:404B00008203400001000000040309042C0343007900700072006500730073002000530065006D00690063006F006E0064007500630074006F0072002A0343006F006E00B7
:404B4000660069006700750072006100740069006F006E002000300078003000300030003100220349006E0074006500720066006100630065002000300078003000300096
:404B80003000310026034B0069007400500072006F006700200042006F006F0074006C006F006100640065007200000002030000240005FF0900A1010900A10109001500DF
:404BC00025FF7508954091020900150025FF750895408102C0C000004100000030C3FF1F2CC3FF1F4100000074C3FF1FB8C3FF1F00000000D84B000000000000E44B000035
:404C0000000000000000000001000000B04B000001000000EE4A000001000000F04B0000000001034000030000008203400003000300000001000000DC4A000002000000C8
:404C4000204C000001000000184C000000000000304C000001000000C84A000001000000344C000001000000544C0000F8B500BFF8BC08BC9E46704781000000C9010000E8
:404C8000F8B500BFF8BC08BC9E4670476D00000000000000A84C000008C1FF1F4000000078020000000000000000000000366E01C05D0000180000000000E02E244900001E
:404CC000284900002203000000000000000000000000000000000000000000000000000000000000000000000000000000000000000000000000000000000000000000001E
:404D00000000000000000000000000000000000000000000000000000000000000000000000000000000000000000000000000000000000000000000000000000000000073
:404D40000000000000000000000000000000000000000000000000000000000000000000000000000000000000000000000000000000000000000000000000000000000033
:404D800000000000000000000000000000000000000000000000000000000000000000000000000000000000000000000000000000000000000000000000000000000000F3
:404DC00000000000000000000000000000000000000000000000000000000000000000000000000000000000000000000000000000000000000000000000000000000000B3
:020000040001F9
:40FFC00000000000000000000000000000000000000002000100010000000000000000000000000000000000000000000000000000000000000000000000000000000000FD
:0200000480007A
:4000000000000000000000000000000000000000000000000000000000000000000000000000000000000000000000000000000000000000000000000000000000000000C0
:400040000000000000000000000000000000000000000000000000000000000000000000000000000000000000000000000000000000000000000000000000000000000080
:400080000000000000000000000000000000000000000000000000000000000000000000000000000000000000000000000000000000000000000000000000000000000040
:4000C0000000000000000000000000000000000000000000000000000000000000000000000000000000000000000000000000000000000000000000000000000000000000
:0200000490006A
:0400000000004007B5
:0200000490105A
:04000000BC90ACAF55
:0200000490303A
:02000000DD041D
:0200000490501A
:0C00000000012E10906900012E326D6D81
:0200000490402A
:40000000FFFFFFFFFFFFFFFFFF3F0000000000000000000000000000000000000000000000000000000000000000000000000000000000000000000000000000000000008A
:400040000000000000000000000000000000000000000000000000000000000000000000000000000000000000000000000000000000000000000000000000000000000080
:00000001FF
