:1000000000200020A10100009901000099010000DA
:1000100080B51448144B21E05C689968DD688C4217
:100020000CD0002205E0A6180832D6E9008941E983
:1000300002898C460831AA42F5D101E004EB050C97
:100040001C696146002204E008320026002741E9CD
:1000500002670831A242F7D1143301380028DBD1FE
:1000600004F00EFC01000000784C00004EF2481332
:10007000C1F6FF731A780AB901201870704700BFE3
:100080004EF20810C1F6FF7008B503682BB140F2BC
:100090000003C0F2000303B1984708BD80B582B0E9
:1000A00000AF4FF00003FB8000F046F800F042FF85
:1000B00000F080FA0346002B2DD100F079F90346B9
:1000C000002B31D14FF00003FB800CE04FF001001A
:1000D00000F0E0F800F06CF90346002B07D1FB8834
:1000E00003F10103FB80FB88642BEFD900E000BF24
:1000F000FB88632B1AD944F2FA63C4F200034FF071
:1001000040021A7047F2305000F0A6FF43F69820E4
:1001100000F0B2FF0BE041F2883000F09DFF40F6A6
:10012000C41000F0A9FF02E000BF00E000BF00F033
:100130005FFF00F09FF9FEE780B582B000AF4EF29E
:100140002013C1F6FF731B681B684FF000001946AF
:1001500000F06CF90346FB714EF21C13C1F6FF73FD
:100160001B681B78FA79C3EB0203FB71FB79C3F1BF
:100170000003DBB2FB714EF21C13C1F6FF731B6868
:100180001B78FA799A4203D04FF0000000F076F81D
:1001900007F10807BD4680BD80B400AFFEE700BF91
:1001A000064B1C7844F001041C70054B1A78D2B23F
:1001B000044B1A7000F0D4F9FFF72AFFE84600401C
:1001C000FA460040BC76004080B582B000AF4EF6E3
:1001D0000C53CEF2000340F20042C0F2FA521A6011
:1001E0004EF61453CEF200034EF61452CEF2000235
:1001F000126842F400721A604FF000037B6019E04D
:1002000079687B68032B07D87A6840F20003C0F254
:10021000000353F8223003E040F29913C0F20003C8
:100220004EF20002C1F6FF7242F821307B6803F102
:1002300001037B607B682F2BE2D947F2BC63C4F2D9
:1002400000031B78DAB24EF25813C1F6FF731A702E
:100250004EF60853CEF200034EF20002C1F6FF72D2
:100260001A6001F049F84EF20013C1F6FF734FF027
:1002700000021A6007F10807BD4680BD80B483B054
:1002800000AF0346FB7101BE07F10C07BD4680BC01
:10029000704700BF80B582B000AF78600BE04EF2CF
:1002A0001813C1F6FF731B68184601F0F9F87B6854
:1002B000A3F500437B607B68B3F5004FEFD84EF2A7
:1002C0001013C1F6FF731B687A6802FB03F318462C
:1002D00001F0E6F807F10807BD4680BD80B582B0A1
:1002E00000AF0346FB80FA884EF21413C1F6FF7389
:1002F0001B7803FB02F3184601F0D2F807F1080758
:10030000BD4680BD80B584B000AF03463960FB7147
:100310004EF60853CEF200031B68FB60FB791F2BDF
:1003200003D94FF00000FFF7A9FFFB7903F01F038B
:1003300003F110034FEA8302FB6813441B68BB60A0
:10034000FB7903F01F0303F110034FEA8302FB68FC
:1003500013443A681A60BB68184607F11007BD4697
:1003600080BD00BF80B582B000AF02460B46FA7177
:10037000BB71BB79072B03D94FF00000FFF77EFF5D
:10038000FB791F2B03D94FF00000FFF777FFFB79B4
:1003900003F01F0303F1604303F56443BA794FEAA6
:1003A0004212D2B21A7007F10807BD4680BD00BFE5
:1003B00080B400AF45F22113C4F200031B78DBB216
:1003C00003F010034FEA1313DBB21846BD4680BC9E
:1003D000704700BF80B485B000AF78600B467B806B
:1003E0004FF00003FB8109E07B681B781A46FB890C
:1003F0001344FB817B6803F101037B607B88002B46
:100400000CBF00230123DBB27A8802F1FF327A802D
:10041000002BE9D1FB89C3F100039BB29BB21846C4
:1004200007F11407BD4680BC704700BF80B485B09B
:1004300000AF786039604FF00003FB7306E07A6824
:100440003B6813441A78FB7B1344FB733B68002B17
:100450000CBF00230123DBB23A6802F1FF323A609D
:10046000002BECD1FB7B184607F11407BD4680BC7E
:10047000704700BF80B582B000AF4EF22013C1F6C6
:10048000FF731B681B684FF000001946FFF7CEFF93
:100490000346FB714EF21C13C1F6FF731B681B78F9
:1004A000FA79C3EB0203FB71FB79C3F10003DBB202
:1004B000FB714EF21C13C1F6FF731B681B78FA79AF
:1004C0009A4215D14EF22013C1F6FF731B681B68C8
:1004D000002B0DD001F03CF80346002B08D14EF262
:1004E0005C10C1F6FF7001F047F80346002B03D003
:1004F0004FF00000FFF7C2FE00F05CF80346002B4F
:1005000009D144F2FA63C4F200031B78DBB203F0B2
:10051000C003402B0AD144F2FA63C4F200034FF047
:1005200000021A704FF0000000F0BCF800F004F870
:1005300007F10807BD4680BD80B400AF44F2FA63FE
:10054000C4F200036FF07F021A7044F2F663C4F243
:1005500000034FF001021A70BD4680BC704700BF17
:1005600080B500AF44F2FA63C4F200031B78DBB23B
:1005700003F0C003802B11D144F2FA63C4F20003EC
:100580004FF000021A704FF6C1731B68002B05D0A4
:100590004FF6C1731B68184600F002F880BD00BF1B
:1005A00001464EF25813C1F6FF731B781A461268C3
:1005B000084700BF80B485B000AF4FF6C5731B88F5
:1005C00003F101034FEA03231A464FF6C9731B6870
:1005D0001344BB604FF000037B734FF00003BB7309
:1005E0004FF6C5731B8803F101034FEA03237B60B9
:1005F00013E07B681B78FB73FB7B002B05D0FB7B38
:10060000FF2B02D04FF001037B73BA7BFB7B1344BB
:10061000BB737B6803F101037B607A68BB689A4215
:10062000E7D34FF6C5731B8803F101034FEA032399
:100630004FEAD3037B60BA684FF6C0739A4203D087
:10064000BB684FEAD30301E04FF40053BB600BE0FB
:100650007B6803F190431B78DAB2BB7B1344BB7316
:100660007B6803F101037B607A68BB689A42EFD331
:10067000BB7BC3F10003DBB2BB734FF6C0731B78C7
:10068000BA7B9A4202D17B7B002B02D14FF006034A
:1006900001E04FF00003184607F11407BD4680BC87
:1006A000704700BF80B5ADF56C7D00AF024607F125
:1006B000080303F1FF331A704FF00003A7F89833D3
:1006C0004FF00003A7F89A334FF0000387F89D33EB
:1006D00007F1080303F1FF331B78002B14BF00233D
:1006E000012387F89E3307F1080303F1FF331B78DA
:1006F000002B06D107F1080303F1FF334FF0FF325F
:100700001A7000F005FB62B64FF0000387F89133D2
:1007100007F5187107F5637207F1080303F1FF335A
:100720001B7808464FF4967100F060FB0346C7F84B
:100730009433D7F89433102B00F08682D7F8943393
:10074000052B00F08382B7F88C33062B04D907F50C
:1007500018731B78012B04D04FF0040387F89133F2
:100760003FE007F5187303F102031B88A7F89833DD
:10077000B7F8983303F1040207F5187313441B8884
:10078000A7F89233B7F8983303F10702B7F88C3320
:100790009A4204D94FF0030387F8913321E0B7F868
:1007A000983303F1060307F51872D35C172B04D0B6
:1007B0004FF0040387F8913313E0B7F8983303F14F
:1007C00004039BB207F5187210461946FFF702FEA4
:1007D0000346B7F892239A4203D04FF0080387F8F4
:1007E00091334FF00003A7F88E3397F89133002B25
:1007F00040F01E8207F518731B7987F89F334FF07E
:10080000040387F8913307F518735B78A3F131037C
:100810000A2B00F2F58101A252F823F049080000EA
:1008200083080000010C000007090000110A000005
:10083000010C00001B0A0000690A000033090000D7
:10084000BB0A0000D90B000097F89E33002B00F084
:10085000DC81B7F89833002B40F0D9814FF00103C9
:10086000A7F88E33FFF7A6FE0346002B14BF002225
:10087000012207F518731A714FF0000387F89133BE
:10088000D6E197F89E33002B00F0C381B7F8983378
:10089000012B40F0C08197F89F33002B2AD197F8A5
:1008A0009F33002B09D14EF22013C1F6FF731B6852
:1008B0001B684FEA13239BB201E04FF00003A7F837
:1008C000A033B7F8A033DAB207F518731A71B7F886
:1008D000A0334FEA13239BB2DAB207F518735A71AB
:1008E00007F518734FF0FF329A7107F518734FF040
:1008F0000002DA714FF00403A7F88E334FF00003C3
:1009000087F8913394E197F89E33002B04D0B7F821
:100910009833032B40F081814FF49073A7F89A33FA
:1009200007F59A7318464FF000014FF4907203F0E8
:100930003DFF97F89E33002B00F07181B7F8983394
:10094000022B40F26E81B7F89A2307F59A7313448D
:10095000B7F89823A2F1030207F5187101F1070116
:10096000184603F05BFEB7F89823B7F89A331344A0
:100970009BB2A3F10303A7F89A334FF49073A7F83F
:100980009833B7F89A23B7F898339A4237D107F5D6
:10099000187303F105031B88A7F89A3397F89D3362
:1009A000002B17D107F10C0318464FF000014FF44C
:1009B000907203F0FBFE07F10C034FF000004FF0C4
:1009C000FF011A464FF4907300F0FEFD4FF0010353
:1009D00087F89D3397F89F03B7F89A1307F59A7233
:1009E000B7F8983300F0F0FD0346002B02D04FF02B
:1009F0000A0301E04FF0000387F8913303E04FF062
:100A0000030387F891334FF00003A7F89A330FE1FF
:100A10004FF00003A7F89A3319E1B7F89A23B7F813
:100A200098331344B3F5967F19D84FF0000387F835
:100A30009133B7F89A2307F59A731344B7F89823BC
:100A400007F5187101F10401184603F0E7FDB7F846
:100A50009A23B7F898331344A7F89A33E8E04FF095
:100A6000030387F89133E3E0B7F89833002B40F0A5
:100A7000DA8007F5967244F60C13C0F2000393E88F
:100A8000030082E803004FF0010387F89E334FF024
:100A90000803A7F88E33B7F88E3307F5187202F102
:100AA000040107F59672084611461A4603F0B6FD92
:100AB0004FF0000387F89133BAE097F89E33002B8C
:100AC00000F0B380B7F89833032B40F0B08007F5FF
:100AD000187303F105031B88A7F8A23397F89F3317
:100AE0004FEA0322B7F8A23313444FEA0323C7F8AF
:100AF000A433D7F8A4034FF48071FFF797FC0346A3
:100B000087F8AB3397F89F334FEA03434FEAD3029A
:100B1000B7F8A2334FEA4313134403F19043C7F8E5
:100B2000A4334FF00003A7F8AC3311E0B7F8AC23BF
:100B3000D7F8A43313441B78DAB297F8AB331344D5
:100B400087F8AB33B7F8AC3303F10103A7F8AC3344
:100B5000B7F8AC331F2BE9D997F89F33002B29D175
:100B6000B7F8A233FF2B25D1B7F8A23303F0010366
:100B7000DBB2002B02D04FF0000301E04FF0010385
:100B800087F8AF3397F8AF33C3F580734FEA032389
:100B9000A3F130031B7897F8AB23C3EB020387F86C
:100BA000AB334FF6D1731B7897F8AB23C3EB02033B
:100BB00087F8AB3397F8AB33C3F10003DBB2DAB29B
:100BC00007F518731A714FF0000387F891334FF04F
:100BD0000103A7F88E332BE0FFF7ECFC0346002B54
:100BE00006D144F2FA63C4F200036FF07F021A7078
:100BF00044F2F663C4F200034FF001021A7026E0DB
:100C00004FF0050387F8913312E000BF10E000BFFA
:100C10000EE000BF0CE000BF0AE000BF08E000BF2C
:100C200006E000BF04E000BF02E000BF00E000BF3C
:100C300097F8911307F51872B7F88E3308461146E6
:100C40001A4600F00DF802E000BF00E000BF97F880
:100C50009E33002B7FF458AD07F56C77BD4680BD01
:100C600080B586B000AFB96013460246FA73FB80C8
:100C7000BB684FF001021A70BB6803F10103FA7BF5
:100C80001A70BB6803F10203FA88D2B21A70BB680B
:100C900003F10303FA884FEA122292B2D2B21A7019
:100CA000FB8803F104039BB2B8681946FFF792FB77
:100CB0000346FB82FB8803F10402BB681344FA8AF3
:100CC000D2B21A70FB8803F10502BB681344FA8A9A
:100CD0004FEA122292B2D2B21A70FB8803F10602D6
:100CE000BB6813444FF017021A70FB8803F1070327
:100CF0009AB207F10603B86811461A464FF09603F8
:100D000000F020F80346184607F11807BD4680BDDD
:100D100080B500AF62B64FF000004FF0020100F066
:100D2000C7FE4EF24C13C1F6FF734FF001021A706A
:100D300080BD00BF80B500AF4FF0010001F05CFA4C
:100D400080BD00BF80B586B000AFF8607A600A460B
:100D50007A81FB704FF00200F9684FF0400201F019
:100D600053F9FB781A464FEA820213444FEA4303D1
:100D70009AB24EF24A13C1F6FF731A804FF0000385
:100D80007B8203E04FF00100FFF784FA4FF002008E
:100D900001F0E8F80346002B10D14EF24A13C1F6D9
:100DA000FF731B887A8A9A422CBF00230123DBB28F
:100DB0007A8A02F101027A82002BE3D14FF002001D
:100DC00001F0D0F80346002B03D14FF010037B61F4
:100DD00005E07B687A891A804FF000037B617B69AC
:100DE000184607F11807BD4680BD00BF80B586B024
:100DF00000AFF8607A600A467A81FB707B89402BED
:100E000002D94FF040037B81FB781A464FEA8202F9
:100E100013444FEA43039AB24EF24A13C1F6FF73EA
:100E20001A804FF00003FB824EF24C13C1F6FF73A1
:100E30001B78002B2BD003E04FF00100FFF72AFABC
:100E400001F062F80346002B10D14EF24A13C1F6AE
:100E5000FF731B88FA8A9A422CBF00230123DBB25E
:100E6000FA8A02F10102FA82002BE5D101F04CF876
:100E70000346002B1DD001F053F8FFF75BFF4EF245
:100E80004C13C1F6FF734FF000021A7016E001F028
:100E900047F80346002B0ED001F036F80346002B2E
:100EA0000BD0FFF747FF09E04FF00100FFF7F2F921
:100EB00004E000BF02E000BF00E000BF4FF001000F
:100EC00001F050F80346012B10D04EF24A13C1F640
:100ED000FF731B88FA8A9A422CBF00230123DBB2DE
:100EE000FA8A02F10102FA82002BDDD14FF00100F3
:100EF00001F038F80346012B0ED17B894FF0010039
:100F0000F9681A4601F02CF903461A467B681A80E4
:100F10004FF000033B6106E07B684FF000021A804F
:100F20004FF010033B613B69184607F11807BD46B7
:100F300080BD00BF80B582B000AF46F27753C4F2E7
:100F400000031B78DBB223F03F03BB7146F27753FB
:100F5000C4F20003BA7942F00B02D2B21A7046F220
:100F60009653C4F2000346F29652C4F2000212787D
:100F7000D2B242F00102D2B21A7046F29753C4F2D2
:100F8000000346F29752C4F200021278D2B242F045
:100F90000102D2B21A704EF6602000F03FF84EF611
:100FA000602000F059F847F2305000F065F84FF03B
:100FB000000000F071F800F07BFA0346FB7146F286
:100FC0009753C4F2000346F29752C4F2000212781B
:100FD000D2B242F01002D2B21A70FB79184600F079
:100FE0006BFA00F02BF807F10807BD4680BD00BF83
:100FF00080B400AF46F27753C4F2000346F2775252
:10100000C4F200021278D2B26FEA42626FEA526210
:10101000D2B21A70BD4680BC704700BF80B483B0A6
:1010200000AF0346FB8046F60C23C4F20003FA88A7
:101030001A8007F10C07BD4680BC704780B500AF31
:1010400001E000F049F800F037F8034603F0100320
:10105000002BF6D180BD00BF80B483B000AF034643
:10106000FB8046F68C23C4F20003FA881A8007F14D
:101070000C07BD4680BC704780B483B000AF034608
:10108000FB8046F64C23C4F20003FA881A8007F16D
:101090000C07BD4680BC704780B483B000AF0346E8
:1010A000FB7146F28753C4F20003FA791A7007F114
:1010B0000C07BD4680BC704780B483B000AF46F2D9
:1010C0006753C4F200031B78FB71FB79184607F1E4
:1010D0000C07BD4680BC704780B400AF46F6AC2319
:1010E000C4F200031B889BB21846BD4680BC704703
:1010F00080B582B000AF7860396078684FF0000149
:101100003A6803F053FB07F10807BD4680BD00BFF6
:1011100080B584B000AFF860B9607A60F868B968EB
:101120007A6803F07BFA07F11007BD4680BD00BF67
:1011300080B584B000AFF860B9607A60F868B968CB
:101140007A6803F06BFA07F11007BD4680BD00BF57
:1011500080B487B000AF786039604FF00003FB6067
:101160004FF00003BB602CE0BB684FEA83027B6852
:1011700013441B683B613B69FB753B6923F0FF032C
:101180003B6117E0FB684FEA43023B6813441B785E
:101190001A463B691344FA684FEA42013A680A4426
:1011A00052781A70FB6803F10103FB60FB7D03F1C9
:1011B000FF33FB75FB7D002BE4D1BB6803F101031A
:1011C000BB60BB68102BCFD907F11C07BD4680BCA4
:1011D000704700BF80B400AF44F28003C4F2000344
:1011E0004FF003021A8044F28203C4F200034FF06E
:1011F0001B021A7044F20033C4F200034FF00602DF
:101200001A7044F20023C4F200034FF052021A7025
:1012100044F2A163C4F2000340F20F12C4F60012BC
:101220001278D2B21A7044F20403C4F200034FF0F1
:1012300000021A8044F20403C4F200034FF00702D4
:101240001A7044F20603C4F200034FF000021A7051
:1012500044F20803C4F200034FF048021A7044F24B
:101260000403C4F200034FF000021A7044F20903B1
:10127000C4F200034FF000021A7044F20103C4F2FA
:1012800000034FF002021A7044F2A233C4F20003CA
:1012900044F2A232C4F200021278D2B242F0010249
:1012A000D2B21A70BD4680BC704700BF80B483B014
:1012B00000AF40F2CF13C4F600131B78FB7145F664
:1012C0006E03C4F20003FA7902F007021A7045F6C1
:1012D0006F03C4F20003FA794FEA1212D2B21A7005
:1012E00045F67603C4F200034FF044021A7007F18A
:1012F0000C07BD4680BC704780B582B000AF72B6A7
:101300004FF00003FB702FE0FA7813464FEA4303D7
:1013100013444FEA43031A4644F61413C0F2000381
:1013200013447B607B681A7859784FEA012141EABF
:10133000020299784FEA014141EA0202DB784FEA62
:10134000036343EA02031A467B6819795B794FEA23
:10135000032343EA01039BB210461946FFF7C8FE78
:10136000FB7803F10103FB70FB78072BCCD944F623
:101370004410C0F2000044F68811C0F20001FFF7EB
:10138000E7FE45F20303C4F2010345F20302C4F28F
:1013900001021278D2B242F00202D2B21A7045F2C1
:1013A0001303C4F2010345F21302C4F201021278DE
:1013B000D2B242F00202D2B21A7044F2A033C4F2A6
:1013C000000344F2A032C4F200021278D2B242F01A
:1013D0004002D2B21A7044F2C233C4F2000344F2A3
:1013E000C232C4F200021278D2B242F01002D2B27B
:1013F0001A7045F2F010C4F2000044F68021C0F2E9
:1014000000014FF00A02FFF793FE45F22010C4F2EC
:10141000000044F68C21C0F200014FF00A02FFF7F1
:1014200087FE45F23210C4F2000044F69821C0F263
:1014300000014FF00802FFF77BFE44F22233C4F2B2
:10144000000344F22232C4F200021278D2B242F017
:101450000802D2B21A7044F60003C4F200034FF03F
:1014600001021A70FFF7B6FE44F60003C4F200034F
:101470006FF07E021A70FFF719FF44F2B030C4F229
:10148000000044F2A031C4F200014FF00E02FFF759
:101490003FFE07F10807BD4680BD00BF0000000009
:1014A0000230800803D000BF01380046FCD17047ED
:1014B000EFF3108072B6704780F31088704700BF5A
:1014C00080B582B000AF00F011F94FF0FF337B60C0
:1014D00000F074FA0346002B31D14FF0010000F008
:1014E00027FA0346072B27D14EF27C20C1F6FF7066
:1014F0004FF0020100F026F90346022B12D14FF003
:1015000000037B6003E04FF00100FEF7E7FE44F2CA
:101510002273C4F200031B78DBB203F00203002B3A
:10152000F1D009E044F22273C4F200031B78DBB26D
:1015300003F00203002BD7D000F086FA02E04FF050
:1015400004037B607B68184607F10807BD4680BD31
:1015500080B582B000AFFFF7B3FF03467B607B68C6
:10156000002B03D1FFF7ACFF03467B607B68184676
:1015700007F10807BD4680BD80B584B000AF786034
:101580004FF00003FB6000F0B1F87B68002B03D143
:101590004FF00103FB6010E000F010FA0346002B4F
:1015A00003D04FF00403FB6007E04EF25013C1F686
:1015B000FF737A681A6000F047FAFB68184607F173
:1015C0001007BD4680BD00BF80B586B000AFBA60D1
:1015D0000246FA730A46BA81FB8000F0EFF903462F
:1015E000002B7AD1FA7BFB881046B9681A4600F0C6
:1015F000DBF803467B617B69072B6BD103E04FF07F
:101600000100FEF76BFE44F22273C4F200031B7864
:10161000DBB203F00203002BF1D044F22273C4F2D8
:1016200000031B78DBB203F00203002B0ED044F260
:101630002273C4F200031B78DBB24FEA9303DBB2E0
:10164000002B03D14FF000037B6102E04FF0FF332A
:101650007B617B69002B3DD14EF27C23C1F6FF7389
:101660001A784EF27C23C1F6FF735B78F87BB98958
:1016700000F0F8F803467B617B69072B2AD103E071
:101680004FF00100FEF72AFE44F22273C4F2000379
:101690001B78DBB203F00203002BF1D044F222737B
:1016A000C4F200031B78DBB203F00203002B0ED060
:1016B00044F22273C4F200031B78DBB24FEA9303B7
:1016C000DBB2002B03D14FF000037B6102E04FF04F
:1016D000FF337B6100F0B8F902E04FF004037B6157
:1016E0007B69184607F11807BD4680BD80B582B0FA
:1016F00000AFFFF7DDFE0346FB7144F2A033C4F2F6
:10170000000344F2A032C4F200021278D2B242F0D6
:101710000802D2B21A7044F2B033C4F2000344F2A9
:10172000B032C4F200021278D2B242F00802D2B251
:101730001A70FB791846FFF7BFFE07F10807BD4690
:1017400080BD00BF80B584B000AF78600B46FB70F1
:101750004FF00003FB731DE04FF00100FEF7BEFDEC
:1017600000E000BF44F22273C4F200031B78DBB236
:1017700003F00103002BEFD0FA7B7B681A4444F29C
:101780002073C4F200031B78DBB21370FB7B03F100
:101790000103FB73FA7BFB789A42E2D3FB7B18468A
:1017A00007F11007BD4680BD80B487B000AFB960B7
:1017B00013460246FA73FB804FF007033B6144F285
:1017C0002273C4F200031B78DBB203F00203002B88
:1017D0003ED044F22073C4F200036FF049021A7045
:1017E00044F22073C4F200036FF02A021A7044F22C
:1017F0002073C4F200034FF002021A7044F2227305
:10180000C4F200031B78DBB203F00203002B1BD1F0
:1018100044F22073C4F20003FA7B1A704FF0000305
:10182000FB820CE044F22073C4F20003F98ABA6828
:101830000A4412781A70FB8A03F10103FB82FA8AC8
:10184000FB889A42EED306E04FF009033B6102E0C9
:101850004FF004033B613B69184607F11C07BD4686
:1018600080BC704780B485B000AFF871B980FA7061
:10187000BB704FF00703FB6044F22273C4F2000315
:101880001B78DBB203F00203002B46D044F2207336
:10189000C4F200036FF049021A7044F22073C4F2DC
:1018A00000036FF027021A7044F22073C4F20003A1
:1018B0004FF005021A7044F22273C4F200031B7841
:1018C000DBB203F00203002B23D144F22073C4F2F5
:1018D0000003FA791A7044F22073C4F20003BA8844
:1018E0004FEA122292B2D2B21A7044F22073C4F2BA
:1018F0000003BA88D2B21A7044F22073C4F2000313
:10190000FA781A7044F22073C4F20003BA781A709D
:1019100006E04FF00903FB6002E04FF00403FB60B8
:10192000FB68184607F11407BD4680BC704700BF2E
:1019300080B485B000AF0346FB714FF00703FB6036
:1019400044F22273C4F200031B78DBB203F00203FB
:10195000002B29D044F22073C4F200036FF0490237
:101960001A7044F22073C4F200036FF01E021A7062
:1019700044F22073C4F200034FF00E021A7044F2D6
:101980002273C4F200031B78DBB203F00203002BC6
:1019900006D144F22073C4F20003FA791A7006E00B
:1019A0004FF00903FB6002E04FF00403FB60FB68AB
:1019B000184607F11407BD4680BC704780B582B059
:1019C00000AF4FF004033B60FFF772FD0346FB716D
:1019D0004EF25413C1F6FF731B78002B29D14EF23F
:1019E0005413C1F6FF734FF001021A704FF0000359
:1019F0003B6040F20403C4F208031B6803F00103D8
:101A0000DBB2002B15D040F20403C4F2080340F20D
:101A10000402C4F20802126822F001021A6000BF38
:101A200000BF00BF4EF25513C1F6FF734FF0010225
:101A30001A70FB791846FFF73FFD3B68184607F11F
:101A40000807BD4680BD00BF80B582B000AFFFF77C
:101A50002FFD0346FB714EF25413C1F6FF734FF096
:101A600000021A704EF25513C1F6FF731B78012B5A
:101A700015D140F20403C4F2080340F20402C4F298
:101A80000802126842F001021A6000BF00BF00BFE6
:101A90004EF25513C1F6FF734FF000021A70FB7936
:101AA0001846FFF709FD07F10807BD4680BD00BFD6
:101AB00080B582B000AF02460B46FA71BB714EF2A0
:101AC0005613C1F6FF731B78002B08D100F012F8F3
:101AD0004EF25613C1F6FF734FF001021A70FA79F5
:101AE000BB791046194600F00DF907F10807BD460D
:101AF00080BD00BF80B582B000AFFFF7D9FC0346C0
:101B0000FB7144F2A533C4F2000344F2A532C4F2DF
:101B100000021278D2B242F00102D2B21A7044F23C
:101B2000B533C4F2000344F2B532C4F200021278B5
:101B3000D2B242F00102D2B21A7046F29D03C4F250
:101B400000034FF001021A7046F20903C4F20003C9
:101B50004FF002021A7046F21003C4F2000346F27C
:101B60001002C4F200021278D2B202F07F021A70A0
:101B70004FF00000FEF7B2FB44F29433C4F20003CE
:101B800044F29432C4F200021278D2B202F0F902A6
:101B90001A7046F21203C4F2000346F21202C4F2B3
:101BA00000021278D2B202F0DF021A7044F29433CB
:101BB000C4F2000344F29432C4F200021278D2B2AA
:101BC00042F00102D2B21A704FF00100FEF786FB1C
:101BD0004FF02800FEF782FB45F2F813C4F2000331
:101BE00045F2F812C4F200021278D2B202F07F027B
:101BF0001A7045F2F813C4F2000345F2F812C4F269
:101C000000021278D2B202F0BF021A7044F294338A
:101C1000C4F2000344F29432C4F200021278D2B249
:101C200042F00202D2B21A704FF00200FEF756FBE9
:101C300044F29433C4F2000344F29432C4F200023A
:101C40001278D2B242F00402D2B21A7046F2840381
:101C5000C4F200034FF000021A7046F28503C4F28A
:101C600000034FF000021A70FB791846FFF724FCBE
:101C70004FF0170042F6AD31C0F20001FEF742FB13
:101C80004FF017004FF00701FEF76CFB4FF0150007
:101C900042F6A131C0F20001FEF734FB4FF015000F
:101CA0004FF00701FEF75EFB4FF0180042F2712182
:101CB000C0F20001FEF726FB4FF018004FF00701BD
:101CC000FEF750FB4FF0000042F6C121C0F20001C8
:101CD000FEF718FB4FF000004FF00701FEF742FB44
:101CE0004FF0010042F63131C0F20001FEF70AFB6D
:101CF0004FF001004FF00701FEF734FB07F1080732
:101D0000BD4680BD80B584B000AF02460B46FA7177
:101D1000BB714FF00003FB730BE0FA7B4EF22033F4
:101D2000C1F6FF734FF001019954FB7B03F10103EE
:101D3000FB73FB7B002BF0D04EF20013CEF20003BE
:101D40004FF400021A604EF20013CEF200034FF07F
:101D500080721A604EF20013CEF200034FF00102BF
:101D60001A604EF20013CEF200034FF002021A6026
:101D70004EF29A23C1F6FF734FF000021A70BB793E
:101D8000002B02D0012B08D00FE046F20903C4F269
:101D900000034FF002021A700EE046F20903C4F28B
:101DA00000034FF003021A7006E046F20903C4F282
:101DB00000034FF003021A704EF29423C1F6FF7332
:101DC000FA791A704EF29923C1F6FF734FF00002B0
:101DD0001A704EF29523C1F6FF734FF000021A708D
:101DE0004EF29823C1F6FF734FF000021A704EF2C4
:101DF0008023C1F6FF734FF000021A704EF2972352
:101E0000C1F6FF734FF000021A704EF21133C1F6A3
:101E1000FF734FF000021A7046F22803C4F2000369
:101E20004FF003021A7046F20803C4F200036FF089
:101E30007F021A704FF00100FFF732FB46F21203E7
:101E4000C4F200034FF004021A7007F11007BD46F8
:101E500080BD00BF80B483B000AF4FF00003FB71C2
:101E60000BE0FA794EF22033C1F6FF734FF0010117
:101E70009954FB7903F10103FB71FB79002BF0D03E
:101E80004EF29A23C1F6FF734FF000021A704EF221
:101E90009923C1F6FF734FF000021A704EF295239A
:101EA000C1F6FF734FF000021A704EF29823C1F68C
:101EB000FF734FF000021A704EF28023C1F6FF73D9
:101EC0004FF000021A704EF29723C1F6FF734FF0E5
:101ED00000021A704EF21133C1F6FF734FF0000288
:101EE0001A7046F22803C4F200034FF003021A707E
:101EF00046F20803C4F200036FF07F021A7007F184
:101F00000C07BD4680BC704780B400AF4EF29923E9
:101F1000C1F6FF731B78DBB21846BD4680BC704724
:101F200080B483B000AF4FF00003FB714EF29823F2
:101F3000C1F6FF731B78DBB2002B0CD04EF2982356
:101F4000C1F6FF731B78FB714EF29823C1F6FF7345
:101F50004FF000021A70FB79184607F10C07BD46D6
:101F600080BC704780B483B000AF0346FB71F97941
:101F70004EF2A422C1F6FF720B464FEA43030B4414
:101F80004FEA830313445B78DBB2184607F10C0772
:101F9000BD4680BC704700BF80B485B000AF03462B
:101FA000FB714FF00003FB81FB79002B24D0FB7900
:101FB000082B21D8FB7903F1FF33DBB24FEA03137F
:101FC0007B737A7B46F20C03C4F2000313441B7844
:101FD000DBB203F007034FEA03239AB2797B46F2A0
:101FE0000D03C4F200030B441B78DBB242EA030387
:101FF0009BB2A3F10203FB81FB89184607F114078A
:10200000BD4680BC704700BF80B489B000AFB960E6
:1020100013460246FA73FB80FB7B002B00F09A808C
:10202000FB7B082B00F29680FB7B03F1FF33DBB2D6
:102030004FEA0313FB75FA7D46F28803C4F20003EE
:102040001344BB61F888F97B4EF2A422C1F6FF72FB
:102050000B464FEA43030B444FEA8303134403F157
:1020600006031B889BB2C3F50073984212D9F97B13
:102070004EF2A422C1F6FF720B464FEA43030B4413
:102080004FEA8303134403F106031B889BB2C3F595
:102090000073FB80FA7D46F20C03C4F20003134484
:1020A000FA884FEA122292B25FFA82FCF87B4EF273
:1020B000A421C1F6FF7102464FEA420202444FEAF0
:1020C00082020A44D278D2B24CEA0202D2B21A7028
:1020D000FA7D46F20D03C4F200031344FA88D2B22B
:1020E0001A70BB68002B11D04FF00003FB8309E08E
:1020F000BB69F98BBA680A4412781A70FB8B03F13A
:102100000103FB83FA8BFB889A42F1D3F97B4EF2F1
:10211000A422C1F6FF720B464FEA43030B444FEA79
:10212000830313444FF000025A70FA7D46F20E0307
:10213000C4F200031344F87B4EF2A421C1F6FF71F0
:1021400002464FEA420202444FEA82020A445279AE
:10215000D2B21A7007F12407BD4680BC704700BF99
:1021600080B588B000AFB96013460246FA73FB80B1
:10217000FB7B002B37D0FB7B082B34D8BB68002BB4
:1021800031D0FB7B03F1FF33DBB24FEA0313FB7566
:10219000FA7D46F28803C4F200031344BB61FB7B63
:1021A0001846FFF7F9FE0346FB83FA88FB8B9A4239
:1021B00001D9FB8BFB804FF00003BB830AE0BA8B95
:1021C000BB681344BA691278D2B21A70BB8B03F1A0
:1021D0000103BB83BA8BFB889A42F0D3FB7B184682
:1021E00000F00AF802E04FF00003FB80FB8818467D
:1021F00007F12007BD4680BD80B485B000AF03461F
:10220000FB71FB79002B2DD0FB79082B2AD8FB79A9
:1022100003F1FF33DBB24FEA0313FB73F9794EF29C
:10222000A422C1F6FF720B464FEA43030B444FEA68
:10223000830313444FF000025A70FA7B46F20E03F8
:10224000C4F200031344F8794EF2A421C1F6FF71E1
:1022500002464FEA420202444FEA82020A4452799D
:10226000D2B21A7007F11407BD4680BC704700BF98
:1022700080B582B000AF46F22803C4F200031B7899
:10228000BB71BB7903F01003002B00F08E804FF080
:102290000103FB71BB795BB2002B17DABB7903F04A
:1022A0000F03012B03D04FF00003FB7123E000F07C
:1022B00081F84EF28123C1F6FF731B78DBB25BB26B
:1022C000002B17DA4FF00003FB7114E0BB7903F029
:1022D0004003002B02D000F0BFF80CE0BB7903F004
:1022E0002003002B02D000F0DDF804E04FF00003E3
:1022F000FB7100E000BFFB79002B56D046F22803AB
:10230000C4F200031B78BB71BB795BB2002B4CDBC2
:102310004EF29623C1F6FF731B78DAB24EF21233F7
:10232000C1F6FF731B78DBB242EA0303BB7146F2CE
:102330002903C4F20003BA791A7046F22903C4F2E1
:1023400000031B78DBB2BA799A422ED14EF2812378
:10235000C1F6FF731B78FB7146F22803C4F2000339
:102360001B78DBB223F07F03BB71BB79002B13D149
:1023700046F22803C4F200034EF28122C1F6FF7236
:102380001278D2B21A7046F22803C4F200031B7806
:10239000DBB203F00F03FB714EF28123C1F6FF7332
:1023A0001B78DBB2FA799A42D0D107F10807BD4613
:1023B00080BD00BF80B582B000AF46F22803C4F2F2
:1023C00000031B78FB7146F22803C4F20003FA797C
:1023D0001A7046F22803C4F200031B78FB71FB79E4
:1023E0005BB2002B06DA4EF28123C1F6FF73FA7955
:1023F0001A702DE04FF0020000F012FB46F20003CD
:10240000C4F200031B78DBB203F06003202B08D07A
:10241000402B0BD0002B0ED100F054FE0346FB7175
:102420000CE002F0B3F80346FB7107E002F092F80B
:102430000346FB7102E04FF00003FB71FB79002BB8
:1024400006D14EF28123C1F6FF734FF003021A70DA
:1024500007F10807BD4680BD80B500AF4EF29A2354
:10246000C1F6FF731B78DBB2062B19D801A252F814
:1024700023F000BFA1240000A1240000912400004B
:10248000A124000097240000A12400009D24000046
:1024900000F05AF904E000F055FA01E000F08CFA7F
:1024A00080BD00BF80B500AF4EF29A23C1F6FF7326
:1024B0001B78DBB2062B22D801A252F823F000BF12
:1024C000FF240000FF240000DD240000FF240000A2
:1024D000E3240000FF240000E924000000F03AF9A2
:1024E0000DE000F0A5F90AE04FF0030000F098FAC3
:1024F0004EF28123C1F6FF734FF003021A7080BDC4
:1025000080B400AF4EF21133C1F6FF731B78DBB21B
:102510001A464EF21433C1F6FF731B889BB2134464
:102520009AB24EF21433C1F6FF731A804EF2123390
:10253000C1F6FF734FF000021A7034E04EF212330E
:10254000C1F6FF731B78DBB203F1804303F5C04390
:102550004EF28822C1F6FF7252681178C9B2197022
:1025600002F101024EF28823C1F6FF735A604EF267
:102570001233C1F6FF731B78DBB203F10103DAB249
:102580004EF21233C1F6FF731A704EF28823C1F671
:10259000FF731B889BB203F1FF339AB24EF288237C
:1025A000C1F6FF731A804EF28823C1F6FF731B88B1
:1025B0009BB2002B07D04EF21233C1F6FF731B788B
:1025C000DBB2072BBAD94EF21233C1F6FF731B7878
:1025D000DBB2002B07D14EF21133C1F6FF731B782B
:1025E000DBB2082B1ED14EF29623C1F6FF731B7887
:1025F000DAB26FF07F0382EA0303DAB24EF2962377
:10260000C1F6FF731A704EF28123C1F6FF734FF0CB
:102610000F021A704EF29A23C1F6FF734FF00202B6
:102620001A700DE04EF28123C1F6FF734FF00202E3
:102630001A704EF29A23C1F6FF734FF002021A701D
:102640004EF21233C1F6FF731B78DAB24EF2113339
:10265000C1F6FF731A70BD4680BC704780B582B06A
:1026600000AF4EF28823C1F6FF731B889BB2002B8C
:1026700002D100F03DF833E04EF29A23C1F6FF7329
:102680004FF002021A704EF29623C1F6FF734FF01C
:1026900000021A7000F0F0F946F20703C4F20003DA
:1026A0001B78DBB24FEA03239AB246F20603C4F268
:1026B00000031B78DBB242EA03039BB2FB804EF2BD
:1026C0008823C1F6FF731B889BB2FA889A4205D211
:1026D0004EF28823C1F6FF73FA881A80FFF710FFC5
:1026E0004FF00103184607F10807BD4680BD00BF43
:1026F00080B400AF4EF29A23C1F6FF734FF002028E
:102700001A704EF29623C1F6FF736FF07F021A70B3
:102710004EF28123C1F6FF734FF00F021A704EF292
:102720001133C1F6FF734FF000021A704EF21233EC
:10273000C1F6FF734FF000021A704FF00103184604
:10274000BD4680BC704700BF80B500AFFFF7D8FE24
:1027500080BD00BF80B500AF4EF21133C1F6FF73EC
:102760001B78DBB21A464EF21433C1F6FF731B8896
:102770009BB213449AB24EF21433C1F6FF731A801F
:102780004EF29A23C1F6FF734FF000021A704FF019
:10279000010000F045F94EF28123C1F6FF734FF0BE
:1027A00003021A7080BD00BF80B582B000AF4EF248
:1027B0009A23C1F6FF734FF004021A704EF296236B
:1027C000C1F6FF736FF07F021A7000F055F946F200
:1027D0000703C4F200031B78DBB24FEA03239AB26B
:1027E00046F20603C4F200031B78DBB242EA03039D
:1027F0009BB2FB804EF28823C1F6FF731B889BB20D
:10280000FA889A4205D24EF28823C1F6FF73FA88FD
:102810001A804EF28123C1F6FF734FF00B021A703B
:102820004FF00103184607F10807BD4680BD00BF01
:1028300080B483B000AF46F20003C4F200037B60B3
:1028400046F22903C4F200031B78DBB203F00F0346
:10285000A3F10203DAB24EF21233C1F6FF731A701B
:102860004EF21233C1F6FF731B78DBB21A464EF2FA
:102870001433C1F6FF731B889BB213449AB24EF215
:102880001433C1F6FF731A802FE04EF28823C1F68D
:10289000FF735B687A681278D2B21A7003F1010292
:1028A0004EF28823C1F6FF735A607B6803F101037F
:1028B0007B604EF21233C1F6FF731B78DBB203F17B
:1028C000FF33DAB24EF21233C1F6FF731A704EF2D2
:1028D0008823C1F6FF731B889BB203F1FF339AB2C2
:1028E0004EF28823C1F6FF731A804EF28823C1F698
:1028F000FF731B889BB2002B07D04EF21233C1F638
:10290000FF731B78DBB2002BBFD14EF29623C1F6CA
:10291000FF731B78DAB26FF07F0382EA0303DAB247
:102920004EF29623C1F6FF731A704EF28123C1F660
:10293000FF734FF00B021A7007F10C07BD4680BC05
:10294000704700BF80B500AF4EF29A23C1F6FF7307
:102950004FF000021A704FF0010000F061F84EF2E3
:102960008123C1F6FF734FF003021A7080BD00BFD0
:1029700080B400AF4EF29A23C1F6FF734FF0060207
:102980001A704EF28123C1F6FF734FF006021A70DF
:102990004EF29623C1F6FF736FF07F021A704EF26B
:1029A0001233C1F6FF734FF000021A704FF00103AB
:1029B0001846BD4680BC704780B500AF4EF28023FC
:1029C000C1F6FF731B78DBB2002B16D046F208036A
:1029D000C4F200034EF28022C1F6FF721278D2B226
:1029E0006FEA42626FEA5262D2B21A704EF28023EC
:1029F000C1F6FF734FF000021A704EF29A23C1F62F
:102A0000FF734FF000021A704FF0010000F008F859
:102A10004EF28123C1F6FF734FF003021A7080BD9E
:102A200080B483B000AF0346FB714EF28823C1F639
:102A3000FF739B68002B19D04EF28823C1F6FF73F9
:102A40009B68FA791A704EF28823C1F6FF739A6870
:102A50004EF21433C1F6FF731B889BB253804EF2C3
:102A60008823C1F6FF734FF000029A6007F10C074C
:102A7000BD4680BC704700BF80B400AF4EF2143337
:102A8000C1F6FF734FF000021A804EF28823C1F6A0
:102A9000FF739B68002B0FD04EF28823C1F6FF73A3
:102AA0009B684FF000021A704EF28823C1F6FF7344
:102AB0009B684FF000025A80BD4680BC704700BF43
:102AC00080B400AF46F20E03C4F200031B784EF24E
:102AD000A423C1F6FF731B7BDBB203F00303012BBE
:102AE0000FD04EF2A423C1F6FF73DB7BDAB26FF096
:102AF0007F0382EA0303DAB24EF2A423C1F6FF7326
:102B0000DA734EF2A423C1F6FF734FF001025A7339
:102B100046F20B03C4F2000346F20B02C4F20002B9
:102B20001278D2B202F0FE021A70BD4680BC704725
:102B300080B400AF46F21E03C4F200031B784EF2CD
:102B4000A423C1F6FF731B7EDBB203F00303012B4A
:102B50000FD04EF2A423C1F6FF73DB7EDAB26FF022
:102B60007F0382EA0303DAB24EF2A423C1F6FF73B5
:102B7000DA764EF2A423C1F6FF734FF001025A76C3
:102B800046F20B03C4F2000346F20B02C4F2000249
:102B90001278D2B202F0FD021A70BD4680BC7047B6
:102BA00080B400AFBD4680BC704700BF80B500AFA9
:102BB000FFF750F980BD00BF80B582B000AF4FF085
:102BC0000003BB7146F20403C4F200031B78FB71DF
:102BD00046F20003C4F200031B78DBB25BB2002BA9
:102BE00080F29A8046F20103C4F200031B78DBB244
:102BF00003F1FF33052B00F21F8101A252F823F0ED
:102C00007B2C00009B2C0000E32C0000392E0000E0
:102C1000392E0000192C000046F20303C4F2000311
:102C20001B78DBB2212B0FD100F022F94EF2882362
:102C3000C1F6FF731B889BB2002B00F0FF80FFF7EB
:102C40000DFD0346BB710CE146F20303C4F2000321
:102C50001B78DBB2222B40F0F38000F057F94EF2E4
:102C60008823C1F6FF731B889BB2002B00F0EA801B
:102C7000FFF7F4FC0346BB71F3E000F0A1F94EF25C
:102C80008823C1F6FF731B889BB2002B00F0DC8009
:102C9000FFF7E4FC0346BB71E3E0FB79002B40F057
:102CA000D58046F20203C4F200031B78DBB2002B8E
:102CB00040F0CE804EF28823C1F6FF734FF0010240
:102CC0001A80FA794EF21833C1F6FF731A444EF2A5
:102CD0008823C1F6FF735A60FFF7C0FC0346BB713F
:102CE000BFE0FB79002B40F0B5804EF28823C1F69F
:102CF000FF734FF001021A80FA794EF22033C1F6C9
:102D0000FF731A444EF28823C1F6FF735A60FFF72F
:102D1000A5FC0346BB71A4E046F20003C4F2000325
:102D20001B78DBB25BB2002BC0F29B8046F2010342
:102D3000C4F200031B78DBB2092B07D0092BC0F2C9
:102D400090800A2B11D00B2B5AD08AE000F038F972
:102D50004EF28823C1F6FF731B889BB2002B7BD0F9
:102D6000FFF722FD0346BB717BE0FB79002B75D199
:102D700046F20203C4F200031B78DBB2002B6FD1D2
:102D8000FA7946F20303C4F200031B78D9B24EF27B
:102D90001833C1F6FF739954FA794EF21833C1F61D
:102DA000FF739B5CDAB2F9794EF21C33C1F6FF7304
:102DB0005B5CDBB29A4208D2FA794EF21C33C1F660
:102DC000FF734FF00001995415E0FA794EF21C336D
:102DD000C1F6FF739B5CDBB2012B0CD9FA79F97950
:102DE0004EF21833C1F6FF735B5CD9B24EF21C335E
:102DF000C1F6FF739954FFF7BBFD0346BB7130E08A
:102E0000FB79002B2DD146F20203C4F200031B789C
:102E1000DBB2012B25D8FA7946F20203C4F2000393
:102E20001B78D9B24EF22033C1F6FF739954FFF7E5
:102E30009FFD0346BB7114E000BF12E000BF10E02D
:102E400000BF0EE000BF0CE000BF0AE000BF08E0DA
:102E500000BF06E000BF04E000BF02E000BF00E0EA
:102E600000BFBB79184607F10807BD4680BD00BF0B
:102E700080B584B000AF4EF29923C1F6FF731B7882
:102E8000DBB203F1FF33DBB2184601F053F903461E
:102E90007B6046F20403C4F200031B78FB737B687B
:102EA00003F110037B60FB7B4FEAC3037A68134492
:102EB0007B607B685B687B60FA7B4EF28423C1F6A3
:102EC000FF739B5CDBB24FEAC3037A6813447B60F9
:102ED0007B685B687B607B6803F120037B607B68B9
:102EE0005B68BB60BB681B78DBB21A464EF2882376
:102EF000C1F6FF731A804EF28823C1F6FF73BA68D9
:102F00005A6007F11007BD4680BD00BF80B584B090
:102F100000AF4EF29923C1F6FF731B78DBB203F1C9
:102F2000FF33DBB2184601F005F903467B6046F239
:102F30000403C4F200031B78FB737B6803F11003E6
:102F40007B60FB7B4FEAC3037A6813447B607B683A
:102F50005B687B60FA7B4EF28423C1F6FF739B5C57
:102F6000DBB24FEAC3037A6813447B607B685B681B
:102F70007B607B6803F118037B607B685B68BB60E8
:102F8000BB6803F101031B78DBB24FEA03239AB25B
:102F9000BB681B78DBB242EA03039BB29AB24EF2E3
:102FA0008823C1F6FF731A80BB6803F102024EF258
:102FB0008823C1F6FF735A6007F11007BD4680BD34
:102FC00080B584B000AF4EF28823C1F6FF734FF096
:102FD00000021A804EF29923C1F6FF731B78DBB210
:102FE00003F1FF33DBB2184601F0A4F803467B601F
:102FF00046F20303C4F200031B78FB7346F204039A
:10300000C4F200031B78BB737B6803F110037B6081
:10301000BB7B4FEAC3037A6813447B607B685B68C1
:103020007B60BB7B002B49D1BA7B4EF28423C1F677
:10303000FF739B5CDBB24FEAC3037A6813447B6087
:103040007B685B687B60FB7B002B37D0FB7B032BB3
:1030500034D8FB7B03F1FF334FEAC3037A68134490
:103060007B6046F20203C4F200031B78FB737B68AB
:103070001B78FA7B9A4221D87B685B68BB60FA7B3D
:1030800013464FEA430313444FEA8303BA681344D9
:10309000BB60BB685A684EF28823C1F6FF735A6062
:1030A000BB681A884EF28823C1F6FF731A80BB688A
:1030B0009A684EF28823C1F6FF739A6007F11007F1
:1030C000BD4680BD80B584B000AF4FF00003FB70FB
:1030D0004FF000037B604EF28823C1F6FF734FF080
:1030E00000021A8046F20003C4F200031B78DBB230
:1030F0005BB2002B80F29A8146F20103C4F2000316
:103100001B78DBB20A2B00F2E38201A252F823F013
:10311000F1320000D1360000D1360000D136000077
:10312000D1360000D13600003D310000D13600001C
:10313000C7330000D1360000F333000046F203032A
:10314000C4F200031B78DBB2012B17D101F008F8A1
:103150000346FB60FB685B681A464EF28823C1F6A3
:10316000FF735A604EF28823C1F6FF734FF01202CC
:103170001A80FFF773FA0346FB70B8E246F20303C6
:10318000C4F200031B78DBB2022B36D146F20203F5
:10319000C4F200031B78DBB2184600F0CBFF0346F5
:1031A000FB60FB685B681A464EF28823C1F6FF732A
:1031B0005A604EF28823C1F6FF735B6803F1030384
:1031C0001B78DBB24FEA03239AB24EF28823C1F692
:1031D000FF735B6803F102031B78DBB242EA03036F
:1031E0009BB27B814EF28823C1F6FF737A891A80E5
:1031F000FFF734FA0346FB7079E246F20303C4F2A8
:1032000000031B78DBB2032B6DD14FF000037B7200
:1032100044F6F023C0F200037B6009E07B681B7872
:10322000DBB27A6813447B607B7A03F101037B7223
:1032300046F20203C4F200031B78DBB27A7A9A42A8
:1032400004D27B681B78DBB2002BE7D146F2020385
:10325000C4F200031B78DBB2002B2AD046F2020333
:10326000C4F200031B78DAB244F6B023C0F20003C4
:103270001B7C9A421DD144F69433C0F200037B605C
:103280004EF25713C1F6FF731B78DBB2002B05D04B
:103290004EF22833C1F6FF731B687B604EF2241098
:1032A000C1F6FF7000F02AFA4EF22413C1F6FF7344
:1032B0007B607B681B78DBB2002B00F00B827B68A5
:1032C0001B78DBB21A464EF28823C1F6FF731A80D0
:1032D0004EF28823C1F6FF737A685A60FFF7BEF991
:1032E0000346FB7003E201F051F90346FB70FEE177
:1032F00046F20003C4F200031B78DBB203F00303C1
:10330000002B39D0022B40F0E7814EF28823C1F622
:10331000FF734FF002021A8046F20403C4F2000366
:103320001B78DBB203F07F014EF2A422C1F6FF72DC
:103330000B464FEA43030B444FEA830313449B7845
:10334000DAB24EF22433C1F6FF731A704EF2243310
:10335000C1F6FF734FF000025A704EF28823C1F697
:10336000FF734EF22432C1F6FF725A60FFF776F90E
:103370000346FB7000BFBAE14EF28823C1F6FF732B
:103380004FF002021A804EF29723C1F6FF731B78AA
:10339000DAB24EF22433C1F6FF731A704EF22433C0
:1033A000C1F6FF734FF000025A704EF28823C1F647
:1033B000FF734EF22432C1F6FF725A60FFF74EF9E6
:1033C0000346FB7093E14EF28823C1F6FF734FF082
:1033D00001021A804EF28823C1F6FF734EF2992241
:1033E000C1F6FF725A60FFF739F90346FB7000BF60
:1033F0007DE14EF28823C1F6FF734FF001021A807F
:1034000046F20403C4F200031B78DBB21A464EF204
:103410008423C1F6FF731A444EF28823C1F6FF736A
:103420005A60FFF71BF90346FB7060E146F20103A7
:10343000C4F200031B78DBB203F1FF330A2B00F266
:10344000568101A252F823F03B350000EF36000010
:1034500009360000EF36000075340000EF3600003A
:10346000EF360000EF36000095340000EF36000024
:10347000CB34000046F20203C4F200031B78DAB238
:103480004EF28023C1F6FF731A70FFF771FA0346FC
:10349000FB702CE146F20203C4F200031B78DAB29F
:1034A0004EF29923C1F6FF731A704EF29823C1F6BB
:1034B000FF734FF001021A704FF0010000F06EFA36
:1034C000FFF756FA0346FB7011E100F0F9FF0346DF
:1034D000002B00F0038146F20403C4F200031B78C2
:1034E000DAB24EF29523C1F6FF731A704EF29823AA
:1034F000C1F6FF734FF001021A7000F06BFC4EF240
:103500009523C1F6FF731B78DBB21A464EF2952362
:10351000C1F6FF731B78DBB219464EF28423C1F665
:10352000FF735B5CD9B24EF21033C1F6FF7399544E
:10353000FFF71EFA0346FB70D9E046F20003C4F21F
:1035400000031B78DBB203F00303012B2CD0012B0B
:103550000FD3022B40F0C48046F20203C4F20003F2
:103560001B78DBB2002B03D100F0CEFE0346FB70CC
:1035700049E046F20203C4F200031B78DBB2012BE0
:1035800011D14EF29723C1F6FF731B78DBB21A46B6
:1035900002F0FD024EF29723C1F6FF731A70FFF797
:1035A000E7F90346FB702EE046F20403C4F2000381
:1035B0001B78DBB2002B40F0958046F20403C4F286
:1035C00000031B78DBB21A4619464EF29C23C1F663
:1035D000FF735B5CDBB2194646F20203C4F20003E0
:1035E0001B78DBB26FEA0303DBB201EA0303DBB251
:1035F000D9B24EF29C23C1F6FF739954FFF7B8F984
:103600000346FB7073E072E046F20003C4F200036D
:103610001B78DBB203F00303012B2BD0012B0ED35D
:10362000022B64D146F20203C4F200031B78DBB222
:10363000002B59D100F0D0FD0346FB7057E046F255
:103640000203C4F200031B78DBB2012B4ED14EF211
:103650009723C1F6FF731B78DBB243F00203DAB2A3
:103660004EF29723C1F6FF731A70FFF781F90346F4
:10367000FB703CE046F20403C4F200031B78DBB2AB
:10368000002B34D146F20403C4F200031B78DBB2F2
:103690001A4619464EF29C23C1F6FF735B5CDBB2FF
:1036A000194646F20203C4F200031B78DBB26FEA4C
:1036B0000303DBB201EA0303DBB2D9B24EF29C236F
:1036C000C1F6FF739954FFF753F90346FB700EE000
:1036D00000BF0CE000BF0AE000BF08E000BF06E04A
:1036E00000BF04E000BF02E000BF00E000BFFB78C5
:1036F000184607F11007BD4680BD00BF80B485B0F5
:1037000000AF78607B681B78012B3ED97B6803F1A2
:1037100001031B78032B38D14FF00003BB734FF02C
:1037200002037B732CE0BB7B03F1924303F58073B0
:103730001B78FB73BB7B03F10103BB737A7B7B6854
:103740001A44FB7B4FEA1313DBB2194644F6A0235D
:10375000C0F200035B5C13707B7B03F102037B739D
:103760007A7B7B681A44FB7B03F00F0144F6A023AD
:10377000C0F200035B5C13707B7B03F102037B737D
:103780007B681B787A7B9A42CDD307F11407BD463C
:1037900080BC704780B483B000AF4FF00103BB71B1
:1037A0004FF00003FB71E7E0FA7946F28003C4F2C0
:1037B000000313444FF00C021A70B9794EF2A422A0
:1037C000C1F6FF720B464FEA43030B444FEA8303F3
:1037D00013445B79DBB2002B24D0B9794EF2A422DA
:1037E000C1F6FF720B464FEA43030B444FEA8303D3
:1037F00013441B79DBB25BB2002B09DAFA7946F28B
:103800000E03C4F2000313444FF00C021A7012E0CE
:10381000FA7946F20E03C4F2000313444FF0080293
:103820001A7008E0FA7946F20E03C4F2000313445A
:103830006FF07F021A70FA7946F20C03C4F20003AB
:103840001344B8794EF2A421C1F6FF7102464FEA43
:10385000420202444FEA82020A4402F1080212883C
:1038600092B24FEA122292B2D2B21A70FA7946F2AA
:103870000D03C4F200031344B8794EF2A421C1F63B
:10388000FF7102464FEA420202444FEA82020A44B2
:1038900002F10802128892B2D2B21A70FA7946F294
:1038A0008603C4F200031344B8794EF2A421C1F692
:1038B000FF7102464FEA420202444FEA82020A4482
:1038C00002F10602128892B2D2B21A70FA7946F266
:1038D0008703C4F200031344B8794EF2A421C1F661
:1038E000FF7102464FEA420202444FEA82020A4452
:1038F00002F10602128892B24FEA122292B2D2B2BA
:103900001A70FA7946F28403C4F200031344B879BA
:103910004EF2A421C1F6FF7102464FEA4202024470
:103920004FEA82020A4402F10602128892B2D2B22F
:103930001A70FA7946F28503C4F200031344B87989
:103940004EF2A421C1F6FF7102464FEA4202024440
:103950004FEA82020A4402F10602128892B24FEA4A
:10396000122292B2D2B21A70BB7903F10103BB7179
:10397000FB7903F11003FB71FB795BB2002BBFF6FF
:1039800013AF46F20A03C4F200034FF0FF321A707D
:1039900007F10C07BD4680BC704700BF80B588B0FA
:1039A00000AF0346FB714FF00003FB824FF00003B2
:1039B0003B7370E0397B4EF2A422C1F6FF720B46D6
:1039C0004FEA43030B444FEA830313444FF00002D2
:1039D0001A70397B4EF2A422C1F6FF720B464FEAF1
:1039E00043030B444FEA830313444FF000029A70E1
:1039F000397B4EF2A422C1F6FF720B464FEA430315
:103A00000B444FEA830313444FF000025A70397B92
:103A10004EF2A422C1F6FF720B464FEA43030B4459
:103A20004FEA830313444FF00002DA70397B4EF201
:103A3000A422C1F6FF720B464FEA43030B444FEA40
:103A4000830313444FF000025A71397B4EF2A422D3
:103A5000C1F6FF720B464FEA43030B444FEA830360
:103A6000134403F108034FF000021A80397B4EF231
:103A7000A422C1F6FF720B464FEA43030B444FEA00
:103A80008303134403F108034FF000029A703B7B59
:103A900003F101033B733B7B082B8BD9FB79002B94
:103AA0001AD04FF00003BB7313E0BA7B4EF28423AD
:103AB000C1F6FF734FF000019954BA7B4EF21033F8
:103AC000C1F6FF734FF000019954BB7B03F1010372
:103AD000BB73BB7B002BE8D04EF29923C1F6FF737A
:103AE0001B78DBB2002B00F071814EF29923C1F6F6
:103AF000FF731B78DBB203F1FF33DBB2184600F033
:103B000019FB0346BB61BB695B683B613B6903F121
:103B100007031B7803F04003002B0ED04EF29723CF
:103B2000C1F6FF731B78DBB243F00103DAB24EF249
:103B30009723C1F6FF731A700DE04EF29723C1F67A
:103B4000FF731B78DBB21A4602F0FE024EF2972397
:103B5000C1F6FF731A70BB6903F10803BB61BB694F
:103B60001B783B734FF00103BB73CBE0BB695B6811
:103B7000FB614FF000037B73BBE0BA7BFB699B7872
:103B800003F07F039A4240F0AC80B97B4EF2A4224E
:103B9000C1F6FF720B464FEA43030B444FEA83031F
:103BA000134403F108031B889AB2FB699B889A426D
:103BB00011D2B97BFB6998884EF2A422C1F6FF723C
:103BC0000B464FEA43030B444FEA8303134403F1CC
:103BD000080302461A80FB691B781A464EF28423BA
:103BE000C1F6FF739B5CDAB2FB695B789A4278D1CD
:103BF000FB69DB7803F00303012B14BF00230123CF
:103C0000FB73FB699B785BB2002B25DAB97B4EF224
:103C1000A422C1F6FF720B464FEA43030B444FEA5E
:103C2000830313444FF001025A70B87BFB7B002BD7
:103C300002D04FF0070101E04FF00D014EF2A42237
:103C4000C1F6FF7203464FEA430303444FEA83037E
:103C500013440A465A7124E0B97B4EF2A422C1F6FD
:103C6000FF720B464FEA43030B444FEA83031344AE
:103C70004FF000025A70B87BFB7B002B02D04FF054
:103C8000050101E04FF009014EF2A422C1F6FF72D6
:103C900003464FEA430303444FEA830313440A46AF
:103CA0005A71B97BFB6998784EF2A422C1F6FF7273
:103CB0000B464FEA43030B444FEA83031344024687
:103CC0001A71B97BFB69D8784EF2A422C1F6FF7253
:103CD0000B464FEA43030B444FEA83031344024667
:103CE0001A707B7B03F101037B73FB6903F108030B
:103CF000FB617A7B3B7B9A42FFF43FAFBB7B03F1D6
:103D00000103BB73BB7B082B7FF630AFBB695B68DD
:103D1000FB614FF00003BB731CE0FB699B7803F071
:103D20007F01FB6918784EF2A422C1F6FF720B46A0
:103D30004FEA43030B444FEA8303134403F10803A0
:103D400002469A70BB7B03F10103BB73FB6903F16D
:103D50000803FB61BA7B3B7B9A42DED300F014FA86
:103D600002464EF2A023C1F6FF731A604FF0010322
:103D70003B7326E0397B4EF2A422C1F6FF720B465C
:103D80004FEA43030B444FEA8303134403F1060352
:103D9000FA8A1A80397B4EF2A422C1F6FF720B46D2
:103DA0004FEA43030B444FEA8303134403F1080330
:103DB0001B889AB2FB8A1344FB823B7B03F101030D
:103DC0003B733B7B082BD5D9FFF7E4FC07F12007B9
:103DD000BD4680BD80B584B000AF4EF29923C1F6D8
:103DE000FF731B78DBB2002B00F09F814EF299230A
:103DF000C1F6FF731B78DBB203F1FF33DBB2184669
:103E000000F098F90346BB60BB6803F10803BB6090
:103E1000BB681B78FB70BB685B68FB604FF00003FE
:103E20007B717DE1FB681B781A464EF28423C1F654
:103E3000FF739B5CDAB2FB681B7819464EF21033B5
:103E4000C1F6FF735B5CDBB29A4200F06181FB68F4
:103E50001B781A464EF28423C1F6FF739B5CDAB2DC
:103E6000FB685B789A4240F05381FB681A7846F20F
:103E70000403C4F200031B78DBB29A4240F048818D
:103E8000FB689B7803F07F033B713B7903F1FF33C1
:103E9000DBB24FEA0313FB71FB68DB7803F003032B
:103EA000012B14BF00230123BB71FB689B785BB21D
:103EB000002B25DA39794EF2A422C1F6FF720B46A7
:103EC0004FEA43030B444FEA830313444FF00102CC
:103ED0005A703879BB79002B02D04FF0070101E00E
:103EE0004FF00D014EF2A422C1F6FF7203464FEAD5
:103EF000430303444FEA830313440A465A7124E000
:103F000039794EF2A422C1F6FF720B464FEA430301
:103F10000B444FEA830313444FF000025A70387980
:103F2000BB79002B02D04FF0050101E04FF00901F1
:103F30004EF2A422C1F6FF7203464FEA4303034444
:103F40004FEA830313440A465A71FA7946F20E0384
:103F5000C4F2000313444FF001021A703979FB6870
:103F600098884EF2A422C1F6FF720B464FEA430333
:103F70000B444FEA8303134403F1080302461A80FB
:103F80003979FB6898784EF2A422C1F6FF720B468D
:103F90004FEA43030B444FEA8303134402461A716A
:103FA0003979FB68D8784EF2A422C1F6FF720B462D
:103FB0004FEA43030B444FEA8303134402461A704B
:103FC00039794EF2A422C1F6FF720B464FEA430341
:103FD0000B444FEA830313444FF00002DA70FA797E
:103FE00046F20C03C4F20003134438794EF2A421C4
:103FF000C1F6FF7102464FEA420202444FEA8202D2
:104000000A4402F10802128892B24FEA122292B2D6
:10401000D2B21A70FA7946F20D03C4F200031344C7
:1040200038794EF2A421C1F6FF7102464FEA4202EE
:1040300002444FEA82020A4402F10802128892B254
:10404000D2B21A70FA7946F28603C4F2000313441E
:1040500038794EF2A421C1F6FF7102464FEA4202BE
:1040600002444FEA82020A4402F10602128892B226
:10407000D2B21A70FA7946F28703C4F200031344ED
:1040800038794EF2A421C1F6FF7102464FEA42028E
:1040900002444FEA82020A4402F10602128892B2F6
:1040A0004FEA122292B2D2B21A70FA7946F284031F
:1040B000C4F20003134438794EF2A421C1F6FF7113
:1040C00002464FEA420202444FEA82020A4402F1E7
:1040D0000602128892B2D2B21A70FA7946F28503B9
:1040E000C4F20003134438794EF2A421C1F6FF71E3
:1040F00002464FEA420202444FEA82020A4402F1B7
:104100000602128892B24FEA122292B2D2B21A700A
:104110007B7903F101037B71FB6803F10803FB600A
:104120007A79FB789A42FFF47DAE07F11007BD461D
:1041300080BD00BF80B584B000AF0346FB7100F0C6
:104140000FF80346FB60FB7903F101034FEAC3025A
:10415000FB6813445B68184607F11007BD4680BD35
:1041600080B400AF4EF29423C1F6FF731B78DBB22C
:1041700044F64C42C0F200024FEAC30313445B68AA
:104180001846BD4680BC704780B582B000AF4EF285
:104190009923C1F6FF731B78DBB203F1FF33DBB267
:1041A0001846FFF7C7FF03463B603B685B6803F1B7
:1041B00004031B78FB713B6803F110033B60FB7940
:1041C0004FEAC3033A6813443B603B685B68184698
:1041D00007F10807BD4680BD80B582B000AF4FF043
:1041E0000003FB7146F20403C4F200031B78DBB248
:1041F00003F07F037B717B7903F1FF33DBB24FEA7E
:104200000313BB717B79002B77D07B79082B74D893
:10421000797978794EF2A422C1F6FF7203464FEA0B
:10422000430303444FEA830313449B78DBB243F018
:104230000103D8B24EF2A422C1F6FF720B464FEA38
:1042400043030B444FEA8303134402469A7079797F
:104250004EF2A422C1F6FF720B464FEA43030B4411
:104260004FEA830313444FF00002DA7079797879CA
:104270004EF2A422C1F6FF7203464FEA4303034401
:104280004FEA830313445B78DBB243F00203D8B2F6
:104290004EF2A422C1F6FF720B464FEA43030B44D1
:1042A0004FEA8303134402465A7079794EF2A422EE
:1042B000C1F6FF720B464FEA43030B444FEA8303F8
:1042C00013441B79DBB25BB2002B09DABA7946F2F0
:1042D0000E03C4F2000313446FF072021A7008E078
:1042E000BA7946F20E03C4F2000313446FF076026B
:1042F0001A70FEF73DFB0346FB71FB79184607F188
:104300000807BD4680BD00BF80B582B000AF4FF04A
:104310000003FB7146F20403C4F200031B78DBB216
:1043200003F07F037B717B7903F1FF33DBB24FEA4C
:104330000313BB717B79002B00F0BC807B79082BC9
:1043400000F2B880787979794EF2A422C1F6FF7232
:104350000B464FEA43030B444FEA830313449B7815
:10436000DBB21A4602F0FE024EF2A421C1F6FF7142
:1043700003464FEA430303444FEA83030B449A7016
:1043800079794EF2A422C1F6FF720B464FEA43033D
:104390000B444FEA830313444FF00002DA70BA79FA
:1043A00046F20C03C4F200031344B97946F20C023E
:1043B000C4F200020A441278D2B202F07F021A70EC
:1043C000787979794EF2A422C1F6FF720B464FEA52
:1043D00043030B444FEA830313445B78DBB21A4672
:1043E00002F0FD024EF2A421C1F6FF7103464FEA2E
:1043F000430303444FEA83030B445A7079794EF226
:10440000A422C1F6FF720B464FEA43030B444FEA66
:10441000830313441B79DBB25BB2002B23DA797977
:104420004EF2A422C1F6FF720B464FEA43030B443F
:104430004FEA830313445B78DBB2012B09D1BA79CD
:1044400046F20E03C4F2000313444FF00C021A703C
:104450002CE0BA7946F20E03C4F2000313444FF085
:104460000D021A7022E079794EF2A422C1F6FF7291
:104470000B464FEA43030B444FEA830313445B7834
:10448000DBB2012B09D1BA7946F20E03C4F2000364
:1044900013444FF008021A7008E0BA7946F20E038E
:1044A000C4F2000313444FF009021A70FEF760FAD9
:1044B0000346FB71FB79184607F10807BD4680BD2E
:1044C00080B584B000AF4FF00103BB7146F2040326
:1044D000C4F200031B78FB714EF29923C1F6FF73FF
:1044E0001B78DBB203F1FF33DBB21846FFF722FE85
:1044F0000346BB60BB685B6803F104031B78FB7376
:10450000FA79FB7B9A4202D2FB79002B03D04FF061
:104510000003BB7118E0FA79F9794EF28423C1F6F1
:10452000FF735B5CD9B24EF21033C1F6FF7399543E
:10453000FA7946F20203C4F200031B78D9B24EF2B4
:104540008423C1F6FF739954BB79184607F110070D
:10455000BD4680BD80B483B000AF4FF00003FB7157
:1045600046F20003C4F200031B78DBB25BB2002BFF
:1045700004DA46F20103C4F200031B78FB79184603
:1045800007F10C07BD4680BC704700BF80B582B004
:1045900000AF4FF00003BB714FF00003FB7146F218
:1045A0000003C4F200031B78DBB203F00303012B0A
:1045B00002D0022B07D01DE046F20403C4F2000330
:1045C0001B78FB7116E046F20403C4F200031B786B
:1045D000DBB203F07F014EF2A422C1F6FF720B465C
:1045E0004FEA43030B444FEA8303134403F10803E8
:1045F0009B78FB714EF2A023C1F6FF731A68FB791A
:1046000013441B78032B03D1FEF7D6FA0346BB7184
:10461000BB79184607F10807BD4680BD032A2DE97E
:10462000F0070BD83AB1002311F803C000F803C01B
:1046300001339342F8D1BDE8F007704782180C4669
:10464000034603E014F8011C03F8011C03F0030601
:104650001946A44601330134002EF3D11CF00304A3
:10466000634608BFC1EB020C68D06542C4F1040A7E
:104670000CEB050733464FEACA0A5CF805604FEABF
:10468000C408551A08E057F8044F264604FA0AF4FD
:1046900049EA0404CC5004335C18032D26FA08F9C7
:1046A000A5F104050CEB0306EDDC002302E0F15C50
:1046B000E154013319199142F9D3BCE753F8404C46
:1046C00041F8404C53F83C4C41F83C4C53F8384CC2
:1046D00041F8384C53F8344C41F8344C53F8304CD2
:1046E00041F8304C53F82C4C41F82C4C53F8284CE2
:1046F00041F8284C53F8244C41F8244C53F8204CF2
:1047000041F8204C53F81C4C41F81C4C53F8184C01
:1047100041F8184C53F8144C41F8144C53F8104C11
:1047200041F8104C53F80C4C41F80C4C53F8084C21
:1047300041F8084C53F8044C41F8044C1C460D4613
:1047400040334031BCF13F0FACF1400CB6DC2146A8
:104750002B46541B0FE051F8105C43F8105C51F8E5
:104760000C5C43F80C5C51F8085C43F8085C51F8A9
:10477000045C43F8045C0F2C0D469C4601F11001CB
:1047800003F11003A4F11004E5DCCCEB02010023DB
:1047900003E0EC584CF8034004335E19032903EBA3
:1047A0000C04A1F10401F4DC7FE700BF032AC9B2C5
:1047B00030B407D822B10023C15401339342FBD156
:1047C00030BC704700EB020C034601E003F8011C0B
:1047D00003F003041A460133002CF7D14FF00133E4
:1047E000C2EB0C0403FB01F31FE042F8403C42F82B
:1047F0003C3C42F8383C42F8343C42F8303C42F809
:104800002C3C42F8283C42F8243C42F8203C42F838
:104810001C3C42F8183C42F8143C42F8103C42F868
:104820000C3C42F8083C42F8043C154640323F2C10
:10483000A4F14004D9DC2A46C5EB0C0407E042F899
:10484000103C42F80C3C42F8083C42F8043C154647
:1048500010320F2CA4F11004F1DC2A46C5EB0C0534
:1048600001E042F8043C14460432032DA5F104058E
:10487000F7DC01E004F8011B6445FBD3A0E700BFAF
:1048800008B500F017F8074800B10068064901B103
:1048900009680022FBF702FC044B0BB1AFF3008068
:1048A000FEE700BF00000000000000000000000064
:1048B000FEE7000070B544F6604644F66045C0F27D
:1048C0000006C0F20005761BB61006D0002455F88D
:1048D000243001349847A642F9D844F6604544F69E
:1048E0006846C0F20005C0F20006761B00F0B2F97F
:1048F000B61006D0002455F8243001349847A6425B
:0C490000F9D870BD00000000FFFFFFFFB1
:10490C006950102E000A0101005100402000405156
:10491C0000403000C0510040100000000140001069
:10492C0000140140000800400140000A004C014006
:10493C00000200500140200001450040035200409D
:10494C0001650040011501403D1601401F17014053
:10495C000119014003400140024101400242014063
:10496C00024301400347014003480140054901400F
:10497C00024C014002500140015101407E021410D2
:10498C0019027C40872DAA401001340138023E10D8
:10499C004010410549FF4AFF4BFF4DA04F045018F2
:1049AC0058045A045F01604062C06440654066C0B0
:1049BC0068C06AC06CC06EC0880492019301A407E1
:1049CC00A807B001B202B604B701C010C105C5D228
:1049DC00C721C83BC9FFCAFFCBFFCDAFCE0FCF0459
:1049EC00D018D280D425D804D904DA04DB04DF0132
:1049FC00E040E2C0E440E540E6C0E8C0EAC0ECC0FC
:104A0C00EEC0001009020E801028181019401A80F0
:104A1C001C041E8020012180310240014580490583
:104A2C004A024E0250285202594560047102C002DB
:104A3C00C218C406CC01D018D218D60BD804EE0A72
:104A4C00EE0A33803640CC30A640A780A640A78023
:104A5C00A640A78008080F40C20CAE40AF80EE50B5
:104A6C005B409B40AB40D480EE80AC08AF40100163
:104A7C001A01000A0000000000000000C000000045
:104A8C0010001000000000000000000000020200F6
:104A9C000200000030313233343536373839414278
:104AAC00434445461201000200000008B4043BF1E7
:104ABC0000010104800100000902290001010280AB
:104ACC00FA0904000002030000030921110100018E
:104ADC002224000705010340000107058203400062
:104AEC0001000000040309042C034300790070004A
:104AFC0072006500730073002000530065006D00A8
:104B0C00690063006F006E00640075006300740040
:104B1C006F0072002A0343006F006E00660069008C
:104B2C006700750072006100740069006F006E0010
:104B3C0020003000780030003000300031002203BB
:104B4C0049006E007400650072006600610063002D
:104B5C00650020003000780030003000300031005B
:104B6C0026034B0069007400500072006F00670050
:104B7C00200042006F006F0074006C006F00610039
:104B8C00640065007200000002030000240005FFB1
:104B9C000900A1010900A1010900150025FF7508F4
:104BAC00954091020900150025FF7508954081027A
:104BBC00C0C000004100000030E3FF1F2CE3FF1FCA
:104BCC004100000074E3FF1FB8E3FF1F000000006A
:104BDC00C04B000000000000CC4B000000000000A7
:104BEC000000000001000000984B000001000000D4
:104BFC00D64A000001000000D84B00000000010361
:104C0C00400003000000820340000300030000008A
:104C1C0001000000C44A000002000000084C000023
:104C2C0001000000004C000000000000184C0000C7
:104C3C0001000000B04A0000010000001C4C000004
:104C4C00010000003C4C0000F8B500BFF8BC08BCEB
:104C5C009E46704781000000C9010000F8B500BFF6
:104C6C00F8BC08BC9E4670476D00000000000000B8
:104C7C00904C000008E1FF1F40000000780200008B
:044C8C000000000024
:104C90000000000000366E01C05D0000180000003A
:104CA0000000E02E04490000084900002203000033
:104CB00000000000000000000000000000000000F4
:104CC00000000000000000000000000000000000E4
:04000003000001A157
:00000001FF
