:104D000000200020E5670000E1670000E167000087
:104D100080B51448144B21E05C689968DD688C42CA
:104D20000CD0002205E0A6180832D6E9008941E936
:104D300002898C460831AA42F5D101E004EB050C4A
:104D40001C696146002204E008320026002741E980
:104D500002670831A242F7D1143301380028DBD1B1
:104D600005F014FC01000000F0B200004EF27013D8
:104D7000C1F6FF731A780AB901201870704700BF96
:104D80004EF20810C1F6FF7008B503682BB140F26F
:104D90000003C0F2000303B1984708BD10B562B626
:104DA00001F0D2FA01F062F801F02EF900F052F8A9
:104DB00001F04AFC01F059FC254B00221A70012039
:104DC00002F01CFC03F0A2FB0028FBD0204B1B7858
:104DD00018464BB9022103F0BBFC05F09FF805F023
:104DE00017F801E001F0EEFB03F0D0FA0028F9D04B
:104DF000002002F003FC022003F040FB042003F03B
:104E00003DFB01F02AFC124B00221A700CE001F06D
:104E100033F900F0D9FF01F031FC01F0D3FB03F0CE
:104E2000BBFA08B10123237003F070FB18B1084CE2
:104E30002378002BEBD000F03BF8054B1B78002BC0
:104E4000BDD103F04FFA05F00FF804F0D7FFB6E735
:104E500071E1FF1F104A00231370104A21211170C5
:104E60000F4A13700F4A137053709370D3700E4B28
:104E70001A7802F0F10242F002021A70013B1A782D
:104E800002F0F10242F002021A70084A0123137084
:104E900004321370704700BF67E3FF1F70E3FF1F0A
:104EA00066E3FF1F6CE3FF1F1150004000240A421D
:104EB0000A4B1A7802F0F10242F002021A70013332
:104EC0001A7802F0F10242F002021A7003331A78E3
:104ED00002F0F10242F002021A70704710500040D6
:104EE000094B1A7802F0F10242F002021A70074BE5
:104EF00000221A7000BF00BF00BF01321A7000BF4D
:104F000000BF00BF704700BF1050004004240A4299
:104F100010B50E4B4FF0000C1A780D4802F0F1025C
:104F200042F002021A700B4B0B4983F800C0027862
:104F30000A7001221A7083F800C004784C701A704D
:104F400083F800C0007888701A7010BD10500040BF
:104F500020240A4204240A4272E1FF1F420812F090
:104F6000010F00F0010301D00133DBB2520812F04F
:104F7000010F01D00133DBB2520812F0010F01D052
:104F80000133DBB2520812F0010F01D00133DBB262
:104F9000520812F0010F01D00133DBB2520812F0B7
:104FA000010F01D00133DBB2520801D00133DBB273
:104FB0001846704710B51D4B1D4A18701D4B002038
:104FC000187012781C491D4C0A7001221A70187052
:104FD00094F800C0043481F800C01A70187094F876
:104FE00000C0043481F800C01A70187094F800C032
:104FF000043481F800C01A70187094F800C00434AA
:1050000081F800C01A70187094F800C0043481F858
:1050100000C01A70187094F800C081F800C01A70AF
:1050200018700748007808701A7010BD0001002041
:105030000020002204240A4200240A420420002204
:105040001C20002270B50C4B451C1A78044602F057
:10505000F10242F00C021A700078FFF7ABFF6078A3
:10506000FFF7A8FF6878FFF7A5FF6E1C7078BDE812
:105070007040FFF79FBF00BF1050004010B54C4B71
:105080004C4C00221A70237803F0F10343F00C0318
:10509000237000BF00BF484B1A7000BF00BF00BFA5
:1050A0000121197000BF00BF00BF1A7000BF00BF10
:1050B00000BF197000BF00BF00BF1A7000BF00BF63
:1050C00000BF197000BF00BF00BF1A7000BF00BF53
:1050D00000BF197000BF00BF00BF1A7000BF00BF43
:1050E00000BF197000BF00BF00BF1A7000BF00BF33
:1050F00000BF197000BF00BF00BF1A7000BF00BF23
:1051000000BF197000BF00BF00BF1A7000BF00BF12
:1051100000BF197000BF00BF00BF1A7000BF00BF02
:1051200000BF197000BF00BF00BF1A7000BF00BFF2
:1051300000BF197000BF00BF00BF1A7000BF00BFE2
:1051400000BF197000BF00BF00BF1A7000BF00BFD2
:1051500000BF197000BF00BF00BF1A7000BF00BFC2
:1051600000BF197000BF00BF00BF1A7000BF00BFB2
:1051700000BF197000BF00BF00BF1A7000BF00BFA2
:1051800000BF197000BF00BF00BF1A7000BF00BF92
:1051900000BF197000BF00BF00BF1A7000BF00BF82
:1051A00000BF197000BF00BF00BF1A7000BF05E04C
:1051B00000240A421050004004240A4200BF00BFED
:1051C000197000BF00BF00BF1A7000BF00BF00BF52
:1051D000197000BF00BF00BF1A7000BF00BF00BF42
:1051E000197000BF00BF00BF054B1878FFF7E2FE43
:1051F000237803F0F10343F00203237010BD00BFD6
:1052000067E3FF1F10B51E4B00201E49187091F870
:1052100000C01D4A1D4C82F800C001221A7018708F
:1052200091F800C084F800C01A70187091F800C09E
:10523000043484F800C01A70187091F800C0043467
:1052400084F800C01A70187091F800C0043484F813
:1052500000C01A70187091F800C0043484F800C0BF
:105260001A70187091F800C0043484F800C01A70E5
:1052700018700878064908701A70064B187810BD27
:1052800004240A4220240A42002000220420002292
:105290001C2000220001002038B50C4B05461A786E
:1052A0002C4602F0F10242F002021A70FFF7AAFF48
:1052B00004F8010BFFF7A6FF6870FFF7A3FF60700B
:1052C000FFF7A0FF651C687038BD00BF105000409C
:1052D000F8B5451C04460078FFF740FE07466078A5
:1052E000FFF73CFEC4196878FFF738FE6E1CE4B285
:1052F00024187078FFF732FEE4B2201800F00100A5
:10530000F8BD70B505460C46012003F04FF80128A2
:10531000FAD12946A2B2BDE8704003F065B800009A
:10532000F8B5138815461FB21AB21D4B002FB8BF2F
:105330003F3702EA0303BF11002B0446BFB205DA70
:10534000013B6FEA83636FEA936301332B8000268E
:1053500006E000B220184021FFF7D3FF0136B6B2B5
:1053600032B23BB2B0019A4280B2F2DB0D4B00B2D6
:10537000DB780BB920180CE02018B5F90010FFF706
:10538000C0FF4FF000032B80F8BD10F8012CE25451
:105390000133B5F900101AB201309142F5DCF8BDC5
:1053A0003F00008072E1FF1FF8B5054602200E465F
:1053B000174603F003F833880446C3183B80B6F958
:1053C000001022466918022003F06CF824B2022073
:1053D00003F054F83F2C034B01DC012200E00022D3
:1053E000DA70F8BD72E1FF1F70B5044601F03CFAB7
:1053F0003C4E002333700546FFF740FEFFF770FD7B
:10540000FFF786FD384B99785A78890041EA4201C6
:105410001A7841EA0203354ADBB21370013B032BD1
:1054200049D8DFE803F0022C022C2046FFF734FFB6
:105430002F4B00221A702F4A167801221A70FFF79C
:105440004FFD2046FFF744FFB04204D0254B1A78A9
:1054500042F008021A70284B1A7802F0F10242F06A
:1054600002021A70254A01231370043213701D4B77
:105470001E4A11781A7841EA02021A702DE0FFF7ED
:105480002FFD0023224602F8013B511C637053702C
:105490004B70194B1A7802F0F10242F002021A70B6
:1054A000164A0123137004321370104B1A783378A4
:1054B00042EA030310E0FFF713FD0F4B1A7802F0E6
:1054C000F10242F002021A700C4A012313700432F6
:1054D0001370337843F0070333702846BDE87040FB
:1054E00001F0C6B970E3FF1F72E1FF1F66E3FF1F03
:1054F00004240A4220240A421050004000240A4298
:1055000038B500230B704B708B70CB700B71027829
:105510000A4B0C461A700A25013D2046EDB2FFF7F2
:1055200063FF2DB1064B1B7803F00703072BF3D065
:10553000034B1B7843F02003237138BD67E3FF1F43
:1055400070E3FF1F2DE9F041074601F08DF93C4D56
:105550000023804638462B70FFF7BAFE0646FFF759
:105560008DFDFFF7BDFCFFF7D3FC364B364C997829
:105570005A78890041EA42011A7841EA020323700D
:10558000FFF7AEFC2478022C34D0042C32D0012C4E
:1055900041D13846FFF756FD16B12C4B1C7001E087
:1055A0002A4B1E702A4B0021197000BF00BF00BF9C
:1055B00001221A7000BF00BF00BF2448017019709B
:1055C00000BF00BF00BF1A7000BF00BF00BF21496D
:1055D00091F800C00CF0F10C4CF0020C81F800C006
:1055E00002701A70164B184A11781A7841EA0202B2
:1055F0001A7020E0174B1A7802F0F10242F0020212
:105600001A70124A01231370043213700C4B1A786B
:1056100014431C700FE00F4B1A7802F0F10242F0B5
:1056200002021A70094A01231370043213702B7896
:1056300043F007032B704046BDE8F04101F018B974
:1056400070E3FF1F72E1FF1F66E3FF1F00240A42A1
:1056500004240A421050004070B50C4B02780446F6
:105660000E461A700A25013D601CEDB2FFF76AFF75
:105670002DB1074B1B7803F00703072BF3D0044B26
:105680001B7843F02003337070BD00BF67E3FF1F3A
:1056900070E3FF1F2DE9F047DDF820A004460D461A
:1056A00016469846002741E0E018E35C13F0040337
:1056B00013D0B8F9001001376918FFF721FFB8F8C7
:1056C00000300533A8F80030BBB2BAF80070BB4216
:1056D0000ABF00219FB2318028E01FFA87F9C9EB89
:1056E000020292B2571FBFB217F4004F0AD003E074
:1056F00010F8011CE154013339B2043101309942F0
:10570000F6DA0DE0B8F900106918FFF7A5FFB8F850
:1057100000300133A8F800302FB93780BDE8F0879A
:105720003280BDE8F08709F10507BFB2BAF8002062
:105730003BB211B28B42B7DBBDE8F08707B50A4830
:105740000A490B4AFFF730FE094B07480093094905
:10575000064A094BFFF79EFF06480449064A03B074
:105760005DF804EBFFF7DCBD74E3FF1F68E3FF1F88
:1057700064E3FF1FE4E1FF1FE0E1FF1F10B54F4BA3
:105780004F4C1A7802F0F10242F00C021A7001F04C
:105790006BF84C4B01221A702378002103F0F103BF
:1057A00043F00C032370484B197000BF00BF00BFCB
:1057B0001A7000BF00BF00BF197000BF00BF00BF5C
:1057C0001A7000BF00BF00BF197000BF00BF00BF4C
:1057D0001A7000BF00BF00BF197000BF00BF00BF3C
:1057E0001A7000BF00BF00BF197000BF00BF00BF2C
:1057F0001A7000BF00BF00BF197000BF00BF00BF1C
:105800001A7000BF00BF00BF197000BF00BF00BF0B
:105810001A7000BF00BF00BF197000BF00BF00BFFB
:105820001A7000BF00BF00BF197000BF00BF00BFEB
:105830001A7000BF00BF00BF197000BF00BF00BFDB
:105840001A7000BF00BF00BF197000BF00BF00BFCB
:105850001A7000BF00BF00BF197000BF00BF00BFBB
:105860001A7000BF00BF00BF197000BF00BF00BFAB
:105870001A7000BF00BF00BF197000BF00BF00BF9B
:105880001A7000BF00BF00BF197000BF00BF00BF8B
:105890001A7000BF00BF00BF197000BF00BF00BF7B
:1058A0001A7000BF00BF00BF197000BF00BF00BF6B
:1058B0001A7000BF00BF00BF197007E01150004010
:1058C0001050004000240A4204240A4200BF00BFD6
:1058D00000BF1A7000BF00BF00BF197000BF00BF3B
:1058E00000BF1A7000BF00BF00BF197000BF00BF2B
:1058F00000BF1A7000BF00BF00BF197000BF00BF1B
:1059000000BF1A7000BF00BF00BF197000BF00BF0A
:1059100000BF1A7000BF00BF00BF197000BF00BFFA
:1059200000BF1A7000BF00BF00BF197000BF00BFEA
:1059300000BF1A7000BF00BF00BF197000BF00BFDA
:1059400000BF1A7000BF00BF00BF197000BF00BFCA
:1059500000BF1A7000BF00BF00BF197000BF00BFBA
:1059600000BF1A7000BF00BF00BF197000BF00BFAA
:1059700000BF1A7000BF00BF00BF197000BF00BF9A
:1059800000BF1A7000BF00BF00BF197000BF00BF8A
:1059900000BF1A7000BF00BF00BF197000BF00BF7A
:1059A00000BF1A7000BF00BF00BF197000BF00BF6A
:1059B00000BF1A7000BF00BF00BF197000BF00BF5A
:1059C00000BF1A7000BF00BF00BF197000BF00BF4A
:1059D00000BF1A7000BF00BF00BF197000BF00BF3A
:1059E00000BF1A7000BF00BF00BF197000BF00BF2A
:1059F00000BF1A7000BF00BF00BF197000BF00BF1A
:105A000000BF1A7000BF00BF00BF197000BF00BF09
:105A100000BF1A7000BF00BF00BF197000BF00BFF9
:105A200000BF1A7000BF00BF00BF197000BF00BFE9
:105A300000BF1A7000BF00BF00BF197000BF00BFD9
:105A400000BF1A7000BF00BF00BF197000BF00BFC9
:105A500000BF1A7000BF00BF00BF197000BF00BFB9
:105A600000BF1A7000BF00BF00BF197000BF00BFA9
:105A700000BF1A7000BF00BF00BF197000BF00BF99
:105A800000BF1A7000BF00BF00BF197000BF00BF89
:105A900000BF1A7000BF00BF00BF197000BF00BF79
:105AA00000BF1A7000BF00BF00BF197000BF00BF69
:105AB00000BF1A7000BF00BF00BF197000BF00BF59
:105AC00000BF1A7000BF00BF00BF197000BF00BF49
:105AD00000BF1A7000BF00BF00BF197000BF00BF39
:105AE00000BF1A7000BF00BF00BF197000BF00BF29
:105AF00000BF1A7000BF00BF00BF197000BF00BF19
:105B000000BF1A7000BF00BF00BF197000BF00BF08
:105B100000BF1A7000BF00BF00BF197000BF00BFF8
:105B200000BF1A7000BF00BF00BF197000BF00BFE8
:105B300000BF1A7000BF00BF00BF197000BF00BFD8
:105B400000BF1A7000BF00BF00BF197000BF00BFC8
:105B500000BF1A7000BF00BF00BF197000BF00BFB8
:105B600000BF1A7000BF00BF00BF197000BF00BFA8
:105B700000BF1A7000BF00BF00BF00F079FE23789D
:105B800003F0F10343F00203237010BD2DE9F74F3A
:105B90008346894600F068FE642782464FF000087D
:105BA000B6E0BBF1000F27D15E4C64202378642758
:105BB00003F0F10343F00C032370237803F0FE039A
:105BC0002370594B1A7802F0F10242F00C021A705D
:105BD000013B1A7802F0F10242F00C021A70534AAB
:105BE000012313700432137000F0DEFF237803F0FA
:105BF000F10343F002032370FFF7C0FD4C4800237C
:105C000003704C4B6FF05A021A70FFF7EDFB013F27
:105C1000494BBFB21B781FB103F00F03012BEBD12F
:105C20006FF056030DF1070500248DF8003068462B
:105C3000AB3329468DF804308DF801408DF80240D1
:105C40008DF80340FFF708FD9DF807306E4603F01E
:105C50000703012B58D1503B684629468DF8003088
:105C60008DF801408DF802408DF803408DF8044016
:105C7000FFF7F2FC9DF8073003F00703012B43D137
:105C80005E3B8DF8003068465F3329468DF8013061
:105C90008DF802408DF803408DF80440FFF7DCFCDE
:105CA0009DF8073003F00703012B2DD1763B8DF8CB
:105CB000003089338DF80130113B8DF80330684690
:105CC0003D3329468DF804308DF80240FFF7C4FCBF
:105CD0009DF8073003F00703012B15D1463B8DF8E3
:105CE000003068463B3B29468DF801408DF8024064
:105CF0008DF803408DF80430FFF7AEFC9DF80740A7
:105D000004F00704012C07D008F101085FFA88F8B5
:105D1000C845FFF446AF0024504600F0A9FD2046D8
:105D2000BDE8FE8F145000401150004000240A428C
:105D30006CE3FF1F67E3FF1F70E3FF1F10B5094B04
:105D40001878597810F00F0408D10009FFF71EFFEA
:105D5000054B01280CBF18701C7010BD024B0022AF
:105D60001A7010BDFCE3FF1FB8E3FF1F10B50C4C09
:105D70004FF4C870237803F0F10343F00C03237051
:105D8000237803F0FE03237000F00EFF237803F066
:105D9000F10343F002032370BDE81040FFF788B819
:105DA0001450004008B500F023FCB0F57A7F054B95
:105DB00001D9402200E00022DA70024B00221A7161
:105DC00008BD00BFB8E3FF1F10B5214B1B78002BA7
:105DD00031D0402B11D004D8012B08D0042B25D171
:105DE00008E0422B1AD010D3432B1FD119E0FFF744
:105DF000D9FF1BE0FFF7BAFF18E0164B1A78164BD5
:105E0000012A18BF00221A7010E0144B4FF0000254
:105E10001A80134B1A80134B1A8007E0FFF78EFF8E
:105E200004E00C4B1B780BB9FFF7A8FC084A0023D1
:105E300013700D4A1370022002F058FB38B1064B64
:105E40001B78012B03D1BDE81040FFF777BC10BDD4
:105E5000F8E3FF1FFCE3FF1F0CE1FF1F68E3FF1FD8
:105E6000E0E1FF1F64E3FF1FF9E3FF1F024A002385
:105E70001370024A13707047F8E3FF1FF9E3FF1F26
:105E800013B51B4A1378012B1A4B03D14FF00002B4
:105E90001A802CE0184919480978007801EB002194
:105EA00089B2198016490878012802D1154A5A602A
:105EB0001DE0097802291AD10DF107015960124B32
:105EC0001249187801331B78114C0B7011490728BF
:105ED00091F800C0104981F800C094F800C081F822
:105EE00001C004D11BB10D490B70012313701CBDFF
:105EF000F9E3FF1FBCE6FF1F06600040076000409B
:105F000001600040B8E3FF1F02600040FAE3FF1F9A
:105F10000560004004600040FCE3FF1FF8E3FF1F42
:105F2000074B1A7802F0F10242F002021A70013BAC
:105F30001A7802F0F10242F002021A70704700BFB4
:105F400063500040024B1A7802F0FC021A7070474E
:105F5000C6510040024B1A7842F003021A70704793
:105F6000C651004008B501F0A9FE074B1A7802F0AF
:105F7000F10242F002021A70013B1A7802F0F102BB
:105F800042F002021A7008BD6150004038B501F0BD
:105F900095FEFFF7D7FF012002F054F9002002F030
:105FA0003DF9002402F05CF9054678B9013002F0B1
:105FB00035F9282000F0F8FD0134284602F02EF9CA
:105FC000E4B2282000F0F0FD322CEBD1002002F0EA
:105FD00039F9012002F022F9502000F0E5FD0120FE
:105FE00002F030F9502000F0DFFD02F039F90446EC
:105FF00020B102F01FF9041E18BF0124FFF7AAFF09
:1060000001F0B4FE204638BD10B5FFF7ABFF044BDE
:1060100000221A7001F06EFABDE8104001F0C2BD16
:1060200001E4FF1F08B5012003F0ACFE012003F0DE
:10603000B7FE074B1A7802F0F10242F00C021A7018
:1060400001331A7802F0F10242F00C021A7008BD16
:106050006250004010B5032002F0A8F90128FAD1DF
:1060600002300449402202F0BFF90420BDE810408C
:1060700002F004BA4CE6FF1F2DE9F047042002F0BD
:1060800035FA002800F05881042002F097F9914970
:10609000C2B2042002F006FA8E4B8F4D1C788F4856
:1060A0008F4F00224FF0020C14F020062A7059780E
:1060B00080F800C03A701CD004F00C0401F0FEFD22
:1060C0000C2C01D1032009E0042C01D1092005E0AA
:1060D0000CB9272002E0082C05D14F20012101F046
:1060E0001FFA804B1C7001F041FE7D4B01221A709B
:1060F0001CE114F0100F06D0FFF748FF01280CBF79
:1061000038703E7012E114F002067CD093F9023030
:10611000002B78DA00F06CFAB0F57A7F2B7801D991
:10612000052200E001226D4E6B4DFA54694F337821
:106130002A78FB5C0132D2B2802B2A7021D114F074
:10614000010F00F0F380664C7F3BA354D218654BDF
:10615000D2B21B78A35401322A7000F049FA624B84
:10616000002218802B78E0540133DBB2000AE0549F
:106170000133DBB2E2540133DBB2E25401332B7062
:10618000D4E0812B0DD15949554B097899540132EE
:10619000D2B2032199540132D2B201392A709954F2
:1061A000C4E0822B02D100F0ABFCBFE08F2B24D1E6
:1061B000FFF7D8FE33780133DBB2FC5C3370CCB927
:1061C000FFF730FF4A4B1A7802F0F10242F0080262
:1061D0001A70013B1A7802F0F10242F008021A70BC
:1061E00001F0C4FDFFF7D2FE424B3D4A1C702B78F4
:1061F000D4549BE0FFF794FE98E0A02B40F09680EB
:1062000003F01AFC92E03B4B01F03F051B78002B9A
:1062100040F08880DEB102F023F810B102F00AF8F5
:1062200050B901F04DFF0A2000F0BEFCFFF7AEFEB2
:1062300010B92B4A107070E001F040FD01F096FD9E
:10624000244B04F00101987801F0C8FE08E014F036
:10625000040F04F001010ED01E4B987801F0FAFEF5
:106260001F4BD0F1010638BF00266F1E1E70FFB213
:10627000002E52D006E000295CD0194B01266F1E7B
:106280001E70FFB214F0010F01D12F4643E0002D24
:1062900043D0B246B8460DE0012001F061FF104B3B
:1062A00008F1FF380AF803000AF1010A5FFA8AFAD6
:1062B0005FFA88F8B8F1000FEED1F71914F0080F63
:1062C00014BF4046012001F04BFF054EFFB2B85508
:1062D00023E000BF08E4FF1F00E4FF1F02E4FF1FEC
:1062E0004CE6FF1F49E6FF1F04E4FF1F76E1FF1F96
:1062F0006150004001E4FF1F104BF05C01F002FF11
:106300000F4BD0F1010038BF0020F05428B1013606
:10631000013FF6B2FFB2002FEED114F0080F01D00A
:1063200001F0CEFE074B1A78AD181D70BDE8F0479E
:10633000FFF790BE3746A5E7BDE8F0870AE4FF1FE8
:106340004CE6FF1F00E4FF1F2DE9F045734BDFF81B
:10635000E4A11A781A7C5B7C9AF80030DFF8D881C7
:1063600043F00E038AF8003098F800306C4F43F089
:106370000E0388F800303B786A4E43F00E033B7002
:106380003378694D43F00E0333702B78674C43F03C
:106390000E032B70237885B043F00E0323709AF818
:1063A00000300A2043F001038AF8003098F80030EA
:1063B00043F0010388F800303B7843F001033B7061
:1063C000337843F0010333702B7843F001032B70D3
:1063D000237843F00103237000F0EEFB9AF80030BD
:1063E0000A2003F010038DF8083098F8003003F00D
:1063F00010038DF809303B7803F010038DF80A3054
:10640000337803F010038DF80B302B7803F0100372
:106410008DF80C30237803F010038DF80D309AF8C6
:10642000003003F0FE038AF8003098F8003003F0E3
:10643000FE0388F800303B7803F0FE033B703378AE
:1064400003F0FE0333702B7803F0FE032B702378E8
:1064500003F0FE03237000F0AFFB9AF8003003F066
:1064600010038DF8003098F8003003F010038DF819
:1064700001303B7803F010038DF80230337803F0DD
:1064800010038DF803302B7803F010038DF80430DF
:10649000237803F010038DF805309AF8003003F0EC
:1064A000F10343F002038AF8003098F8003003F05B
:1064B000F10343F0020388F800303B7803F0F10366
:1064C00043F002033B70337803F0F10343F002031F
:1064D00033702B7803F0F10343F002032B70237821
:1064E00003F0F10343F00203237000231A4602A8CD
:1064F000C05C1DF8031010B909B9023100E0012198
:106500000139994001335218062BD2B2EFD1084B12
:10651000013A1A7005B0BDE8F08500BF10E1FF1F19
:1065200006500040075000401A5000401B500040E9
:1065300076E1FF1F0450004005500040054B1B78DA
:10654000012B0CBF41F2883340F6E4435843000B63
:1065500080B2704724E1FF1F10B500F0EFFDFFF798
:1065600085FCFFF751FDFEF775FC01F09FFA01F085
:1065700053F800F07AF803F0D1FC044B012200201C
:106580001A70BDE8104001F039B800BF71E1FF1F7B
:1065900001F0A4BA012010B501F030F803F064FC5A
:1065A00003F014FBFFF7F4FFFEF782FCFFF7DAFCC1
:1065B000FFF7B6FC00F0CAFE00204021BDE8104005
:1065C00000F04CBD08B5094B1B78012B0DD101F033
:1065D000D3FE38B902F03EFDFFF7DCFFFFF7BCFF4A
:1065E00002F0ACFD014B00221A7008BD78E1FF1FDC
:1065F00008B5012001F0CAFA002001F015F801F0F9
:106600002BF880B2FFF79AFF00EB400080B2400801
:1066100008BD000008B5002001F0B8FA002001F024
:1066200003F801F019F8064B80B2B0F57A7F588074
:10663000044B01D2012200E000221A7008BD00BF05
:1066400078E1FF1F24E1FF1F10B501F009FA00F007
:10665000E3FFBDE81040FFF7DDBF10B502F0A0F882
:106660000C20BDE8104001F003BE10B503F020FB84
:106670000220BDE8104001F0FBBD000030B591B034
:1066800002F078F800283FD002F084F8B0F5E13F3E
:106690001CD8B0F5966F28D3B0F5165F1CD009D87A
:1066A000B0F5166F1ED0B0F5965F18D0B0F5966FA6
:1066B0000CD11AE0B0F5164F0AD0B0F5614F03D0F7
:1066C000B0F5964F02D105E0342410E01A240EE014
:1066D0004E240CE09C240AE04FF49C7407E040F246
:1066E000712404E040F2E24401E040F6C41403F0F7
:1066F0006DFA601E80B2012101F06AFA03F0D8FA47
:1067000003F046FA03F028FA072001F04FFE68B1C3
:10671000072001F053FEC4B269460720224601F06B
:10672000C1FE684621466D4603F004FA03F09AF96B
:10673000802801D103F02CFA03F0A4F904460028C4
:1067400040D0062001F032FE01283BD11E4B402CE8
:1067500028BF40241B78E4B2002259B223EAE17337
:106760001A490132C85CD2B219490133A2420870F9
:10677000DBB2F2D3174A0439B2F84E00C0B2087047
:10678000B2F84E00013180B2000A087092F84B0056
:106790007939087001310C70B2F84E007931C0B20D
:1067A0000870B2F84E00013180B2000A0870002172
:1067B00082F8491092F84D00074A1070024A13708F
:1067C000064B197011B030BDD5E1FF1FE0E7FF1F88
:1067D000D8600040D8E6FF1F5E600040D7E1FF1F91
:1067E000FEE70000014B1A70FEF792FABC760040FB
:1067F000104A08B5104B1A6008331A6842F4007248
:106800001A6000231A46032A96BF0C490C48C85840
:106810000C490132C8500433302AF4D10A4B1A789B
:106820000A4B1A700A4B196003F0E0FB094B002277
:106830001A6008BD0004FA050CED00E0004D0000F0
:10684000E167000000E0FF1FBC7600408CE6FF1F00
:1068500008ED00E000E1FF1F0230800803D000BF18
:1068600001380046FCD17047EFF3108072B67047D4
:1068700080F31088704700BF024B1A7802F0FE02C6
:106880001A70704720420040024B1A7802F0EF0263
:106890001A707047A04300401F4B1B7813F0070F7E
:1068A00004D11E4B1B7813F0010F2DD11A4B1B780E
:1068B00003F00703012B04D1194B1B7813F0010FD0
:1068C00022D10023082826D8DFE800F00507090BAD
:1068D0000D0F25251300134B08E0134B06E0134B57
:1068E00004E0134B02E0134B00E0134B1A78134BF8
:1068F00008E0134A1178114A117063B1114B1A78EC
:1069000042F002021A7070470E4B1A7802F0FD0234
:106910001A700123D6E7704793430040A543004017
:10692000B543004008010049090100490A01004936
:106930000B010049890100490C010049A1460040B2
:106940000F01004909600040012807D011D3022837
:1069500014D10B4B1A7802F0BF0203E0084B1A78EF
:1069600042F040021A70074B1A7842F020021A7067
:106970007047044B1A7802F0DF021A70704700BFAC
:106980000040004000420040024B1A7842F01002E2
:106990001A70704700420040024B1A7802F0EF0272
:1069A0001A7070470042004070B5314B082814BF80
:1069B000064603261C78054604F00704022C07D07F
:1069C000032C03D0002C08BF022402E0002402E0C4
:1069D0000324A64202D32846FFF75EFF082D37D8CE
:1069E000DFE805F0050C13181F2736362E00204B64
:1069F0001A7802F0B80242F0030218E01C4B1A7831
:106A000002F0B80242F0010211E0194B1A7802F0CC
:106A1000B8020CE0164B1A7802F0B80242F00202FB
:106A200005E0134B1A7802F0B80242F004021A7023
:106A300013E00F4B1A7802F0B80242F00502F6E7B5
:106A40000B4B1A7802F0B80242F042021A7001E0D1
:106A5000082D02D1FFF798FF01E0FFF79DFFA64246
:106A600004D22846BDE87040FFF716BF70BD00BFD6
:106A700000420040044B00F003001A7802F0FC02D0
:106A800040EA02021A70704705400040014B18703E
:106A9000704700BF044000400C4B1A7802F0F0022F
:106AA0001A700022043B1A70083B1A7842F08002E8
:106AB0001A70C2B2063B1A70000A01331870023B0A
:106AC0001A7842F001021A70704700BF144000406B
:106AD000024B1A7842F004021A70704700430040DB
:106AE000024B1A7802F0FB021A7070470043004014
:106AF000024B1A7802F0FE021A70704710420040F2
:106B0000014B01221A707047F6460040044B00F01A
:106B10001F021B68103253F8220043F822107047FE
:106B200008ED00E000F01F0000F16040490100F5B1
:106B30006440C9B20170704770B50446FFF794FE17
:106B4000164B06461A78013B1B780CB1EAB9E3B93B
:106B5000134B1D78062D02D80720FFF797FF44B985
:106B6000104B20461A7842F040021A70FFF794FF4B
:106B700007E02046FFF790FF0A4B1A7802F0BF02A9
:106B80001A702846FFF782FF02E02046FFF784FFD5
:106B90003046BDE87040FFF76BBE00BF07400040C5
:106BA0000440004008400040024B1B795843FFF767
:106BB00053BE00BF28E1FF1F10B5044604E0D868AB
:106BC000FFF74AFEA4F50044B4F5004F034BF6D896
:106BD00098686043BDE81040FFF73EBE28E1FF1F04
:106BE000F7B5214B8DF807001A7842F001021A70B0
:106BF00008B9074636E01D4B18201E7880331D78F3
:106C000002331C7800F0ECF91EE0174B1B780423CC
:106C100008E0012000F00CFA0128FAD19DF80630B6
:106C2000013BDBB28DF806309DF806301F46002B85
:106C3000EFD10D4B1B7813F0800F0AD09DF8073071
:106C4000013BDBB28DF807309DF80730002BDCD11B
:106C5000102716F0040F01D1FFF742FF044B1D70FF
:106C600002331C703846FEBD104200400043004015
:106C70008043004070B5134B1A7842F010021A702E
:106C8000F0B1A03B1E7816F0040601D1FFF720FFFB
:106C90000D4B0E4A1C781578197801F0FC0119701B
:106CA0000021117001221A70012000F0C1F90028A2
:106CB000FAD00EB9FFF714FF044B1D7002331C709D
:106CC00070BD00BFA04300408243004080430040AD
:106CD000F8B5174B1A7842F001021A7008B9074646
:106CE00023E0144B18201E7880331D7802331C7863
:106CF00000F076F90AE0104B1A7812F0010F05D077
:106D00001B7813F0010F01D0002705E0012000F0EF
:106D10008FF90128EFD1102716F0040F01D1FFF7EA
:106D2000DFFE064B1D7002331C703846F8BD00BFF5
:106D30002042004000430040254200408043004084
:106D40002DE9F04FDFF8B091624B99F80020DFF8A1
:106D5000ACA15A729AF80020DFF8A4819A7298F8D0
:106D60000020DFF8A0C1DA729CF800205A4F1A7395
:106D70003A785A4E5A733278594D9A732A78594C48
:106D8000DA73227858481A74027858495A740A7883
:106D90009A74574A92F800B0023283F813B092F80E
:106DA00000B0023283F814B092F800B0023283F8D7
:106DB00015B092F800B0063283F816B092F800B021
:106DC000023283F817B092F800B0013283F818B09D
:106DD00092F800B0013283F819B092F800B0023294
:106DE00083F81AB092F800B0023283F81BB092F820
:106DF00000B0023283F81CB092F800B0063283F87B
:106E00001DB092F800B0023283F81EB092F800B0C4
:106E1000013283F81FB092F800B0013283F820B03D
:106E200092F800B0023283F821B092F800B002323A
:106E300083F822B092F800B083F823B0DFF8C8B02E
:106E40009BF8002083F82420002289F800208AF88B
:106E5000002088F800208CF800203A7032702A70E8
:106E6000227002700A7001310A7002310A70023118
:106E70000A7002310A7006310A7002310A7001315B
:106E80000A7001310A7002310A7002310A7002314F
:106E90000A7006310A7002310A7001310A7001313C
:106EA0000A7002310A7002310A708BF80020114A10
:106EB000117811F0080108D0012183F82E10137801
:106EC00003F0F7031370BDE8F08F83F82E10BDE8D0
:106ED000F08F00BF7CE1FF1F065A0040085A0040B7
:106EE0000A5A0040105A0040125A0040135A0040FB
:106EF000145A004022430040005A0040025A004009
:106F0000035A0040045A00403A5A0040314B324A7A
:106F1000597A1170997A02321170D97A013211704E
:106F2000197B01321170597B02321170997B023248
:106F30001170D97B02321170197C06321170597CA4
:106F400002321170997C01321170D97C01321170BA
:106F5000197D02321170597D02321170997D023211
:106F60001170D97D06321170197E02321170597E6E
:106F700001321170997E01321170D97E0232117086
:106F8000197F02321170597F02321170997F0632D7
:106F90001170D97F0232117093F8201001321170F4
:106FA00093F821100132117093F8221002321170FF
:106FB00093F823100232117093F8241002321170EA
:106FC00093F82E30012B04D1044B1A7842F00802BA
:106FD0001A7070477CE1FF1F005A004022430040B6
:106FE00038B5114C0546237803F0FD032370FFF7F5
:106FF0006FFD237813F0010F0C4B1A780BD0AA42C7
:1070000011D0227802F0FE0222701D70237843F026
:107010000103237038BDAA4218BF1D70024B1A78B5
:1070200042F001021A7038BD8243004080430040A4
:1070300038B50546FFF718FC064B1C78064B93F84D
:107040002F20144324EA050583F82F50FFF710FC86
:10705000204638BD904300407CE1FF1F70B50C46D0
:10706000FFF702FC2F4B05461B7813F0080654D19E
:107070002D4B1A7802F01F021A70FFF761FE2B4A9F
:107080002B4B117819712109C9B211700132117895
:10709000597104F00F01117001321178240B04F0C2
:1070A000010499711470234A117811F0070F03D16C
:1070B000012283F82D200AE083F82D60117801F079
:1070C000070183F82C10137803F0F8031370154BA5
:1070D0001A7802F0F80242F003021A701B7800BF1F
:1070E00000BF30BF124A92F82D30012B08D0114B4F
:1070F00092F82C10187800F0F80040EA01021A709B
:10710000FFF704FF0A4B094A19792846117059798B
:10711000013211709A79084B1A70BDE87040FFF780
:10712000A7BB00BF93430040834600409843004004
:107130007CE1FF1F004200409A43004013B5774AAC
:10714000774B92F8402093E80300ADF80410090C47
:10715000012A00908DF806100ED1724A4B20127849
:1071600002F007029B181B7A5843FFF775FB6E4B22
:107170001A7842F004021A70684B93F83F30012BE2
:1071800019D10020FFF72CFD684B05241B78654BB7
:10719000634A1B78C82003F00703D3181B7A5843AF
:1071A000FFF75AFB614B1B7813F0800F03D0013CB3
:1071B000A4B2002CEBD1372003F064F8574B93F8BE
:1071C0003220023AD2B2012A0CD8594A93F83A0036
:1071D0001278824201D0FFF759FC504B93F83200ED
:1071E000FFF748FC4D4B93F8342012F0400F0BD0C2
:1071F00093F8333002AAD31813F8083C032B03D1B9
:107200000820FFF7D1FB14E0444C02AA94F8333075
:10721000D31813F8080CFFF7C7FB94F8343013F0B9
:10722000400F404B1A7814BF42F0400202F0BF02F8
:107230001A703A4B93F83630012B06D13D4B187833
:1072400010F0100001D1FFF715FD344B93F83630E4
:1072500033B9384B1B7813F0100F01D0FFF714FB34
:107260002E4C94F83700FFF76FFB94F83930012B60
:1072700001D1FFF789FB294B93F838202E4B197861
:1072800001F030018A4205D0197801F0CF0141EABE
:1072900002021A70214B93F83E30012B0DD10020D1
:1072A000FFF716FD1F4B1E4A1B78FA2003F0070359
:1072B000D3181B7A5843FFF7CFFA184B93F83220B4
:1072C000012A0CD81A4A93F83A001278824201D067
:1072D000FFF7DCFB114B93F83200FFF7CBFB0F4BB2
:1072E000988F164B1A78013B1B7843EA0223984289
:1072F00001D0FFF721FC124A084B117893F83500B2
:1073000001F03F010143117093F830100D4A1170E4
:1073100093F831200C4B1A701CBD00BF7CE1FF1F9D
:1073200010A60000004200400B4000401042004008
:1073300004400040A043004000400040074000409F
:1073400000480040A1430040A243004010B55B4A02
:107350005B4C1378372003F00F0384F83030594B1F
:10736000197884F83110117801F0F00111701A7851
:1073700000221A70544B1B7803F0C00384F8353098
:1073800002F080FF514B1A7802F0070284F8332094
:107390001A7802F0400284F834201B7813F01003AE
:1073A00018BF0123042084F83930FFF7FDFA484B59
:1073B0001878434B10F0100003D0012283F83620D8
:1073C00003E083F83600FFF755FC404B1B7813F0C1
:1073D00020030ED03F4B00201A78394B02F04002B8
:1073E000002A0CBF0222012283F83720FFF7ACFAF3
:1073F00002E0334A82F83730364B31491A7802F0CE
:10740000300281F838201AB11A7802F0CF021A70CF
:107410002E4B1B7813F0100F01D0FFF7BDFA2E4B47
:10742000274A1B7882F83A3013B10020FFF72EFB71
:107430002A4B234A1B7803F0030382F8323013B13E
:107440000020FFF717FB264B1A78013B1B7843EA15
:1074500002231B4A938713B10020FFF76DFB1B4BE0
:10746000204A1B7803F00703D318187A02F00AFFAA
:107470001D4B1B7813F00102114B05D0012283F83C
:107480003E20FFF7F9F901E083F83E20174B1B7807
:1074900013F001020A4B05D0012283F83F20FFF7C9
:1074A00027FB01E083F83F20114B1B7813F0040207
:1074B000034B18BF012283F8402010BDA1430040B8
:1074C0007CE1FF1FA2430040004800400042004012
:1074D000A043004000400040044000400540004000
:1074E0000740004010A6000020420040104200402B
:1074F0000B400040054B1A7842F001021A7010331D
:107500001A7842F001021A70704700BFA24300408F
:10751000024B187800F00700704700BF824000401F
:1075200038B504460D46FFF7F3FF2E4A13889BB289
:107530009C4255D02C49097880B90BB13CB10DE083
:107540002A4B14801A7802F0BF021A7038BD274BFC
:10755000197841F040011970148038BD11F0010113
:1075600026D02348002202704FF0010C0F3080F823
:1075700000C0043002701F4A107800F07F001070C5
:107580007A32127812F0080F00D08CB91A4A1380A0
:10759000174B07221A70164B1A7812F00100FAD115
:1075A000114A92F800C00CF0FE0C82F800C018706E
:1075B0000D4B1A7812F0010F0DD00F4B002D14BF98
:1075C000032501251C80013B1D70094B1B7813F01E
:1075D000010FFAD138BD034A14801A78114319708B
:1075E00038BD00BF80400040A243004082400040C0
:1075F000014000400840004002400040054B400070
:107600001A7800F0020002F0FD0240EA02021A704D
:10761000704700BF30510040024B1A7842F001021F
:107620001A707047004E0040094A03465278012AFA
:1076300006D1074A1078012809D0002BF9D07047ED
:10764000044A107800F0010008B9002BF8D0704708
:10765000C0E1FF1F014E0040014B188800B2704787
:10766000104E0040A0F1040C10B5BCF1060F1BD861
:10767000DFE80CF0041A1A090E1A15000F2B8CBF44
:10768000204C214C08E00F2B8CBF204C204C03E0F9
:107690000F2B8CBF1F4C204C94F800C008E00F2B20
:1076A0008CBF1E4C1E4CF7E703280ED94FF0000C80
:1076B00005280AD0062808D0092806D04FFA8CFCE5
:1076C0004FEA4C1C1FFA8CFC01E04FF0000C6144A7
:1076D00089B24A43D20B0D2B92B208D8D9430F314D
:1076E0000A4101330F49DBB292B20B7002E00D4B3D
:1076F0000F2119700C4BD1B21970120A01331A7094
:1077000010BD00BF180100491C01004919010049C2
:107710001D0100491A0100491E0100491B010049D1
:107720001F0100490E4E00400C4E004038B50C4D74
:107730000C4C2B7843F003032B70237843F00303A6
:107740002370094B18700320FFF72EFA2B7803F0F3
:10775000FC032B70237803F0FC03237038BD00BFBB
:10776000F8460040F94600409258004038B52A4B90
:107770002A4D1A782A4C02F0FE021A7001331A7848
:10778000032042F004021A702B7843F002032B709E
:10779000237843F002032370224B1A7802F0FC0294
:1077A0001A7001331A7802F0F7021A70FFF7FCF929
:1077B0002B7803F0FD032B70237803F0FD03237077
:1077C000194B1A7802F0EF021A701A7802F0FE02D2
:1077D0001A7010331A7802F0FE021A701A7802F04A
:1077E000EF021A70114B1A7802F0F9021A70104B5E
:1077F0001A7802F0FE021A7010331A7802F0FE02B4
:107800001A700F3B1A7802F0FB021A7010331A78C4
:1078100002F0FB021A7038BD004E0040F8460040EE
:10782000F946004091580040AA4300407758004074
:10783000A143004038B5254B1A7842F001021A7076
:107840001A7842F010021A7010331A7842F00102CE
:107850001A701A7842F010021A701D4B1B79012B16
:1078600019D11C4D1C4C2B78032043F002032B70C4
:10787000237843F002032370184B1A7842F0030276
:107880001A70FFF791F92B7803F0FD032B70237822
:1078900003F0FD032370124B1A7842F006021A70AF
:1078A000104B1A7842F001021A7010331A7842F025
:1078B00001021A700F3B1A7842F004021A7010335A
:1078C0001A7842F004021A7038BD00BFAA43004083
:1078D00038E1FF1FF8460040F9460040915800404B
:1078E00077580040A143004070B5464B00225A70C3
:1078F0001B7A05461BBB444A0721117001321370E5
:1079000052181370414A117841F018011170404A21
:107910000A2113703F4A1370013213703E4A1170EE
:1079200001321370703101321170013213700A325A
:1079300013703A4B14221A70133A13331A70012D34
:107940005ED1374B38221A70062602331E70303A49
:1079500001331A70002401331C7001331C7017327C
:1079600001331A7002331C7001331C7001331C7018
:107970002C4B0B3A1A70093A01331A702632013334
:107980001A7001331C701F3A01331A70013201332F
:107990001A70313201331A70043201331A70013314
:1079A0001D7002331C7001331C703E3A01331A7093
:1079B000393201331A705220FFF7B8FE1A4B5822A1
:1079C0001A7001331C70533A05331A70033A0133AD
:1079D0001A7001331D7001331C70204600F0BCF892
:1079E000124B40F233321A601D203146FFF79AF8ED
:1079F0001D200F49FFF78AF80E4B4FF000521A6016
:107A000070BD00BFC0E1FF1F96580040075B0040FB
:107A100093580040885B004080580040014E004071
:107A2000004E0040845800409458004038E1FF1F49
:107A3000117B000000E100E010B50120FFF754FFCA
:107A4000102000F067F8102000F06EF802204FF4CC
:107A500010414FF400420C23BDE81040FFF702BE76
:107A600010B5074B1A7A32B95B7A0BB9FFF7E4FF0E
:107A7000034B01221A72BDE81040FFF7DBBE00BFC6
:107A8000C0E1FF1F024B1A78024B5A70704700BFCB
:107A9000004E004040E1FF1F024B5A78024B1A7023
:107AA000704700BF40E1FF1F004E004010B5FFF7D8
:107AB000F3FF084B1B78012B0AD1FFF7BBFE064BE7
:107AC0001B7813F0020F03D1BDE81040FFF7A4BDEF
:107AD00010BD00BF40E1FF1F004E004010B50A4B33
:107AE0001A7812F0010F05D01B7813F0100F01D097
:107AF000012200E00022054B1A70FFF737FEBDE8B7
:107B00001040FFF7BFBF00BFAA43004040E1FF1F86
:107B100070470000034B00F0F8001A7802431A7017
:107B2000704700BF02410040034B00F0F8001A7894
:107B300002431A70704700BF8A40004008B5002019
:107B400002F042FA012002F03FFA024B4FF0FF32FE
:107B50001A7008BD44E1FF1F10B50446FFF7EEFFA1
:107B6000204602F021FA014B1C7010BD44E1FF1FBA
:107B700008B5002002F0FCF9012002F0F9F9024BEF
:107B80004FF0FF321A7008BD45E1FF1F10B50446E3
:107B9000FFF7EEFF204602F0CFF9014B1C7010BD3D
:107BA00045E1FF1F054B1A7842F002021A701033AC
:107BB0001A7842F002021A70704700BFA2430040D8
:107BC000024B187800F00700704700BF8640004065
:107BD00038B504460D46FFF7F3FF2E4A13889BB2D3
:107BE0009C4255D02C49097880B90BB13CB10DE0CD
:107BF0002A4B14801A7802F0BF021A7038BD274B46
:107C0000197841F040011970148038BD11F002015B
:107C100026D02348002202704FF0020C0F3080F86B
:107C200000C0043002701F4A107800F07F0010700E
:107C30007E32127812F0080F00D08CB91A4A1380E5
:107C4000174B07221A70164B1A7812F00100FAD15E
:107C5000114A92F800C00CF0FD0C82F800C01870B8
:107C60000D4B1A7812F0020F0DD00F4B002D14BFE0
:107C7000032501251C80013B1D70094B1B7813F067
:107C8000010FFAD138BD034A14801A7811431970D4
:107C900038BD00BF84400040A24300408640004001
:107CA000014000400840004002400040024B1A786A
:107CB00042F002021A707047706400400A4A0123C1
:107CC00013600A4A117801F0DF011170203A12782E
:107CD000074A117801F0FD011170064A1360064B46
:107CE00010221A70704700BF80E100E088640040F5
:107CF0007064004080E200E08DE6FF1F154B70B518
:107D000000241C70012518331D70FEF7ADFD124BC9
:107D10001A7842F010021A70FEF7AAFD0F4B0F22DC
:107D20001A70073A10331A700D4B20461D6005215A
:107D3000FEF7F8FE0B492046FEF7E8FE0A4B10223C
:107D40001A7000F04DFA00F059FABDE8704000F0EA
:107D50003FBA00BF7064004098640040296400404E
:107D600080E100E0917D00008DE6FF1F10B5064C1C
:107D700023781BB9FFF7C2FF01232370FFF796FF9B
:107D8000024B01221A6010BDCCE1FF1F00E100E0B0
:107D900038B5834B1C78834B1A7812F0400F00F0F3
:107DA000F78014F0010F00F0DC801B78453B052BB9
:107DB00000F2D780DFE813F006005C00D500D500A4
:107DC0000600A30004F0DF0404F00A03082B2AD104
:107DD000744B1A78452A1ED1734A12787AB1734AC5
:107DE00012681178724A11700621963A117006399C
:107DF000E63211706F4A01311170462294E06E4AEA
:107E0000127812F002022AD06C4A117841F00A016D
:107E10001170602296E06A4A02211170E63202393E
:107E200011704A2280E00A2B40F09B80634B1A7845
:107E300042F0A0021A70604A127812F002020ED0CC
:107E4000584A1878117801F00801002914BF092157
:107E50000A210143197060231370012274E0594B09
:107E6000197841F0200119705221183B19705AE01D
:107E700014F002012BD14F4B4B4A187812789042E4
:107E80000ED24A4A18781268805C494A1070963AB5
:107E900006201070E63211701A780132D2B243E037
:107EA000454B1B7813F0020504D0444B1A7842F07E
:107EB0000A0244E000F0B0F9424B1A7842F0200286
:107EC0001A705222183B1A703F4A157049E03A4B1B
:107ED0001B7813F00201394B03D01A7842F09A0252
:107EE0002DE0384A107840F020001070183A5220E7
:107EF0001070E63211701A7842F0900214E0334BA1
:107F0000334A2B4819781268007888541A7801325D
:107F1000D2B21A701A782F4B1B789A4206D2284B8D
:107F200002221A70023AE6331A701AE0224B1B78CA
:107F300013F002010BD0214B1A7842F009021A709B
:107F4000184B60221A705F3A234B1A6009E01D4BF0
:107F50001A7842F020021A701222183B1A701A4A3C
:107F6000117014F0200F19D0144A0E4B10781978A4
:107F700001F00801002914BF012102210143117001
:107F8000104A117801F0DF01117010221A7038BD0B
:107F90001A7812F0100F01D110221A7038BD00BFEC
:107FA000686400408DE6FF1F98E6FF1F94E6FF1F00
:107FB0000665004090E6FF1F99E6FF1FA2E6FF1F3F
:107FC000706400408864004056650040A0E6FF1FD2
:107FD0009CE6FF1FA1E6FF1F80E100E010B5194BF2
:107FE0001A78102A01D0022010BD174A127812F018
:107FF000100F01D0012010BD0124A040134AC0B2CF
:10800000146011B12043492200E045221A70104B40
:108010006FF07D021870963B1A707E32E6331A704C
:10802000094B1A7812F0010FFAD01B7803F00A03FB
:108030000A2B01D0002010BD024B10221A70032021
:1080400010BD00BF8DE6FF1F6864004080E100E0C6
:1080500006650040174B1B7813F0040F01D1022076
:1080600070474000C0B2144B19B140F001004922E2
:1080700000E045221A70114B32221870963B1A709C
:10808000323AE6331A700B4B1B7813F0010FFAD11A
:10809000084B1A7812F0010FFAD01B7803F00A038C
:1080A0000A2B01D000207047034B10221A700320C6
:1080B000704700BF686400408DE6FF1F0665004002
:1080C0000D4B1B7813F0040F01D1022070470B4BAE
:1080D00052221A70523AE6331A70074B1B7813F08B
:1080E000010FFAD1064B10221A70034B1B7813F0C4
:1080F000210FFAD00020704768640040706400408F
:108100008DE6FF1F134B1B7813F0040F01D10220E3
:108110007047114B06221870963B1A70063AE633E8
:108120001A700C4B1B7813F0010FFAD10B4B46223F
:108130001A70084B1A7812F0010FFAD01878074B12
:1081400010F0020002D160221A70704760221A708B
:108150000320704768640040066500408DE6FF1FFD
:10816000174B02461B7813F0040027D0154B1978E3
:1081700049290CD101311970134B48391970023952
:10818000E63319700E4B1B7813F0010FFAD10C4B2C
:108190001B7813F0010FFAD00C4B18785AB1022259
:1081A000963B1A70023AE6331A70054B1B7813F0AF
:1081B000010FFAD17047034B60221A70704700BF5D
:1081C000686400408DE6FF1F706400400665004053
:1081D000024B002218781A70704700BFA2E6FF1FFA
:1081E000044B00221A70044B1A7802F0FE021A7037
:1081F000704700BFA0E6FF1FA2E6FF1F044B00224E
:108200001A70044B1A7802F0FD021A70704700BF12
:1082100090E6FF1FA2E6FF1F70470000044B00F02E
:1082200001001A7802F0FE0240EA02021A7070475A
:10823000C0510040024B187800F00100704700BFA9
:10824000C1510040054B40001A7800F0020002F0D6
:10825000FD0240EA02021A70704700BFC0510040A0
:10826000024B1878C0F34000704700BFC151004076
:10827000044B00F00E001A7802F0F10240EA02020C
:108280001A707047675000400D4B01221A705A70E7
:108290009A70DA700B4A002313700B4A13700B4A62
:1082A00013700B4A13700B4A13700B4A13700B4A6E
:1082B00013700B4B03221A70833A203B1A707047DD
:1082C00054E7FF1FCEE6FF1FCDE6FF1FC9E6FF1FE5
:1082D000CCE6FF1FB4E6FF1FCBE6FF1F48E7FF1FFA
:1082E000286000401B4B1A7802F07F021A700A3394
:1082F0001A7802F0FB021A70174B1A7802F0FE028D
:108300001A7010331A7802F0FE021A70134B4FF4F1
:1083100000021A604FF080721A6008221A609218E8
:108320001A6010321A6020321A6040321A608032AD
:108330001A604FF400721A60094A00231370094A48
:108340001370094A1370094A1370094A1370094AD5
:108350001370704708600040A543004080E100E0D2
:10836000CDE6FF1FC9E6FF1FCCE6FF1FB4E6FF1FE7
:10837000CBE6FF1FCDE1FF1F034B187800F0FB0297
:108380001A70C0F38000704709600040014B1878F4
:10839000704700BFCDE6FF1F034B1A78104612B19D
:1083A000002218781A707047CCE6FF1F024B0C228F
:1083B00002FB003358787047D8E6FF1F431EDBB23C
:1083C000072B01D9002070471B01064ADBB2985CDD
:1083D00001329B5C00F0070043EA0020023880B2C3
:1083E000704700BF0C600040431EDBB2072B30B566
:1083F0003BD81E4D4FF00C0C0CFB0055B5F806C0D9
:108400001B011B4C1FFA8CFCDBB2CCF5007C1C1949
:10841000624503D9EA88C2F5007292B2134D4FF05B
:108420000C0C0CFB005595F803C0124D4CEA122CB5
:1084300003F805C05FFA82FC013503F805C059B1A5
:108440004FF0000C04E011F80C500CF1010C2570F9
:108450001FFA8CF59542F6D3044A0C2101FB00204B
:10846000002242704179044A995430BDD8E6FF1F7A
:10847000886000400C6000400E600040431EDBB28C
:10848000072B0AD8054A0C2101FB0020002242706C
:108490001B014179024ADBB299547047D8E6FF1FAD
:1084A0000E600040F8B5431EDBB2072B04460D46B4
:1084B000164616D8A9B11B010B4FDBB2DF19FFF727
:1084C0007DFFB04238BF0646B6B2002302E03A78DC
:1084D000EA5401339AB2B242F9D32046FFF7CEFFF5
:1084E00000E000263046F8BD886000400138C0B288
:1084F000072801D9002070470001034BC0B2C05CBF
:1085000000F01000704700BF0E600040024B18786A
:10851000800900F0010070471151004008B5204B60
:1085200001221A705A709A70DA701E4B4FF40002D2
:108530001A604FF080721A6008221A6092181A604E
:1085400010321A6020321A6040321A6080321A608B
:108550004FF400721A60144B00221A7009B90222FB
:1085600000E00322114B1A70114B124A18700023BD
:108570001370114A01201370104A1370104A1370BF
:10858000104A1370104A1370104B03221A70833A6A
:10859000203B1A70FEF760F90D4B04221A7008BDDB
:1085A00054E7FF1F00E100E0CEE6FF1F0960004036
:1085B000C8E6FF1FCDE6FF1FC9E6FF1FCCE6FF1F81
:1085C000B4E6FF1FCBE6FF1F48E7FF1F286000400F
:1085D000126000402DE9F041FEF746F94C4B0126B0
:1085E0001A78022542F001021A7010331A78494CA9
:1085F00042F001021A70484B07461E70943B1D70F2
:1086000007331A78002002F07F021A70FEF7CCFAC6
:108610002378304603F0F9032370404B1A7802F0B8
:10862000DF021A70237833432370FEF7BDFA282047
:10863000FEF7BAFA3A4B28461A7802F07F021A700F
:108640001A7802F0BF021A7023782B432370FEF7CA
:10865000ABFA2378334A43F00403237000231370EA
:10866000921913703846FEF703F917202E49FEF7CA
:108670004DFA17200621FEF755FA15202B49FEF773
:1086800045FA15200621FEF74DFA18202849FEF775
:108690003DFA18200621FEF745FA26490320FEF789
:1086A00035FA03200621FEF73DFA04202249FEF7A1
:1086B0002DFA04200621FEF735FA05201F49FEF7A2
:1086C00025FA05200621FEF72DFA06201C49FEF7A3
:1086D0001DFA06200146FEF725FA07201949FEF784
:1086E00015FA07200621FEF71DFA08201649FEF7A5
:1086F0000DFA08200621FEF715FA09201349FEF7A6
:1087000005FA09200621BDE8F041FEF70BBA00BFCB
:10871000A5430040944300409D600040126000402B
:10872000F8510040846000401D8E0000198E00004A
:10873000D18B0000698C0000A18C0000D98C000056
:10874000198D0000598D0000998D0000D98D000011
:1087500070B5074E054633780C461BB9FFF73AFF54
:108760000123337028462146BDE87040FFF7D6BE8E
:10877000CDE1FF1F054B1A782AB1054A127812B9CC
:1087800018781A7070470020704700BFA6E6FF1FD8
:10879000CEE6FF1F014B1868704700BFA8E6FF1F19
:1087A000034B00221A70034B1878FFF767BE00BF17
:1087B000A6E6FF1FAFE6FF1F1A4B1A7812F0800FD4
:1087C0000BD001331B78212B2AD1174B4FF0070216
:1087D0001A80164A5A6000F0ABB91B7813F0800F6C
:1087E0001ED1134B1B78202B02D0222B18D10CE06A
:1087F0000D4B4FF007021A800C4A5A600D4B1A7845
:1088000042F001021A7000F06FB90B4B1A780B4B53
:108810001A80084B1A7842F002021A7000F0B8B8B9
:108820000020704700600040BCE6FF1FA8E6FF1F65
:1088300001600040A6E6FF1F02600040A4E6FF1FA3
:10884000204B21491A8809788A1892B21A801F4B46
:1088500000221A7012E01078596800F1804011F877
:1088600001CB00F5C04080F800C05960117801319B
:10887000C9B211701A88013A92B21A80144B1A8840
:108880001AB1124A11780729E5D9104B1B781BB988
:108890000D4B1B78082B0BD10E4B1A7882F08002FF
:1088A0001A700D4B0F221A700C4B0D3A1A7004E01F
:1088B000094A02231370094A1370044B1A78024BB9
:1088C0001A7070474AE7FF1F48E7FF1F49E7FF1F7D
:1088D000BCE6FF1FCAE6FF1FB5E6FF1FCEE6FF1F7F
:1088E000074B02221A70074B823A1A70064B8F32DE
:1088F0001A70064A00231370054A0120137070474E
:10890000CEE6FF1FCAE6FF1FB5E6FF1F48E7FF1FC1
:1089100049E7FF1FFFF794BF164B174A1B7817480C
:1089200003F00F03023BDBB21370154B198812786A
:10893000521892B21A800DE0596810F801CB01F874
:1089400001CB596011780139C9B211701A88013A06
:1089500092B21A800B4B1A881AB1074A1178002973
:10896000EAD1094B1A7882F080021A70074B0B2269
:108970001A7070472960004049E7FF1F00600040FF
:108980004AE7FF1FBCE6FF1FCAE6FF1FB5E6FF1F51
:10899000064A06231370064A01201370054B6FF038
:1089A0007F021A70044B80321A707047CEE6FF1FA8
:1089B000B5E6FF1FCAE6FF1F49E7FF1F054B9A6890
:1089C0003AB19A68044910709A6809885180002267
:1089D0009A607047BCE6FF1F4AE7FF1F08B50A4BC5
:1089E0001A7832B11978094A41F0800111700022D9
:1089F0001A70074B00221A700120FFF7DFFF054BAA
:108A000003221A7008BD00BFB4E6FF1F08600040D3
:108A1000CEE6FF1FB5E6FF1F08B5054B00221A7012
:108A20000120FFF7CBFF034B03221A7008BD00BFE4
:108A3000CEE6FF1FB5E6FF1F074B1B78042B05D0C2
:108A4000062B05D0022B05D1FFF764BFFFF7E4BF6B
:108A5000FFF7C4BF704700BFCEE6FF1F08B5084947
:108A6000084B01201A8809788A1892B21A80064B9E
:108A700000221A70FFF7A2FF044B03221A7008BDF0
:108A800048E7FF1F4AE7FF1FCEE6FF1FB5E6FF1FBF
:108A900010B50B4B1B78042B07D0062B09D0022BEB
:108AA0000DD1BDE81040FFF7D9BFBDE81040FFF77A
:108AB00033BF0320FFF782FF024B03221A7010BD61
:108AC000CEE6FF1FB5E6FF1F054A4FF000031380F7
:108AD000044A916819B191680B709268538070478D
:108AE0004AE7FF1FBCE6FF1F08B50C4B04221A70B3
:108AF0000B4B843A1A70FFF7E7FF0A4B1A78013BD9
:108B00001B7843EA0222084B198889B2914288BF38
:108B10001A80064B0B221A70012008BDCEE6FF1FFB
:108B2000CAE6FF1F07600040BCE6FF1FB5E6FF1F57
:108B300010B50E4C238813B9FFF7D2FE14E00C4B8E
:108B400002221A700B4B023A1A70FFF7BDFF0A4B54
:108B50001A78013B1B7843EA0223228892B29A4298
:108B600088BF2380FFF76CFE012010BDBCE6FF1F0D
:108B7000CEE6FF1FCAE6FF1F0760004008B5114B95
:108B80001A781A701B7813F0800F02D00E4A1370F7
:108B900008BD0220FFF712FF0C4B1B7803F06003A7
:108BA000202B05D0402B06D043B900F0E5FD04E0B2
:108BB00001F08EFB01E000F02DFF10B9024B032203
:108BC0001A7008BD28600040B5E6FF1F0060004035
:108BD00008B5204B1B7813F0100F39D013F0800F1D
:108BE0000BD003F00F03012B32D1FFF7C7FF1A4B55
:108BF0001B7813F0800F0BD008BD13F0400F02D08C
:108C0000FFF71AFF04E013F0200F21D0FFF740FF19
:108C1000104B1B7813F0800F1AD1104B104A1B78A1
:108C2000127842EA03030F4A1370127893420FD16D
:108C30000949084B0A78187810F0800F04D10A7897
:108C40001A701A7802F00F02034B1B789A42EFD188
:108C500008BD00BF28600040B5E6FF1FCAE6FF1F41
:108C600049E7FF1F296000400A4B1B780A4B1A7B1B
:108C700002F00302012A03D0DA7B82F08002DA7369
:108C8000054B01225A73054B1A7802F0FE021A7046
:108C9000704700BF0E600040D8E6FF1F0B60004029
:108CA0000A4B1B780A4B1A7E02F00302012A03D0FA
:108CB000DA7E82F08002DA76054B01225A76054B85
:108CC0001A7802F0FD021A70704700BF1E60004063
:108CD000D8E6FF1F0B6000400C4B1B780C4B93F841
:108CE000242002F00302012A05D093F8272082F005
:108CF000800283F82720064B012283F82520054BAC
:108D00001A7802F0FB021A70704700BF2E60004014
:108D1000D8E6FF1F0B6000400C4B1B780C4B93F800
:108D2000302002F00302012A05D093F8332082F0AC
:108D3000800283F83320064B012283F83120054B53
:108D40001A7802F0F7021A70704700BF3E600040C8
:108D5000D8E6FF1F0B6000400C4B1B780C4B93F8C0
:108D60003C2002F00302012A05D093F83F2082F054
:108D7000800283F83F20064B012283F83D20054BFB
:108D80001A7802F0EF021A70704700BF4E60004080
:108D9000D8E6FF1F0B6000400C4B1B780C4B93F880
:108DA000482002F00302012A05D093F84B2082F0FC
:108DB000800283F84B20064B012283F84920054BA3
:108DC0001A7802F0DF021A70704700BF5E60004040
:108DD000D8E6FF1F0B6000400C4B1B780C4B93F840
:108DE000542002F00302012A05D093F8572082F0A4
:108DF000800283F85720064B012283F85520054B4B
:108E00001A7802F0BF021A70704700BF6E6000400F
:108E1000D8E6FF1F0B60004070470000024B0122A4
:108E20001A70FFF731BA00BF71E1FF1F10B5174C80
:108E30004FF000032380164B18780138C0B200F0C1
:108E40006FFA144B1A7801331B7800EBC300032B25
:108E500041691AD81048013AC35C01EBC303596851
:108E6000D3B2022B11D80D4B01EBC2001B7811F8C5
:108E700032209A4209D30C225A4341688B18586811
:108E80008A5A9B6860602280A36010BDBCE6FF1F09
:108E9000CDE6FF1F03600040B8E6FF1F0260004000
:108EA00008B50D4B18780138C0B200F039FA0B4BF9
:108EB0000B491B7800EBC3004269CB5C02EBC30398
:108EC0005B68DB69597813F8022B42EA0121054AF5
:108ED0001180536008BD00BFCDE6FF1F0460004055
:108EE000B8E6FF1FBCE6FF1F08B50B4B187801382A
:108EF000C0B200F015FA094B09491B7800EBC3001A
:108F00004269CB5C02EBC3035B685A6A054B11787C
:108F100019805A6008BD00BFCDE6FF1F0460004005
:108F2000B8E6FF1FBCE6FF1F10B53E4B3E4A1B785C
:108F3000117811F0800F36D001321278013A052AEB
:108F40006ED8DFE802F01017286D6D03374B1A78E2
:108F5000212A02D1FFF7C8FF07E01B78222B5FD13F
:108F6000FFF79EFF01E0FFF761FF314B1B88002BED
:108F700056D00CE0032B53D82E4A1278002A4FD13A
:108F80002B4A4FF0010111802B49CB185360BDE8EB
:108F90001040FFF7CDBD032B42D8254A4FF0010109
:108FA00011802649F1E7127812F0800F38D1244A57
:108FB0001278092A05D033D30A2A0CD00B2A2FD1D4
:108FC00021E0FFF733FF1A4B1B88002B28D0BDE8A8
:108FD0001040FFF789BD032B22D8164A127810469D
:108FE000002A1DD1114A14491278CA54154ACC5C82
:108FF00012F803C0644501D2D0540DE0D05C0128C2
:109000000AD9C95C07E0032B0AD80A4A117801295A
:1090100006D81178094AD154BDE81040FFF7B8BC12
:10902000002010BD0460004000600040036000406C
:10903000BCE6FF1F026000404CE7FF1F54E7FF1F24
:109040000160004050E7FF1F014B1B78704700BFD5
:109050008F4500402DE9F041FDF706FC294F804681
:109060003B78294D13F0800F37D00126274B2E7007
:109070001A78274C02F07F021A700020FDF794FD49
:109080002378002003F0F90323703B7803F07F037B
:109090003B70FDF789FD1F4B30461A7832406A70ED
:1090A0001A7802F0FE021A70FDF77EFD2378304632
:1090B00003F0FE032370184B1A7842F020021A7056
:1090C000164B1A7802F0FE021A7010331A7802F06A
:1090D000FE021A70FDF768FD01E000232B70404688
:1090E000FDF7C6FB0E490C20FDF710FD0C200621F4
:1090F000FDF718FD0B4A4FF4805313600A4A1360C2
:10910000BDE8F08108600040D0E1FF1F1060004022
:10911000944300400960004012600040A5430040B5
:109120004990000080E200E000E100E0024B1B7883
:109130000BB100F085B87047CDE6FF1F70B5FDF7A5
:1091400093FB244D06462B78002B3ED0224B4FF448
:1091500080521A60214B224C1A78282042F00102DA
:109160001A7010331A7842F001021A701D4B1A78E7
:1091700042F001021A70237843F001032370FDF7D7
:1091800013FD194B6A781978002041EA02021A701F
:10919000FDF70AFD2378022043F002032370FDF758
:1091A00003FD2378032243F0040323700F4B0120B7
:1091B0001A70203B1A7842F080021A70FDF74CFBBF
:1091C0000B4B04221A70FFF7B1FF3046BDE8704028
:1091D000FDF74EBBD0E1FF1F80E100E0A54300405A
:1091E000944300409D6000400960004028600040BA
:1091F00012600040037810B5012B1ED94378032B71
:109200001BD10022013B15E002F1924101F5807172
:1092100091F800C009494FEA1C140C5D0CF00F0CCA
:10922000C45411F80C109C1C0132E4B20433D2B2C5
:109230000155DBB201789942E6D810BD20A60000A6
:1092400010B5002301212C4A0C209A1810702B4ACB
:1092500000FB012254793CB1127912F0800F284AA8
:1092600008BF08209A1803E0254A6FF07F009A187B
:109270001070224A4FF00C0C0CFB0122B2F808C00F
:1092800020481FFA8CFC18184FEA1C2C80F800C0EC
:10929000B2F808C01C485FFA8CFC181880F800C0AF
:1092A000B2F806C019485FFA8CFC181880F800C0A4
:1092B000B2F806C016481FFA8CFC18184FEA1C2C8E
:1092C00080F800C0B2F806C012485FFA8CFC18188B
:1092D00080F800C0D28801310F4892B2C9B2181884
:1092E000120A103309290270DBB2ACD10B4B4FF0DC
:1092F000FF321A7010BD00BF80600040D8E6FF1F2B
:109300000E6000400C6000400D6000408660004030
:109310008760004084600040856000400A60004033
:10932000044B1A78044B03EBC2035B6803EBC003E6
:10933000D8687047C8E6FF1FC4B20000F8B53D4BBF
:109340001A78002A74D018780138C0B2FFF7E8FF05
:1093500090F808C0C4684FEACC0C002066E0235C9B
:10936000354A3649D55CC95C8D425ED02118D25C45
:109370004D78954259D1324A1278934255D1CD78E1
:109380008A7805F00305012D14BF0025012512F090
:10939000800F02F07F032B4A09D00C2606FB032224
:1093A0000B3E5670002D14BF07250D2508E00C2636
:1093B00006FB03220C3E5670B54214BF0525092555
:1093C00055715A1E1201204DD2B2551901262E7028
:1093D0000B365E431B4D8F8873191F818F781F7169
:1093E000C97871550021D9701D891849ADB251183D
:1093F0002D0A0D701D891649EDB251180D70DD88CA
:109400001449EDB251180D70DD881349ADB25118F1
:109410002D0A0D70DD881149EDB251180D70DB88F1
:109420000F499BB251181B0A0B700830604596D14A
:10943000F8BD00BFCDE6FF1FB8E6FF1F44E7FF1FE2
:1094400004600040D8E6FF1F0E6000400C60004042
:109450000D600040866000408760004084600040EE
:109460008560004008B5064B18780138C0B2FFF798
:1094700057FF43681B7900EBC300406908BD00BF7C
:10948000CDE6FF1F2DE9F14F00214FF00C0C0CFB36
:1094900001FC6B4C00230CEB040201310CF804308E
:1094A000092902F1080493705370D370537113812A
:1094B000A370EAD148B16349634A0B7013704B70D3
:1094C00053708B709370CB70D370604B1A78002AF6
:1094D00000F0B38018780138C0B2FFF721FF43686D
:1094E000DB7913F0400F5A4B1A7814BF42F0010297
:1094F00002F0FE021A70057AC468002601214FEAC4
:10950000C508002068E0221892F802C00CF07F0E17
:10951000734560D14A4F4FF00C0E0EFB0377B7F83E
:1095200008A0B2F804E01FFA8AFAF24538BFA7F89B
:1095300008E014F800E0434F17F80EE0577877453D
:1095400049D1D778DFF8F8A007F0030EBEF1010F7C
:1095500014BF4FF000094FF001094FF00C0B1CF045
:10956000800F0BFB03AA16D0B9F1000F14BF4FF008
:1095700007094FF00D09ABF10B0B8AF801B08AF81F
:10958000059092790A2A01D0022A1AD1BEF1030F5E
:1095900017D0304A14E0ABF10C0BD94514BF4FF093
:1095A00005094FF009098AF801B08AF80590927907
:1095B0000A2A01D0022A04D1BEF1030F01D0264AA3
:1095C00011704FF00C0E0EFB03F31D4A03EB020E5D
:1095D0008EF804C09F540830404506F1010392D133
:1095E0000131C9B209291E4689D1ED0000230CE0E2
:1095F000E2189278124802F07F024FF00C0C0CFB3C
:109600000202E15C083291700833AB42F0D1FFF7FF
:1096100029FF124B186000231A46094901330C2018
:1096200000FB0311CA8009895218082B92B2F4D1A9
:1096300001B0BDE8F04FFFF703BE01B0BDE8F08F09
:10964000D8E6FF1FB8E6FF1F44E7FF1FCDE6FF1F68
:10965000CBE6FF1FB0E6FF1FAFE6FF1FD4E6FF1FFC
:1096600010B50C4B1C780C4B18780138C0B2FFF7C2
:1096700057FE43681B79A3420AD9032C08D8074B2D
:10968000074A195D01201155064A12781A5510BD76
:10969000002010BD04600040CDE6FF1FB8E6FF1FAC
:1096A00044E7FF1F02600040194B1B7803F07F0363
:1096B0005A1ED2B2072A01D90020704715480C2142
:1096C00001FB03039878120100F0FE00987000205F
:1096D000D8701148D2B212F800C00CF07F0C02F81A
:1096E00000C0587800F0FD00587018795B7810F0D1
:1096F000800F03D0012B18BF0D2104E0012B01D1F5
:10970000082100E00921054BD154FFF741B900BF02
:1097100004600040D8E6FF1F0C6000400E6000406F
:10972000124B197801F07F014A1ED2B2072A01D9E3
:10973000002070470E4B0C2000FB0133997812017A
:1097400041F0010199700021D9705978D2B241F0ED
:10975000020159701B7913F0800F064B14BF6FF094
:1097600072016FF07601D154FFF712B90460004026
:10977000D8E6FF1F0E60004010B5754B4FF0000299
:109780001A80744B1B7813F0800F734B1B7800F01A
:1097900093800A2B00F23181DFE813F05C002F0187
:1097A0002F012F012F012F010B002F017E002F0110
:1097B00084006A4B1A78012A0BD1694B1A78694BDD
:1097C00003EBC2035B685A68614B5A604FF01202A8
:1097D0000FE01A78022A11D1634B1878FFF7A0FD29
:1097E0005B4B42685A605A68D1785A68927842EA6C
:1097F00001221A80BDE81040FFF79AB91B78032BAD
:1098000024D15A4B002203E0197801325B18D2B2FE
:1098100055490978914202D919780029F4D1524A60
:10982000117851B152491278097C914205D1514BBE
:1098300051481B78FFF7DEFC4F4B1A78002A00F0E6
:10984000DC801978424A11805360D3E7BDE81040AC
:1098500000F03EBD3F4B1A7812F0030211D0022AED
:1098600040F0CB803A4904330A801B78434A03F026
:109870007F030C2000FB03239A78414B1A700022CF
:1098800007E033494FF002030B803E4B18783C4B06
:1098900018705A704B60ADE72D4B4FF001021A80E3
:1098A000394A07E02A4B4FF001021A80374A3849FB
:1098B00012788A185A609DE7013B0A2B00F29D80BE
:1098C000DFE813F02C009B0070009B000B009B0056
:1098D0009B009B000F009B001900234B1A782D4B17
:1098E00079E0214B01201A78274B1A702A4B187007
:1098F000FFF7C8FD7DE0FFF7B3FE00287DD0234BC6
:10990000264C1B7801222370234B1A70FFF716FD9B
:1099100023781F492278895C214A69E00D4B1B7826
:1099200003F00303012B58D009D3022B65D10E4B52
:109930001B78002B61D1BDE81040FFF7B5BE0A4B84
:109940001B78012B59D10F4B1A7802F0FD0242E02F
:10995000BCE6FF1F00600040016000400360004063
:10996000C8E6FF1FC4B200000260004018B100004A
:1099700080B00000D4E1FF1F48E1FF1FD8E6FF1FC1
:1099800058E7FF1FCBE6FF1FCDE6FF1F0460004036
:10999000B8E6FF1FB4E6FF1FCCE6FF1FC9E6FF1FB6
:1099A00044E7FF1F164B1B7803F00303012B14D071
:1099B00009D3022B21D1134B1B78002B1DD1BDE8FD
:1099C0001040FFF7ADBE0F4B1B78012B15D10E4B8E
:1099D0001A7842F002021A700BE00C4B1A78032A34
:1099E0000BD81B780A4A0748D15C007821EA0001AD
:1099F000D154BDE81040FEF7CBBF002010BD00BF22
:109A00000060004002600040CBE6FF1F04600040A1
:109A1000D0E6FF1F10B5064B1B7813F0800F1CBF5C
:109A2000044B1B78FCF72CFABDE81040FFF780B818
:109A30000060004001600040034B40221A703F3A32
:109A4000043B1A70704700BFFA460040014B0222E7
:109A50001A60704700E100E0014B02221A60704773
:109A600080E100E0054B1878054B00F07F00DA78C4
:109A70001AB1002240F08000DA7070476464004040
:109A8000D5E1FF1F10B5FFF7E7FF0C4B19785A78A7
:109A9000914205D19C78002C14BF8024002408E05A
:109AA00019785A785C7891421B7828BF803CE41A78
:109AB000E4B2FFF7CBFF204610BD00BFD5E1FF1F8A
:109AC000014B04221A60704700E100E0014B0422C0
:109AD0001A60704780E100E0124B9B79114A52797D
:109AE000934205D2511E8B4214BF0021012104E094
:109AF000991A7F2914BF002101210029EED19A4231
:109B000007D1094A127812F0040F02D1074B1870DE
:109B100070475AB223EAE273054AD054014A01332E
:109B200093717047D5E1FF1F6264004042640040BA
:109B300060E7FF1F70B5074B04461B790E463BB12B
:109B40000025605D0135FFF7C7FFEBB2B342F8D3E4
:109B500070BD00BFD5E1FF1F10B5FCF785FE0A4BB5
:109B60001A7842F001021A701A7802F0FE021A7096
:109B7000FCF77EFEFFF7AAFF044B00225A719A7190
:109B8000BDE81040FFF79CBF92640040D5E1FF1F85
:109B900010B5FCF769FE0B4B1A7842F001021A70FF
:109BA0001A7802F0FE021A70FCF762FEFFF754FF0B
:109BB000054B00221A705A709A70DA70BDE8104096
:109BC000FFF744BF90640040D5E1FF1F10B5FCF7DC
:109BD0004BFE0C4B04461A7802F0DF021A700A4B57
:109BE0001A7802F0EF021A70FFF736FF074B1A7867
:109BF00002F0EF021A70FFF769FF2046BDE810403F
:109C0000FCF736BE976500409464004092640040C3
:109C100010B5FCF729FE0C4B1A7842F020021A709E
:109C20000A4B1A7842F010021A70094B02221A608D
:109C3000084A117841F01001117004221A60BDE841
:109C40001040FCF715BE00BF9765004094640040CB
:109C500000E100E09264004008B510490120FCF7E3
:109C600055FF01200421FCF75DFF0D4B72221A7095
:109C70000C4B523A1A700C490220FCF747FF0220A5
:109C80000421FCF74FFF094B07221A7041321033B1
:109C90001A70463A4C331A7008BD00BFCD9C0000C4
:109CA0008765004084640040399D000026640040C0
:109CB00010B5054C23791BB9FFF7CEFF01232371A3
:109CC000BDE81040FFF7A4BFD5E1FF1F1FE0134A16
:109CD000134B1B781178134AD154134B1B7813B1D3
:109CE000124B01221A700E4B1A780132D2B21A703E
:109CF0001A7812F0800F01D000221A70084B1A78DF
:109D00000B4B1B789A4202D1074B01221A70094B68
:109D10001B7813F0200FDAD1704700BF4064004079
:109D2000D6E1FF1FE0E7FF1FD7E1FF1FD8E1FF1FCC
:109D3000D5E1FF1F646400400D4B19780EE01878E0
:109D400010F0800F18BF1A700A4B0B481A78805C0D
:109D50000A4A10701A780132D2B21A70054B1A787A
:109D60008A4204D0064A127812F00402E7D0704703
:109D7000DBE1FF1FDAE1FF1F60E7FF1F42640040E5
:109D800062640040054B80001A7800F0040002F085
:109D9000FB0240EA02021A70704700BFC051004047
:109DA000054BC0001A7800F0080002F0F70240EA04
:109DB00002021A70704700BFC0510040024B1B687E
:109DC000C3F88400704700BF08ED00E04001024B7B
:109DD000C0B21870704700BF11E400E0024B4FF4AE
:109DE00000321A60704700BF00E100E0024B4FF400
:109DF00000321A60704700BF80E100E010B5FFF745
:109E0000F5FF0248BDE81040FFF7D8BFE16700004A
:109E100010B5FFF7EBFF0548FFF7D0FF0720FFF76E
:109E2000D5FFBDE81040FFF7D9BF00BF319E00004D
:109E3000024B01221A7000F031B800BF78E1FF1F19
:109E4000074B1A7842F001021A7010331A7842F068
:109E500001021A70034B1A7842F001021A7070471F
:109E6000A3430040004F0040074B1A7802F0FE0267
:109E70001A70064B1A7802F0FE021A7010331A7824
:109E800002F0FE021A707047004F0040A3430040EA
:109E9000014B1870704700BF034F0040014B18780A
:109EA000704700BF034F0040014B1880704700BF50
:109EB000044F0040014B1880704700BF064F004020
:109EC00010B5154BAE201A7802F001021A70023359
:109ED0001A7802F0FC021A7009331A7802F0CF02E5
:109EE0001A701A7842F030021A701A7802F0F002F2
:109EF0001A701A7842F00F021A700A3B1A7842F070
:109F000001021A70FFF7D0FFAE20FFF7D3FF082041
:109F1000BDE81040FFF7BCBF004F004010B5054C36
:109F200023781BB9FFF7CCFF01232370BDE8104055
:109F3000FFF786BFDDE1FF1F012815D80B4B40005E
:109F4000C0B253F82020C11892F800C0097C01303B
:109F50004CEA0101C0B2117053F82020C3181178E7
:109F60001B7C41EA03031370704700BF30A600005A
:109F7000012815D80B4B4000C0B253F82020C1185F
:109F800091F810C01178013021EA0C01C0B21170B3
:109F900053F82020C318197C137823EA01031370A7
:109FA000704700BF30A60000012809D8054A02EB1F
:109FB00080035B6980181978027F41EA02021A70F7
:109FC000704700BF30A60000012809D8054A02EBFF
:109FD00080035B698018017F1A7822EA01021A70F7
:109FE000704700BF30A6000000F09EB970B572B691
:109FF0007A4B01221A707A4B4FF00301794A19808B
:10A000001823137040F237110232118019240232E2
:10A0100014704FF031010232118002321370724B12
:10A0200040F2DF121A8002331C707049042270481B
:10A03000FFF7DAFF6F4B06221A706F4B4C321A7023
:10A040006E4B40F618011A786D4B00251A706D4B57
:10A0500041F251021980023B1A806B4B4FF4F070B1
:10A060001E78FCF7F9FB013C07D006F0010646EA32
:10A07000450505F00305032DEFD1644A4FF48073C5
:10A080001380634907231370073B0B70482002318C
:10A0900008701370053213705E4B02221A7092180A
:10A0A0000A331A705C4B5D4C1A7804F12A0542F0B1
:10A0B0000F021A70013B1A7842F001021A70013B3C
:10A0C0001A7842F080021A7060782178237941EA88
:10A0D0000021A078627941EA0041E07843EA022257
:10A0E00041EA00600634002100F0E6F9AC42EBD111
:10A0F000002319464A4AD05890325FFA80FC20F07B
:10A10000FF0E02EB4102604607E012F8024C12F823
:10A11000015C013804F80E50C0B202320028F4D1BC
:10A120000433902B6144E5D13E4B40F2032119806A
:10A130003D4B3E4C1A783E4842F002021A701033F2
:10A140001A783C4942F002021A70237843F0400327
:10A150002370394B1A7842F010021A700822FFF768
:10A1600043FF0A2235483649FFF73EFF0A223548A9
:10A170003549FFF739FF082234483549FFF734FFE6
:10A180000A2234483449FFF72FFF08223348344964
:10A19000FFF72AFF334B34481A7842F008021A704E
:10A1A000324B334A1B7803F0070111701B0901324F
:10A1B0001370304B20221A70183A2D331A702E4B20
:10A1C000063A1A702D4B02321A702D4B40321A701B
:10A1D0002146363ABDE8704000F0A6B8004800407D
:10A1E00080400040824000408C40004050A600006B
:10A1F0000041004000430040004200400F01004980
:10A20000A146004022420040254200400440004058
:10A210000640004001400040A243004054A6000018
:10A2200080A600004C58004003500140A04300406D
:10A230000251004044B00000C2430040C051004001
:10A240004CB00000F051004058B0000012510040E6
:10A2500064B00000205100406CB00000325100405A
:10A2600078B0000022430040B0430040CF010049D5
:10A270006E580040D35A004042580040A743004067
:10A280007658004010B50446FCF7EEFA102C06D8BC
:10A290000E4B1A7802F03F0242F0400210E0212CEF
:10A2A00006D80A4B1A7802F03F0242F0800207E01B
:10A2B000064B322C1A7894BF42F0C00202F03F02E3
:10A2C0001A70BDE81040FCF7D3BA00BF0048004048
:10A2D000114B1B7803F00303012B03D0022B04D096
:10A2E00000230CE00D4B1B7809E00C4B0C4A1B784B
:10A2F0000C2103F07F0301FB032308339B78094AF9
:10A300001268D35C022B05D0032B01D000207047CC
:10A31000FEF70ABEFEF750BA00600040046000403D
:10A32000D8E6FF1FD4E6FF1F032A2DE9F0070BD85C
:10A330003AB1002311F803C000F803C0013393427F
:10A34000F8D1BDE8F007704782180C46034603E0D9
:10A3500014F8011C03F8011C03F003061946A44677
:10A3600001330134002EF3D11CF00304634608BF0F
:10A37000C1EB020C68D06542C4F1040A0CEB05077E
:10A3800033464FEACA0A5CF805604FEAC408551A1A
:10A3900008E057F8044F264604FA0AF449EA040490
:10A3A000CC5004335C18032D26FA08F9A5F10405F6
:10A3B0000CEB0306EDDC002302E0F15CE154013319
:10A3C00019199142F9D3BCE753F8404C41F8404C7D
:10A3D00053F83C4C41F83C4C53F8384C41F8384C5D
:10A3E00053F8344C41F8344C53F8304C41F8304C6D
:10A3F00053F82C4C41F82C4C53F8284C41F8284C7D
:10A4000053F8244C41F8244C53F8204C41F8204C8C
:10A4100053F81C4C41F81C4C53F8184C41F8184C9C
:10A4200053F8144C41F8144C53F8104C41F8104CAC
:10A4300053F80C4C41F80C4C53F8084C41F8084CBC
:10A4400053F8044C41F8044C1C460D46403340314F
:10A45000BCF13F0FACF1400CB6DC21462B46541B3F
:10A460000FE051F8105C43F8105C51F80C5C43F8B5
:10A470000C5C51F8085C43F8085C51F8045C43F844
:10A48000045C0F2C0D469C4601F1100103F11003F2
:10A49000A4F11004E5DCCCEB0201002303E0EC584E
:10A4A0004CF8034004335E19032903EB0C04A1F1BB
:10A4B0000401F4DC7FE700BF032AC9B230B407D837
:10A4C00022B10023C15401339342FBD130BC704709
:10A4D00000EB020C034601E003F8011C03F0030447
:10A4E0001A460133002CF7D14FF00133C2EB0C04B4
:10A4F00003FB01F31FE042F8403C42F83C3C42F8C9
:10A50000383C42F8343C42F8303C42F82C3C42F8AB
:10A51000283C42F8243C42F8203C42F81C3C42F8DB
:10A52000183C42F8143C42F8103C42F80C3C42F80B
:10A53000083C42F8043C154640323F2CA4F140044C
:10A54000D9DC2A46C5EB0C0407E042F8103C42F87F
:10A550000C3C42F8083C42F8043C154610320F2CE3
:10A56000A4F11004F1DC2A46C5EB0C0501E042F829
:10A57000043C14460432032DA5F10405F7DC01E088
:10A5800004F8011B6445FBD3A0E700BF08B500F049
:10A5900017F8074800B10068064901B109680022B0
:10A5A000FAF7FCFB044B0BB1AFF30080FEE700BFF2
:10A5B000000000000000000000000000FEE70000B6
:10A5C00070B54BF2D8264BF2D825C0F20006C0F287
:10A5D0000005761BB61006D0002455F8243001344F
:10A5E0009847A642F9D84BF2D8254BF2E026C0F2A4
:10A5F0000005C0F20006761B00F068FEB61006D01B
:10A60000002455F8243001349847A642F9D870BD8B
:10A6100002010300040506000C061803303E4A0040
:10A620003031323334353637383941424344454688
:10A63000D45A0040244300401D510040585B004064
:10A6400008008008035B0040035B004040400000BE
:10A65000C7001801004F00400C004051004030007E
:10A6600000000140001000140140000800400140BB
:10A67000000A004C01400002005001402000000090
:10A6800001450040024F0040075200400464004072
:10A69000026500405C000140350101405F0201405D
:10A6A0005903014055040140510501406106014034
:10A6B0005907014054080140410901400A0B01407B
:10A6C000070D014006150140551601405217014083
:10A6D0000E190140031B014006400140104101409A
:10A6E0000D4201400B43014002440140044501403A
:10A6F00008460140104701400C4801400A4901400A
:10A70000074C0140074D01400950014003510140F1
:10A710007E0201300A3604F00C4014131C0C6082D7
:10A7200061817C40290F3908820F843826048772A2
:10A73000001402490308053D07C2081F09400B1D0C
:10A740000C010D920E260F6011E2141F1501190164
:10A750001C0A1E511F02210D27FF295D2BA22D046B
:10A760002FE030073460361837FF3E103F40403549
:10A77000410642044402460C47E0482449FF4AFF90
:10A780004BFF4C624DA04EF04F41500C52F6580416
:10A7900059045A045B045C015D015F016640670275
:10A7A00069106A306B106D106E106F128001820696
:10A7B000830487018A1390089302941296019703E9
:10A7C0009A139C019E32A208A613A701AB01AC0903
:10A7D000AE04B007B220B307B410B608BA02BB0883
